:020000041101E8
:10010000F7B5164B0192C318021D002000938823F7
:100110005B05D3181B685C1C1AD09CB2402C18D805
:100120008D781E0CAC466746CD782D023D43AE421D
:1001300006D1019800280ED110000C70240A4C70D2
:1001400003249BB20733A343D218009B9A42DED309
:10015000FEBD4432F9E71000FAE7C046FC0F00008C
:10016000802213B503000324019189B252010731A3
:100170009B18A14304305A1A88235B05C3181B68D7
:10018000591C03D190429241104016BD99B24029AA
:1001900007D80B000733A343C0189042ECD30020CC
:1001A000F3E74430F9E7134B134A1B68126810B5A4
:1001B000F424934201D81A00F024104BA4021B68C7
:1001C0009A4210D813000E4A12689A420ED3013395
:1001D00007D1F0239B029C4203D10A49054808F04D
:1001E00023FF200010BDF824A402ECE7FC24A402A5
:1001F000F7E7C04600C0031100D0031100E003116F
:1002000000F00311FFFFFF7FF0B59BB015000490D5
:100210000391402A00D9A0E006AB59801A80FFF76D
:10022000C2FF0400042816D9002206A9FFF768FFC0
:10023000052810D906AB1B88AB420CD1002D07D086
:10024000514B2A000499C01809F0AEF9002802D1D8
:1002500001201BB0F0BD06AB1D8020000699FFF702
:100260007FFF041E7BD1069B0793FFF79CFF802333
:100270005B01C61880230700DB029E4201D3F026F3
:10028000B60288235B05F31801931B68013302D083
:10029000019808F069FF3D49019808F0C5FE3B1D33
:1002A0000293331D05938822029B52059B181B68FD
:1002B00008935A1C3CD044219AB20091402A04D899
:1002C0000320D11D814389B2009103991B0C8B42FD
:1002D00024D0402A22D80122300008A9FFF710FFBD
:1002E000021E1BD1380008A9FFF70AFF04000428EA
:1002F00031D9009A059B9B1880225201B218934273
:1003000040D288235B05C118009A09A808F01CFF99
:100310001D4B009A09A9F01808F06EFF009A029B85
:100320009446634402931A4B029AFB189A42BAD33A
:1003300088235B05FC1821680198013908F074FED8
:10034000200008F011FF039A07AB5A80300007998C
:10035000FFF706FF0400002C03D1002079E70428F2
:10036000FBD988235B05E018069908F05DFE03239E
:10037000EA1C9A4300D16BE7034B0499E01808F09C
:100380003BFF65E70424ECE704000011FFFFFF7F5B
:10039000F80F0000F7B505001400402A21D8002707
:1003A00001AE71803780FFF7FEFE042816D93A00AF
:1003B0003100FFF7A5FE042810D93688BC420BD0C7
:1003C000BD4209D0221CB44200D9321C064B92B265
:1003D000C118280008F0B8FE30B2FEBDC04300B21C
:1003E000FBE703204042F8E70400001137B5042280
:1003F00004000D0001A81649FFF7CCFF02000428F5
:100400000BD1019BA34208D3AB4204D0104901A8F1
:100410000195FFF7F9FE01203EBD0E4C2368200038
:10042000019308F0A1FE019920000139019108F023
:10043000FBFD80235B01E418074B9C42EED10422B4
:10044000034901A80195FFF7DFFE0020E4E7C0465D
:100450005555000000C00311000004118022F8B5BA
:10046000964C974BD200002120001C6008F05CFEE7
:100470002300944A88331A60934B1A786A23002A1F
:1004800000D01133E3620A232365904B37221B7897
:100490000820A3638E4B2118E361102323628D4B48
:1004A0003B256361C823DB00A36123008C331A6002
:1004B0002823013AE26320646364CA67043A211D79
:1004C000CA672100BC310D602100C03108602100E5
:1004D000C4310B6021000635CC310D602100083D90
:1004E000C8310D602100D0310A602200D432106082
:1004F0002200D832136022000227E0322100176068
:100500004222DC310A6021001B3DE4310D602100F4
:10051000E83108602100EC310B6023000521F43341
:1005200019602300F0331A602300183290331A60E8
:1005300023009433186023001E3A98331A60AF23C7
:10054000DB002360644BFA262363644B644DE36055
:10055000644BF031A3642300FF31FC33B600A1608B
:1005600021611E60A5627325E5656D3D6565A56524
:1005700096255D4AAD00E264666258606766A566CE
:1005800000270925A767E566584F594D6067200089
:100590002567E2673A6015279C30676007001A20DC
:1005A00038602000A0300700212038602000A830EB
:1005B00007004C4838602000F830066026006427A9
:1005C000A436376026005F3FAC3637602600033F15
:1005D000B03637602600C637B436376026000027AD
:1005E000B836376038269E60424E96205E64424E92
:1005F0005A66DE61414E9A645E62F53EFF3E9E623F
:100600001E269A67354A8000DE661F675F67DD65D4
:100610001D661862DA67BE23394A5B00E250394B27
:10062000D838235004302250C4225200A350C6238D
:10063000E4205B00E1500433334AE1503349344B4A
:10064000D1603449800019503349E938FF381950D6
:1006500032490430195032493248D161324911636C
:10066000324951631900F4310860CE20304940000E
:1006700011603049195019002F48F83108602F498E
:10068000D16582212E4A89005A501A002D4908321C
:10069000D1671A002C49B432116088212B4A890095
:1006A0005A501A002A49883211602A4ADA6408F03E
:1006B00083FE012008F0F0FEF8BDC0460004FF1FD5
:1006C0003063FF1F606EFF1F4041FF1F4A0AFF1F7C
:1006D0003A07000080C3C9019A020000DC0500004F
:1006E0006A18000050C3000088130000F009FF1FC3
:1006F000204E00006509FF1F68100000C4090000BB
:1007000040420F0010270000FC00FF1FC11BFF1F0D
:100710000000FF1F152CFF1F9D2FFF1F352EFF1FF1
:10072000811FFF1F7126FF1F9D1FFF1F4921FF1FF4
:100730000D1FFF1F9528FF1F7D29FF1FD918FF1FC1
:10074000A127FF1FC524FF1FD124FF1F0D1EFF1F60
:10075000C51EFF1F851DFF1F0223F0B50124634D39
:10076000634E2B70634B34701A68634B89B004205E
:100770005A7007F03DFA08F067FEFFF76FFE08F0C9
:10078000C3FC1F2200215D4B1E271A705C4B6F4477
:100790001C705C4B19705C4B19689143163A0A4304
:1007A0001A60602219689143403A0A431A6008F0BF
:1007B00083FC08F009FD554B9847C120FF21544B9D
:1007C00080001A588A431A50C522920098588843CC
:1007D000BF390143995098584E4908408021C901BA
:1007E0000143802099509958C0050902090A014324
:1007F000995080214848490108F00EFC032322004B
:10080000464901940093464808F0E6FE1622454901
:1008100002A808F099FC02AC61782078023406F056
:10082000E5FDA742F8D1404C404B226803201A4016
:10083000A023DB0213432360802322689B0413431D
:10084000236022683A4B1A4080239B0313432360A2
:10085000384A394B934200D8012008F075FE08F061
:10086000D3FD80232268DB0413432360287808F03B
:10087000F3FB3078C0B208F0D7FE08F02DFD2F4909
:10088000042008F0E1FC06F0A9FF07F0F5FB00F0FA
:10089000D3FF01F07BF82A482A4907F093FA2A4B44
:1008A0002A4819782A4B32781C782A4BC9B21E780C
:1008B000D2B22B780196009407F084FA08212648DA
:1008C000264A07F07FFA8023A12225489200234977
:1008D0005B0107F077FA234B2348196807F072FA97
:1008E00000F022F9002009B0F0BDC0464A0AFF1FFF
:1008F0004041FF1F34F00040CC60FF1F480AFF1F3B
:10090000490AFF1F680AFF1FBCF00040E1A2000077
:1009100000E100E0FF00FFFF4441FF1FC853FF1F3D
:100920004451FF1FD59F011114F00040FF7FF8FFD5
:10093000FFFF9FFF0080FF1F606EFF1F3B0001084D
:1009400058960111020101034B0AFF1F6E96011117
:10095000440AFF1F450AFF1F9C960111780A0000F8
:10096000CC960111800AFF1F209701117047704734
:1009700030B503A804880B20002C0ED14968074D20
:1009800008784978090201430A20A94205D10121CA
:1009900020001980024B1B7A137030BD192A000009
:1009A000B460FF1FF7B5150008AA16884A680F4FF4
:1009B00014785278120222430A24BA4214D1012236
:1009C000DBB2019200962A0008F08CFA041E0BD1CB
:1009D000074B1B68002B07D068782A780002104369
:1009E00042425041013098472000FEBD02290000DC
:1009F000485EFF1F30B5012503790400BFB02B42CC
:100A000011D00A49408807F0D9FD28420BD0084B85
:100A100001A95B8D4D800B80064B00221B7A6088FC
:100A20000B7103F05FFD3FB030BDC046405EFF1F5D
:100A3000283EFF1FB460FF1F10B50549054807F0A9
:100A400073FD0421044A054807F030FD10BDC0467F
:100A5000405EFF1FFFFF0000EC9F0111283EFF1FBB
:100A600010B5024804F01CFC10BDC046F509011188
:100A700001230370054B1A7A42700C2282709A7916
:100A8000C270DB79037105207047C046B460FF1F58
:100A9000022310B50370013B43700533837010339C
:100AA0000371443B43712A3383714433C371002380
:100AB0000372064B04001B8843720A30FFF7D8FF0D
:100AC000831D0A30C0B2E37010BDC046B460FF1F82
:100AD00010B5142008F0F8FB124B14220021186006
:100AE00008F022FB002008F087FA012008F05CFCE7
:100AF000022008F009FC032003F01AFE042005F090
:100B0000B1FE052003F04EF8062003F025FD072076
:100B100001F0B6FA082007F0A9FC092001F05AF804
:100B200010BDC0464C5EFF1F08F016FB012008F008
:100B300023FD08F069FD032382B054280ED84343F7
:100B4000DAB2D0430023C0B2FF210A4008401202AB
:100B50000B401B041043184302B07047A92806D865
:100B600055384343DBB2DA430020D2B2ECE75630CB
:100B70005843C0B2C3430022DBB2E5E713B52638C1
:100B8000C0B211280FD80A4A0A4B115C0A4A1B5CF2
:100B9000125CFF2423401800214009022240120465
:100BA0000843104316BD002211001300F1E7C046B0
:100BB00042A0011154A0011130A0011137B5002449
:100BC0000325019028006043044B0322C01801A9AB
:100BD000013408F0B9FA202CF4D137BD2860FF1F8A
:100BE00010B50C220249034800F000FC10BDC046BD
:100BF000585EFF1F8860FF1FF8B51D0006AB16008A
:100C00001A8807AB1F784B68597818780B4B090284
:100C100001430A20994210D10130002A0DD1FFF77B
:100C2000DFFF3C1C0C2F00D90C24E4B22200300062
:100C3000034908F089FA00202C80F8BDD4FF000099
:100C4000585EFF1F094B10B50400984205D00129DA
:100C500004D12000064907F067FC10BD0229FCD131
:100C6000013904F0DBFA0028F3D0F6E7FEFF0000BC
:100C7000505EFF1FF0B5050A070CC0B285B00C002E
:100C80004843FF2108F050FC86B2E8B2FF216043E0
:100C900008F04AFC85B2F8B2FF21604308F044FC3A
:100CA0007643FE36FF2184B2B0B208F03DFC6D43BE
:100CB000FE35FF21061CA8B208F036FC6443FE3462
:100CC000FF21051CA0B208F02FFCFF231D401E4091
:100CD0002D0218402E430004304305B0F0BD000043
:100CE000F0B5CDB01C0052AB049015000E201F884B
:100CF000002911D0002A0FD04B681A785B781B02AC
:100D00001343CD4A934209D1012204980192E3B2E0
:100D10002A00009708F0E6F84DB0F0BDC74A0A2057
:100D20009342F9D10130002FF6D10230142CF3D8C0
:100D300022002900C24808F007FA2100C14807F044
:100D400041F82100280007F0ABF9BF4E220029002E
:100D5000300000F0EAFA040001282DD1BB490498C4
:100D600007F02CFC204080B2002804D1B84807F0DE
:100D700029F80020D0E73900F2220FA808F0D4F9B2
:100D8000FFF72EFF0C2202ABDA86B24910A808F05A
:100D9000DBF9B14B02AA1B880FA9938604983A008D
:100DA00003F0A0FBAD4C0100B0797379327800906C
:100DB000200007F007F8DCE7002805D0A84821004C
:100DC00007F000F88020A7E7FFF70AFFA54B1B6894
:100DD000002B00D185E0A44B20211800049300F0E3
:100DE00061FC3378002B5FD07379180025381C28FC
:100DF0005AD808F051FA3400850085008500850036
:100E0000850085008500B500B500B50001014501EC
:100E10004501450145014501450145016301590071
:100E200059005900590059005900590059001D0036
:100E3000B2780EAB1A70F2785A7032799A70717873
:100E40000E98FFF717FF0FAB020418700002120E86
:100E5000000E5A7098700F98FFF7B0FE24E000243F
:100E6000824B0FAD0593059AE30010780327C01855
:100E7000C0B2FFF760FE2870030400021B0E000ED4
:100E80006B70A87071782868FFF7F4FE6743049BC5
:100E9000049AD85503040002D7191B0E000E013422
:100EA0007B70B870202CDED1C025714C6D002021E4
:100EB0002B0022006C4800F020FC0100A84210D159
:100EC000200000F0BDFB6B4B01001C6801341C606E
:100ED000002800D110E10022624B67481A6006F03A
:100EE00071FF34797378727931780394F4786348B8
:100EF0000294B4780194B479009406F063FF38E763
:100F00005A490A78097849B2002924DB5200D5B23F
:100F10001800FFF733FE0FAC2070030400021B0E15
:100F2000000E6370A0707078FF21684308F0FCFA2F
:100F300080B24043FE30FF2180B208F0F5FAC1B222
:100F40000F98FFF797FE0304207000021B0E000E9F
:100F50006370A0707FE7FF25AD1A6D00EDB2D7E793
:100F60002D2B3BD000252E2B3DD1D13318000493DF
:100F70003E4B1A781B785BB2002B38DB5200D7B29D
:100F8000FF23DB1B9BB2FF215843059308F06CF84D
:100F9000302202AB9B181870059B7D435C43FF21F8
:100FA000601908F061F8312202AB9B1818700498A0
:100FB000FF21784308F058F8322202AB9B181870D2
:100FC00071780E98FFF756FE0DAB18700204000200
:100FD000000E120E5A7098700D983DE70023FF2501
:100FE00004932800C4E7FF2428000494C0E7FF23EB
:100FF0009B1A5B00DFB2C3E71C4B1878030700D5D0
:1010000052E7C000C0B2FFF796FD0CAB18700204A7
:101010000002120E000E5A70987071780C98FFF74B
:1010200029FE0BAB187002040002000E120E5A705B
:1010300098700B9810E7C04602290000D9FF000005
:10104000645EFF1F329701118860FF1F505EFF1F13
:1010500059970111585EFF1FB63EFF1FA09701115F
:10106000E9970111A45EFF1F2860FF1F805EFF1F2C
:10107000A85EFF1F7C5EFF1F199801119098011157
:10108000254A1278120700D50EE71800FFF776FD03
:101090000AAB187002040002120E000E5A7098700B
:1010A00071780A98FFF7E6FD09AB18700204000298
:1010B000000E120E5A7098700998CDE62420164B37
:1010C0001B781B095843C0B2FFF735FD08AB1870F9
:1010D00002040002120E000E5A709870717808987F
:1010E000FFF7C8FD07AB187002040002000E120ED5
:1010F0005A7098700798AFE60120084972796143E9
:10110000C14107483378814200D9EAE62100054809
:1011100006F058FEE5E6C046805EFF1F295C8FC2E0
:1011200051B81E055F98011110B50E4800F0CCF9BA
:101130000021072006F040FA0221072006F056F9A8
:101140000021032006F038FA0221032006F04EF9B0
:101150000021042006F030FA0221042006F046F9AE
:1011600010BDC046825EFF1F73B5072006F01EF952
:101170000400032006F01AF901250600042006F0F9
:1011800015F96C406E40E2B24540104CEDB22000C3
:101190000F49F3B2009500F09FF9002801D0FFF746
:1011A0001FFD0C4B1B68002B06D00B4A1388013324
:1011B0009BB2012B01D8138073BDC02100234900CD
:1011C0000648138000F03CFAF6E7C046825EFF1F37
:1011D0008860FF1FA45EFF1F785EFF1FA85EFF1FD1
:1011E000F7B5374C200000F08FF80023354AE37044
:1011F0001370354A23711380202241336270DF322D
:10120000A2706371FFF7ECFC3049314807F08CF9AC
:10121000304803F085FF304800F0C6F943424341AF
:101220002E4D2F4E2B60002800D12E4E00F028FAB4
:10123000040000F031FA070000F028FA0300264A03
:10124000009301923B0022003100274806F0BAFDCE
:101250002B68002B20D00021244B0A001800012409
:101260001A705A709A700A291CD85C7001310333C5
:101270002029F5D1C0241E4E64002300320000F066
:101280003CFA0700A04213D139001A4806F09AFD33
:101290003900300000F0D4F90621174A174807F04A
:1012A00005F9FEBD142901D81C70DFE79C70DDE74D
:1012B00000232200390012482B6006F083FDEBE783
:1012C0008860FF1F805EFF1F785EFF1F505EFF1F5C
:1012D000FFFF0000450C0111C0C62D00A45EFF1FDA
:1012E000D3980111D0980111D89801112860FF1FDF
:1012F000A85EFF1F2699011168A001116C3EFF1F17
:101300008A9901117047704700280DD00123FF22F0
:1013100003707F33437000230271BE3A4271293A51
:101320008370C3708271C3717047030010B50220CF
:10133000002B0DD000290BD0032A1CD10C78EF2CE8
:1013400007D1487801284FD18B78772B00D0033014
:1013500010BD0420CC2CFBD18C78332CF8D14978EB
:10136000232903D101221A700020F1E7100024295B
:10137000EED10022F7E7072A1ED10A780420562A68
:10138000E6D18A79AA2AE3D14A79F02A0CD14A789F
:101390009A708A78DA70CA781A71FF225A70BE3A47
:1013A0005A710022DA71DFE703200F2AD0D10A79BF
:1013B0009A70DA700A79EFE704208242C8D10C787B
:1013C0001000BB2CC4D1CA78442AC1D14A7803206A
:1013D0001400253C132CBBD85A7189780A1C0029AB
:1013E00000D101229A71DCE70420B1E7030010B5B7
:1013F000002823D0081E21D000200B2A1ED96622E7
:101400000A70513A4A701A785442624123328A7003
:101410005A79CA7020220A715A79412A00D09879E3
:1014200048719A780C208A71DA78CA711B790B722C
:1014300000234B7206338B729333CB7210BD0000C6
:1014400002788A4204D00123017083700020704723
:101450008378032B18D80133DBB28370042BF5D1CA
:1014600043789342F2D04270002A05D00023838053
:10147000C38003720120EAE7037A8280C28002728D
:10148000584258414000E2E74378002BDED0838881
:101490000C4A934201D001338380037A002B07D199
:1014A00082883B2AD2D901220272C3800320CEE770
:1014B000C38801339BB20E2B01D8C380C6E700233B
:1014C000F3E7C046FFFF000010B5002803D020223C
:1014D000002107F029FE10BDF7B51E0008AB1B78F0
:1014E0000C0005001100019300283DD0201E3BD0C8
:1014F0002800FFF7A5FF0700280031000A30FFF79A
:101500009FFF0600280001991430FFF799FF0200A1
:101510000020012F04D12378380059424B41237019
:10152000022E22D107210320AB7F01330B401C493F
:10153000AB7758430B00C35C0918A3704123637158
:1015400000234E788978E6702171E3710120022A28
:1015500018D1EB7F013201331340124AEB77D35C91
:1015600063710023E3710120FEBD032EEFD1637888
:10157000202019002039C9B29F2901D81B18D8B2E0
:101580006070E3E7032AEFD1A37920211A00103A13
:10159000D2B2CF2A01D85B18D9B2A171E3E7C04615
:1015A0008AA0011186A0011170B5040088B000283E
:1015B00030D01B4B984705001A4B2100186060087B
:1015C000401907F051FD184B010098421ED919002F
:1015D000164B2800196007F047FD154E30600120BA
:1015E00005F08CFE002819D1012203AB1A736A465C
:1015F000079006AB22CB22C20E4822000E490F4BA9
:1016000005F094FD002807D0032004E00228DFD273
:101610000221DDE70120404208B070BD0220FAE758
:10162000D1A500009C60FF1FFEFF00009460FF1F1B
:101630009860FF1FCC3EFF1FFFFF16FF0001070051
:1016400007B5021E12D00B484B1E83420ED8002352
:1016500089B2009108480121019305F085FB00281B
:1016600003D1064A1368013313600EBD01204042C6
:10167000FBE7C046FEFF0000CC3EFF1F9060FF1F4F
:10168000014B18687047C0469C60FF1F014B1868EB
:101690007047C0469860FF1F014B18687047C046EE
:1016A0009460FF1F0B00002805D00321594300233D
:1016B0004118884200D17047037043708370033033
:1016C000F7E7F0B507230E27050001261D415A1E36
:1016D0000824D2B2354200D03C0005000126154155
:1016E0000822354200D03A002401023B2243DBB2FB
:1016F0000A700131FF2BE7D1F0BDF8B504001500E9
:10170000061E0AD0161E08D00C264E439E4216D83E
:1017100003274F43C719BC4201D13000F8BD29004F
:101720006078FFF7CEFF2078291DFFF7CAFF290058
:10173000A0780831FFF7C5FF03340C35EBE700262E
:10174000EBE7000070B5160004AA148805AA157806
:101750004A685078117800022A4A08438018052800
:101760004BD807F019FF03131E29343F072210003E
:10177000062C0AD8121BAA4200D92A0022491A8034
:101780003000091907F0E0FC002070BD0720112C83
:10179000FBD81222121BAA4200D92A001B491A8028
:1017A000EEE707200E2CF0D80F22121BAA4200D918
:1017B0002A0017491A80E3E70720032CE5D8042202
:1017C000121BAA4200D92A0012491A80D8E7072022
:1017D000032CDAD80422121BAA4200D92A000E498F
:1017E0001A80CDE70720022CCFD80322121BAA4271
:1017F00000D92A0009491A80C2E700220A201A806B
:10180000C3E7C046DCD5FFFFCEA00111A060FF1FDB
:10181000BEA00111B9A00111B4A00111B0A0011125
:1018200010B50D21024A034806F040FE10BDC04627
:10183000A4A00111D03EFF1F10B5084CE368002B97
:1018400008D18022064B52021B689B186360054B2F
:101850001B68236007F0F0FEA06010BDDC60FF1F76
:10186000C8F00040CCF0004070B5184A936A916A05
:101870009942FBD116498A689A421FD39A1A8B6003
:10188000144B0126186893B2D202D20E434342434E
:1018900000204C681B0A1B1912029B180E4C0A6888
:1018A0004B60551CA3420CD8002801D04B600A6045
:1018B0000A4A136008680A4B186070BD581E821AE5
:1018C000DDE7084A30009B182A00EAE700F00040F4
:1018D000DC60FF1F140AFF1F40420F00C8F00040E9
:1018E000CCF00040C0BDF0FF70B51F4C23793F2BFA
:1018F00001D93F2323711D4B22791A701878C0B289
:1019000007F0F2FD18231A491A4A0B801A4913806E
:101910000B805380A379194980200B800C21938080
:1019200001334B43164D191C0001834200D9011CA1
:101930002980D1806379002B01D101336371237A2F
:10194000012B01D8022323726279237A0D48534375
:101950000A21584307F0E8FD0B4D2860E379052B79
:1019600001D81023E37170BDD060FF1F480AFF1F2C
:10197000BA3FFF1FEC40FF1FB83FFF1FB63FFF1FDE
:10198000B43FFF1F71020000C060FF1F064B70B51F
:101990001900064A31CA31C120225A7100229A71B7
:1019A000FFF7A2FF70BDC046D060FF1FF0A001117D
:1019B0007047000070B50400013806280DD807F004
:1019C000EBFD041337571F0C59002B4806F0FAF9AA
:1019D0002A4B0221187807F01FFC294B21002948C7
:1019E0001C7006F0EFF970BD274806F0EBF9234BA9
:1019F0000821187807F090FD0022244B1A72ECE7BA
:101A000080220025214B52001A81FA22DD72204BE0
:101A10001A4E5B7A920008215A43307807F074FD21
:101A20002900307807F098FD1A4806F0CBF9D4E782
:101A3000194806F0C7F9114B0821187807F06CFD1A
:101A40001648FFF725F8124B154A9B799380154AE3
:101A5000138000220D4BDA720132FF321A81124BD1
:101A60001B78002BB9D0114A136007F065FBB4E76F
:101A70000F48DAE70F48D8E7C4990111F160FF1F5A
:101A8000F060FF1F429A0111D3990111C060FF1F3E
:101A9000D060FF1FE7990111FA990111C53FFF1F9F
:101AA000EC40FF1FB63FFF1FCC60FF1F34F000402B
:101AB000119A0111329A01110300F0B50A4D8E18E6
:101AC000B14202D152008018F0BD0C782F68240971
:101AD0003C5D0F271C700C7801313C402F683C5D49
:101AE0005C700233ECE7C046B03FFF1F10220F4B83
:101AF00010B51A700F230E4C0E492370093A063B9D
:101B00000D48637007F020FB2D2301220B490C4880
:101B10006372FFF7D1FF01220A49FFF7CDFF0122CF
:101B20000949FFF7C9FF0023037010BDF662FF1FCC
:101B3000D762FF1FCEA00111D962FF1F6709FF1FE7
:101B4000E162FF1F6609FF1F6509FF1F10B5FFF760
:101B5000CDFF084C084B207821000130C0B218702E
:101B600007F01AFB2178054A0139C9B2002006F0B6
:101B7000BBFB10BDD762FF1FF662FF1FD962FF1FBC
:101B800010B5114B1A781870002A0ED000280BD10E
:101B90000E4B1A78062A07D85423D340DB0703D507
:101BA0000B4B187801F07CFE10BD0028FCD0074BD1
:101BB0001B78012B02D0033B022BF5D8044B0121EB
:101BC000187807F029FBEFE7FA62FF1F2163FF1F78
:101BD0002263FF1FF0B5664B87B01870654806F0AA
:101BE000F1F8654806F0EEF8644806F0EBF807F007
:101BF000CBFB032262496348FFF75EFF2D240300FD
:101C000088211C70042249050130FFF755FF30235D
:101C100002220470437083705B4C5C4B2000DA87B7
:101C20005B490432FEF7B6FB062813D0200007F00C
:101C3000EBF9022809D00321200007F025FB8D23B2
:101C4000E3706E3B23711933637106222000504903
:101C5000FEF7DAFA4F4B01251B68FC335C64FFF793
:101C600075FF07234C4E4D4C3370053B23700433F6
:101C7000A370033BE3702371D233637148492A3365
:101C800048486570A37106F09DF86423464F4748A5
:101C90007979594306F096F82178A378627805910E
:101CA000A179434803916179029121790191E17809
:101CB0000091059906F086F80020FFF761FF327861
:101CC0003C4E23002900307801F0ACFD3A4A002157
:101CD0003A4B1278307801F0A5FD6422384B244C41
:101CE0001D707B7953431900284A0A31938113826E
:101CF000D18151822078202107F0D6FB012040427B
:101D000006F03EFB0120404206F0DAFBFFF788FDBB
:101D1000FEF792FE2B4806F055F801204042FFF7EF
:101D20005FFAFFF701FA80210A222078090107F003
:101D3000EBFBFA22802192004901207807F0E4FBB6
:101D4000280007F0E9F9F02000F022FF29002078B0
:101D500007F062FA207801F01FFF1B4807F06CF9CA
:101D6000FEF704FE194806F02DF807B0F0BDC04696
:101D7000F160FF1F519A01117F9A01119A9A011186
:101D80006040FF1FA060FF1F6509FF1FEC3FFF1FA2
:101D9000ADAC00003063FF1FE43FFF1FC53FFF1FD6
:101DA000D962FF1FB09A0111D060FF1FC39A0111C1
:101DB000E09A01112263FF1FF662FF1FD762FF1F27
:101DC000C862FF1F139B0111F260FF1F409B0111AE
:101DD00073B520230E000D001E40194217D04F4A44
:101DE000137A013313724E4A1368013313604D4A5C
:101DF0001368013313604C4B1A78002A04D1013266
:101E00004A481A7005F0DEFF2020684076BD0BB20C
:101E1000002B15DA464B187807F0CEFB041E0CD0C9
:101E20000378912B06D143780E2B03D1818841484A
:101E300005F0C8FF200007F04FFB80200002E4E718
:101E40000224214209D03C4805F0BCFF334B01205D
:101E50001E72FFF795FE2000D7E70824214207D025
:101E6000364805F0AFFFFFF7FFFCFEF77FFDF2E716
:101E7000CB0615D5324B33481A7AD98805F0A2FF24
:101E8000FEF775FD304B1B78002B07D1FEF7E8FD00
:101E90002E4B1B68DB0701D5FFF735FA1020B4E79E
:101EA00001240E002640214208D0294805F08AFF6F
:101EB000284800F0A9F807F067F9CCE7CB041AD559
:101EC000254B264A196801311960254B4B43E341E4
:101ED00093420DD81C4A134C1278114B0192214A9F
:101EE0002148127800921B68226805F06BFF26607B
:101EF0008020400189E780242401214202D0FFF79D
:101F000033F9A8E7042408002040214200D17DE7EE
:101F1000164805F057FFFFF7F5F99CE7C060FF1F73
:101F2000B462FF1FB062FF1FAE62FF1F6B9B011107
:101F3000F160FF1F8A9B0111B39B0111E29B01110C
:101F4000B460FF1FED9B0111FA62FF1FD060FF1FFD
:101F5000019C0111A83FFF1FEC60FF1F999999197F
:101F6000CDCCCCCCF060FF1F1C9C0111649C0111F6
:101F7000F0B51B4B1B4F1B883A8804001A4E1B4DB3
:101F800085B09A420DD832889A420AD3184B1A88E3
:101F90002B889A4205D1174A174B12881B889A4200
:101FA0001BD0052000F050FE3B8802AA1380338826
:101FB000019053802B88114D93800F4B02A91B88F1
:101FC000D3800F4B2A78188802F096FB0D4B08211E
:101FD0002878019A1C7007F027F905B0F0BDC046BB
:101FE000C662FF1FBA3FFF1FB83FFF1FB63FFF1F6C
:101FF000C462FF1FC262FF1FB43FFF1F2263FF1FA7
:10200000BC3FFF1FC062FF1F13B50C4B1C78002C98
:1020100011D1002801D00A4B18600A4A0A4B1178E6
:102020000A4A10780A4A01920A4A0092002206F0EF
:102030004BF8200016BD1124FBE7C0462163FF1FAB
:10204000BC62FF1F2063FF1F1063FF1F2263FF1F7F
:10205000FC62FF1F0063FF1F10B5064B12201B78A8
:10206000052B06D1044B13221988044B187800F075
:10207000C7FF10BD2163FF1FBC3FFF1F2263FF1F6F
:1020800010B500240122114B52421870104B1C70E5
:10209000104B1A8001F080FD04220F4B21001A70B2
:1020A0000E480C3207F0D0FA102221000C4807F03D
:1020B000CBFA07220B4B1C600B4B1C700B4B1C709C
:1020C0000B4B1A700B4B1C7010BDC0462263FF1FD8
:1020D0002163FF1FBC3FFF1F2063FF1F1063FF1F13
:1020E0000063FF1FFC62FF1FD662FF1FD562FF1F48
:1020F000BE3FFF1FD462FF1FF8B5174C06002578BE
:1021000006A814240078052D23D1B41F134FA5B2BF
:102110001824BD421DD88D1FADB2BD4219D8FA2575
:102120006D00AA4215D21D000D4F0A3DADB2BD4251
:102130000FD80C4C26800C4C21800C4900240A80BE
:102140000B4A1380FFF714FF0A4B0421187807F09D
:10215000E3F92000F8BDC0462163FF1F790C0000A1
:10216000750C0000BA3FFF1FB83FFF1FB63FFF1FAF
:10217000B43FFF1F2263FF1FF0B50BB20D0089B003
:10218000002B00DB84E1AC4E307807F015FA041E1A
:102190002DD00378A22B00D133E1D02B2CD0912B62
:1021A00022D143780E2B1FD18388A44A934211D1A8
:1021B000A34A83681278052A16D1032018567F286F
:1021C00012D0A04B1B68002B0ED05B68002B0BD0ED
:1021D000984709E09C4A934206D181689B488B78D6
:1021E0004A78097805F0EEFD200007F075F98020A7
:1021F0000002684009B0F0BD80780728F4D807F0E5
:1022000033F80800F3FF1C003C003C007300A700FB
:10221000D7006378002B0CD10121894B19708C4BAE
:102220001A78002A54D08B4B307801F0FBFA002842
:102230004ED00722824B1A704AE061780029F8D10B
:10224000E378002B0AD0844A844B1278307801F06E
:10225000E9FA60706378002BC6D0EAE7784B1B7808
:10226000022BC1D00121307807F096F80028F1D177
:102270000121307806F0D0FFECE76378002BD8D14D
:102280006F4F032807D13B78052B02D101333B70F8
:102290001EE00223FBE7724B1A88724B0293002A5E
:1022A0000BD01B78002B03D00121307806F0BCFF47
:1022B0003B78062B04D1013BE9E7029B1A70F7E754
:1022C000042B43D10121029B3078197006F0A4FF42
:1022D0005C4B1B68002B00D186E71B68002B00D1EC
:1022E00082E7574A107873E76378554F002B27D160
:1022F0000622211D5C4806F027FF62895B4B5C4982
:102300001A80A2895B4B1A80E3890B800521397002
:1023100059490A80594A1380228A594B1A80594BCD
:102320001B78012B09D11F2000F08EFCFA229200AD
:1023300042430421307806F077FF0022494B7AE7C8
:10234000312B00D075E70022464B1A7003239EE71D
:1023500006220021444807F077F90023464A042169
:102360001380464A30781380454A138007F0D4F82A
:102370000821307807F0D0F8A379083B5A4253413E
:102380002F4A03331370324B1B78002B06D0354B8A
:1023900030781A78002A06D001F082FA0122334BF5
:1023A00052421A8094E70121197006F035FFF5E7D3
:1023B0000821307807F0B0F86378002B00D013E7DD
:1023C0002D4B2F4F0293E388029A042113802B4B4D
:1023D000307803932389039A138063893B8006F046
:1023E000DBFF002800D0FFE6274B1B68002B00D145
:1023F000FAE6039902983A88098800881B6898478A
:10240000F2E64379132B00D0EEE60389012B0AD1C3
:102410001E4B1B78022B06D10821307807F07CF880
:10242000FFF71AFEE0E6052000F00EFC082102008E
:10243000307806F0F9FED7E62263FF1F051400008E
:102440002163FF1FBC62FF1F22200000869C011138
:10245000E43FFF1FC53FFF1FF662FF1FD762FF1F4C
:10246000F862FF1FFA62FF1FC962FF1FBC3FFF1F18
:10247000D062FF1FD262FF1FC662FF1FC462FF1F30
:10248000C262FF1FC862FF1FB862FF1FC062FF1F4A
:102490008020C001014200D0ABE6CB0731D5324BE2
:1024A0001B78002B1DD0314E05AC3378052B1AD18B
:1024B000023B23702E4B21001B7823722D4B1B787F
:1024C00063722D4B187801F051F9002809D00720CC
:1024D0002A4B30701B68002B03D01B68002B00D0E8
:1024E0009847012085E60E20254B06221B782549BA
:1024F0002370254B1B78637002ABC01806F024FED6
:10250000D8E7022308001840194209D0174B1B785E
:10251000052B03D11D4B188806F0EEFF022068E65C
:102520000424214203D0FFF723FD200061E60823A5
:1025300008001840194200D15CE6154B1C78012CAC
:1025400003D0022C0DD0082053E6124B124A134937
:1025500013481B881288098800880094FFF7CCFD77
:10256000F1E7FFF779FDEEE7FA62FF1F2163FF1F36
:10257000BE3FFF1FD462FF1F2263FF1FBC62FF1F0D
:10258000D662FF1FBF3FFF1FD562FF1FBC3FFF1F6B
:10259000C062FF1FB43FFF1FB63FFF1FB83FFF1FC2
:1025A000BA3FFF1F10B5034C0B000122210000F0C1
:1025B0006BFA10BD652701110B8870B506000D0080
:1025C0000224162B11D92B000322094900F05CFAD2
:1025D000041E0AD1074B2A881B88191C934200D974
:1025E000111C300089B200F0EFFA200070BDC04627
:1025F000912701113663FF1F10B54A780400013A94
:102600000B000220012A07D80A78002A04D00522EC
:102610002000024900F038FA10BDC046BF27011162
:102620000A7810B50B0004000220002A04D007220B
:102630002000024900F028FA10BDC0466B280111A5
:102640000A7810B50B0004000220002A04D00922E9
:102650002000024900F018FA10BDC046D12801112F
:1026600010B5034C0B000B22210000F00DFA10BD39
:102670000129011110B5034C0B000D22210000F0BF
:1026800003FA10BD7329011110B5034C0B000F2282
:10269000210000F0F9F910BDCD2901110A7810B51B
:1026A0000B0004000220002A04D01122200002495D
:1026B00000F0EAF910BDC046DD290111002310B574
:1026C0001322190000F0E0F910BD000010B5034C12
:1026D0000B001722210000F0D7F910BD2F2A01119D
:1026E000002310B51922190000F0CEF910BD00002A
:1026F00010B5034C0B001B22210000F0C5F910BDE2
:10270000692A0111F7B584890D0006000121002C0A
:1027100022D000238268D3561778002B1EDA0C2CA7
:102720001AD90C3CA4B2131940880093230002F07C
:1027300012FF431E984101307B06DB0F6B703F2375
:10274000013C1F40A4B22870AF70AC80002C07D0B1
:10275000B3680133AB6000210800FEBD0020EBE749
:10276000AC60F8E70B7803704B8843704B881B0A0A
:1027700083700B79C370042070470420022B06D1AC
:102780000020537811781B02009A0B431380704786
:102790000B8803700B881B0A4370022070470420CB
:1027A000009983420AD1537810781B0203430B80AF
:1027B000D37890781B02034300204B807047F8B514
:1027C0000D004B7801240021461C03702B788B42AE
:1027D00001D82000F8BD6B78B01C4F1C012B10D124
:1027E000890069184B88022233704B88B9001B0A94
:1027F0007370691806F030FE04360434A4B2F9B2DE
:10280000E4E7122359436B185A88043132705B880D
:1028100010221B0A7370691806F01EFE123612345D
:10282000ECE770B5049D14001E00052B01D80420B0
:1028300070BD637812781B0213432B80E378A27873
:102840001B02134302226B802A71211D681D063E64
:1028500006F002FEB2B22A81E92AE8D82800A11DBA
:102860000A3006F0F9FD0020E2E7002310B50A78EF
:102870009A4201D8900010BD9A008A1854880133FA
:1028800004705488DBB2240A44709488847092885F
:10289000120AC2700430EAE710B51100029C062B40
:1028A00004D004201022142B01D010BD022222716A
:1028B0004B7808781B0203432380CB7888781B026F
:1028C000034363800431601D06F0C6FD0020ECE781
:1028D00010B50C788B7804315C43E4B203702200AD
:1028E000013006F0B9FD601C10BD0420022B06D19A
:1028F0000020537811781B02009A0B431380704715
:1029000010B50C000A88023106F0A6FD208810BD23
:1029100070B504000D0004981100012B01D80420AB
:1029200070BD167852781202324302800200F132F2
:1029300055701470E125002C00D10C35023B9AB281
:102940004280AA42EBD80231043006F085FD002017
:10295000E6E70420009983420AD1537810781B02DD
:1029600003430B80D37890781B02034300204B80F5
:10297000704710B50C000A88023106F06DFD208802
:1029800010BD000070B501211E000420049C0E4003
:102990000B4218D1CB40DDB28D4214D90A49DBB2CB
:1029A000098899420FD32300EE331D70330058007D
:1029B00011184978165C0902314301332152D9B20A
:1029C0008D42F4D8002070BDE63FFF1F10B50C000B
:1029D0000A88023106F040FD208810BD10B50C7841
:1029E0008B7804315C43E4B203702200013006F0BE
:1029F00033FD601C10BD10B511000298032B01D8E7
:102A0000042010BD14785278043B12022243028045
:102A1000CA788C781202224342809AB28280EB2AD2
:102A2000EED80431063006F017FD0020E9E710B5B6
:102A30000C000B8803700B881B0A43704B88837053
:102A40004B881B0AC3708A880430063106F004FDE7
:102A5000A088043080B210BD0420012B03D10020D7
:102A60001378009A1370704710B50C000B88037030
:102A70000B881B0A43704A880230043106F0ECFCD4
:102A80006088023080B210BDF0B589B003931E4B50
:102A9000029242000700D05A019102F050F813252B
:102AA000061E2DD0029B01240370019B002B04D035
:102AB000001903999847001984B26B461B7A5BB2E0
:102AC000002B0FDA1021380002F0A8FB192500288E
:102AD00013D130003219E1B202F0F2FC051E0CD124
:102AE0000C34A4B2042304AA380005A993800696E6
:102AF000948101F0DFFD051E02D0300006F054FB8A
:102B0000280009B0F0BDC0463463FF1F70B5050052
:102B10000C0000280CD00020814209D01022200097
:102B2000044906F099FC01202B7823736B786373BA
:102B300070BDC046FCA00111F0B506000D001700E5
:102B40001C0085B002291BD00020102907D1022BC0
:102B500007D0102B03D115E00020102C08D005B0B1
:102B6000F0BD69463800FFF7D1FF2A0069460BE047
:102B700069463000FFF7CAFF22006946380004E0CA
:102B8000022BE9D12A003900300006F0F5FAE6E719
:102B9000031CF02800D9F023032008499AB2013A17
:102BA0000B80D317034006499B189B100B80D30F53
:102BB00004499B185B100B807047C046EA3FFF1F1B
:102BC000E83FFF1FE63FFF1F054B10B51B888B42F8
:102BD00005D3044B4000C152034805F0F3F810BD83
:102BE000EA3FFF1F3463FF1F999C0111014B400016
:102BF000185A70473463FF1F1722014B1A80704721
:102C00003463FF1F70B505000E2006F0BDFC041EE6
:102C100013D0D02303700023062283700749457028
:102C2000033006F019FC064B2100DA8A62811B7E14
:102C30002373044B187806F0CFFB70BD5063FF1F61
:102C40004063FF1F3A40FF1F262803D8024B400075
:102C5000C05A70470148FCE7EC3FFF1FFFFF000030
:102C600070B506000C00094D1C220021280006F05A
:102C7000EBFC074B1E70074B1C7006F09DFA0123FE
:102C8000002801D0002312202B7070BD4063FF1F6D
:102C90003A40FF1F6163FF1F70B505000D4C08002F
:102CA000E260A16010220021656006F095FA01281B
:102CB00003D11021A06802F004FE10220021280098
:102CC00006F08AFA012803D11021606802F0F9FDAC
:102CD00070BDC0464063FF1F70B5041E05D10029BA
:102CE00003D006220D4806F0B7FB0D4B1D78012DD1
:102CF00011D1002C05D102221A7006F0ADFA28007D
:102D000070BD00221A70074B1B78FF2BF7D02000F4
:102D1000FFF778FFF3E70025F1E7C0465063FF1F98
:102D20004063FF1F3A40FF1F030010B5002801D188
:102D3000002010BD00780B4A002803D15988D182A9
:102D40001B7913761378022BF2D10023984200D11D
:102D500003331370044B1B78FF2B01D0FFF752FF96
:102D60000120E6E74063FF1F3A40FF1F002911D012
:102D700000280CD04B79012803D140225242134342
:102D800003E03F221340032802D001204B7170471B
:102D90004022F4E70800FAE770B5094D01002878F1
:102DA00000280BD0074C0622200006F055FB21001E
:102DB0002878FFF7DBFF200006F06EF970BDC046F3
:102DC0006063FF1F3A63FF1F00290AD0012808D162
:102DD0003F224B799343C02B03D0403B5A4253418F
:102DE000981C704770B5174D06002B78FF2B15D037
:102DF0000A2006F0C9FB041E10D0D0230370C83B84
:102E00008370114B11491B784670C3700622043041
:102E100006F022FB2100287806F0DEFA0C4B1B7826
:102E2000012B0DD10B4B1B68002B03D09B68002B93
:102E300000D09847084B04211878084A06F064FB34
:102E400070BDC0463A40FF1F6063FF1F3A63FF1F1B
:102E50005C63FF1F8863FF1F8C63FF1F60EA000035
:102E6000014B98687047C0464063FF1F014BDB6809
:102E7000186870474063FF1F074B10B5DA68136886
:102E800001331360054B1878FF2803D08021C90156
:102E900006F0C2F910BDC0464063FF1F3A40FF1F55
:102EA000F7B50E0002F04EF9051E1CD00E4B06625F
:102EB0001F78002F00D10778AB791020019306F01E
:102EC00063FB041E0FD0D0230380C73B8370019B9C
:102ED000E91DC3700622043006F0BEFA2100380056
:102EE000E66006F079FAF7BD3840FF1F014B18780D
:102EF0007047C0466063FF1F054B002805D1054B96
:102F00001A78054B002A00D1014B18007047C046C3
:102F10005063FF1F6063FF1F3A63FF1F014B586838
:102F20007047C0464063FF1F024B1868431E98411C
:102F3000C0B270476463FF1F421E03000120152AC0
:102F400003D9FF3B5A425341D8B27047F0B51C0039
:102F500000230E0085B0039002920B70029A9342F8
:102F600001D3002019E0E55C5A1CD2B2002DF8D044
:102F7000029851198142F4DC0233DFB2A35C1800DD
:102F80000193FFF7D9FF002807D0013D019A03996B
:102F9000EBB233708A4202D1E01905B0F0BDDB1903
:102FA000DBB2DBE710B50C0002F024F903001220BD
:102FB000002B03D02100588806F0DEF910BD000078
:102FC00070B50E4D84006359002B15D0186A002887
:102FD00001D006F031F92B59586A002801D006F0CB
:102FE0002BF92B59986A002801D006F025F92859A9
:102FF00006F022F900232B5170BDC0467063FF1FFD
:103000001C4B70B504000E00150099420AD11A4BF2
:103010001B68002B01D1122070BD1B68002BFAD059
:103020009847F9E7154B994215D1134B1B68002BB4
:103030000AD01B68002B07D09847002804D1104BFA
:103040001C70104B1D70E7E729002000FFF7AAFF56
:103050000028E1D1F3E7080002F074F80028DAD084
:1030600003780320A342D7D12900300006F084F969
:10307000D2E7C046FEFF00006C63FF1FFFFF0000A9
:103080006963FF1F6863FF1FF7B50400808802F0C3
:1030900059F80025A84203D00578A08802F08EF8E0
:1030A0001C4E3378002B1FD0AB421DD11A4B280089
:1030B0001978FFF777FF002818D000233370A37921
:1030C0000820A778A688019306F05EFA011E0DD0AD
:1030D000D0230370CA3B8370019B47708680837145
:1030E000280006F079F901E0002DE8D1A0880B4B0B
:1030F0008200D358002B01D0FFF762FF1721A08870
:10310000FFF762FDA08801F057FDA08801F062FE84
:10311000F7BDC0466963FF1F6863FF1F7063FF1F31
:10312000F0B587B01D000CAB1B88070001930DABF9
:103130001B88142002930EAB1B88160003930FAB61
:103140001B880091049310AB1B88059306F01CFAB2
:10315000041E1AD0D0230370CB3B47708370C67017
:10316000062229000430002D11D006F075F9019BCC
:1031700021006381029B0098A381039BE381049B50
:103180002382059BA37406F027F907B0F0BD06F073
:103190005BFAECE7F7B5009308AB1B8807000C203F
:1031A0000D001600019306F0EFF9041E13D028005D
:1031B00001F0C8FF00280FD00078D0232370C93B4E
:1031C000A370009B21002381019B6770A580E6808E
:1031D000638106F001F9F7BD014B1878EDE7C046B1
:1031E0003A40FF1F13B5040064890389C2888188AF
:1031F000C0780094FFF7CEFF13BD000010B5044C5B
:103200002068002803D006F017F80023236010BDC3
:103210007463FF1FA122F0B5818892004A43384BA6
:10322000384F1B6804009B189D2292009B188279DE
:1032300089B01A603B68002B5FD01D78324B1B6849
:10324000002B04D05B68002B01D00020984726009B
:1032500008363100E079FFF7B7FD237DE071020009
:10326000E0780493638A29000393238A0293E38915
:103270000193A38800933300FFF752FFE378002BFC
:103280000BD1E289A379A18802920196E279280004
:103290000092012201F060FFE0703B68002B20D01B
:1032A000FFF7ACFF194D287800281AD0184B197871
:1032B000FFF778FE002814D02B78E67808200793D3
:1032C000A78806F061F9011E09D0D0230370CA3B1C
:1032D0004670837087808671079806F07DF800231A
:1032E0002B701721A088FFF76FFCA08801F064FC09
:1032F000A08801F06FFD09B0F0BD064B9DE7C04608
:103300003409FF1F7463FF1F8863FF1F6963FF1F7A
:103310006863FF1F3A40FF1FF8B5070008000E0062
:1033200001F010FF041E18D02620FFF78DFC051EAB
:1033300000D12578062006F027F9041E0DD00021C3
:10334000062206F081F9D0232370C23B210067706A
:10335000A370A680E8B206F03FF8F8BDF0B585B0DE
:1033600001930AAB1B78070002930BAB1B78080094
:103370000D000092039301F0E5FE061E22D01020FE
:1033800006F002F9041E1DD01022002106F05CF99F
:103390002620FFF759FC002800D13078D023237075
:1033A000C13BA370009B21002372019B6770637275
:1033B000029BA580A372039BC0B2E3720C9BE360E7
:1033C00006F00AF805B0F0BDF7B50D00019001F068
:1033D000B9FE071E20D00E2006F0D6F8041E1BD022
:1033E0002620FFF731FC061E00D13E78D023238033
:1033F000C53B0622A370F91DE01C06F02DF8019BC9
:103400002A0063810123DD401A401D402100227300
:103410006573F0B205F0E0FFF7BD0000F0B585B0D0
:10342000029010000D0017000A9E039301F08AFE1F
:10343000041E31D0029B002B2ED1039B02795B0727
:1034400024D5122313430422002E08D10B990029FE
:1034500005D10C99002902D10D9900291AD01A43DF
:103460000D9B2271002B00D0C9E0002E00D1CFE0CF
:10347000002D00D0CCE0606A002801D005F0DCFE11
:103480001C21300005F048FF606205E002239A43EA
:103490000E33D7E793432371654BBA00D458002C01
:1034A00000D1AAE0002E10D0236A002B03D11C20EB
:1034B00005F00AFF20625E4BBA00D358186A002854
:1034C00003D01C22310005F0C7FF0C9B002B12D04B
:1034D000574CBB001D596B6A002B03D1162005F019
:1034E000F3FE6862BB00E358586A002803D0162236
:1034F0000C9905F0B1FF0D9B002B11D04C4DBC0079
:103500006659B36A002B03D1142005F0DDFEB062CA
:103510002B59986A002803D014220D9905F09CFFBE
:10352000380001F00FFE051E67D0414BBA00D3589A
:10353000002B62D01A6A3420002A00D11C389A6A03
:10354000002A01D0143080B20B9A002A01D01C301E
:1035500080B25B6A002B01D0163080B206F014F8FE
:10356000041E4AD01822002106F06EF82620FFF72C
:103570006BFB0190002801D12B780193D02323709D
:10358000029B200063700A23294EA370039BBD0099
:10359000A371AB59A780196A1830002905D01C22E5
:1035A000A06005F059FF200034307359996A002952
:1035B00007D0030014221433E060029305F04CFF9F
:1035C00002980B9B002B08D003001C221C330B9984
:1035D0002061029305F040FF02987359596A00294F
:1035E00003D01622606105F037FF6B462100187981
:1035F00005F0F2FE3800FFF7E3FC05B0F0BD102245
:103600000D9B0D991B69A018236205F025FF2CE77F
:103610000B9B002B00D13FE7012D00D03CE7606AF7
:10362000002801D005F008FE1C210B982AE7C046AF
:103630007063FF1F10B5044C2068002803D005F00C
:10364000FBFD0023236010BD6463FF1F0B4B07B518
:103650001A68002A01D100200EBD6946531C0120C2
:1036600012780731FFF772FC0028F4D002780123AA
:10367000100018401A42EED0EEE7C0468063FF1FEC
:10368000F0B51F4F01203B6887B0002B25D09B78F9
:10369000059300F0DDFB002821D00A20FFF7D4FAC3
:1036A00004000B20FFF7D0FA164B05001E78731E9E
:1036B0009E413B68F6B2191DD878FFF757FB3B686F
:1036C0002900DA7A043303929A79019302920090E6
:1036D00033002000059A05F0CFFC07B0F0BDFFF7DE
:1036E000B5FF002805D00620FFF7AEFA040007203A
:1036F000D8E70820FFF7A8FA04000920D2E7C0465F
:103700006463FF1F6063FF1F70B50A4E04003378C7
:103710000D00FF2B0DD0042005F036FF011E08D050
:10372000D0230370CE3B45708370C470307805F0B1
:1037300053FE70BD4840FF1F70B5040006200D0009
:1037400005F022FF011E0AD0D0230370CD3B837009
:10375000054B44701B688580187805F03DFE002CF1
:1037600001D0FFF767FF70BD6463FF1FF8B5264FF8
:1037700006003B680D001124002B05D10522234BC8
:103780001B78134202D112242000F8BD204A1024D5
:103790001268002AF8D01278002AF5D0DB0719D574
:1037A0002B789A1E012A1AD80C2005F08DFD1324BF
:1037B00038600028E8D000230A22437029000670F0
:1037C000023005F049FEFFF75BFF041E0AD0FFF749
:1037D00031FFD9E700F03CFB0028E1D1E4E7002B02
:1037E000E2D0D0E70B4B1B78032BCDD11D20FFF788
:1037F0002BFA094B18800028C6D0084B04211878F2
:10380000074A05F081FEBFE76463FF1F6163FF1F86
:103810008063FF1F6063FF1F5E63FF1F8C63FF1FDA
:1038200060EA0000F7B50193194B14001A780523DC
:1038300006000F0012201A4221D0012920D1154B79
:103840001D68002D1BD002201F2C18D8002C02D080
:10385000019B002B13D0104B1F221E706E1C0021E9
:10386000300005F0F1FE01992200300005F0F4FD72
:10387000310020002C70002F06D005F005FEFEBDA3
:10388000064B12201D68DCE705F086FCF7E7C04612
:103890006163FF1F8063FF1F4840FF1F7C63FF1FA2
:1038A000F8B50F4E12243368002B17D01B780F3C4D
:1038B000834213D100250B4F0221387805F02CFEEE
:1038C000094B042138781D8005F026FE074B28009F
:1038D0001D8033685C7005F08FFE04002000F8BD89
:1038E0006463FF1F8C63FF1F7863FF1F5E63FF1F0E
:1038F00070B5012823D11B4C2388002B03D01A4A12
:103900001578002D07D0194B1B68002B02D01878B2
:10391000FFF7C6FF70BD3B2B02D93C3B2380F9E784
:10392000134E0221307805F0F7FDFA222388920029
:1039300002215A43307805F077FC2580EAE70B4BEB
:103940001B68002BE6D00B4B1B785B07E2D5084BBE
:103950000221187805F0E0FD0022024B1A80FFF7E3
:1039600069FED7E77863FF1F5C63FF1F6463FF1F77
:103970008C63FF1F6163FF1FF8B51E4D2868002888
:1039800003D005F059FC00232B601B4E3068002843
:1039900003D005F051FC00233360184F05243B7819
:1039A00018002040234221D0154800F055FA3B78FA
:1039B000234213D0202005F087FC2860002813D074
:1039C0002022002105F040FE202005F07DFC041E91
:1039D000306005D02022002105F036FE002004E0F2
:1039E000286805F029FC2C601320F8BD00F034FA9B
:1039F000F4E7C0468063FF1F7C63FF1F6163FF1F06
:103A00003C40FF1F10B50A4C23681A1E0ED0002838
:103A100008D10130587005F0EFFD002805D023686B
:103A2000002B02D00021FFF787FE0122100010BDFD
:103A30006463FF1FF7B5274E050033680191181E18
:103A400021D05C78244F012C30D1FFF7FFFD0028F6
:103A500025D02000FFF7F8F80400412814D91F4BA7
:103A6000022118781E4A05F04FFD1E4B3C3C1C807D
:103A7000022233685A703B78002B14D12800019938
:103A8000FFF75AFE0120FEBDFA2292004243002AAF
:103A9000EED0124B0221187805F0C6FBE8E7FFF7DD
:103AA000D3F80200F3E700233B70EBE73B78002BF1
:103AB000E8D1032005F068FD011E08D0D023037073
:103AC000CC3B457083703368187805F085FCFFF7B0
:103AD000B1FDD7E76463FF1F5C63FF1F8C63FF1FAB
:103AE00060EA00007863FF1F10B5204B818899427F
:103AF00034D016D81E4B994207D81E4B994221D874
:103B00001D4B994219D0002010BD1C4B9942FAD18F
:103B1000836899785A78090218781143FFF78AFF69
:103B2000F2E7174B99421DD0164B0020CB18052BFE
:103B3000EAD8154804F046F90EE083681878FFF7D4
:103B400061FFE1E7114A83688818424250411B78BF
:103B5000C0B21900FFF7D8FD0120D5E783680C48F3
:103B60001978E7E783680B481978E3E751200000EC
:103B70000920000007200000062000000A200000A5
:103B800052200000ADDFFFFFA89C0111F8DFFFFF0E
:103B9000D59C0111EE9C0111014B18707047C04675
:103BA0004940FF1F10B5064C207001F0A7FA20789D
:103BB00005F07AFA0521207800F06CFD10BDC046B2
:103BC0008C63FF1F0BB273B50D00002B00DBCBE045
:103BD0008B4B187805F0F0FC041E0ED00378912B67
:103BE0000FD0A22B00D1A8E0864B1878FF2852D026
:103BF000210005F0F1FB00284DD180200002684033
:103C000076BD43780F2B76D013D8052B70D00E2BB2
:103C1000EAD180887C4B98422BD87C4B98421BD8A9
:103C20007B4B9842E0D1A3681878591CFFF754F8F1
:103C300038E03E2BD8D18378032B79D06CD8012B78
:103C400073D0022BD0D1734B1B68002B23D05B6841
:103C5000002B20D098471EE06F4BC0180C28C3D80B
:103C600005F0CAFB1DC2C2150BC20B0B0B3223C2DF
:103C70003C006A4BC0180728B6D8694B1B68002B5C
:103C800009D01B68002B06D0200098470AE0A368E3
:103C90001878FFF7A7F8200005F01EFCADE7A06834
:103CA000FFF742F800289FD0F5E7A3681B78002BA8
:103CB000F1D0584B1B68002BEDD01B68002BEAD0CD
:103CC000210058489847EDE7524B1B68002BE2D083
:103CD0001B68002BDFD021005348F3E7534B1B68D0
:103CE000002BD8D05B68002BD5D021004648E9E7EF
:103CF000FFF7CAF9CFE780884D4B984203D04D4B70
:103D0000984200D070E7494B1B68002BC3D05B681A
:103D1000002BC0D02100D5E7152B0CD04648162B20
:103D200000D061E704F04EF8B5E7FFF773FAB2E7A9
:103D3000FFF758FAAFE74148F4E7414B1B78042BF3
:103D400007D100236A4613800179408800F0C8FC3F
:103D5000A1E7364B1B68002B9DD05B68002B9AD0E7
:103D600001003848984796E7012421420AD0294BA0
:103D70001B68002B04D05B68002B01D00020984703
:103D800001203CE78B070AD5254B1B68002B04D08C
:103D90005B68002B01D02000984702202FE7042108
:103DA000280008400D4200D12AE7274E3388002B17
:103DB00021D0013B9BB23380002B1AD1FFF7B4F81E
:103DC00000280AD0214B1C70154B1B68002B04D017
:103DD0005B68002B01D020009847FFF79FF86946E9
:103DE00001F086FD6846FEF7D7FF1D20FEF72CFF89
:103DF0003080042003E7024B187805F08DFBF8E7CC
:103E00008C63FF1F4940FF1F0E20000001200000AF
:103E1000091000008463FF1FFEDFFFFFAFDFFFFF1D
:103E20008863FF1F0C2000000B2000006C63FF1F45
:103E30000D20000013200000449D0111089D011178
:103E40006163FF1FFFFF00005E63FF1F5C63FF1FD6
:103E500010B501F0F7F910BD014B18607047C0466E
:103E60008863FF1F0B880020162B01D8172304201E
:103E7000014A13807047C0463663FF1F0020704719
:103E8000074A03001188814207D091880020994297
:103E900002D101308000101870470020FAE7C046B8
:103EA0009463FF1FF0B58F7806000D00C5B01E2F7C
:103EB00015D1FFF7E5FF051E03D10024200045B012
:103EC000F0BD00223B003100C078009200F0B2FB50
:103ED0000400A81C00F0D2FBFF23EB70EEE7264B9A
:103EE000062403931B78FF2BE8D0182FE6D87B0815
:103EF000224A013BDB0002929A589446002ADDD008
:103F0000029AD3185B68002BD8D00878002802D119
:103F10004B78012B02D10624122FCFD107AFAB88EB
:103F2000697800976446AA68A047041EC6D1AB789A
:103F3000029A5B08013BDB00D318390030005B6854
:103F40009847041E0BD1AB78042BB6D0039A3100EE
:103F500010782200009700F06DFB0400AEE76A784D
:103F6000002AABD1AA7805A93B88087130000A70F5
:103F70004B80FEF717FBA0E74C40FF1F0CA101117F
:103F80001D4B37B5050098420BD000290AD1FFF729
:103F900077FF002805D11948FFF772FF002800D0ED
:103FA000058037BD01291AD1FFF76AFF041EF8D03A
:103FB00001235B420380A378FF2BF2D0FE2B07D0B6
:103FC0000023E0781422009329001E3300F032FB16
:103FD000A01C00F053FB01235B426380E1E7022950
:103FE000DFD1013901F01AF90028DAD12800FFF7F2
:103FF00047FF041EDFD1D4E7FEFF0000FFFF0000F3
:10400000022210B5074B52421A80074801325A80EB
:104010009A80DA8000F07EFA044801F081F80020EE
:1040200010BDC0469463FF1FA53E0111813F0111E1
:104030000388F7B50400002B02D102252800FEBD3D
:1040400042680221137825485268FEF775FD002862
:104050002ED0234F01253A88002AEFD080232188D3
:104060005B0201259B1A9942E8DC0C2005F02CF933
:10407000061E31D03B8822889C46002318000195FB
:1040800061469DB2491989B2AA421BD8002801D0C5
:1040900062443A8000233000082208C0210005F065
:1040A000DBF9104A1368002B13D100251660C5E711
:1040B0006268022113780C485268FEF73DFD002823
:1040C000C7D1BAE760681D014019418101330198E9
:1040D000D6E71A001B68E6E71325AFE77AA10111BE
:1040E0004A40FF1F9063FF1F78A10111014B187018
:1040F0007047C0464C40FF1F14230A0010B51A40F9
:10410000194204D00122102101F0A4F810BD4B0681
:10411000F9D4012088434000F8E710B514008B065D
:1041200004D50122102101F095F810BD08230A00E2
:104130001A40194202D14BB2002B0FDA102101F0C4
:1041400089F8002808D02300F2331B78002BECD02C
:10415000F1342378012BE8D10020E6E7032089071A
:10416000FAD4E2E7F0B51F00184B85B01C68019047
:1041700002910392002C27D1200005B0F0BDA56864
:104180003301ED186B89019A934211D3029A93423D
:104190000ED8002F04D10A9B002B10D12C00EBE786
:1041A0003B002978039A6868FEF7C6FC0028F2D124
:1041B0000136B6B2A388B342E1D82468DAE7A3682F
:1041C0000A9A5B891380E9E70026F3E79063FF1FF3
:1041D00037B50C000A8849880123914217D3002A79
:1041E00015D0651D23792A0002210A48FEF7A4FC98
:1041F000102300280BD023796188208800242A000E
:104200000094FFF7AFFF0A23A04200D0230018005C
:104210003EBDC0467AA1011113B50A00088849883D
:10422000012388420BD8002809D0002413790532D5
:104230000094FFF797FF0A23A04200D02300180044
:1042400016BD13B50A0008884988012388420BD897
:10425000002809D00024137905320094FFF782FF6B
:104260000A23A04200D02300180016BDF0B58BB081
:1042700003904A8808880E000123824255D3002803
:1042800053D00023012704AC23700022718813004F
:104290000092FFF767FF051E3ED02078002835D139
:1042A0002B78022B18D167706A8983000130E318DC
:1042B00080005A8069680222201805F0CDF8237822
:1042C0000133DBB22370042B19D93B00688901301C
:1042D00080B2002BD9D01FE0022363701223584311
:1042E0006A89231804305A8069681022201805F062
:1042F000B3F823780133DBB22370002BE5D10C4AED
:104300006B899B185A425341DBB2DFE76378012B7C
:10431000E4D12B78022BC7D022780A23002A04D0BC
:1043200021000398FEF768F9002318000BB0F0BDD8
:104330000100FFFF0F4BF0B504001868002816D0ED
:1043400083685D89A54207D88288AE18B44203DA33
:1043500012019A18934201D10068EFE71E005F89AD
:104360001036A74204D1002900D00D801800F0BDFE
:104370003300EFE79063FF1F70B505000C0008885D
:104380000021FFF7D7FF03000120002B04D02200FB
:104390002800197AFFF7C1FE70BDF7B50C000025A3
:1043A00001902300EE331B78AB4201D800200AE0D5
:1043B0006B00E65A00213000E718FFF7BBFF00282A
:1043C00002D126800130FEBD017A0198FFF794FEEC
:1043D000002802D03B882380F5E70135EDB2E0E705
:1043E00010B5040008880021FFF7A4FF0300012096
:1043F000002B03D02000197AFFF77EFE10BD0000CD
:10440000054B1B68002B01D1180004E09A68528903
:104410008242F6D1988870479063FF1FF0B50E274F
:10442000002687B0039302ABFF183E8005001F4BA8
:1044300040891400984207D02B78013000976A68B1
:1044400080B2FFF78FFE060002212B7818486A68B9
:10445000FEF772FB00280FD06C892000FFF7D0FF19
:10446000002802D0013C0419A4B2039B002B00D009
:104470001C80300007B0F0BD02212B780D486A681F
:10448000FEF75AFB0028E7D102212B780A486A6818
:10449000FEF752FB002807D0002EDED03B88A34257
:1044A000DBD17489013CDFE76C89DEE7FFFF0000A8
:1044B0007AA1011178A1011176A1011110B50C00AA
:1044C000FFF7DEFC03000220002B0AD0002C00D0F6
:1044D00023609B781720FE2B03D00138FF2B00D1DF
:1044E000002010BD73B50D0001A904001600FFF7F0
:1044F000E5FF172805D0002E04D129002000FEF783
:10450000F7F876BD01221021200000F0A3FE00285C
:10451000F3D0F6E7014B18607047C046A063FF1F59
:1045200037B56B469D1D010004000222280004F0EF
:104530000BFE2B88B02B0ED12379122B09D123002F
:10454000FA331B78012B06D10121608800F0E0F8D6
:1045500001E01B2BF8D037BD10B5054B04211870B6
:1045600000F098F8FFF74CFDFEF746FB10BDC04683
:10457000A463FF1F0020F0B50BB20F0087B0834289
:1045800034DA274B187805F017F8051E2BD003787E
:10459000A02B25D103AE3100FEF7B4F8041E0BD1D9
:1045A000B378DB0724D51F4B06341B68002B03D0E0
:1045B0003100688898470400A868002801D004F0FA
:1045C000F3FD002C08D1184A039B1340174A93426D
:1045D00006D0B3781B2B03D00121688800F098F82F
:1045E000280004F079FF80200002784007B0F0BD79
:1045F0000F4B1B68002B10D0310068889847041EB1
:10460000DAD07378002BD7D1B27801A90A704B8029
:104610000C716888FDF7C6FFCEE70624F1E7C046B7
:10462000A463FF1F9C63FF1F00FFFF000001120037
:10463000A063FF1FF7B50190FC200D0017001E00BE
:1046400004F0A2FF04001320002C12D0B02320009D
:104650002370089BF4226770658026710830002B58
:1046600008D0190004F0F8FE2100019804F0B4FE0F
:104670000020FEBD089904F0E7FFF5E710B5041E21
:1046800006D00078FD2803D804F066FEFF232370CF
:1046900010BD00000A1F93B210B504000220032BC6
:1046A00005D882400020024BD1529B189C7010BD4F
:1046B000C463FF1F0B8870B5043B04000D0002208B
:1046C000032B0BD80121200000F0A8FD03001420CB
:1046D000002B03D02900200000F028FC70BD000052
:1046E00007B51300034A00920A00012100F088FC7C
:1046F0000EBDC0461D49011107B50192032200926B
:10470000024B0A00122100F0A5FC0EBD9B490111CD
:1047100007B56B4601AA11800449D8800878063392
:10472000012802D1190004F0FFFD07BDA563FF1F9A
:104730000C4B10B518700023FF210B4A1380138116
:1047400093819380094A53801370517293819372BD
:10475000D174D3821375517704F0AEFE00F0FCF9EA
:1047600010BDC046D463FF1FC463FF1FA663FF1FB5
:10477000F0B58DB06B46002003910C229B5E834206
:1047800000DBB0E05D4B187804F016FF051E00D189
:10479000A4E00378902B00D09DE006AF010046888E
:1047A000380000F01FFA79680400002900D19CE06D
:1047B0003B88052B6ED13B89032B1CD905AC20000F
:1047C00000F0A2F86288172A61D83989131D99422E
:1047D00031D17968237804310291D90738D56078CE
:1047E00000F08EF9071E06D0002303712378012BF9
:1047F00008D0132B23D0A868002800D178E004F05B
:10480000D3FC75E06288029909A800F0A6F802902E
:10481000380000F08BF909AA2378387A0192002237
:1048200031000092029A00F012F9380000F064F9A9
:10483000029B002BDFD0300000F080F9DBE703782B
:10484000032BD8D16288029909A800F0D6F8DEE7D8
:10485000122B13D1029909A800F0B5F8021EEAD173
:1048600027498B88002BC6D0887909A92378019124
:1048700061780091310000F0EAF8BCE7002302AA59
:1048800093833000617809AAFFF72AFFB3E71D4B35
:104890000993F6E7042B02D09A1F012AABD8184AD5
:1048A000043B9B00995A0029A5D0D218907831007A
:1048B0003A0000F0AEF800289DD13B88042B03D0CD
:1048C00001213000FFF724FF012C04D1A868002843
:1048D00001D004F069FC280004F0FEFD8020039B59
:1048E0000002434018000DB0F0BD012800D182E75E
:1048F00001213000FFF70CFFEDE7C046D463FF1F36
:10490000C463FF1F010017000B7803704B784370DE
:10491000CB788A781B021343438070470A880300D0
:1049200002700A88120A42700A88012A06D14A884F
:1049300082704A88120AC2700420704702208242A4
:10494000FBD14A8804309A704A88120ADA708A8841
:104950001A718A88120A5A71EFE710B50400012013
:1049600082420CD94B780A781B021343238083427E
:1049700006D1CB788A781B0213436380002010BDD8
:10498000022BFBD1CB788A781B02134363804B79CF
:104990000A791B021343A380F0E70B8803700B888E
:1049A0001B0A43704B8883704B881B0AC3708B882B
:1049B00003718B881B0A4371CB888371CB881B0AD8
:1049C000C3710820704703000120082A14D14A78D7
:1049D0000878120202431A80CA78887812020243C9
:1049E0005A804A790879120202439A80CA798879F2
:1049F000120202430020DA80704710B50400012043
:104A0000022A05D100204B780A781B021343238029
:104A100010BDF8B5060010200F00150004F0B4FD1D
:104A200004000120002C0ED0A0230C22290023809A
:104A30006780201D002D07D004F00EFD21003000FE
:104A400004F0CAFC0020F8BD04F0FEFDF6E7F7B55F
:104A50001E00009008AB142017001D78019104F08F
:104A600093FD041E12D0A2230370019B4770438064
:104A7000099B057146710C220830002B07D01900E4
:104A800004F0EAFC2100009804F0A6FCF7BD0999A7
:104A900004F0DAFDF6E737B5041E0FD04388002B8B
:104AA0000CD00025C1881323007A172201950095A8
:104AB000FFF7CDFFFF2365806372257037BD0000CF
:104AC00010B50C4904004A88002A09D08B89002BB4
:104AD00005D00020CB8A0222834201D010BD0122E2
:104AE00013000A20434300204032C854C8184280B3
:104AF0000472F3E7A663FF1F00234380037070472F
:104B0000094B00211A0010B55C88002C06D01C79D6
:104B1000844203D10A234B43D01810BD01310A331C
:104B20000329F1D10020F8E7A663FF1F10B50400A8
:104B3000407A04F011FCFF23637210BD704704300B
:104B400010B580B204F0B0FB002803D00421494224
:104B500004F0FAFB10BD000070B50025124CA068EF
:104B60002580A581A580A84202D004F01DFBA56088
:104B700000250E4C0E4B606D1D80230058331D70B8
:104B8000A84202D004F010FB65650025606800288B
:104B900001D004F009FB013508340A2DF6D105488F
:104BA00003F010F970BDC0466C64FF1F1064FF1F56
:104BB0006064FF1F7C9D011170B5041E0CD1074D70
:104BC0002880A881A880A868002802D004F0ECFA08
:104BD000AC60034803F0F6F870BDC0466C64FF1F7C
:104BE000889D01110023F0B54E8843600A790400C6
:104BF0000F0089B0022A00D08BE0C98803291ED992
:104C0000BB685A781878120202430592DA789D78C8
:104C100012021543DA791B7A67481B0213435BBA09
:104C20009AB20380059B04338B4227D1042D08D010
:104C30006B1F022B16D92900604803F0C3F801202E
:104C40001AE05F4B3101CB5A002B0BD0F4215D48A9
:104C5000FF3103F0B7F83000FFF7AEFF5A4A13698F
:104C6000013313610421059BB868238125804942E3
:104C700004F06AFB6060002009B0F0BD524C042DC6
:104C80000CD06B1F022B18D983212B004D488900B3
:104C900003F098F8E3680133E360D0E7484B310153
:104CA000CB5A002B09D04748484903F08BF8300015
:104CB000FFF782FF236901332361414B36010693DD
:104CC0000023069AB3529319059A9D80100007930A
:104CD0009A81FFF734FF079B051E986015D00421C9
:104CE000B868494204F030FBFA880100043A280011
:104CF00004F0B2FB069AFB88B25A043B9B18069A52
:104D0000B35223680133236099E7A3690133A36198
:104D100095E72B4B3101059333010693059B300139
:104D2000CB5A05990D18A968002B30D000292ED038
:104D3000012A2CD1FA880598944663449BB232012B
:104D40001352A88998421AD362469B1AC818B968A8
:104D500004F082FB059B0699AA89CB5A934200D0A6
:104D60006DE70A0000212381AB882380AB68636074
:104D7000059BD152144A5368013353605FE7124ACE
:104D80009368013393603000FFF716FF57E70A4A34
:104D9000059F1288029333019C466744BB890091AA
:104DA0009921094C019363690948890003F00AF8C5
:104DB000636901336361E6E7D663FF1F949D0111C8
:104DC0006C64FF1FAD9D0111DC63FF1F1302000027
:104DD000C49D011170B5051E18D10D4C0D4B1880E6
:104DE000230058331870606D002802D004F0DCF9FD
:104DF0006565250050356068002801D004F0D4F9BD
:104E00000834AC42F7D1044802F0DCFF70BDC04664
:104E10001064FF1F6064FF1FEB9D0111F0B51600C9
:104E2000A12285B09200019342433D4B05001B68CF
:104E30000C009B18D933FF331F78FDF7D7FE0430E1
:104E4000874204DD2800FDF7D1FE0430C7B2B74227
:104E500007D3320000212800019B04F035FB05B088
:104E6000F0BD3900300004F0FFF82300C5B2503324
:104E70001D700393019B39006365300004F0B4FB9F
:104E8000CBB20293002B02D0039B01351D7000268C
:104E9000230050331B78B34204D8606D002839D109
:104EA0000020DCE7029A3800002A04D0013B100001
:104EB000B34200D03800F5006519287004F004F9F9
:104EC000019B686001001A78164802F07BFF686851
:104ED00000280ED02A78019904F0BEFA019A2B78A6
:104EE0000136D318104A0193D369F6B20133D36166
:104EF000CEE72300503318706065A54205D10A4AF9
:104F00001320D36A0133D362A9E7606804F04CF937
:104F10000834F2E704F048F900236365C0E7C046AF
:104F20003409FF1FF79D0111DC63FF1FF7B50C006B
:104F300006000421606804F007FA23890500037065
:104F400023891B0A43702388837023881B0AC3703C
:104F5000278902240437FFB2F42F15D8224B9E4232
:104F600014D10C2004F010FB1134011E0CD090233E
:104F700003708E3B0371043B43801C4B8560C780EC
:104F8000187804F029FA00242000FEBD5C2171434A
:104F9000174B591801930B0058331B78002B19D16C
:104FA00003003A003000FFF739FF041E05D0114B13
:104FB00022001148D96A02F005FF5C237343019A6D
:104FC000D1180B0058331B78002BDDD1300004F0D2
:104FD000B3F9D9E7074A0948536A072401335362F2
:104FE00002F0F0FEE9E7C046FEFF0000D463FF1FB9
:104FF0001064FF1FDC63FF1F0B9E0111269E011131
:10500000F0B587B0009017200F0016000193FFF74E
:1050100096FD1325041E19D00C98031E02D0019989
:10502000201D9847030AE370052302AAA0700430EC
:10503000908127700098667003A993800494FFF70D
:1050400075FF051E02D0200004F0AEF8280007B05E
:10505000F0BD0000F0B587B01F000CAB1B780391CA
:10506000059301210DAB06001C78049200F0D6F8E0
:105070001425002821D02000FFF722FD0135041E51
:105080001BD01149059B0A7803700132D2B2131E5E
:10509000C68001D101231A000B7022713000049BDD
:1050A00003990097FFF7ACFF051E09D123002100EB
:1050B0000648074A093304F0A7F8280007B0F0BDF6
:1050C000002363802370F8E7D863FF1F974A01111C
:1050D00030750000F8B505000E00064C064F236839
:1050E000002B02D03100280098470434BC42F6D18E
:1050F000F8BDC0467C64FF1F9064FF1F0123064A71
:105100005B425380002313715362044A136053605F
:105110009360D360136170479064FF1F7C64FF1F2E
:105120000200002310B506499C000859002801D14F
:10513000625010BD0133052BF6D11320F9E7C046AC
:105140007C64FF1F034A5388181A43425841404267
:10515000104070479064FF1FF0B585B002930AAB12
:105160001F780CAB1B88009008000E00019203937F
:10517000FFF7E8FF05001120002D1BD10E48FFF7B7
:10518000E1FF04001520002C14D006220B99A77112
:10519000E01D04F061F9019B30002371029B29009E
:1051A0006371009B66802370039B6562E381FFF758
:1051B00091FF280005B0F0BDFFFF000010B5FFF71C
:1051C000C1FF04000220002C12D060880121FFF7EB
:1051D00081FF606A002801D004F02EF82822002107
:1051E000200004F031FA012300205B42638020712B
:1051F00010BD000030B5074A074C558801001378F0
:105200000020A54204D05B1A59424B41584210403D
:1052100030BDC0469064FF1FFFFF0000084A10B574
:1052200001230C00904208D0FFF78CFF031E04D02E
:10523000037923405A1E9341DBB2180010BDC046CB
:10524000FEFF0000024B1879431E9841C0B2704720
:105250009064FF1F70B504000D001600FFF772FF89
:10526000002804D10D4B9C4200D0143070BD416A1F
:1052700003790520002907D012221A40102A02D1F2
:105280000520002EF2D10F20DB06EFD5897E0C2001
:10529000A9428941494249420840E7E7FEFF000030
:1052A000030010B5002800D110BD0348034A41880F
:1052B0009142F9D09847F7E79064FF1FFFFF000085
:1052C000002330B5C45CCD5C6C40D4540133102B4A
:1052D000F8D130BD0F23002210B5C45C6400224316
:1052E000CA54C25CD209013BF7D210BD02000100D2
:1052F00010B52032103103F0FFFE10BDF0B58BB0B9
:105300000390102005931700049103F0DDFF009037
:10531000102003F0D9FF009B13240190002B05D02F
:1053200000280CD11324009803F086FF019B002B6A
:1053300002D0180003F080FF20000BB0F0BD102059
:1053400003F0C2FF0600102003F0BEFF1324050087
:10535000002E00D1AEE0002819D01022002104F068
:1053600073F932002900039803F0C6FE041E0ED123
:1053700033787F2B51D830000099FFF7ABFF009BAB
:105380001B787F2B53D801990098FFF7A3FF3000BB
:1053900003F052FF002D02D0280003F04DFF002C37
:1053A000C1D1102003F090FF0600102003F08CFF05
:1053B0000290002E7CD0002878D03A000F322300D3
:1053C0000125121105D00F333B4015B25A4253410B
:1053D0001BB26A1E1201002B33D0049BD2B2981864
:1053E0000099029AFFF76CFF013D10220021300066
:1053F00004F02AF9ADB2049F2D017D19AF4242D0CD
:10540000002C33D0300003F017FF029B002B00D19B
:1054100089E7180003F010FF85E729003000FFF747
:1054200059FF28002549009AFFF74AFFA7E72900FE
:105430000098FFF74FFF28002049019AFFF740FF2F
:10544000A5E70F210F4004998A18D9B28F4208D9D5
:10545000D15C06A819540133102BF6D1029A019998
:10546000C0E7791A48424141C901F2E739003000EA
:1054700006AAFFF725FF3200039806A903F03CFEB9
:1054800010370400BAE7002CBCD13000029906AAFC
:10549000FFF716FF320006A9039803F02DFE08223D
:1054A00004003100059803F0D7FFABE71324A9E708
:1054B0001324AAE7002800D06EE733E790A101117A
:1054C000F0B58BB00F0016000225009000283FD0E9
:1054D000002A3DD00B1DDBB21800029303F0F4FE4E
:1054E0001135041E34D0FDF7C1FC05003A000099C7
:1054F000201D03F069FFEBB20393E3702B0CDBB2CA
:105500002F0A00936370FFB22B0E2370A7700193D4
:10551000FDF7A6FC1022010006A803F055FF2100AC
:10552000029A04AB06A8FFF7E9FE051E0DD1039B06
:1055300008223370009B04A9B370019B7770F3704D
:10554000301D03F041FFFDF797FC200003F074FECF
:1055500028000BB0F0BDF0B58FB00D00149E039085
:1055600004920593002A03D1022420000FB0F0BD5D
:10557000002EF9D00398FFF7E5FD1424071EF4D0A0
:105580007278337812021A43B3781B041343F2780B
:1055900012061A43036A0192934201D30133E3D105
:1055A000002D03D03B7901249B07DED50822002182
:1055B00006A804F049F8059B13240433DBB2180055
:1055C000029303F081FE051ECFD0059A04990430A2
:1055D00003F0FAFE04223100280003F0F5FE390042
:1055E000102210310AA803F0EFFE2900029A06AB40
:1055F0000AA8FFF783FE041E0FD1082206A908A8F7
:1056000003F0E2FE0822311D08A803F0B5FD0128D1
:1056100007D101990398FDF743FC280003F00CFE25
:10562000A3E70124F9E7000070B51C4C05002368CE
:10563000181E10D0002D14D11A78002A0CD1981CF5
:10564000083203F009FF03F017FE0135002808D1E6
:1056500023681D70012070BD0A331800082203F072
:10566000FBFE2368002BF5D0122003F08DFF061EF1
:105670000DD0C12321680370457002311022023021
:1056800003F0EAFE23683100587803F0A5FE206895
:1056900003F0D2FD00232360DCE7C046B864FF1F9F
:1056A000F8B504002020FDF7CFFA154FA600F359F6
:1056B0000500002B1FD000280ED0D878FF280CD072
:1056C000290003F091FE002807D1F3590D49DB783A
:1056D0000D48220002F076FBF8BD0C492A000C555B
:1056E000BB59611803330A4803F08EFDBB590549C5
:1056F000DB780848EDE72100074802F063FBEBE7A1
:10570000D464FF1F80A10111389E0111BC64FF1FEA
:1057100045690111629E01118B9E011170B50B4C00
:1057200085002B590100002B0BD0DA78084802F0D5
:1057300049FB2B59D87803F00FFEFF222B59DA7062
:1057400070BD044802F03EFBFAE7C046D464FF1F78
:10575000A59E01118B9E011170B506008CB00C0046
:10576000150000213022684603F06EFF3100102240
:10577000684603F029FE1D2021000322684403F03F
:1057800023FE6846FFF7B2FD2D2104000322280006
:10579000694403F019FE20000CB070BDF0B507009D
:1057A000160097B001931CAB1D7830221EAB009100
:1057B0000AA800211C7803F047FF102239000AA82C
:1057C00003F002FE1022002102A803F03DFF072291
:1057D000310002A803F0F8FD072202AB9818631EFF
:1057E0009C41019903F0F0FD02AB9C732B005A1E03
:1057F000934102AAD3730021102206A803F024FFCC
:1058000006221D9907A803F0DFFD1A2002ABC0187D
:1058100006221F9903F0D8FD102200990EA803F06C
:10582000D3FD102202AB0EA908781C78013A604023
:10583000D2B2087001330131002AF5D10AA8FFF76E
:1058400055FD102212A904000EA803F005FE102237
:1058500006AB0EA908781D78013A6840D2B20870EC
:1058600001330131002AF5D10AA8FFF73FFD0443B7
:1058700010222098E4B212A903F0A6FD200017B070
:10588000F0BD70B50E0014008CB001001022684607
:105890001D0003F099FD3100082204A803F094FDD7
:1058A0002100082206A803F08FFD6846FFF71EFDC1
:1058B00004001022280008A903F086FD20000CB087
:1058C00070BDF8B506000D0000243719AC4200D3B6
:1058D000F8BD03F049FD030A3B70631CDBB20137DE
:1058E0009D4203D90234F054E4B2EEE71C00EDE728
:1058F00073B506000C000225002819D0002917D026
:10590000032101A8FFF7DDFF6B469A793F231A4078
:10591000013313436A463000937101A92200FFF757
:105920001BFF051E04D10322E01C01A903F094FD16
:10593000280076BD03785807DA08C00FD20080002F
:105940009B0710439B0F1843C0B2704707230B40BF
:10595000C908C9000B4303707047000070B504000C
:10596000FFF7DCFE134DA4006359002B21D0186A09
:10597000002801D003F060FC2B59986E002801D05C
:1059800003F05AFC2B59D86E002801D003F054FCC8
:105990002B59186F002801D003F04EFC2B59586F7B
:1059A000002801D003F048FC285903F045FC0023EF
:1059B0002B5170BDD464FF1F0E4B8000C35870B5CF
:1059C0000C00002B0FD09D68002D0CD02B78201DD3
:1059D0000B706B784B70A97CFFF7B8FF2B7E23729E
:1059E0006B69E36070BD10220021200003F02CFEE3
:1059F000F8E7C046D464FF1F014B18607047C046EB
:105A0000D064FF1F074A03008000825810B5002AA7
:105A100006D0D088984203D1012901D1FFF79EFF1B
:105A200010BDC046D464FF1FF0B5264E95B0870068
:105A30000B93BB590500099112200A92002B31D01B
:105A4000D888FFF77FFB04001420002C2AD0280000
:105A500010A9FFF7B1FFBB591E781D6A002E23D095
:105A60000895FDF743FA07000020FDF745FA079077
:105A7000A379E61D069310AD0CA9089800F0E2FA90
:105A80000EA9280000F0D7FA0B9B0A990493069BF5
:105A900009980293079B0396019300970EAB0CAAFB
:105AA000FFF77CFE15B0F0BDFDF720FA0690300040
:105AB000FDF722FAE31DA779079310AB06000893C0
:105AC000DAE7C046D464FF1F30B50C4C85002A5974
:105AD000030085B00120002A0ED018006946FFF7A8
:105AE0006BFF2B591A78D888054B002A00D1054B3B
:105AF0006A46072100F0D9FB05B030BDD464FF1F12
:105B0000376001114560011130B5094C85002959F4
:105B100085B010226846253103F09EFC2A591121D8
:105B2000044BD0886A4600F0C0FB05B030BDC046CB
:105B3000D464FF1FE160011130B5094C850029597B
:105B400085B010226846353103F086FC2A591121B0
:105B5000044BD0886A4600F0A8FB05B030BDC046B3
:105B6000D464FF1F1F610111F7B54D4F860010204F
:105B7000F4590D0003F0A8FBF3592062186A1322B0
:105B800000286CD0033A29009C6803F065FCF359A7
:105B90001A780192002A58D11E6A227D317B9446E0
:105BA00051400122019F114201D167461740217DDA
:105BB000914339432175377B4F40BC4660460027EF
:105BC000800701D44F081740012102208F40227D19
:105BD00082433A432275377B5740BC4660460027D4
