:020000041101E8
:10010000F7B5164B0192C318021D002000938823F7
:100110005B05D3181B685C1C1AD09CB2402C18D805
:100120008D781E0CAC466746CD782D023D43AE421D
:1001300006D1019800280ED110000C70240A4C70D2
:1001400003249BB20733A343D218009B9A42DED309
:10015000FEBD4432F9E71000FAE7C046FC0F00008C
:10016000802213B503000324019189B252010731A3
:100170009B18A14304305A1A88235B05C3181B68D7
:10018000591C03D190429241104016BD99B24029AA
:1001900007D80B000733A343C0189042ECD30020CC
:1001A000F3E74430F9E7134B134A1B68126810B5A4
:1001B000F424934201D81A00F024104BA4021B68C7
:1001C0009A4210D813000E4A12689A420ED3013395
:1001D00007D1F0239B029C4203D10A49054808F04D
:1001E000FBFA200010BDF824A402ECE7FC24A402D2
:1001F000F7E7C04600C0031100D0031100E003116F
:1002000000F00311FFFFFF7FF0B59BB015000490D5
:100210000391402A00D9A0E006AB59801A80FFF76D
:10022000C2FF0400042816D9002206A9FFF768FFC0
:10023000052810D906AB1B88AB420CD1002D07D086
:10024000514B2A000499C01808F00EFB002802D177
:1002500001201BB0F0BD06AB1D8020000699FFF702
:100260007FFF041E7BD1069B0793FFF79CFF802333
:100270005B01C61880230700DB029E4201D3F026F3
:10028000B60288235B05F31801931B68013302D083
:10029000019808F049FC3D49019808F09DFA3B1D82
:1002A0000293331D05938822029B52059B181B68FD
:1002B00008935A1C3CD044219AB20091402A04D899
:1002C0000320D11D814389B2009103991B0C8B42FD
:1002D00024D0402A22D80122300008A9FFF710FFBD
:1002E000021E1BD1380008A9FFF70AFF04000428EA
:1002F00031D9009A059B9B1880225201B218934273
:1003000040D288235B05C118009A09A808F04CFC6C
:100310001D4B009A09A9F01808F09EFB009A029B59
:100320009446634402931A4B029AFB189A42BAD33A
:1003300088235B05FC1821680198013908F04CFA04
:10034000200008F0F1FB039A07AB5A8030000799B0
:10035000FFF706FF0400002C03D1002079E70428F2
:10036000FBD988235B05E018069908F035FA0323CA
:10037000EA1C9A4300D16BE7034B0499E01808F09C
:100380006BFB65E70424ECE704000011FFFFFF7F2F
:10039000F80F0000F7B505001400402A21D8002707
:1003A00001AE71803780FFF7FEFE042816D93A00AF
:1003B0003100FFF7A5FE042810D93688BC420BD0C7
:1003C000BD4209D0221CB44200D9321C064B92B265
:1003D000C118280008F0E8FB30B2FEBDC04300B2EF
:1003E000FBE703204042F8E70400001137B5042280
:1003F00004000D0001A81649FFF7CCFF02000428F5
:100400000BD1019BA34208D3AB4204D0104901A8F1
:100410000195FFF7F9FE01203EBD0E4C2368200038
:10042000019308F081FB019920000139019108F046
:10043000D3F980235B01E418074B9C42EED10422E0
:10044000034901A80195FFF7DFFE0020E4E7C0465D
:100450005555000000C00311000004118022F8B5BA
:10046000964C974BD200002120001C6008F014F934
:100470002300944A88331A60934B1A786A23002A1F
:1004800000D01133E3620A232365904B37221B7897
:100490000820A3638E4B2118E361102323628D4B48
:1004A0003B256361C823DB00A36123008C331A6002
:1004B0002823013AE26320646364CA67043A211D79
:1004C000CA672100BC310D602100C03108602100E5
:1004D000C4310B6021000635CC310D602100083D90
:1004E000C8310D602100D0310A602200D432106082
:1004F0002200D832136022000227E0322100176068
:100500004222DC310A6021001B3DE4310D602100F4
:10051000E83108602100EC310B6023000521F43341
:1005200019602300F0331A602300183290331A60E8
:1005300023009433186023001E3A98331A60AF23C7
:10054000DB002360644BFA262363644B644DE36055
:10055000644BF031A3642300FF31FC33B600A1608B
:1005600021611E60A5627325E5656D3D6565A56524
:1005700096255D4AAD00E264666258606766A566CE
:1005800000270925A767E566584F594D6067200089
:100590002567E2673A6015279C30676007001A20DC
:1005A00038602000A0300700212038602000A830EB
:1005B00007004C4838602000F830066026006427A9
:1005C000A436376026005F3FAC3637602600033F15
:1005D000B03637602600C637B436376026000027AD
:1005E000B836376038269E60424E96205E64424E92
:1005F0005A66DE61414E9A645E62F53EFF3E9E623F
:100600001E269A67354A8000DE661F675F67DD65D4
:100610001D661862DA67BE23394A5B00E250394B27
:10062000D838235004302250C4225200A350C6238D
:10063000E4205B00E1500433334AE1503349344B4A
:10064000D1603449800019503349E938FF381950D6
:1006500032490430195032493248D161324911636C
:10066000324951631900F4310860CE20304940000E
:1006700011603049195019002F48F83108602F498E
:10068000D16582212E4A89005A501A002D4908321C
:10069000D1671A002C49B432116088212B4A890095
:1006A0005A501A002A49883211602A4ADA6408F03E
:1006B000D3FA012008F048F9F8BDC0460004FF1F36
:1006C0008862FF1F506DFF1F0441FF1F4A0AFF1F72
:1006D0003A07000080C3C9019A020000DC0500004F
:1006E0006A18000050C3000088130000F009FF1FC3
:1006F000204E00006509FF1F68100000C4090000BB
:1007000040420F0010270000FC00FF1FC11BFF1F0D
:100710000000FF1F152CFF1F9D2FFF1F352EFF1FF1
:10072000811FFF1F7126FF1F9D1FFF1F4921FF1FF4
:100730000D1FFF1F9528FF1F7D29FF1FD918FF1FC1
:10074000A127FF1FC524FF1FD124FF1F0D1EFF1F60
:10075000C51EFF1F851DFF1F0223F0B50124634D39
:10076000634E2B70634B34701A68634B89B004205E
:100770005A7006F05DFD07F087FFFFF76FFE08F087
:1007800023FA1F2200215D4B1E271A705C4B6F4419
:100790001C705C4B19705C4B19689143163A0A4304
:1007A0001A60602219689143403A0A431A6007F0C0
:1007B000B3FF08F019F8554B9847C120FF21544B5F
:1007C00080001A588A431A50C522920098588843CC
:1007D000BF390143995098584E4908408021C901BA
:1007E0000143802099509958C0050902090A014324
:1007F000995080214848490108F03EF9032322001E
:10080000464901940093464808F0A6F91622454946
:1008100002A808F0C9F902AC61782078023406F029
:1008200005F9A742F8D1404C404B226803201A40FA
:10083000A023DB0213432360802322689B0413431D
:10084000236022683A4B1A4080239B0313432360A2
:10085000384A394B934200D8012008F095F808F047
:10086000E3F980232268DB0413432360287807F030
:100870002BFF3078C0B207F06FFF08F01DF92F4949
:10088000042008F0C9F806F0C9FA06F015FF01F0D7
:1008900015F801F0BDF82A482A4906F0B3FD2A4BA5
:1008A0002A4819782A4B32781C782A4BC9B21E780C
:1008B000D2B22B780196009406F0A4FD08212648B8
:1008C000264A06F09FFD8023A12225489200234955
:1008D0005B0106F097FD234B2348196806F092FD53
:1008E00000F022F9002009B0F0BDC0464A0AFF1FFF
:1008F0000441FF1F34F000402C60FF1F480AFF1F17
:10090000490AFF1F680AFF1FBCF00040E1A2000077
:1009100000E100E0FF00FFFF0841FF1F8C53FF1FB5
:100920000851FF1F2E95011114F00040FF7FF8FFC2
:10093000FFFF9FFF0080FF1F506DFF1F3B0001085E
:10094000788C0111020101034B0AFF1F8E8C0111EB
:10095000440AFF1F450AFF1FBC8C0111780A0000E2
:10096000EC8C0111800AFF1F408D01117047704708
:1009700030B503A804880B20002C0ED14968074D20
:1009800008784978090201430A20A94205D10121CA
:1009900020001980024B1B7A137030BD192A000009
:1009A0001460FF1FF7B5150008AA16884A680F4F94
:1009B00014785278120222430A24BA4214D1012236
:1009C000DBB2019200962A0007F0ACFD041E0BD1A9
:1009D000074B1B68002B07D068782A780002104369
:1009E00042425041013098472000FEBD02290000DC
:1009F0000C5EFF1F30B5012503790400BFB02B4208
:100A000011D00A49408807F0F9F828420BD0084B6A
:100A100001A95B8D4D800B80064B00221B7A6088FC
:100A20000B7103F07BFD3FB030BDC046045EFF1F7D
:100A3000F03DFF1F1460FF1F10B50549054807F082
:100A400093F80421044A054807F050F810BDC04649
:100A5000045EFF1FFFFF000044950111F03DFF1FE2
:100A600010B5024804F038FC10BDC046F50901116C
:100A700001230370054B1A7A42700C2282709A7916
:100A8000C270DB79037105207047C0461460FF1FF8
:100A9000022310B50370013B43700533837010339C
:100AA0000371443B43712A3383714433C371002380
:100AB0000372064B04001B8843720A30FFF7D8FF0D
:100AC000831D0A30C0B2E37010BDC0461460FF1F22
:100AD00010B5142007F0A8FF124B14220021186053
:100AE00007F0DAFD002007F097FE012007F004FF71
:100AF000022008F081F8032003F036FE042005F000
:100B0000CDFE052003F06AF8062003F041FD072022
:100B100001F0D2FA082006F0C9FF092001F09CF884
:100B200010BDC046105EFF1F08F046F8012008F017
:100B300033F807F011FF032382B054280ED8434343
:100B4000DAB2D0430023C0B2FF210A4008401202AB
:100B50000B401B041043184302B07047A92806D865
:100B600055384343DBB2DA430020D2B2ECE75630CB
:100B70005843C0B2C3430022DBB2E5E7F0B5030A35
:100B8000040C071CD8B285B00E004843FF2107F0C3
:100B90008BFFC5B2E0B2FF21704307F085FFC4B2FE
:100BA000F8B2FF21704307F07FFFFF231D4018407C
:100BB0002D021C4024042843204305B0F0BD000052
:100BC00013B52638C0B211280FD80A4A0A4B115C57
:100BD0000A4A1B5C125CFF242340180021400902D2
:100BE000224012040843104316BD002211001300D6
:100BF000F1E7C0469A950111AC9501118895011154
:100C000037B500240325019028006043044B0322DC
:100C1000C01801A9013407F0C7FF202CF4D137BD5B
:100C2000945FFF1F10B50C220249034800F087FBB8
:100C300010BDC0461C5EFF1FF45FFF1FF0B5A84B40
:100C40008FB003931B68002B00D17FE0A54F2021BC
:100C5000380000F05DFDA44C2378002B5FD0637951
:100C6000180025381C285AD807F006FD34007200F9
:100C70007200720072007200720072009C009C0090
:100C80009C00E000FF00FF00FF00FF00FF00FF00EE
:100C9000FF001D0159005900590059005900590021
:100CA000590059001D00A2780DAB1A70E2785A70F5
:100CB00022799A7061780D98FFF760FF05AB187084
:100CC00002040002000E120E5A7098700598FFF789
:100CD00097FF24E00025854B0DAE0293029AEB00AE
:100CE0001078C018C0B2FFF726FF03041B0E737004
:100CF00003236B4330700002000EB07001936178E3
:100D00003068FFF73BFF019B0204F8540002FB1818
:100D1000120E000E01355A709870202DDED19825E4
:100D2000734C6D0020212B0022006E4800F017FD4F
:100D30000100A8420AD1200000F0C0FC011E05D02D
:100D40000023039A6B48136006F05CFB0FB0F0BD04
:100D500066490A78097849B200291EDB5200D5B2EB
:100D60001800FFF72DFF0DAE3070030400021B0EBC
:100D7000000E7370B0706078FF21684307F094FE36
:100D8000C1B20D98FFF7FAFE0304307000021B0E8B
:100D9000000E7370B0700D9899E7FF25AD1A6D00C5
:100DA000EDB2DDE72D2B37D0FF2600252E2B35D1D8
:100DB000300001954D4A1378127852B2002A30DB88
:100DC0005B00DCB2FF273B1B9BB239005843029308
:100DD00007F062FE04AB1872029B0198654358430A
:100DE0003900401907F058FE04AB58722000390052
:100DF000704307F051FE04AB98723B4B069859784C
:100E0000FFF7BCFE07AB187002040002000E120EC2
:100E10005A70987007985AE70026FF252800019617
:100E2000C8E7FF24E41A6400E4B2CBE72F4B18783C
:100E3000030700D573E7C000C0B2FFF77CFE08AB24
:100E4000187002040002120E000E5A709870617839
:100E50000898FFF793FE09AB187002040002000E19
:100E6000120E5A709870099831E7204A12781207CA
:100E700000D554E71800FFF7A3FE0AAB1870020470
:100E80000002120E000E5A70987061780A98FFF7EF
:100E900075FE0BAB187002040002000E120E5A70A1
:100EA00098700B9813E72420104B1B781B095843AC
:100EB000C0B2FFF740FE0CAB187002040002120E25
:100EC000000E5A70987061780C98FFF757FE0DABC2
:100ED000020418700002120E000E5A7098705AE741
:100EE000605EFF1F945FFF1FF45FFF1F3D5EFF1FEB
:100EF000645EFF1F528D0111F0B5C5B01D004AABF5
:100F0000059016000E201F88002911D0002A0FD04E
:100F10004B681A785B781B0213433C4A934209D111
:100F2000012205980192EBB23200009707F0FAFA1D
:100F300045B0F0BD364A0A209342F9D10130002F66
:100F4000F6D10230142DF3D82A003100314807F0D1
:100F50002BFE2900304806F055FA2900300006F033
:100F6000BFFB2E4C2A003100200000F087F905005D
:100F700001282DD12A49059806F040FE284080B26C
:100F8000002804D1274806F03DFA0020D0E73900B8
:100F9000F22207A807F080FBFFF744FE0C2202AB09
:100FA000214908A8DA8207F0FFFD204B02AA1B881E
:100FB00007A9938205983A0003F0B0FA1C4D01008E
:100FC000A079637922780090280006F01BFADCE70C
:100FD000002805D01748290006F014FA8020A7E75A
:100FE000154B1870FFF71EFEFFF728FE2579637872
:100FF000627921780395E57810480295A5780195E6
:10100000A479009406F0FEF9BFE7C046022900006B
:10101000D9FF0000285EFF1F988D0111F45FFF1FAC
:10102000145EFF1FBF8D01111C5EFF1F7E3EFF1F60
:10103000068E01114F8E01113C5EFF1F7F8E011144
:10104000F8B51D0006AB16001A8807AB1F784B6871
:10105000597818780B4B090201430A20994210D1A4
:101060000130002A0DD1FFF7DDFD3C1C0C2F00D90B
:101070000C24E4B222003000034907F095FD002063
:101080002C80F8BDD4FF00001C5EFF1F094B10B57B
:101090000400984205D0012904D12000064906F039
:1010A00063FD10BD0229FCD1013904F0D3F80028FA
:1010B000F3D0F6E7FEFF0000145EFF1F10B50E48E8
:1010C00000F0AAF90021072005F096FD0221072073
:1010D00005F0ACFC0021032005F08EFD0221032069
:1010E00005F0A4FC0021042005F086FD0221042067
:1010F00005F09CFC10BDC0463E5EFF1F30B50720CA
:1011000085B005F073FC0400032005F06FFC0500BA
:10111000042005F06BFC01214D404C40EBB24140F6
:101120001D4DE2B21D4CC9B200912800210000F013
:101130007BF9002814D025796378627921780395AA
:10114000E57817480295A5780195A579009506F0F0
:1011500059F90022134B1A70FFF764FDFFF76EFD7B
:101160002378002B0CD06379412B09D00D49A2794B
:101170000B7812090133DBB20132934202D20B70B9
:1011800005B030BD0023084A0B701378013313708B
:10119000FFF754FDF4E7C0463E5EFF1FF45FFF1FFC
:1011A000BF8E01113C5EFF1F3D5EFF1F70B51B4CE3
:1011B000200000F051F80022194B1A70194B1A70D8
:1011C000FFF730FD1849194806F0CEFC184803F027
:1011D000C3FF184800F05CFA43424341164D1749DB
:1011E0002B60002800D11649164806F00BF92B6831
:1011F000002B0DD0002325782370FFF71FFD2570ED
:10120000FFF71CFDA379627861790F4806F0FAF8C0
:1012100006210E4A0E4806F069FC70BDF45FFF1F00
:101220003D5EFF1F3C5EFF1F145EFF1FFFFF0000BF
:101230008D100111009F2400605EFF1F048F0111BB
:10124000018F0111098F0111288F0111C095011122
:10125000343EFF1F7047704700280ED001230370F3
:101260007F3343707F3325228370BF3BC3700023DD
:1012700042710D3A03718271C3717047030010B55A
:101280000220002B0DD000290BD0032A1CD10C7892
:10129000EF2C07D1487801284FD18B78772B00D0DD
:1012A000033010BD0420CC2CFBD18C78332CF8D12A
:1012B0004978232903D101221A700020F1E7100098
:1012C0002429EED10022F7E7072A1ED10A7804204C
:1012D000562AE6D18A79AA2AE3D14A79F02A0CD192
:1012E0004A789A708A78DA70CA781A71FF225A702E
:1012F000BE3A5A710022DA71DFE703200F2AD0D1FB
:101300000A799A70DA700A79EFE704208242C8D12C
:101310000C781000BB2CC4D1CA78442AC1D14A78B9
:1013200003201400253C132CBBD85A7189780A1C61
:10133000002900D101229A71DCE70420B1E7030003
:1013400010B5002823D0081E21D000200B2A1ED95A
:1013500066220A70513A4A701A7854426241233226
:101360008A705A79CA7020220A715A79412A00D0AB
:10137000987948719A780C208A71DA78CA711B7949
:101380000B7200234B7206338B729333CB7210BDFA
:1013900002788A4204D001230170837000207047D4
:1013A0008378032B18D80133DBB28370042BF5D17B
:1013B00043789342F2D04270002A05D00023838004
:1013C000C38003720120EAE7037A8280C28002723E
:1013D000584258414000E2E74378002BDED0838832
:1013E0000C4A934201D001338380037A002B07D14A
:1013F00082883B2AD2D901220272C3800320CEE721
:10140000C38801339BB20E2B01D8C380C6E70023EB
:10141000F3E7C046FFFF000010B5002803D02022EC
:10142000002107F039F910BDF7B51E0008AB1B7895
:101430000C0005001100019300283DD0201E3BD078
:101440002800FFF7A5FF0700280031000A30FFF74A
:101450009FFF0600280001991430FFF799FF020052
:101460000020012F04D12378380059424B412370CA
:10147000022E22D107210320AB7F01330B401C49F0
:10148000AB7758430B00C35C0918A3704123637109
:1014900000234E788978E6702171E3710120022AD9
:1014A00018D1EB7F013201331340124AEB77D35C42
:1014B00063710023E3710120FEBD032EEFD1637839
:1014C000202019002039C9B29F2901D81B18D8B291
:1014D0006070E3E7032AEFD1A37920211A00103AC4
:1014E000D2B2CF2A01D85B18D9B2A171E3E7C046C6
:1014F000E2950111DE95011170B5041E66D08423BA
:10150000354A5B0111680B4313604023334A11686D
:101510000B4313608023DB051A6831490A401A60C7
:101520008022196852010A432E491A600A682E4B1C
:101530001A40B0235B0313430B6080232B4ADB0369
:1015400011680B4313602A4B9847630005008342E0
:101550003FD860082100401907F09EFA254A030091
:1015600090422FD91300DA0717D51A00032B00D2A7
:1015700003222149013A8B4200D90B00110061433B
:1015800001335C43481B8D4200D9681A611BA54298
:1015900000D9291B884200D81300082400201749CD
:1015A000174AFF34087014802222164C25682A43FB
:1015B0002260154A1360154B154A186001231370F9
:1015C0000B7070BD0228CED20223CCE7012040422E
:1015D000F7E70220FBE7C046080000401400004087
:1015E000FFEFFFFF2C380040FFFFC0FF0C3800402A
:1015F000D1A50000FEFF0000FDFF000008700040C4
:10160000007000402C300040147000402C700040EE
:1016100010700040034B10B51868002801D0FFF788
:101620006BFF10BDFC5FFF1FF0B5144D00230226B9
:10163000AC46134A134C144F8B4207D30122134B71
:10164000217808001040114213D1F0BD25783542B1
:1016500009D03D68072D06D86546C25C01332A6073
:10166000074D2A00E8E7551E002AFAD10220404221
:10167000EBE7013B002BE3D10320F8E7607000406B
:10168000400D03002870004020700040410D030011
:1016900010B50400FFF730FF00280AD1054B010008
:1016A000054A0C301C6007F0F7F8002801D0032031
:1016B000404210BDFC5FFF1F1516011170B50500FB
:1016C0000E0000281CD00C2007F0D6F800281AD1F4
:1016D00031002800FFF7A8FF041E0CD00B4B186840
:1016E000002808D0FFF708FF002804D131002800A7
:1016F000FFF79AFF04000C2007F0AEF8200070BD41
:1017000001246442FAE70424FBE7C046FC5FFF1FA4
:101710000B00002805D003215943002341188842BB
:1017200000D170470370437083700330F7E7F0B562
:1017300000220624130080260427A4463400144106
:101740003D00044200D06546DB0001322B43082AED
:10175000F4D11A0C0A701A0A4A708B70F0BDF0B5F9
:1017600004001500070085B0002819D0171E17D0F7
:1017700009224A43170010370192BB4222D30323A8
:101780002E004B43C3180293330009330393029B8B
:101790009C4208D1019B10220021E81806F07CFF32
:1017A000380005B0F0BD31006078FFF7C0FF207849
:1017B000F11CFFF7BCFFA078B11DFFF7B8FF0334A1
:1017C000039EE1E70027EBE770B5160004AA148832
:1017D00005AA15784A685078117800022A4A084309
:1017E000801805284BD807F017FA03131E29343F39
:1017F00007221000062C0AD8121BAA4200D92A0080
:1018000022491A803000091907F0CEF9002070BD76
:101810000720112CFBD81222121BAA4200D92A0041
:101820001B491A80EEE707200E2CF0D80F22121B5E
:10183000AA4200D92A0017491A80E3E70720032C9F
:10184000E5D80422121BAA4200D92A0012491A80A4
:10185000D8E70720032CDAD80422121BAA4200D9A9
:101860002A000E491A80CDE70720022CCFD8032288
:10187000121BAA4200D92A0009491A80C2E7002295
:101880000A201A80C3E7C046DCD5FFFF2696011167
:101890000060FF1F16960111119601110C9601119F
:1018A0000896011110B50D21024A034806F01EF9F1
:1018B00010BDC046FC950111943EFF1F10B5084CA9
:1018C000E368002B08D18022064B52021B689B184C
:1018D0006360054B1B68236006F0E6FFA06010BD47
:1018E0003C60FF1FC8F00040CCF0004070B5184AC3
:1018F000936A916A9942FBD116498A689A421FD32A
:101900009A1A8B60144B0126186893B2D202D20E39
:101910004343424300204C681B0A1B1912029B18C8
:101920000E4C0A684B60551CA3420CD8002801D00D
:101930004B600A600A4A136008680A4B186070BD61
:10194000581E821ADDE7084A30009B182A00EAE791
:1019500000F000403C60FF1F140AFF1F40420F00D0
:10196000C8F00040CCF00040C0BDF0FF70B51F4C87
:1019700023793F2B01D93F2323711D4B22791A7004
:101980001878C0B207F040F818231A491A4A0B8099
:101990001A4913800B805380A379194980200B804A
:1019A0000C21938001334B43164D191C00018342D7
:1019B00000D9011C2980D1806379002B01D101332A
:1019C0006371237A012B01D8022323726279237A6F
:1019D0000D4853430A21584307F066F80B4D286021
:1019E000E379052B01D81023E37170BD3060FF1F30
:1019F000480AFF1F7E3FFF1FB040FF1F7C3FFF1FB5
:101A00007A3FFF1F783FFF1F710200002060FF1F19
:101A1000064B70B51900064A31CA31C102225A710B
:101A200000229A71FFF7A2FF70BDC0463060FF1F11
:101A3000489601117047000070B50400013806286F
:101A40000DD807F0E9F8041337571F0C59002B483D
:101A500005F0D8FC2A4B0221187806F0E5FE294B48
:101A6000210029481C7005F0CDFC70BD274805F009
:101A7000C9FC234B0821187806F0A6FF0022244B4E
:101A80001A72ECE780220025214B52001A81FA22BB
:101A9000DD72204B1A4E5B7A920008215A4330784F
:101AA00006F04AFF2900307806F00EFF1A4805F0CC
:101AB000A9FCD4E7194805F0A5FC114B08211878BA
:101AC00006F082FF1648FEF7E3FF124B154A9B799A
:101AD0009380154A138000220D4BDA720132FF32D7
:101AE0001A81124B1B78002BB9D0114A136006F0F3
:101AF0003BFEB4E70F48DAE70F48D8E7648F0111DF
:101B00005160FF1F5060FF1FE28F0111738F0111A1
:101B10002060FF1F3060FF1F878F01119A8F011116
:101B2000893FFF1FB040FF1F7A3FFF1F2C60FF1F40
:101B300034F00040B18F0111D28F01110300F0B5D4
:101B40000A4D8E18B14202D152008018F0BD0C78B7
:101B50002F6824093C5D0F271C700C7801313C4034
:101B60002F683C5D5C700233ECE7C046743FFF1F9A
:101B700010220F4B10B51A700F230E4C0E49237014
:101B8000093A063B0D48637007F00EF82D23012239
:101B90000B490C486372FFF7D1FF01220A49FFF796
:101BA000CDFF01220949FFF7C9FF0023037010BDD3
:101BB0004E62FF1F2F62FF1F269601113162FF1F29
:101BC0006709FF1F3962FF1F6609FF1F6509FF1FB5
:101BD00010B5FFF7CDFF084C084B207821000130ED
:101BE000C0B2187006F030FE2178054A0139C9B23A
:101BF000002005F099FE10BD2F62FF1F4E62FF1FEF
:101C00003162FF1F10B5114B1A781870002A0ED0E0
:101C100000280BD10E4B1A78062A07D85423D3403C
:101C2000DB0703D50B4B187801F056FE10BD0028DA
:101C3000FCD0074B1B78012B02D0033B022BF5D8BD
:101C4000044B0121187806F0EFFDEFE75262FF1F09
:101C50007962FF1F7A62FF1FF0B5664B87B018707C
:101C6000654805F0CFFB654805F0CCFB644805F0FE
:101C7000C9FB06F079FF032262496348FFF75EFF64
:101C80002D24030088211C70042249050130FFF730
:101C900055FF302302220470437083705B4C5C4B11
:101CA0002000DA875B490432FEF774FB062813D064
:101CB000200006F0C1FC022809D00321200006F014
:101CC000C3FC8D23E3706E3B2371193363710622CD
:101CD00020005049FEF798FA4F4B01251B68FC3352
:101CE0005C64FFF775FF07234C4E4D4C3370053B8A
:101CF00023700433A370033BE3702371D233637109
:101D000048492A3348486570A37105F07BFB64237A
:101D1000464F47487979594305F074FB2178A378F9
:101D200062780591A1794348039161790291217903
:101D30000191E1780091059905F064FB0020FFF71F
:101D400061FF32783C4E23002900307801F086FD97
:101D50003A4A00213A4B1278307801F07FFD642234
:101D6000384B244C1D707B7953431900284A0A31A3
:101D700093811382D18151822078202106F0C4FC06
:101D80000120404205F01CFE0120404205F0B8FE53
:101D9000FFF788FDFEF750FE2B4805F033FB0120CE
:101DA0004042FFF703FAFFF789F980210A222078E1
:101DB000090106F0C1FDFA22802192004901207834
:101DC00006F0BAFD280006F04FFCF02000F0FCFE03
:101DD0002900207806F028FD207801F0F9FE1B4844
:101DE00006F0F2FCFEF7C2FD194805F00BFB07B048
:101DF000F0BDC0465160FF1FF18F01111F9001110E
:101E00003A9001112440FF1F0060FF1F6509FF1F6A
:101E1000B03FFF1FADAC00008862FF1FA83FFF1F4F
:101E2000893FFF1F3162FF1F509001113060FF1F7B
:101E300063900111809001117A62FF1F4E62FF1FB3
:101E40002F62FF1F2062FF1FB39001115260FF1F1E
:101E5000E090011173B520240E000D0026402142B0
:101E600009D0414B4148197A0131C9B2197205F0C4
:101E7000C9FA200017E00BB2002B16DA3C4B187899
:101E800006F022FE041E0CD00378912B06D1437875
:101E90000E2B03D18188374805F0B4FA200006F0F4
:101EA0001BFC80200002684076BD0224214208D03D
:101EB000314805F0A7FA2C4B01201E72FFF7A2FE55
:101EC000D7E70824214207D02C4805F09BFAFFF7FA
:101ED0000DFDFEF74BFDCCE7CB0615D5284B294869
:101EE0001A7AD98805F08EFAFEF741FD264B1B7849
:101EF000002B07D1FEF7B4FD244B1B68DB0701D58F
:101F0000FFF7A9F91020CEE70124214208D020488C
:101F100005F078FA1F4800F093F806F0A5FDA8E751
:101F20008024640121420DD01B4B174A1968127896
:101F300001311960194B1A481B7800922A0005F0EC
:101F400061FA96E780242401214202D0FFF7D6F8F7
:101F50008FE70424080020402142A5D0114805F055
:101F600051FAFFF777F984E72060FF1F0B91011109
:101F70005160FF1F139101113C9101116B910111EF
:101F80001460FF1F769101115262FF1F3060FF1F26
:101F90008A9101116C3FFF1F4C60FF1F5060FF1FB3
:101FA000A5910111D6910111F0B51B4B1B4F1B8858
:101FB0003A8804001A4E1B4D85B09A420DD83288DB
:101FC0009A420AD3184B1A882B889A4205D1174A8D
:101FD000174B12881B889A421BD0052000F050FE38
:101FE0003B8802AA13803388019053802B88114DBF
:101FF00093800F4B02A91B88D3800F4B2A78188837
:1020000002F096FB0D4B08212878019A1C7006F00F
:102010007BFC05B0F0BDC0461E62FF1F7E3FFF1F68
:102020007C3FFF1F7A3FFF1F1C62FF1F1A62FF1FCA
:10203000783FFF1F7A62FF1F803FFF1F1862FF1F5C
:1020400013B50C4B1C78002C11D1002801D00A4B81
:1020500018600A4A0A4B11780A4A10780A4A019213
:102060000A4A0092002205F04FFB200016BD112401
:10207000FBE7C0467962FF1F1462FF1F7862FF1FF3
:102080006862FF1F7A62FF1F5462FF1F5862FF1FC2
:1020900010B5064B12201B78052B06D1044B1322DA
:1020A0001988044B187800F0C7FF10BD7962FF1F34
:1020B000803FFF1F7A62FF1F10B500240122114BE1
:1020C00052421870104B1C70104B1A8001F080FDAA
:1020D00004220F4B21001A700E480C3206F01CFC33
:1020E000102221000C4806F017FC07220B4B1C6045
:1020F0000B4B1C700B4B1C700B4B1A700B4B1C705A
:1021000010BDC0467A62FF1F7962FF1F803FFF1F2C
:102110007862FF1F6862FF1F5862FF1F5462FF1F33
:102120002E62FF1F2D62FF1F823FFF1F2C62FF1FC9
:10213000F8B5174C0600257806A814240078052D5C
:1021400023D1B41F134FA5B21824BD421DD88D1F33
:10215000ADB2BD4219D8FA256D00AA4215D21D00B4
:102160000D4F0A3DADB2BD420FD80C4C26800C4C31
:1021700021800C4900240A800B4A1380FFF714FFCA
:102180000A4B0421187806F01FFC2000F8BDC04659
:102190007962FF1F790C0000750C00007E3FFF1F65
:1021A0007C3FFF1F7A3FFF1F783FFF1F7A62FF1FB0
:1021B000F0B50BB20D0089B0002B00DB84E1AC4E12
:1021C000307806F081FC041E2DD00378A22B00D1BC
:1021D00033E1D02B2CD0912B22D143780E2B1FD161
:1021E0008388A44A934211D1A34A83681278052AAE
:1021F00016D1032018567F2812D0A04B1B68002B45
:102200000ED05B68002B0BD0984709E09C4A9342A4
:1022100006D181689B488B784A78097805F0F2F8F6
:10222000200006F059FA80200002684009B0F0BD95
:1022300080780728F4D806F0D7FC0800F3FF1C00CC
:102240003C003C007300A700D7006378002B0CD142
:102250000121894B19708C4B1A78002A54D08B4B72
:10226000307801F0FBFA00284ED00722824B1A701A
:102270004AE061780029F8D1E378002B0AD0844A3B
:10228000844B1278307801F0E9FA60706378002BA3
:10229000C6D0EAE7784B1B78022BC1D001213078F9
:1022A00006F072FC0028F1D10121307806F0BCFA6A
:1022B000ECE76378002BD8D16F4F032807D13B7828
:1022C000052B02D101333B701EE00223FBE7724B6A
:1022D0001A88724B0293002A0BD01B78002B03D074
:1022E0000121307806F010FB3B78062B04D1013B2E
:1022F000E9E7029B1A70F7E7042B43D10121029B07
:102300003078197006F090FA5C4B1B68002B00D1F6
:1023100086E71B68002B00D182E7574A107873E7E5
:102320006378554F002B27D10622211D5C4806F00B
:102330003BFC62895B4B5C491A80A2895B4B1A802B
:10234000E3890B800521397059490A80594A138065
:10235000228A594B1A80594B1B78012B09D11F2017
:1023600000F08EFCFA22920042430421307806F0FD
:10237000CBFA0022494B7AE7312B00D075E70022D7
:10238000464B1A7003239EE706220021444806F0BC
:10239000C3FA0023464A04211380464A307813804A
:1023A000454A138006F010FB0821307806F00CFB3C
:1023B000A379083B5A4253412F4A03331370324BDF
:1023C0001B78002B06D0354B30781A78002A06D0BF
:1023D00001F082FA0122334B52421A8094E7012124
:1023E000197006F021FAF5E70821307806F0ECFACA
:1023F0006378002B00D013E72D4B2F4F0293E38817
:10240000029A042113802B4B307803932389039A7B
:10241000138063893B8006F0B7FB002800D0FFE6FD
:10242000274B1B68002B00D1FAE6039902983A88E3
:10243000098800881B689847F2E64379132B00D07F
:10244000EEE60389012B0AD11E4B1B78022B06D125
:102450000821307806F0B8FAFFF71AFEE0E605200A
:1024600000F00EFC08210200307806F04DFAD7E6A5
:102470007A62FF1F051400007962FF1F1462FF1FBC
:1024800022200000F8910111A83FFF1F893FFF1F84
:102490004E62FF1F2F62FF1F5062FF1F5262FF1F1D
:1024A0002162FF1F803FFF1F2862FF1F2A62FF1F5C
:1024B0001E62FF1F1C62FF1F1A62FF1F2062FF1FA8
:1024C0001062FF1F1862FF1F8020C001014200D070
:1024D000ABE6CB0731D5324B1B78002B1DD0314EEC
:1024E00005AC3378052B1AD1023B23702E4B21000B
:1024F0001B7823722D4B1B7863722D4B187801F0DB
:1025000051F9002809D007202A4B30701B68002B96
:1025100003D01B68002B00D09847012085E60E20D1
:10252000254B06221B7825492370254B1B786370A9
:1025300002ABC01806F038FBD8E7022308001840A9
:10254000194209D0174B1B78052B03D11D4B188856
:1025500006F0EAF9022068E60424214203D0FFF7DE
:1025600023FD200061E6082308001840194200D12D
:102570005CE6154B1C78012C03D0022C0DD00820F2
:1025800053E6124B124A134913481B8812880988D4
:1025900000880094FFF7CCFDF1E7FFF779FDEEE747
:1025A0005262FF1F7962FF1F823FFF1F2C62FF1FD5
:1025B0007A62FF1F1462FF1F2E62FF1F833FFF1FFF
:1025C0002D62FF1F803FFF1F1862FF1F783FFF1F14
:1025D0007A3FFF1F7C3FFF1F7E3FFF1F10B5034C5C
:1025E0000B000122210000F06BFA10BD9D270111A4
:1025F0000B8870B506000D000224162B11D92B0094
:102600000322094900F05CFA041E0AD1074B2A880C
:102610001B88191C934200D9111C300089B200F0AC
:10262000EFFA200070BDC046C92701118E62FF1F5E
:1026300010B54A780400013A0B000220012A07D89D
:102640000A78002A04D005222000024900F038FA56
:1026500010BDC046F72701110A7810B50B00040021
:102660000220002A04D007222000024900F028FAA4
:1026700010BDC046A32801110A7810B50B00040054
:102680000220002A04D009222000024900F018FA92
:1026900010BDC0460929011110B5034C0B000B22D7
:1026A000210000F00DFA10BD3929011110B5034CBD
:1026B0000B000D22210000F003FA10BDAB2901111F
:1026C00010B5034C0B000F22210000F0F9F910BDEA
:1026D000052A01110A7810B50B0004000220002A17
:1026E00004D011222000024900F0EAF910BDC046D2
:1026F000152A0111002310B51322190000F0E0F98A
:1027000010BD000010B5034C0B001722210000F093
:10271000D7F910BD672A0111002310B5192219003D
:1027200000F0CEF910BD000010B5034C0B001B22C9
:10273000210000F0C5F910BDA12A0111F7B5848967
:102740000D0006000121002C22D000238268D35600
:102750001778002B1EDA0C2C1AD90C3CA4B21319D2
:1027600040880093230002F012FF431E984101307D
:102770007B06DB0F6B703F23013C1F40A4B2287027
:10278000AF70AC80002C07D0B3680133AB60002180
:102790000800FEBD0020EBE7AC60F8E70B780370A3
:1027A0004B8843704B881B0A83700B79C3700420DD
:1027B00070470420022B06D10020537811781B02A9
:1027C000009A0B43138070470B8803700B881B0A19
:1027D0004370022070470420009983420AD1537845
:1027E00010781B0203430B80D37890781B020343BD
:1027F00000204B807047F8B50D004B780124002174
:10280000461C03702B788B4201D82000F8BD6B78F2
:10281000B01C4F1C012B10D1890069184B88022273
:1028200033704B88B9001B0A7370691806F004F9FD
:1028300004360434A4B2F9B2E4E7122359436B1806
:102840005A88043132705B8810221B0A7370691831
:1028500006F0F2F812361234ECE770B5049D14005D
:102860001E00052B01D8042070BD637812781B026E
:1028700013432B80E378A2781B02134302226B8060
:102880002A71211D681D063E06F0D6F8B2B22A81D3
:10289000E92AE8D82800A11D0A3006F0CDF800206A
:1028A000E2E7002310B50A789A4201D8900010BDE3
:1028B0009A008A185488013304705488DBB2240AC1
:1028C0004470948884709288120AC2700430EAE7D7
:1028D00010B51100029C062B04D004201022142BEA
:1028E00001D010BD022222714B7808781B020343ED
:1028F0002380CB7888781B02034363800431601DFA
:1029000006F09AF80020ECE710B50C788B780431CB
:102910005C43E4B203702200013006F08DF8601CC5
:1029200010BD0420022B06D10020537811781B0221
:10293000009A0B431380704710B50C000A880231CF
:1029400006F07AF8208810BD70B504000D000498D8
:102950001100012B01D8042070BD167852781202A4
:10296000324302800200F13255701470E125002CD0
:1029700000D10C35023B9AB24280AA42EBD8023118
:10298000043006F059F80020E6E70420009983425D
:102990000AD1537810781B0203430B80D3789078C8
:1029A0001B02034300204B80704710B50C000A88BF
:1029B000023106F041F8208810BD000070B50121F9
:1029C0001E000420049C0E400B4218D1CB40DDB207
:1029D0008D4214D90A49DBB2098899420FD32300EA
:1029E000EE331D703300580011184978165C090247
:1029F000314301332152D9B28D42F4D8002070BD49
:102A0000AA3FFF1F10B50C000A88023106F014F827
:102A1000208810BD10B50C788B7804315C43E4B28B
:102A200003702200013006F007F8601C10BD10B5DD
:102A300011000298032B01D8042010BD147852789D
:102A4000043B120222430280CA788C78120222438D
:102A500042809AB28280EB2AEED80431063005F02B
:102A6000EBFF0020E9E710B50C000B8803700B8822
:102A70001B0A43704B8883704B881B0AC3708A887B
:102A80000430063105F0D8FFA088043080B210BDB4
:102A90000420012B03D100201378009A1370704793
:102AA00010B50C000B8803700B881B0A43704A8812
:102AB0000230043105F0C0FF6088023080B210BDE2
:102AC000F0B589B003931E4B029242000700D05A22
:102AD000019102F050F81325061E2DD0029B01240F
:102AE0000370019B002B04D000190399984700192B
:102AF00084B26B461B7A5BB2002B0FDA10213800D0
:102B000002F0A8FB1925002813D130003219E1B2D8
:102B100002F0F2FC051E0CD10C34A4B2042304AA6A
:102B2000380005A993800696948101F0DFFD051E0B
:102B300002D0300005F028FE280009B0F0BDC046E4
:102B40008C62FF1F70B505000C0000280CD000201F
:102B5000814209D010222000044905F06DFF0120B8
:102B60002B7823736B78637370BDC0465496011144
:102B7000F0B506000D0017001C0085B002291BD01F
:102B80000020102907D1022B07D0102B03D115E00C
:102B90000020102C08D005B0F0BD69463800FFF7C2
:102BA000D1FF2A0069460BE069463000FFF7CAFFF3
:102BB00022006946380004E0022BE9D12A003900DE
:102BC000300005F0B1FDE6E7031CF02800D9F02342
:102BD000032008499AB2013A0B80D31703400649F3
:102BE0009B189B100B80D30F04499B185B100B8024
:102BF0007047C046AE3FFF1FAC3FFF1FAA3FFF1FFD
:102C0000054B10B51B888B4205D3044B4000C152C5
:102C1000034804F0F7FB10BDAE3FFF1F8C62FF1F9F
:102C20000B920111014B4000185A70478C62FF1F34
:102C30001722014B1A8070478C62FF1F70B5050088
:102C40000E2005F039FE041E13D0D023037000239C
:102C50000622837007494570033005F0EDFE064BF0
:102C60002100DA8A62811B7E2373044B187805F0F9
:102C7000C3FD70BDA862FF1F9862FF1FFE3FFF1FCC
:102C8000262803D8024B4000C05A70470148FCE791
:102C9000B03FFF1FFFFF000070B506000C00094D9C
:102CA0001C220021280005F037FE074B1E70074B41
:102CB0001C7005F0C1FF0123002801D00023122061
:102CC0002B7070BD9862FF1FFE3FFF1FB962FF1F90
:102CD00070B505000D4C0800E260A16010220021D3
:102CE000656005F0B1FE012803D11021A06802F053
:102CF00004FE10220021280005F0A6FE012803D1C1
:102D00001021606802F0F9FD70BDC0469862FF1F97
:102D100070B5041E05D1002903D006220D4805F028
:102D20008BFE0D4B1D78012D11D1002C05D10222F7
:102D30001A7005F0D9FE280070BD00221A70074BEA
:102D40001B78FF2BF7D02000FFF778FFF3E7002573
:102D5000F1E7C046A862FF1F9862FF1FFE3FFF1FFA
:102D6000030010B5002801D1002010BD00780B4AE7
:102D7000002803D15988D1821B7913761378022B4E
:102D8000F2D10023984200D103331370044B1B7817
:102D9000FF2B01D0FFF752FF0120E6E79862FF1FEB
:102DA000FE3FFF1F002911D000280CD04B790128CD
:102DB00003D140225242134303E03F221340032831
:102DC00002D001204B7170474022F4E70800FAE777
:102DD00070B5094D0100287800280BD0074C062259
:102DE000200005F029FE21002878FFF7DBFF2000F6
:102DF00005F0E2FC70BDC046B862FF1F9262FF1F83
:102E000000290AD0012808D13F224B799343C02BD7
:102E100003D0403B5A425341981C704770B5174D40
:102E200006002B78FF2B15D00A2005F045FD041E67
:102E300010D0D0230370C83B8370114B11491B780D
:102E40004670C3700622043005F0F6FD2100287894
:102E500005F0D2FC0C4B1B78012B0DD10B4B1B68E2
:102E6000002B03D09B68002B00D09847084B04210F
:102E70001878084A05F060FD70BDC046FE3FFF1F90
:102E8000B862FF1F9262FF1FB462FF1FE062FF1F64
:102E9000E462FF1F60EA0000014B98687047C0467B
:102EA0009862FF1F014BDB68186870479862FF1F2C
:102EB000074B10B5DA68136801331360054B1878B7
:102EC000FF2803D08021C90105F0AEFC10BDC0462B
:102ED0009862FF1FFE3FFF1FF7B50E0002F04EF98C
:102EE000051E1CD00E4B06621F78002F00D10778FC
:102EF000AB791020019305F0DFFC041E0FD0D02326
:102F00000380C73B8370019BE91DC3700622043018
:102F100005F092FD21003800E66005F06DFCF7BD7C
:102F2000FC3FFF1F014B18787047C046B862FF1F77
:102F3000054B002805D1054B1A78054B002A00D116
:102F4000014B18007047C046A862FF1FB862FF1F00
:102F50009262FF1F014B58687047C0469862FF1F7E
:102F6000024B1868431E9841C0B27047BC62FF1FF5
:102F7000421E03000120152A03D9FF3B5A42534148
:102F8000D8B27047F0B51C0000230E0085B0039046
:102F900002920B70029A934201D3002019E0E55C83
:102FA0005A1CD2B2002DF8D0029851198142F4DC9B
:102FB0000233DFB2A35C18000193FFF7D9FF0028AA
:102FC00007D0013D019A0399EBB233708A4202D1D6
:102FD000E01905B0F0BDDB19DBB2DBE710B50C0082
:102FE00002F024F903001220002B03D0210058889E
:102FF00005F0F2FC10BD000070B50E4D8400635961
:10300000002B15D0186A002801D005F03DFC2B5983
:10301000586A002801D005F037FC2B59986A00281F
:1030200001D005F031FC285905F02EFC00232B516E
:1030300070BDC046C862FF1F1C4B70B504000E0077
:10304000150099420AD11A4B1B68002B01D112209E
:1030500070BD1B68002BFAD09847F9E7154B9942D1
:1030600015D1134B1B68002B0AD01B68002B07D00F
:103070009847002804D1104B1C70104B1D70E7E7D7
:1030800029002000FFF7AAFF0028E1D1F3E708009C
:1030900002F074F80028DAD003780320A342D7D1D5
:1030A0002900300005F098FCD2E7C046FEFF000082
:1030B000C462FF1FFFFF0000C162FF1FC062FF1F4D
:1030C000F7B50400808802F059F80025A84203D023
:1030D0000578A08802F08EF81C4E3378002B1FD0A4
:1030E000AB421DD11A4B28001978FFF777FF002853
:1030F00018D000233370A3790820A778A6880193FD
:1031000005F0DAFB011E0DD0D0230370CA3B83709B
:10311000019B477086808371280005F06DFB01E0FC
:10312000002DE8D1A0880B4B8200D358002B01D092
:10313000FFF762FF1721A088FFF762FDA08801F06A
:1031400057FDA08801F062FEF7BDC046C162FF1FB7
:10315000C062FF1FC862FF1FF0B587B01D000CAB37
:103160001B88070001930DAB1B88142002930EAB44
:103170001B88160003930FAB1B880091049310ABC0
:103180001B88059305F098FB041E1AD0D02303700A
:10319000CB3B47708370C670062229000430002D97
:1031A00011D005F049FC019B21006381029B00982E
:1031B000A381039BE381049B2382059BA37405F0F9
:1031C0001BFB07B0F0BD05F0A7FBECE7F7B50093DC
:1031D00008AB1B8807000C200D001600019305F0BA
:1031E0006BFB041E13D0280001F0C8FF00280FD08D
:1031F0000078D0232370C93BA370009B210023815A
:10320000019B6770A580E680638105F0F5FAF7BD44
:10321000014B1878EDE7C046FE3FFF1F13B50400D1
:1032200064890389C2888188C0780094FFF7CEFF43
:1032300013BD000010B5044C2068002803D005F031
:1032400023FB0023236010BDCC62FF1FA122F0B539
:10325000818892004A43384B384F1B6804009B1802
:103260009D2292009B18827989B01A603B68002BDE
:103270005FD01D78324B1B68002B04D05B68002B9D
:1032800001D000209847260008363100E079FFF78A
:10329000B7FD237DE0710200E0780493638A290082
:1032A0000393238A0293E3890193A3880093330055
:1032B000FFF752FFE378002B0BD1E289A379A188B5
:1032C00002920196E27928000092012201F060FF4B
:1032D000E0703B68002B20D0FFF7ACFF194D287839
:1032E00000281AD0184B1978FFF778FE002814D060
:1032F0002B78E67808200793A78805F0DDFA011EF1
:1033000009D0D0230370CA3B4670837087808671D2
:10331000079805F071FA00232B701721A088FFF79A
:103320006FFCA08801F064FCA08801F06FFD09B07B
:10333000F0BD064B9DE7C0463409FF1FCC62FF1F5E
:10334000E062FF1FC162FF1FC062FF1FFE3FFF1F41
:10335000F8B5070008000E0001F010FF041E18D099
:103360002620FFF78DFC051E00D12578062005F0EC
:10337000A3FA041E0DD00021062205F0CDFAD023B9
:103380002370C23B21006770A370A680E8B205F0ED
:1033900033FAF8BDF0B585B001930AAB1B7807008E
:1033A00002930BAB1B7808000D000092039301F011
:1033B000E5FE061E22D0102005F07EFA041E1DD068
:1033C0001022002105F0A8FA2620FFF759FC00285A
:1033D00000D13078D0232370C13BA370009B210023
:1033E0002372019B67706372029BA580A372039B8B
:1033F000C0B2E3720C9BE36005F0FEF905B0F0BDCE
:10340000F7B50D00019001F0B9FE071E20D00E2087
:1034100005F052FA041E1BD02620FFF731FC061ED1
:1034200000D13E78D0232380C53B0622A370F91D2E
:10343000E01C05F001FB019B2A0063810123DD40B4
:103440001A401D40210022736573F0B205F0D4F9D3
:10345000F7BD0000F0B585B0029010000D00170018
:103460000A9E039301F08AFE041E31D0029B002BBA
:103470002ED1039B02795B0724D512231343042228
:10348000002E08D10B99002905D10C99002902D1F1
:103490000D9900291AD01A430D9B2271002B00D0E0
:1034A000C9E0002E00D1CFE0002D00D0CCE0606A52
:1034B000002801D005F0E8F91C21300005F0A4F93E
:1034C000606205E002239A430E33D7E793432371EA
:1034D000654BBA00D458002C00D1AAE0002E10D0C1
:1034E000236A002B03D11C2005F09EFA20625E4B5C
:1034F000BA00D358186A002803D01C22310005F006
:103500009BFA0C9B002B12D0574CBB001D596B6AC9
:10351000002B03D1162005F087FA6862BB00E35840
:10352000586A002803D016220C9905F085FA0D9BE5
:10353000002B11D04C4DBC006659B36A002B03D14F
:10354000142005F071FAB0622B59986A002803D054
:1035500014220D9905F070FA380001F00FFE051ED7
:1035600067D0414BBA00D358002B62D01A6A34207E
:10357000002A00D11C389A6A002A01D0143080B287
:103580000B9A002A01D01C3080B25B6A002B01D05C
:10359000163080B205F090F9041E4AD0182200219E
:1035A00005F0BAF92620FFF76BFB0190002801D146
:1035B0002B780193D0232370029B200063700A2391
:1035C000294EA370039BBD00A371AB59A780196A54
:1035D0001830002905D01C22A06005F02DFA20002B
:1035E00034307359996A002907D003001422143328
:1035F000E060029305F020FA02980B9B002B08D0A4
:1036000003001C221C330B992061029305F014FA6D
:1036100002987359596A002903D01622606105F097
:103620000BFA6B462100187905F0E6F83800FFF731
:10363000E3FC05B0F0BD10220D9B0D991B69A0188D
:10364000236205F0F9F92CE70B9B002B00D13FE733
:10365000012D00D03CE7606A002801D005F014F984
:103660001C210B982AE7C046C862FF1F10B5044C06
:103670002068002803D005F007F90023236010BD5F
:10368000BC62FF1F0B4B07B51A68002A01D100204E
:103690000EBD6946531C012012780731FFF772FCFA
:1036A0000028F4D002780123100018401A42EED00E
:1036B000EEE7C046D862FF1FF0B51F4F01203B6800
:1036C00087B0002B25D09B78059300F0DDFB002808
:1036D00021D00A20FFF7D4FA04000B20FFF7D0FA1C
:1036E000164B05001E78731E9E413B68F6B2191DED
:1036F000D878FFF757FB3B682900DA7A0433039246
:103700009A7901930292009033002000059A05F007
:103710001BF807B0F0BDFFF7B5FF002805D0062065
:10372000FFF7AEFA04000720D8E70820FFF7A8FA51
:1037300004000920D2E7C046BC62FF1FB862FF1F29
:1037400070B50A4E040033780D00FF2B0DD0042015
:1037500005F0B2F8011E08D0D0230370CE3B4570AF
:103760008370C470307805F047F870BD0C40FF1FBF
:1037700070B5040006200D0005F09EF8011E0AD069
:10378000D0230370CD3B8370054B44701B6885804C
:10379000187805F031F8002C01D0FFF767FF70BDF5
:1037A000BC62FF1FF8B5264F06003B680D001124D0
:1037B000002B05D10522234B1B78134202D1122482
:1037C0002000F8BD204A10241268002AF8D0127890
:1037D000002AF5D0DB0719D52B789A1E012A1AD8B2
:1037E0000C2005F021F9132438600028E8D00023CC
:1037F0000A22437029000670023005F01DF9FFF718
:103800005BFF041E0AD0FFF731FFD9E700F03CFB55
:103810000028E1D1E4E7002BE2D0D0E70B4B1B7886
:10382000032BCDD11D20FFF72BFA094B1880002860
:10383000C6D0084B04211878074A05F07DF8BFE789
:10384000BC62FF1FB962FF1FD862FF1FB862FF1F73
:10385000B662FF1FE462FF1F60EA0000F7B5019344
:10386000194B14001A78052306000F0012201A4283
:1038700021D0012920D1154B1D68002D1BD002201D
:103880001F2C18D8002C02D0019B002B13D0104BFA
:103890001F221E706E1C0021300005F03DF80199BA
:1038A0002200300005F0C8F8310020002C70002FF5
:1038B00006D005F061F8FEBD064B12201D68DCE75E
:1038C00004F0C2FFF7E7C046B962FF1FD862FF1FCE
:1038D0000C40FF1FD462FF1FF8B50F4E122433684F
:1038E000002B17D01B780F3C834213D100250B4FC0
:1038F0000221387805F068F8094B042138781D80DA
:1039000005F062F8074B28001D8033685C7005F0F5
:10391000ABF904002000F8BDBC62FF1FE462FF1F8A
:10392000D062FF1FB662FF1F70B5012823D11B4C68
:103930002388002B03D01A4A1578002D07D0194B85
:103940001B68002B02D01878FFF7C6FF70BD3B2B19
:1039500002D93C3B2380F9E7134E0221307805F071
:1039600033F8FA222388920002215A43307804F077
:10397000CBFF2580EAE70B4B1B68002BE6D00B4BF7
:103980001B785B07E2D5084B0221187805F01CF87C
:103990000022024B1A80FFF769FED7E7D062FF1FB3
:1039A000B462FF1FBC62FF1FE462FF1FB962FF1F0A
:1039B000F8B51E4D2868002803D004F065FF0023E9
:1039C0002B601B4E3068002803D004F05DFF0023FD
:1039D0003360184F05243B7818002040234221D043
:1039E000154800F055FA3B78234213D0202005F00B
:1039F0001BF82860002813D02022002104F08CFF3F
:103A0000202005F011F8041E306005D0202200218E
:103A100004F082FF002004E0286804F035FF2C60E9
:103A20001320F8BD00F034FAF4E7C046D862FF1F57
:103A3000D462FF1FB962FF1F0040FF1F10B50A4C80
:103A400023681A1E0ED0002808D10130587005F0E6
:103A50000BF9002805D02368002B02D00021FFF7C6
:103A600087FE0122100010BDBC62FF1FF7B5274E74
:103A7000050033680191181E21D05C78244F012C79
:103A800030D1FFF7FFFD002825D02000FFF7F8F820
:103A90000400412814D91F4B022118781E4A04F053
:103AA0004BFF1E4B3C3C1C80022233685A703B7813
:103AB000002B14D128000199FFF75AFE0120FEBD0A
:103AC000FA2292004243002AEED0124B02211878CB
:103AD00004F01AFFE8E7FFF7D3F80200F3E700234A
:103AE0003B70EBE73B78002BE8D1032004F0E4FEC9
:103AF000011E08D0D0230370CC3B4570837033681F
:103B0000187804F079FEFFF7B1FDD7E7BC62FF1F1C
:103B1000B462FF1FE462FF1F60EA0000D062FF1F73
:103B200010B5204B8188994234D016D81E4B99424B
:103B300007D81E4B994221D81D4B994219D000201D
:103B400010BD1C4B9942FAD1836899785A780902C2
:103B500018781143FFF78AFFF2E7174B99421DD0FF
:103B6000164B0020CB18052BEAD8154803F04AFC69
:103B70000EE083681878FFF761FFE1E7114A836878
:103B80008818424250411B78C0B21900FFF7D8FD97
:103B90000120D5E783680C481978E7E783680B486C
:103BA0001978E3E7512000000920000007200000F9
:103BB000062000000A20000052200000ADDFFFFFB9
:103BC0001A920111F8DFFFFF479201116092011173
:103BD000014B18707047C0460D40FF1F10B5064CD2
:103BE000207001F0A7FA207804F0AEFF05212078BC
:103BF00000F06CFD10BDC046E462FF1F0BB273B550
:103C00000D00002B00DBCBE08B4B187804F05CFF41
:103C1000041E0ED00378912B0FD0A22B00D1A8E068
:103C2000864B1878FF2852D0210004F0E5FD0028CB
:103C30004DD180200002684076BD43780F2B76D0AE
:103C400013D8052B70D00E2BEAD180887C4B98427C
:103C50002BD87C4B98421BD87B4B9842E0D1A36871
:103C60001878591CFFF754F838E03E2BD8D18378E8
:103C7000032B79D06CD8012B73D0022BD0D1734B8E
:103C80001B68002B23D05B68002B20D098471EE0D8
:103C90006F4BC0180C28C3D804F0B6FF1DC2C21564
:103CA0000BC20B0B0B3223C23C006A4BC018072817
:103CB000B6D8694B1B68002B09D01B68002B06D0B7
:103CC000200098470AE0A3681878FFF7A7F82000BB
:103CD00004F002FDADE7A068FFF742F800289FD08E
:103CE000F5E7A3681B78002BF1D0584B1B68002B1D
:103CF000EDD01B68002BEAD0210058489847EDE72B
:103D0000524B1B68002BE2D01B68002BDFD0210038
:103D10005348F3E7534B1B68002BD8D05B68002B4C
:103D2000D5D021004648E9E7FFF7CAF9CFE78088F8
:103D30004D4B984203D04D4B984200D070E7494B11
:103D40001B68002BC3D05B68002BC0D02100D5E7D7
:103D5000152B0CD04648162B00D061E703F052FB20
:103D6000B5E7FFF773FAB2E7FFF758FAAFE7414854
:103D7000F4E7414B1B78042B07D100236A461380DC
:103D80000179408800F0C8FCA1E7364B1B68002B86
:103D90009DD05B68002B9AD001003848984796E781
:103DA000012421420AD0294B1B68002B04D05B68F8
:103DB000002B01D00020984701203CE78B070AD553
:103DC000254B1B68002B04D05B68002B01D0200022
:103DD000984702202FE70421280008400D4200D117
:103DE0002AE7274E3388002B21D0013B9BB233803A
:103DF000002B1AD1FFF7B4F800280AD0214B1C7011
:103E0000154B1B68002B04D05B68002B01D02000F1
:103E10009847FFF79FF8694601F086FD6846FEF770
:103E2000D7FF1D20FEF72CFF3080042003E7024B54
:103E3000187804F0C9FDF8E7E462FF1F0D40FF1F8A
:103E40000E2000000120000009100000DC62FF1FAE
:103E5000FEDFFFFFAFDFFFFFE062FF1F0C2000006F
:103E60000B200000C462FF1F0D2000001320000083
:103E7000B69201117A920111B962FF1FFFFF000093
:103E8000B662FF1FB462FF1F10B501F0F7F910BD55
:103E9000014B18607047C046E062FF1F0B8800208E
:103EA000162B01D817230420014A13807047C046FF
:103EB0008E62FF1F00207047074A0300118881426D
:103EC00007D091880020994202D10130800010185B
:103ED00070470020FAE7C046EC62FF1FF0B58F780C
:103EE00006000D00C5B01E2F15D1FFF7E5FF051E1A
:103EF00003D10024200045B0F0BD00223B0031007A
:103F0000C078009200F0B2FB0400A81C00F0D2FBC5
:103F1000FF23EB70EEE7264B062403931B78FF2B61
:103F2000E8D0182FE6D87B08224A013BDB0002923A
:103F30009A589446002ADDD0029AD3185B68002B69
:103F4000D8D00878002802D14B78012B02D1062462
:103F5000122FCFD107AFAB88697800976446AA6863
:103F6000A047041EC6D1AB78029A5B08013BDB0078
:103F7000D318390030005B689847041E0BD1AB782A
:103F8000042BB6D0039A310010782200009700F07D
:103F90006DFB0400AEE76A78002AABD1AA7805A9C8
:103FA0003B88087130000A704B80FEF717FBA0E7D2
:103FB0001040FF1F649601111D4B37B50500984254
:103FC0000BD000290AD1FFF777FF002805D1194847
:103FD000FFF772FF002800D0058037BD01291AD1F4
:103FE000FFF76AFF041EF8D001235B420380A37829
:103FF000FF2BF2D0FE2B07D00023E0781422009391
:1040000029001E3300F032FBA01C00F053FB0123FB
:104010005B426380E1E70229DFD1013901F01AF93F
:104020000028DAD12800FFF747FF041EDFD1D4E7CC
:10403000FEFF0000FFFF0000022210B5074B5242B6
:104040001A80074801325A809A80DA8000F07EFA9E
:10405000044801F081F8002010BDC046EC62FF1F4B
:10406000DD3E0111B93F01110388F7B50400002BB3
:1040700002D102252800FEBD42680221137825489E
:104080005268FEF775FD00282ED0234F01253A888F
:10409000002AEFD0802321885B0201259B1A9942D8
:1040A000E8DC0C2004F0C0FC061E31D03B882288DE
:1040B0009C4600231800019561469DB2491989B2BA
:1040C000AA421BD8002801D062443A800023300065
:1040D000082208C0210004F0AFFC104A1368002B2E
:1040E00013D100251660C5E76268022113780C48D9
:1040F0005268FEF73DFD0028C7D1BAE760681D0190
:104100004019418101330198D6E71A001B68E6E7A0
:104110001325AFE7D29601110E40FF1FE862FF1F83
:10412000D0960111014B18707047C0461040FF1F18
:1041300014230A0010B51A40194204D0012210219C
:1041400001F0A4F810BD4B06F9D4012088434000CB
:10415000F8E710B514008B0604D50122102101F0F8
:1041600095F810BD08230A001A40194202D14BB23B
:10417000002B0FDA102101F089F8002808D0230065
:10418000F2331B78002BECD0F1342378012BE8D1EB
:104190000020E6E703208907FAD4E2E7F0B51F0024
:1041A000184B85B01C68019002910392002C27D116
:1041B000200005B0F0BDA5683301ED186B89019AA8
:1041C000934211D3029A93420ED8002F04D10A9B36
:1041D000002B10D12C00EBE73B002978039A68688C
:1041E000FEF7C6FC0028F2D10136B6B2A388B3426E
:1041F000E1D82468DAE7A3680A9A5B891380E9E7C3
:104200000026F3E7E862FF1F37B50C000A884988EB
:104210000123914217D3002A15D0651D23792A0066
:1042200002210A48FEF7A4FC102300280BD02379B2
:104230006188208800242A000094FFF7AFFF0A233A
:10424000A04200D0230018003EBDC046D296011106
:1042500013B50A0008884988012388420BD8002832
:1042600009D00024137905320094FFF797FF0A2341
:10427000A04200D02300180016BD13B50A0008881C
:104280004988012388420BD8002809D000241379DB
:1042900005320094FFF782FF0A23A04200D02300DA
:1042A000180016BDF0B58BB003904A8808880E0040
:1042B0000123824255D3002853D00023012704ACA8
:1042C00023700022718813000092FFF767FF051E1C
:1042D0003ED02078002835D12B78022B18D167707A
:1042E0006A8983000130E31880005A8069680222DD
:1042F000201804F0A1FB23780133DBB22370042BD8
:1043000019D93B006889013080B2002BD9D01FE059
:1043100002236370122358436A89231804305A8099
:1043200069681022201804F087FB23780133DBB280
:104330002370002BE5D10C4A6B899B185A425341DC
:10434000DBB2DFE76378012BE4D12B78022BC7D0F7
:1043500022780A23002A04D021000398FEF768F986
:10436000002318000BB0F0BD0100FFFF0F4BF0B5AC
:1043700004001868002816D083685D89A54207D814
:104380008288AE18B44203DA12019A18934201D11E
:104390000068EFE71E005F891036A74204D10029AC
:1043A00000D00D801800F0BD3300EFE7E862FF1F7A
:1043B00070B505000C0008880021FFF7D7FF030047
:1043C0000120002B04D022002800197AFFF7C1FE3B
:1043D00070BDF7B50C00002501902300EE331B786B
:1043E000AB4201D800200AE06B00E65A0021300001
:1043F000E718FFF7BBFF002802D126800130FEBD81
:10440000017A0198FFF794FE002802D03B882380B0
:10441000F5E70135EDB2E0E710B5040008880021AA
:10442000FFF7A4FF03000120002B03D02000197A1E
:10443000FFF77EFE10BD0000054B1B68002B01D16D
:10444000180004E09A6852898242F6D19888704731
:10445000E862FF1FF0B50E27002687B0039302AB7A
:10446000FF183E8005001F4B40891400984207D07A
:104470002B78013000976A6880B2FFF78FFE060044
:1044800002212B7818486A68FEF772FB00280FD0CB
:104490006C892000FFF7D0FF002802D0013C0419EE
:1044A000A4B2039B002B00D01C80300007B0F0BDED
:1044B00002212B780D486A68FEF75AFB0028E7D1E5
:1044C00002212B780A486A68FEF752FB002807D0C1
:1044D000002EDED03B88A342DBD17489013CDFE7AC
:1044E0006C89DEE7FFFF0000D2960111D096011122
:1044F000CE96011110B50C00FFF7DEFC0300022080
:10450000002B0AD0002C00D023609B781720FE2BB4
:1045100003D00138FF2B00D1002010BD73B50D0072
:1045200001A904001600FFF7E5FF172805D0002EAB
:1045300004D129002000FEF7F7F876BD01221021F2
:10454000200000F0A3FE0028F3D0F6E7014B18602E
:104550007047C046F862FF1F37B56B469D1D0100CE
:1045600004000222280004F01FFB2B88B02B0ED180
:104570002379122B09D12300FA331B78012B06D1A2
:104580000121608800F0E0F801E01B2BF8D037BD76
:1045900010B5054B0421187000F098F8FFF74CFD9A
:1045A000FEF746FB10BDC046FC62FF1F0020F0B5C1
:1045B0000BB20F0087B0834234DA274B187804F02F
:1045C00083FA051E2BD00378A02B25D103AE310032
:1045D000FEF7B4F8041E0BD1B378DB0724D51F4BCC
:1045E00006341B68002B03D031006888984704000C
:1045F000A868002801D004F0C7F8002C08D1184A98
:10460000039B1340174A934206D0B3781B2B03D069
:104610000121688800F098F8280004F05DF88020F7
:104620000002784007B0F0BD0F4B1B68002B10D084
:10463000310068889847041EDAD07378002BD7D1F0
:10464000B27801A90A704B800C716888FDF7C6FF2B
:10465000CEE70624F1E7C046FC62FF1FF462FF1FAD
:1046600000FFFF0000011200F862FF1FF7B5019084
:10467000FC200D0017001E0004F01EF9040013209A
:10468000002C12D0B02320002370089BF422677006
:10469000658026710830002B08D0190004F0CCF991
:1046A0002100019804F0A8F80020FEBD089904F04C
:1046B00033F9F5E710B5041E06D00078FD2803D8BD
:1046C00004F022FAFF23237010BD00000A1F93B2EA
:1046D00010B504000220032B05D882400020024BB5
:1046E000D1529B189C7010BD1C63FF1F0B8870B5C6
:1046F000043B04000D000220032B0BD801212000F5
:1047000000F0A8FD03001420002B03D02900200096
:1047100000F028FC70BD000007B51300034A0092AA
:104720000A00012100F088FC0EBDC0465549011168
:1047300007B5019203220092024B0A00122100F0F9
:10474000A5FC0EBDD349011107B56B4601AA118026
:104750000449D88008780633012802D1190004F0F2
:1047600093F907BDFD62FF1F0C4B10B518700023B5
:10477000FF210B4A1380138193819380094A538050
:104780001370517293819372D174D38213755177E0
:1047900004F0A2F800F0FCF910BDC0462C63FF1F26
:1047A0001C63FF1FFE62FF1FF0B58DB06B4600203B
:1047B00003910C229B5E834200DBB0E05D4B1878D6
:1047C00004F082F9051E00D1A4E00378902B00D0FC
:1047D0009DE006AF01004688380000F01FFA7968B6
:1047E0000400002900D19CE03B88052B6ED13B8959
:1047F000032B1CD905AC200000F0A2F86288172A10
:1048000061D83989131D994231D1796823780431EF
:104810000291D90738D5607800F08EF9071E06D0CE
:10482000002303712378012B08D0132B23D0A86811
:10483000002800D178E003F0A7FF75E062880299B4
:1048400009A800F0A6F80290380000F08BF909AA38
:104850002378387A0192002231000092029A00F007
:1048600012F9380000F064F9029B002BDFD0300011
:1048700000F080F9DBE70378032BD8D16288029936
:1048800009A800F0D6F8DEE7122B13D1029909A887
:1048900000F0B5F8021EEAD127498B88002BC6D05C
:1048A000887909A92378019161780091310000F09D
:1048B000EAF8BCE7002302AA93833000617809AAD2
:1048C000FFF72AFFB3E71D4B0993F6E7042B02D04D
:1048D0009A1F012AABD8184A043B9B00995A002919
:1048E000A5D0D218907831003A0000F0AEF8002838
:1048F0009DD13B88042B03D001213000FFF724FF1A
:10490000012C04D1A868002801D003F03DFF280045
:1049100003F0E2FE8020039B0002434018000DB02C
:10492000F0BD012800D182E701213000FFF70CFF24
:10493000EDE7C0462C63FF1F1C63FF1F010017003B
:104940000B7803704B784370CB788A781B02134343
:10495000438070470A88030002700A88120A427076
:104960000A88012A06D14A8882704A88120AC270CF
:104970000420704702208242FBD14A8804309A709A
:104980004A88120ADA708A881A718A88120A5A7159
:10499000EFE710B50400012082420CD94B780A7869
:1049A0001B0213432380834206D1CB788A781B02F3
:1049B00013436380002010BD022BFBD1CB788A7893
:1049C0001B02134363804B790A791B021343A380B4
:1049D000F0E70B8803700B881B0A43704B888370C9
:1049E0004B881B0AC3708B8803718B881B0A437129
:1049F000CB888371CB881B0AC371082070470300E2
:104A00000120082A14D14A780878120202431A8039
:104A1000CA788878120202435A804A7908791202C9
:104A200002439A80CA798879120202430020DA8010
:104A3000704710B504000120022A05D100204B78F0
:104A40000A781B021343238010BDF8B5060010201E
:104A50000F00150003F030FF04000120002C0ED0E1
:104A6000A0230C22290023806780201D002D07D061
:104A700003F0E2FF2100300003F0BEFE0020F8BD8D
:104A800003F04AFFF6E7F7B51E00009008AB1420CC
:104A900017001D78019103F00FFF041E12D0A2230E
:104AA0000370019B47704380099B057146710C227E
:104AB0000830002B07D0190003F0BEFF210000983A
:104AC00003F09AFEF7BD099903F026FFF6E737B524
:104AD000041E0FD04388002B0CD00025C18813235F
:104AE000007A172201950095FFF7CDFFFF2365801F
:104AF0006372257037BD000010B50C4904004A8868
:104B0000002A09D08B89002B05D00020CB8A0222F5
:104B1000834201D010BD012213000A20434300202C
:104B20004032C854C81842800472F3E7FE62FF1F87
:104B30000023438003707047094B00211A0010B511
:104B40005C88002C06D01C79844203D10A234B4395
:104B5000D01810BD01310A330329F1D10020F8E744
:104B6000FE62FF1F10B50400407A03F0CDFFFF2363
:104B7000637210BD7047043010B580B203F01CFFA3
:104B8000002803D00421494204F026F810BD00009B
:104B900070B50025124CA0682580A581A580A8428B
:104BA00002D003F0F1FDA56000250E4C0E4B606DA8
:104BB0001D80230058331D70A84202D003F0E4FD8D
:104BC000656500256068002801D003F0DDFD013532
:104BD00008340A2DF6D1054802F014FC70BDC04619
:104BE000C463FF1F6863FF1FB863FF1FEE920111CC
:104BF00070B5041E0CD1074D2880A881A880A86834
:104C0000002802D003F0C0FDAC60034802F0FAFBBC
:104C100070BDC046C463FF1FFA9201110023F0B5B6
:104C20004E8843600A7904000F0089B0022A00D040
:104C30008BE0C98803291ED9BB685A7818781202FC
:104C400002430592DA789D7812021543DA791B7ACD
:104C500067481B0213435BBA9AB20380059B043377
:104C60008B4227D1042D08D06B1F022B16D92900A7
:104C7000604802F0C7FB01201AE05F4B3101CB5ABC
:104C8000002B0BD0F4215D48FF3102F0BBFB30005C
:104C9000FFF7AEFF5A4A1369013313610421059BE4
:104CA000B86823812580494203F096FF60600020A8
:104CB00009B0F0BD524C042D0CD06B1F022B18D93B
:104CC00083212B004D48890002F09CFBE3680133EF
:104CD000E360D0E7484B3101CB5A002B09D047485D
:104CE000484902F08FFB3000FFF782FF2369013350
:104CF0002361414B360106930023069AB352931960
:104D0000059A9D80100007939A81FFF734FF079B57
:104D1000051E986015D00421B868494203F05CFF75
:104D2000FA880100043A280003F086FE069AFB8800
:104D3000B25A043B9B18069AB3522368013323608E
:104D400099E7A3690133A36195E72B4B31010593E3
:104D500033010693059B3001CB5A05990D18A968BC
:104D6000002B30D000292ED0012A2CD1FA880598AA
:104D7000944663449BB232011352A88998421AD3D5
:104D800062469B1AC818B96803F056FE059B06993F
:104D9000AA89CB5A934200D06DE70A0000212381F3
:104DA000AB882380AB686360059BD152144A53687B
:104DB000013353605FE7124A936801339360300018
:104DC000FFF716FF57E70A4A059F1288029333013F
:104DD0009C466744BB8900919921094C0193636902
:104DE0000948890002F00EFB636901336361E6E75D
:104DF0002E63FF1F06930111C463FF1F1F93011150
:104E00003463FF1F130200003693011170B5051EB5
:104E100018D10D4C0D4B1880230058331870606D5D
:104E2000002802D003F0B0FC6565250050356068AD
:104E3000002801D003F0A8FC0834AC42F7D10448A4
:104E400002F0E0FA70BDC0466863FF1FB863FF1F41
:104E50005D930111F0B51600A12285B09200019377
:104E600042433D4B05001B680C009B18D933FF33B0
:104E70001F78FDF7D7FE0430874204DD2800FDF7D8
:104E8000D1FE0430C7B2B74207D332000021280058
:104E9000019B03F0B1FD05B0F0BD3900300003F017
:104EA000FBFD2300C5B250331D700393019B3900F5
:104EB0006365300003F070FDCBB20293002B02D08B
:104EC000039B01351D700026230050331B78B3422D
:104ED00004D8606D002839D10020DCE7029A380040
:104EE000002A04D0013B1000B34200D03800F50086
:104EF0006519287003F0B0FB019B686001001A7807
:104F0000164802F07FFA686800280ED02A780199C6
:104F100003F092FD019A2B780136D318104A0193C1
:104F2000D369F6B20133D361CEE723005033187052
:104F30006065A54205D10A4A1320D36A0133D362C2
:104F4000A9E7606803F020FC0834F2E703F01CFCDA
:104F500000236365C0E7C0463409FF1F6993011150
:104F60003463FF1FF7B50C0006000421606803F0EE
:104F700033FE23890500037023891B0A43702388AD
:104F8000837023881B0AC370278902240437FFB269
:104F9000F42F15D8224B9E4214D10C2003F08CFC28
:104FA0001134011E0CD0902303708E3B0371043B1F
:104FB00043801C4B8560C780187803F01DFC0024DB
:104FC0002000FEBD5C217143174B591801930B0063
:104FD00058331B78002B19D103003A003000FFF73B
:104FE00039FF041E05D0114B22001148D96A02F086
:104FF00009FA5C237343019AD1180B0058331B78CC
:10500000002BDDD1300003F0C7FBD9E7074A094880
:10501000536A07240133536202F0F4F9E9E7C0460A
:10502000FEFF00002C63FF1F6863FF1F3463FF1F38
:105030007D93011198930111F0B587B0009017206E
:105040000F0016000193FFF796FD1325041E19D0DB
:105050000C98031E02D00199201D9847030AE370A3
:10506000052302AAA0700430908127700098667012
:1050700003A993800494FFF775FF051E02D020005A
:1050800003F082FB280007B0F0BD0000F0B587B048
:105090001F000CAB1B780391059301210DAB06009B
:1050A0001C78049200F0D6F81425002821D02000A6
:1050B000FFF722FD0135041E1BD01149059B0A781C
:1050C00003700132D2B2131EC68001D101231A002F
:1050D0000B7022713000049B03990097FFF7ACFF1F
:1050E000051E09D1230021000648074A093303F0B1
:1050F000ABFD280007B0F0BD002363802370F8E704
:105100003063FF1FCF4A011130750000F8B505006C
:105110000E00064C064F2368002B02D031002800F9
:1051200098470434BC42F6D1F8BDC046D463FF1F93
:10513000E863FF1F0123064A5B425380002313717B
:105140005362044A136053609360D36013617047E5
:10515000E863FF1FD463FF1F0200002310B5064958
:105160009C000859002801D1625010BD0133052B65
:10517000F6D11320F9E7C046D463FF1F034A5388D2
:10518000181A43425841404210407047E863FF1FDD
:10519000F0B585B002930AAB1F780CAB1B8800906A
:1051A00008000E0001920393FFF7E8FF05001120AD
:1051B000002D1BD10E48FFF7E1FF04001520002C45
:1051C00014D006220B99A771E01D03F035FC019B5A
:1051D00030002371029B29006371009B668023705D
:1051E000039B6562E381FFF791FF280005B0F0BDE6
:1051F000FFFF000010B5FFF7C1FF04000220002CE4
:1052000012D060880121FFF781FF606A002801D079
:1052100003F03AFB28220021200003F07DFB01234C
:1052200000205B426380207110BD000030B5074A4A
:10523000074C5588010013780020A54204D05B1A62
:1052400059424B415842104030BDC046E863FF1FF1
:10525000FFFF0000084A10B501230C00904208D05F
:10526000FFF78CFF031E04D0037923405A1E93419D
:10527000DBB2180010BDC046FEFF0000024B1879DB
:10528000431E9841C0B27047E863FF1F70B5040029
:105290000D001600FFF772FF002804D10D4B9C4251
:1052A00000D0143070BD416A03790520002907D071
:1052B00012221A40102A02D10520002EF2D10F200E
:1052C000DB06EFD5897E0C20A9428941494249423B
:1052D0000840E7E7FEFF0000030010B5002800D1FA
:1052E00010BD0348034A41889142F9D09847F7E737
:1052F000E863FF1FFFFF0000002330B5C45CCD5CF6
:105300006C40D4540133102BF8D130BD0F23002250
:1053100010B5C45C64002243CA54C25CD209013B8C
:10532000F7D210BD0200010010B52032103103F099
:105330005BFB10BDF0B58BB00390102005931700F8
:10534000049103F071FB0090102003F06DFB009BB3
:1053500013240190002B05D000280CD113240098B1
:1053600003F092FA019B002B02D0180003F08CFA94
:1053700020000BB0F0BD102003F056FB06001020FB
:1053800003F052FB13240500002E00D1AEE00028EC
:1053900019D01022002103F0BFFA3200290003982F
:1053A00003F022FB041E0ED133787F2B51D830003E
:1053B0000099FFF7ABFF009B1B787F2B53D8019917
:1053C0000098FFF7A3FF300003F05EFA002D02D033
:1053D000280003F059FA002CC1D1102003F024FB5F
:1053E0000600102003F020FB0290002E7CD0002845
:1053F00078D03A000F3223000125121105D00F3367
:105400003B4015B25A4253411BB26A1E1201002B97
:1054100033D0049BD2B298180099029AFFF76CFF20
:10542000013D10220021300003F076FAADB2049F56
:105430002D017D19AF4242D0002C33D0300003F053
:1054400023FA029B002B00D189E7180003F01CFA15
:1054500085E729003000FFF759FF28002549009A09
:10546000FFF74AFFA7E729000098FFF74FFF280042
:105470002049019AFFF740FFA5E70F210F4004994B
:105480008A18D9B28F4208D9D15C06A819540133C1
:10549000102BF6D1029A0199C0E7791A484241418E
:1054A000C901F2E73900300006AAFFF725FF3200F4
:1054B000039806A903F098FA10370400BAE7002C05
:1054C000BCD13000029906AAFFF716FF320006A9E8
:1054D000039803F089FA082204003100059803F0CC
:1054E000ABFAABE71324A9E71324AAE7002800D0FE
:1054F0006EE733E7E8960111F0B58BB00F001600A8
:105500000225009000283FD0002A3DD00B1DDBB2C1
:105510001800029303F088FA1135041E34D0FDF709
:10552000C1FC05003A000099201D03F025FBEBB2F9
:105530000393E3702B0CDBB22F0A00936370FFB26E
:105540002B0E2370A7700193FDF7A6FC102201001B
:1055500006A803F011FB2100029A04AB06A8FFF78E
:10556000E9FE051E0DD1039B08223370009B04A9A0
:10557000B370019B7770F370301D03F0FDFAFDF7F7
:1055800097FC200003F080F928000BB0F0BDF0B5C7
:105590008FB00D00149E039004920593002A03D14E
:1055A000022420000FB0F0BD002EF9D00398FFF7C1
:1055B000E5FD1424071EF4D07278337812021A43E2
:1055C000B3781B041343F27812061A43036A01925C
:1055D000934201D30133E3D1002D03D03B79012461
:1055E0009B07DED50822002106A803F095F9059B4C
:1055F00013240433DBB21800029303F015FA051EDE
:10560000CFD0059A0499043003F0B6FA0422310091
:10561000280003F0B1FA3900102210310AA803F073
:10562000ABFA2900029A06AB0AA8FFF783FE041E14
:105630000FD1082206A908A803F09EFA0822311DFE
:1056400008A803F071F8012807D101990398FDF724
:1056500043FC280003F018F9A3E70124F9E7000050
:1056600070B51C4C05002368181E10D0002D14D1F5
:105670001A78002A0CD1981C083203F0DDF903F0E7
:10568000DBF80135002808D123681D70012070BDAA
:105690000A331800082203F0CFF92368002BF5D055
:1056A000122003F009F9061E0DD0C12321680370F2
:1056B000457002311022023003F0BEF92368310038
:1056C000587803F099F8206803F0DEF8002323608F
:1056D000DCE7C0461064FF1FF8B504002020FDF78A
:1056E000CFFA154FA600F3590500002B1FD0002854
:1056F0000ED0D878FF280CD0290003F0F5F8002848
:1057000007D1F3590D49DB780D48220001F07AFEEC
:10571000F8BD0C492A000C55BB59611803330A48DF
:1057200003F092FABB590549DB780848EDE7210000
:10573000074801F067FEEBE72C64FF1FD8960111C4
:10574000AA9301111464FF1F7D690111D493011103
:10575000FD93011170B50B4C85002B590100002BF6
:105760000BD0DA78084801F04DFE2B59D87803F0B9
:10577000CBF9FF222B59DA7070BD044801F042FECC
:10578000FAE7C0462C64FF1F17940111FD93011125
:1057900070B506008CB00C00150000213022684660
:1057A00003F0BAF831001022684603F0E5F91D2035
:1057B00021000322684403F0DFF96846FFF7B2FDD9
:1057C0002D21040003222800694403F0D5F92000AC
:1057D0000CB070BDF0B50700160097B001931CAB7C
:1057E0001D7830221EAB00910AA800211C7803F01E
:1057F00093F8102239000AA803F0BEF91022002104
:1058000002A803F089F80722310002A803F0B4F9D6
:10581000072202AB9818631E9C41019903F0ACF972
:1058200002AB9C732B005A1E934102AAD373002132
:10583000102206A803F070F806221D9907A803F0AD
:105840009BF91A2002ABC01806221F9903F094F9A5
:10585000102200990EA803F08FF9102202AB0EA9B6
:1058600008781C78013A6040D2B2087001330131E7
:10587000002AF5D10AA8FFF755FD102212A904004D
:105880000EA803F0D9F8102206AB0EA908781D78EF
:10589000013A6840D2B2087001330131002AF5D1D3
:1058A0000AA8FFF73FFD044310222098E4B212A992
:1058B00003F062F9200017B0F0BD70B50E001400BF
:1058C0008CB00100102268461D0003F055F931002C
:1058D000082204A803F050F92100082206A803F0CA
:1058E0004BF96846FFF71EFD04001022280008A9A6
:1058F00003F042F920000CB070BDF8B506000D00B1
:1059000000243719AC4200D3F8BD02F0D5FE030ADB
:105910003B70631CDBB201379D4203D90234F05463
:10592000E4B2EEE71C00EDE773B506000C000225BB
:10593000002819D0002917D0032101A8FFF7DDFFA7
:105940006B469A793F231A40013313436A4630006D
:10595000937101A92200FFF71BFF051E04D103224A
:10596000E01C01A903F068F8280076BD0378580709
:10597000DA08C00FD20080009B0710439B0F18432A
:10598000C0B2704707230B40C908C9000B4303701E
:105990007047000070B50400FFF7DCFE134DA40053
:1059A0006359002B21D0186A002801D002F06CFF47
:1059B0002B59986E002801D002F066FF2B59D86E43
:1059C000002801D002F060FF2B59186F002801D089
:1059D00002F05AFF2B59586F002801D002F054FFF3
:1059E000285902F051FF00232B5170BD2C64FF1F7A
:1059F0000E4B8000C35870B50C00002B0FD09D6873
:105A0000002D0CD02B78201D0B706B784B70A97C6F
:105A1000FFF7B8FF2B7E23726B69E36070BD102225
:105A20000021200002F078FFF8E7C0462C64FF1F39
:105A3000014B18607047C0462864FF1F074A0300E7
:105A40008000825810B5002A06D0D088984203D131
:105A5000012901D1FFF79EFF10BDC0462C64FF1F36
:105A6000F0B5264E95B087000B93BB590500099100
:105A700012200A92002B31D0D888FFF77FFB040058
:105A80001420002C2AD0280010A9FFF7B1FFBB5921
:105A90001E781D6A002E23D00895FDF743FA0700F3
:105AA0000020FDF745FA0790A379E61D069310AD97
:105AB0000CA9089800F0E2FA0EA9280000F0D7FA25
:105AC0000B9B0A990493069B09980293079B0396E4
:105AD000019300970EAB0CAAFFF77CFE15B0F0BD4A
:105AE000FDF720FA06903000FDF722FAE31DA779B2
:105AF000079310AB06000893DAE7C0462C64FF1F3B
:105B000030B50C4C85002A59030085B00120002ACD
:105B10000ED018006946FFF76BFF2B591A78D8880A
:105B2000054B002A00D1054B6A46072100F0D9FB3E
:105B300005B030BD2C64FF1F6F6001117D60011145
:105B400030B5094C8500295985B0102268462531A9
:105B500002F072FF2A591121044BD0886A4600F0E6
:105B6000C0FB05B030BDC0462C64FF1F1961011198
:105B700030B5094C8500295985B010226846353169
:105B800002F05AFF2A591121044BD0886A4600F0CE
:105B9000A8FB05B030BDC0462C64FF1F5761011142
:105BA000F7B54D4F86001020F4590D0002F03CFF70
:105BB000F3592062186A132200286CD0033A290096
:105BC0009C6802F039FFF3591A780192002A58D1E3
:105BD0001E6A227D317B944651400122019F114271
