:020000041101E8
:10010000F7B5164B0192C318021D002000938823F7
:100110005B05D3181B685C1C1AD09CB2402C18D805
:100120008D781E0CAC466746CD782D023D43AE421D
:1001300006D1019800280ED110000C70240A4C70D2
:1001400003249BB20733A343D218009B9A42DED309
:10015000FEBD4432F9E71000FAE7C046FC0F00008C
:10016000802213B503000324019189B252010731A3
:100170009B18A14304305A1A88235B05C3181B68D7
:10018000591C03D190429241104016BD99B24029AA
:1001900007D80B000733A343C0189042ECD30020CC
:1001A000F3E74430F9E7134B134A1B68126810B5A4
:1001B000F424934201D81A00F024104BA4021B68C7
:1001C0009A4210D813000E4A12689A420ED3013395
:1001D00007D1F0239B029C4203D10A49054808F04D
:1001E0002FF9200010BDF824A402ECE7FC24A4029F
:1001F000F7E7C04600C0031100D0031100E003116F
:1002000000F00311FFFFFF7FF0B59BB015000490D5
:100210000391402A00D9A0E006AB59801A80FFF76D
:10022000C2FF0400042816D9002206A9FFF768FFC0
:10023000052810D906AB1B88AB420CD1002D07D086
:10024000514B2A000499C01808F04AF9002802D13D
:1002500001201BB0F0BD06AB1D8020000699FFF702
:100260007FFF041E7BD1069B0793FFF79CFF802333
:100270005B01C61880230700DB029E4201D3F026F3
:10028000B60288235B05F31801931B68013302D083
:10029000019808F075F83D49019808F0D1F83B1D28
:1002A0000293331D05938822029B52059B181B68FD
:1002B00008935A1C3CD044219AB20091402A04D899
:1002C0000320D11D814389B2009103991B0C8B42FD
:1002D00024D0402A22D80122300008A9FFF710FFBD
:1002E000021E1BD1380008A9FFF70AFF04000428EA
:1002F00031D9009A059B9B1880225201B218934273
:1003000040D288235B05C118009A09A808F080F93B
:100310001D4B009A09A9F01807F0CAFF009A029B2A
:100320009446634402931A4B029AFB189A42BAD33A
:1003300088235B05FC1821680198013908F080F8D2
:10034000200008F01DF8039A07AB5A803000079987
:10035000FFF706FF0400002C03D1002079E70428F2
:10036000FBD988235B05E018069908F069F8032398
:10037000EA1C9A4300D16BE7034B0499E01807F09D
:1003800097FF65E70424ECE704000011FFFFFF7FFF
:10039000F80F0000F7B505001400402A21D8002707
:1003A00001AE71803780FFF7FEFE042816D93A00AF
:1003B0003100FFF7A5FE042810D93688BC420BD0C7
:1003C000BD4209D0221CB44200D9321C064B92B265
:1003D000C118280008F01CF930B2FEBDC04300B2BD
:1003E000FBE703204042F8E70400001137B5042280
:1003F00004000D0001A81649FFF7CCFF02000428F5
:100400000BD1019BA34208D3AB4204D0104901A8F1
:100410000195FFF7F9FE01203EBD0E4C2368200038
:10042000019307F0ADFF019920000139019108F017
:1004300007F880235B01E418074B9C42EED10422AD
:10044000034901A80195FFF7DFFE0020E4E7C0465D
:100450005555000000C00311000004118022F8B5BA
:10046000964C974BD200002120001C6008F0F8F851
:100470002300944A88331A60934B1A786A23002A1F
:1004800000D01133E3620A232365904B37221B7897
:100490000820A3638E4B2118E361102323628D4B48
:1004A0003B256361C823DB00A36123008C331A6002
:1004B0002823013AE26320646364CA67043A211D79
:1004C000CA672100BC310D602100C03108602100E5
:1004D000C4310B6021000635CC310D602100083D90
:1004E000C8310D602100D0310A602200D432106082
:1004F0002200D832136022000227E0322100176068
:100500004222DC310A6021001B3DE4310D602100F4
:10051000E83108602100EC310B6023000521F43341
:1005200019602300F0331A602300183290331A60E8
:1005300023009433186023001E3A98331A60AF23C7
:10054000DB002360644BFA262363644B644DE36055
:10055000644BF031A3642300FF31FC33B600A1608B
:1005600021611E60A5627325E5656D3D6565A56524
:1005700096255D4AAD00E264666258606766A566CE
:1005800000270925A767E566584F594D6067200089
:100590002567E2673A6015279C30676007001A20DC
:1005A00038602000A0300700212038602000A830EB
:1005B00007004C4838602000F830066026006427A9
:1005C000A436376026005F3FAC3637602600033F15
:1005D000B03637602600C637B436376026000027AD
:1005E000B836376038269E60424E96205E64424E92
:1005F0005A66DE61414E9A645E62F53EFF3E9E623F
:100600001E269A67354A8000DE661F675F67DD65D4
:100610001D661862DA67BE23394A5B00E250394B27
:10062000D838235004302250C4225200A350C6238D
:10063000E4205B00E1500433334AE1503349344B4A
:10064000D1603449800019503349E938FF381950D6
:1006500032490430195032493248D161324911636C
:10066000324951631900F4310860CE20304940000E
:1006700011603049195019002F48F83108602F498E
:10068000D16582212E4A89005A501A002D4908321C
:10069000D1671A002C49B432116088212B4A890095
:1006A0005A501A002A49883211602A4ADA6407F03F
:1006B000F7FE012007F034FFF8BDC0460004FF1F1D
:1006C0003062FF1F006DFF1FD440FF1F4A0AFF1F4B
:1006D0003A07000080C3C9019A020000DC0500004F
:1006E0006A18000050C3000088130000F009FF1FC3
:1006F000204E00006509FF1F68100000C4090000BB
:1007000040420F0010270000FC00FF1FC11BFF1F0D
:100710000000FF1F152CFF1F9D2FFF1F352EFF1FF1
:10072000811FFF1F7126FF1F9D1FFF1F4921FF1FF4
:100730000D1FFF1F9528FF1F7D29FF1FD918FF1FC1
:10074000A127FF1FC524FF1FD124FF1F0D1EFF1F60
:10075000C51EFF1F851DFF1F0223F0B50124634D39
:10076000634E2B70634B34701A68634B89B004205E
:100770005A7006F077FB07F0C3FEFFF76FFE07F035
:10078000FFFF1F2200215D4B1E271A705C4B6F4438
:100790001C705C4B19705C4B19689143163A0A4304
:1007A0001A60602219689143403A0A431A6008F0BF
:1007B00017F807F085FE554B9847C120FF21544B91
:1007C00080001A588A431A50C522920098588843CC
:1007D000BF390143995098584E4908408021C901BA
:1007E0000143802099509958C0050902090A014324
:1007F000995080214848490107F0FAFE032322005E
:10080000464901940093464807F05AFD162245498F
:1008100002A807F0FDFE02AC61782078023405F0F2
:100820001FFFA742F8D1404C404B226803201A40DA
:10083000A023DB0213432360802322689B0413431D
:10084000236022683A4B1A4080239B0313432360A2
:10085000384A394B934200D8012007F081FE07F057
:100860009FFF80232268DB0413432360287807F06E
:10087000E7FF3078C0B207F0E3FE07F051FF2F49E1
:10088000042007F0ADFE06F0E3F806F02FFD00F0BF
:1008900013FE00F0BBFE2A482A4906F0CDFB2A4B86
:1008A0002A4819782A4B32781C782A4BC9B21E780C
:1008B000D2B22B780196009406F0BEFB08212648A0
:1008C000264A06F0B9FB8023A1222548920023493D
:1008D0005B0106F0B1FB234B2348196806F0ACFB23
:1008E00000F022F9002009B0F0BDC0464A0AFF1FFF
:1008F000D440FF1F34F00040D85FFF1F480AFF1F9D
:10090000490AFF1F680AFF1FBCF00040E1A2000077
:1009100000E100E0FF00FFFFD840FF1F5C53FF1F16
:10092000D850FF1FD78F011114F00040FF7FF8FF50
:10093000FFFF9FFF0080FF1F006DFF1F3B000108AE
:1009400080880111020101034B0AFF1F96880111E3
:10095000440AFF1F450AFF1FC4880111780A0000DE
:10096000F4880111800AFF1F488901117047704700
:1009700030B503A804880B20002C0ED14968074D20
:1009800008784978090201430A20A94205D10121CA
:1009900020001980024B1B7A137030BD192A000009
:1009A000C05FFF1FF7B5150008AA16884A680F4FE9
:1009B00014785278120222430A24BA4214D1012236
:1009C000DBB2019200962A0007F0B2FB041E0BD1A5
:1009D000074B1B68002B07D068782A780002104369
:1009E00042425041013098472000FEBD02290000DC
:1009F000DC5DFF1F30B5012503790400BFB02B4239
:100A000011D00A49408806F0FFFE28420BD0084B5F
:100A100001A95B8D4D800B80064B00221B7A6088FC
:100A20000B7103F095FB3FB030BDC046D45DFF1F96
:100A3000F03DFF1FC05FFF1F10B50549054806F0D8
:100A400099FE0421044A054806F056FE10BDC04632
:100A5000D45DFF1FFFFF0000F08F0111F03DFF1F6D
:100A600010B5024804F052FA10BDC046F509011154
:100A700001230370054B1A7A42700C2282709A7916
:100A8000C270DB79037105207047C046C05FFF1F4D
:100A9000022310B50370013B43700533837010339C
:100AA0000371443B43712A3383714433C371002380
:100AB0000372064B04001B8843720A30FFF7D8FF0D
:100AC000831D0A30C0B2E37010BDC046C05FFF1F77
:100AD00010B5142007F0CCFD124B14220021186031
:100AE00007F0BEFD002007F0B3FE012007F068FE0E
:100AF000022007F085FC032003F050FC042005F0E1
:100B0000E7FC052002F084FE062003F05BFB0720D3
:100B100001F0ECF8082006F0CFFD092000F096FE69
:100B200010BDC046E05DFF1F07F0D2FD012007F0B9
:100B300007FD07F0C5FD002B01D000221A800A2016
:100B400070470000F0B56C4B85B01B68002B17D0C8
:100B50006A4C2021200000F0D9FB694D2B78002B36
:100B600010D19825674C6D0020212B00220063488E
:100B700000F0F3FB0100A84202D1200000F0A2FB2C
:100B800005B0F0BD6E796F78002E2CD0701E032159
:100B900007F05EFB5C4B0131C9B21E78012940D1E0
:100BA000A878FF21784307F0ABFBC3B20193E87844
:100BB000FF21784307F0A4FBC3B202932879FF21F9
:100BC000784307F09DFB23000322C0B26033164236
:100BD00004D10199A070217002996170033401362B
:100BE000A342F4D1BDE7A878FF21784307F088FB42
:100BF000C3B20193E878FF21784307F081FBC3B2C9
:100C000002932879FF21784307F07AFBC0B2019B59
:100C100001362370029BA07063700334202EF6D13E
:100C20009FE702293DD10325002375430193EDB2CF
:100C3000542E20D8E8430023C0B202950393FF212D
:100C4000784307F05DFB20700298FF21784307F09E
:100C500057FB60700398FF21784307F051FB019B1D
:100C6000083601331835A0700193F6B2EDB20334A3
:100C7000202BDDD175E7A92E09D86B1CDBB20393BD
:100C800002235B425B1BDBB200200293D7E7032306
:100C90005B425B1BDBB203930023A81CC0B2029330
:100CA000CDE7700073B2C0B2002B03DAFF239B1BA9
:100CB0005B00D8B2FF21784307F022FB0600A8783A
:100CC000FF21704307F01CFBC7B2E878FF21704397
:100CD00007F016FBC3B201932879FF21704307F098
:100CE0000FFB0023C0B2019A013327706270A0701D
:100CF0000334202BF7D134E7105EFF1F445FFF1F42
:100D0000A45FFF1F145EFF1FEE5DFF1FF0B585B0EF
:100D10001F000AAB15000E241B8800292CD0002AC6
:100D20002AD0033C002B27D10B78013C022B23D186
:100D30004B681A785B781B0213431C4A93421BD101
:100D40000334092F18D12B79EA78A9780397EC7925
:100D500017480294AC7901946C79009406F06CF910
:100D6000144E3A002900300000F0F9F8041E06D0B5
:100D7000114806F061F98024200005B0F0BD3A006A
:100D800029000E4807F044FC357973787279317880
:100D90000395F5780A480295B5780195B5790095DF
:100DA00006F04AF9FFF7CEFEE6E7C046F3FF000083
:100DB0005A890111A45FFF1F9A890111E45DFF1F89
:100DC000B689011110B50E4800F08AF900210720FC
:100DD00005F02CFD0221072005F042FC0021032034
:100DE00005F024FD0221032005F03AFC0021042037
:100DF00005F01CFD0221042005F032FC10BDC046A8
:100E0000F05DFF1F7FB5072005F00AFC04000320FA
:100E100005F006FC0500042005F002FC01214D4010
:100E20004C40EBB241401F4DE2B21F4CC9B20091A1
:100E30002800210000F05CF9002812D025796378A1
:100E4000627921780395E57818480295A57801958F
:100E5000A579009506F0F0F80022154B1A70FFF7FF
:100E600071FE2378002B13D06379002B10D0FF2163
:100E70001220A3790E4ECB1A9BB2584307F098FB71
:100E8000357802300135EDB2C0B2854201D23570FD
:100E90007FBD0023074A3370137801331370FFF7C7
:100EA00051FEF5E7F05DFF1FA45FFF1FF4890111FC
:100EB000ED5DFF1FEE5DFF1F70B5154C200000F0CB
:100EC0003FF80023134A14481370144A2370137018
:100ED00000F06AF943424341114D12492B6000284A
:100EE00000D11149114806F0A7F82B68002B08D053
:100EF00000232370FFF726FEFFF724FE0C4806F0C0
:100F00009BF803210B4A0C4806F0F6FB70BDC04667
:100F1000A45FFF1FEE5DFF1F009F2400ED5DFF1F1C
:100F2000105EFF1F3C8A0111398A0111418A0111AB
:100F3000608A011134900111343EFF1F70477047E1
:100F400000280BD001230370FE338022437083708E
:100F5000C3700371002382714371C371704710B570
:100F60000123041E23D0002921D0DB18092A1ED119
:100F70000A7801337E2A1AD10A7AEF2A17D18B78A0
:100F8000072B09D8002B09D0981E052808D807F090
:100F900067F9101728374F54812B57D0042306E0E8
:100FA0004A780323042A02D1CB7863700023180007
:100FB00010BD4A780323042AF9D1CB78A371F5E751
:100FC0004A78052AF3D10A79032A04D17F22CB7803
:100FD00013406371EAE704239A42E8D1033BE371CB
:100FE000F4E74B78042B34D10A79002ADFD1C87892
:100FF0004A798242DBD10133012AD8D82270D5E761
:10100000CA780423032AD2D14A78072ACFD1EF2005
:10101000CA79103A0242CAD10B79A3704B79E370B6
:101020008B792371CB79202BC0D11F3BE371BDE7B6
:101030004A780323042AB9D0B9E74A780523042A59
:10104000B5D1CA78012AB2D8E271AFE74B78062B46
:10105000ACD00323ABE7000002788A4204D001231E
:1010600001708370002070478378032B18D80133F8
:10107000DBB28370042BF5D143789342F2D04270F7
:10108000002A05D000238380C38003720120EAE791
:10109000037A8280C2800272584258414000E2E7DF
:1010A0004378002BDED083880C4A934201D0013371
:1010B0008380037A002B07D182883B2AD2D9012270
:1010C0000272C3800320CEE7C38801339BB20E2B8C
:1010D00001D8C380C6E70023F3E7C046FFFF000046
:1010E00010B5002803D02022002107F0B9FA10BD66
:1010F000F7B51E0008AB1B780C000500110001932A
:10110000002839D0201E37D02800FFF7A5FF0700A0
:10111000280031000A30FFF79FFF060028000199E0
:101120001430FFF799FF02000020012F04D123782B
:10113000380059424B412370022E1ED10721032053
:10114000AB7F01330B401749AB7758430B00C35CAF
:101150000918A37000234D788978E57021716371B7
:10116000E3710120022A12D1637901320133134065
:1011700063710023E3710120FEBD032EF2D1637879
:101180002021DF2B01D85B18D9B26170E9E7032A6F
:10119000F2D1A3791D32DF2B01D89B18DAB2A271EC
:1011A000E9E7C0465090011170B5041E66D0842353
:1011B000354A5B0111680B4313604023334A1168C1
:1011C0000B4313608023DB051A6831490A401A601B
:1011D0008022196852010A432E491A600A682E4B70
:1011E0001A40B0235B0313430B6080232B4ADB03BD
:1011F00011680B4313602A4B984763000500834234
:101200003FD860082100401907F0D2F9254A0300B1
:1012100090422FD91300DA0717D51A00032B00D2FA
:1012200003222149013A8B4200D90B00110061438E
:1012300001335C43481B8D4200D9681A611BA542EB
:1012400000D9291B884200D8130008240020174920
:10125000174AFF34087014802222164C25682A434E
:101260002260154A1360154B154A1860012313704C
:101270000B7070BD0228CED20223CCE70120404281
:10128000F7E70220FBE7C0460800004014000040DA
:10129000FFEFFFFF2C380040FFFFC0FF0C3800407D
:1012A000D1A50000FEFF0000FDFF00000870004017
:1012B000007000402C300040147000402C70004042
:1012C0001070004030B5002817D002230C4C411894
:1012D000884206D101232278100018401A42FAD120
:1012E00030BD22781A42F3D0064A1268072AEFD896
:1012F0000578054A01301560EAE701204042EFE732
:101300002870004020700040607000400B000028F2
:1013100005D00321594300234118884200D170476A
:101320000370437083700330F7E7F0B500220624A2
:10133000130080260427A446340014413D000442D3
:1013400000D06546DB0001322B43082AF4D11A0C89
:101350000A701A0A4A708B70F0BDF0B504001500CF
:10136000070085B0002819D0171E17D009224A435C
:10137000170010370192BB4222D303232E004B43A8
:10138000C3180293330009330393029B9C4208D194
:10139000019B10220021E81807F062F9380005B01F
:1013A000F0BD31006078FFF7C0FF2078F11CFFF737
:1013B000BCFFA078B11DFFF7B8FF0334039EE1E73F
:1013C0000027EBE770B5160004AA148805AA157863
:1013D0004A685078117800022A4A08438018052884
:1013E0004BD806F03DFF03131E29343F07200E2C77
:1013F0000BD80F22121BAA4200D92A0022491A80B8
:101400003000091907F004F9002070BD0720112CE5
:10141000FBD81222121BAA4200D92A001B491A80AB
:10142000EEE707200E2CF0D80F22121BAA4200D99B
:101430002A0017491A80E3E70720032CE5D8042285
:10144000121BAA4200D92A0012491A80D8E70720A5
:10145000032CDAD80422121BAA4200D92A000E4912
:101460001A80CDE70720022CCFD80322121BAA42F4
:1014700000D92A0009491A80C2E700220A201A80EE
:10148000C3E7C046DCD5FFFF92900111AC5FFF1FA0
:10149000829001117D9001117890011174900111D9
:1014A00010B50D21024A034806F026F910BDC046CA
:1014B00068900111643EFF1F10B5084CE368002BD3
:1014C00008D18022064B52021B689B186360054BB3
:1014D0001B68236006F02CFFA06010BDE85FFF1FB3
:1014E000C8F00040CCF0004070B5184A936A916A89
:1014F0009942FBD116498A689A421FD39A1A8B6087
:10150000144B0126186893B2D202D20E43434243D1
:1015100000204C681B0A1B1912029B180E4C0A680B
:101520004B60551CA3420CD8002801D04B600A60C8
:101530000A4A136008680A4B186070BD581E821A68
:10154000DDE7084A30009B182A00EAE700F0004077
:10155000E85FFF1F140AFF1F40420F00C8F0004061
:10156000CCF00040C0BDF0FF70B51F4C23793F2B7D
:1015700001D93F2323711D4B22791A701878C0B20C
:1015800006F0E6FE18231A491A4A0B801A491380FE
:101590000B805380A379194980200B800C21938004
:1015A00001334B43164D191C0001834200D9011C25
:1015B0002980D1806379002B01D101336371237AB3
:1015C000012B01D8022323726279237A0D485343F9
:1015D0000A21584306F094FE0B4D2860E379052B51
:1015E00001D81023E37170BDDC5FFF1F480AFF1FA5
:1015F0004E3FFF1F8040FF1F4C3FFF1F4A3FFF1F12
:10160000483FFF1F71020000CC5FFF1F064B70B503
:101610001900064A31CA31C102225A7100229A7158
:10162000FFF7A2FF70BDC046DC5FFF1FBC90011139
:101630007047000070B50400013806280DD806F088
:101640000FFE041135551D0C57002A4805F0F4FC17
:10165000294B0221187807F07BF82100274805F074
:10166000EBFC70BD264805F0E7FC234B08211878F9
:1016700007F0CEF80022234B1A72EEE780220025F5
:10168000204B52001A81FA22DD721F4B1A4E5B7AF0
:10169000920008215A43307806F0EAFE290030789B
:1016A00006F0FEFD194805F0C7FCD6E7184805F01E
:1016B000C3FC114B0821187807F0AAF81548FFF76A
:1016C000E7F9114B144A9B799380144A1380002246
:1016D0000C4BDA720132FF321A81114B1B78002B4E
:1016E000BBD0104A136006F053FEB6E70E48DAE7A7
:1016F0000E48D8E7848A0111F85FFF1F028B0111A1
:10170000938A0111CC5FFF1FDC5FFF1FA78A0111C5
:10171000BA8A0111593FFF1F8040FF1F4A3FFF1F38
:10172000D85FFF1F34F00040D18A0111F28A011105
:101730000300F0B50A4D8E18B14202D15200801854
:10174000F0BD0C782F6824093C5D0F271C700C78C5
:1017500001313C402F683C5D5C700233ECE7C046D1
:10176000443FFF1F18220F4B10B51A7017230E4C61
:101770000E492370093A0E3B0D48637006F048FF8E
:101780002D2301220B490C486374FFF7D1FF01227E
:101790000A49FFF7CDFF01220949FFF7C9FF0023DE
:1017A000037010BDF661FF1FD761FF1F92900111FA
:1017B000D961FF1F6709FF1FE961FF1F6609FF1F4E
:1017C0006509FF1F10B5FFF7CDFF084C084B2078C7
:1017D00021000130C0B2187006F0A2FD2178054A40
:1017E0000139C9B2002005F0A5FE10BDD761FF1F69
:1017F000F661FF1FD961FF1F10B5114B1A781870E1
:10180000002A0ED000280BD10E4B1A78062A07D8D2
:101810005423D340DB0703D50B4B187801F076FE39
:1018200010BD0028FCD0074B1B78012B02D0033BD6
:10183000022BF5D8044B0121187806F089FFEFE759
:10184000FA61FF1F2162FF1F2262FF1FF8B5514C92
:101850002D252070504805F0EFFB504805F0ECFBBB
:101860004F4805F0E9FB06F053FE03224D494E4870
:10187000FFF75EFF8821030004221D704905013037
:10188000FFF756FF30230570484E494D4370837073
:101890002E3B062230004749EB87FEF77BFD0628EA
:1018A00013D0300006F0D4FE022809D00321300006
:1018B00006F08EFE8D23F3706E3B33711933737116
:1018C000062230003B49FEF79FFC3B4B1B68FC3374
:1018D0005E64FFF777FF3949394805F0ADFB6423B3
:1018E000384F39487979594305F0A6FB0020FFF7B6
:1018F00083FF364E364A0121364B1278307801F09C
:10190000C7FD354A307801260021344B127801F0AA
:10191000BFFD6422324B20211E707B7953431A0095
:101920000A32AB812B82EA816A82207806F0D8FEE7
:101930000120404205F04AFE0120404205F0E6FE4B
:10194000FFF7AEFDFFF778F8264805F075FB01209C
:101950004042FFF7B1FAFFF735FA80210A22090168
:10196000207806F085FD300006F092FEF02000F0B1
:1019700045FF3100207806F0EBFE207801F042FFB1
:10198000194806F055FDFEF7F1FF184805F054FB25
:10199000F8BDC046F85FFF1F118B01113F8B01118D
:1019A0005A8B0111F43FFF1FAC5FFF1F6509FF1F3A
:1019B000803FFF1FADAC00003062FF1FD961FF1FE9
:1019C000708B0111DC5FFF1F838B01112262FF1FEF
:1019D000783FFF1F593FFF1FF661FF1FD761FF1FB1
:1019E000C861FF1FA08B0111FA5FFF1FC08B01119F
:1019F000F8B520230E000D001E40194261D0654B42
:101A0000654C1B78002B42D0FFF76EFD634B644E94
:101A100099686268737A8A1ADB039A423ED36160DE
:101A2000FEF7A4FF637A002B2ED0013BDBB263727A
:101A3000002B29D1E27A002A11D0A27AE372002A7F
:101A400002D0A372FEF793FF564A574F138838000F
:101A500001331380FFF71CF8390006F089FC64227B
:101A60007379524E53431900514A0A319381D181FF
:101A700013825182307801F049FD04224D4B01213F
:101A800030781A7006F064FE237A013323724A48D4
:101A9000217A05F0D1FA20206840F8BDA37A002B06
:101AA000C0D00023A372FEF762FF3E4A3E4F138868
:101AB000380001331380FEF7EBFF390006F058FCC5
:101AC000B0E70BB2002B15DA3C4B187806F048FC57
:101AD000041E0CD00378912B06D143780E2B03D132
:101AE0008188374805F0A8FA200006F011FE802012
:101AF0000002D1E70224214209D0324805F09CFAC5
:101B0000254B01201E72FFF777FE2000C4E7082452
:101B1000214207D02C4805F08FFAFFF7E5FCFEF7CD
:101B200025FFF2E7CB0615D51E4B28481A7AD9882F
:101B300005F082FAFEF71BFF164B1B78002B07D12E
:101B4000FEF78EFF164B1B68DB0701D5FFF7F7F991
:101B50001020A1E70124214208D01D4805F06CFAAD
:101B60001C4800F087F806F0BBFBCEE78024240178
:101B7000214202D0FFF746F9C7E7042408002040BD
:101B8000214200D189E7144805F056FAFFF7D6F94B
:101B9000BBE7C046FA61FF1FCC5FFF1FE85FFF1F76
:101BA000DC5FFF1FC05FFF1F593FFF1F2262FF1F47
:101BB000803FFF1F2162FF1FEB8B0111F85FFF1FAA
:101BC000F38B01111C8C01114B8C0111568C0111EE
:101BD0006A8C01113C3FFF1F858C0111F0B51B4B36
:101BE0001B4F1B883A8804001A4E1B4D85B09A4241
:101BF0000DD832889A420AD3184B1A882B889A42F9
:101C000005D1174A174B12881B889A421BD0052012
:101C100000F050FE3B8802AA138033880190538065
:101C20002B88114D93800F4B02A91B88D3800F4B3B
:101C30002A78188802F096FB0D4B08212878019A23
:101C40001C7006F015FE05B0F0BDC046C661FF1F52
:101C50004E3FFF1F4C3FFF1F4A3FFF1FC461FF1F46
:101C6000C261FF1F483FFF1F2262FF1F503FFF1F3F
:101C7000C061FF1F13B50C4B1C78002C11D100283C
:101C800001D00A4B18600A4A0A4B11780A4A1078A8
:101C90000A4A01920A4A0092002205F03BFB20000A
:101CA00016BD1124FBE7C0462162FF1FBC61FF1F68
:101CB0002062FF1F1062FF1F2262FF1FFC61FF1FD7
:101CC0000062FF1F10B5064B12201B78052B06D1B2
:101CD000044B13221988044B187800F0C7FF10BD7D
:101CE0002162FF1F503FFF1F2262FF1F10B500241B
:101CF0000122114B52421870104B1C70104B1A806D
:101D000001F080FD04220F4B21001A700E480C32A6
:101D100006F086FD102221000C4806F081FD072206
:101D20000B4B1C600B4B1C700B4B1C700B4B1A703D
:101D30000B4B1C7010BDC0462262FF1F2162FF1FAB
:101D4000503FFF1F2062FF1F1062FF1F0062FF1F36
:101D5000FC61FF1FD661FF1FD561FF1F523FFF1FB0
:101D6000D461FF1FF8B5174C0600257806A8142487
:101D70000078052D23D1B41F134FA5B21824BD42FE
:101D80001DD88D1FADB2BD4219D8FA256D00AA42EB
:101D900015D21D000D4F0A3DADB2BD420FD80C4CFF
:101DA00026800C4C21800C4900240A800B4A1380A9
:101DB000FFF714FF0A4B0421187806F029FD2000D4
:101DC000F8BDC0462162FF1F790C0000750C0000B1
:101DD0004E3FFF1F4C3FFF1F4A3FFF1F483FFF1F63
:101DE0002262FF1FF0B50BB20D0089B0002B00DBA3
:101DF00084E1AC4E307806F0B3FA041E2DD003789F
:101E0000A22B00D133E1D02B2CD0912B22D14378BF
:101E10000E2B1FD18388A44A934211D1A34A836811
:101E20001278052A16D1032018567F2812D0A04B0D
:101E30001B68002B0ED05B68002B0BD0984709E085
:101E40009C4A934206D181689B488B784A780978EE
:101E500005F0F2F8200006F05BFC802000026840EC
:101E600009B0F0BD80780728F4D806F0F1FA080030
:101E7000F3FF1C003C003C007300A700D700637810
:101E8000002B0CD10121894B19708C4B1A78002A38
:101E900054D08B4B307801F0FBFA00284ED007224B
:101EA000824B1A704AE061780029F8D1E378002B60
:101EB0000AD0844A844B1278307801F0E9FA6070D5
:101EC0006378002BC6D0EAE7784B1B78022BC1D091
:101ED0000121307806F05CFC0028F1D10121307836
:101EE00006F036FCECE76378002BD8D16F4F03285F
:101EF00007D13B78052B02D101333B701EE0022352
:101F0000FBE7724B1A88724B0293002A0BD01B78A6
:101F1000002B03D00121307806F0AAFC3B78062B79
:101F200004D1013BE9E7029B1A70F7E7042B43D188
:101F30000121029B3078197006F00AFC5C4B1B688B
:101F4000002B00D186E71B68002B00D182E7574A9F
:101F5000107873E76378554F002B27D10622211D97
:101F60005C4806F055FB62895B4B5C491A80A2898C
:101F70005B4B1A80E3890B800521397059490A802F
:101F8000594A1380228A594B1A80594B1B78012BCE
:101F900009D11F2000F08EFCFA2292004243042156
:101FA000307806F065FC0022494B7AE7312B00D0EF
:101FB00075E70022464B1A7003239EE70622002194
:101FC000444806F02DFC0023464A04211380464A6B
:101FD00030781380454A138006F01AFC08213078C7
:101FE00006F016FCA379083B5A4253412F4A0333AB
:101FF0001370324B1B78002B06D0354B30781A7893
:10200000002A06D001F082FA0122334B52421A8094
:1020100094E70121197006F09BFBF5E70821307861
:1020200006F0F6FB6378002B00D013E72D4B2F4F03
:102030000293E388029A042113802B4B3078039398
:102040002389039A138063893B8006F0A1FB002853
:1020500000D0FFE6274B1B68002B00D1FAE603995E
:1020600002983A88098800881B689847F2E6437905
:10207000132B00D0EEE60389012B0AD11E4B1B78EF
:10208000022B06D10821307806F0C2FBFFF71AFEBA
:10209000E0E6052000F00EFC08210200307806F092
:1020A000E7FBD7E62262FF1F051400002162FF1F35
:1020B000BC61FF1F22200000A78C0111783FFF1F89
:1020C000593FFF1FF661FF1FD761FF1FF861FF1F18
:1020D000FA61FF1FC961FF1F503FFF1FD061FF1F43
:1020E000D261FF1FC661FF1FC461FF1FC261FF1FD6
:1020F000C861FF1FB861FF1FC061FF1F8020C001C2
:10210000014200D0ABE6CB0731D5324B1B78002B18
:102110001DD0314E05AC3378052B1AD1023B23700C
:102120002E4B21001B7823722D4B1B7863722D4B95
:10213000187801F051F9002809D007202A4B307097
:102140001B68002B03D01B68002B00D09847012090
:1021500085E60E20254B06221B7825492370254B4A
:102160001B78637002ABC01806F052FAD8E702235E
:1021700008001840194209D0174B1B78052B03D1D2
:102180001D4B188806F034FB022068E60424214227
:1021900003D0FFF723FD200061E608230800184064
:1021A000194200D15CE6154B1C78012C03D0022C9F
:1021B0000DD0082053E6124B124A134913481B88CE
:1021C0001288098800880094FFF7CCFDF1E7FFF73B
:1021D00079FDEEE7FA61FF1F2162FF1F523FFF1FEB
:1021E000D461FF1F2262FF1FBC61FF1FD661FF1F6A
:1021F000533FFF1FD561FF1F503FFF1FC061FF1FEF
:10220000483FFF1F4A3FFF1F4C3FFF1F4E3FFF1F2E
:1022100010B5034C0B000122210000F06BFA10BD39
:10222000D12301110B8870B506000D000224162B76
:1022300011D92B000322094900F05CFA041E0AD1CF
:10224000074B2A881B88191C934200D9111C3000A7
:1022500089B200F0EFFA200070BDC046FD230111E5
:102260003662FF1F10B54A780400013A0B000220C5
:10227000012A07D80A78002A04D005222000024942
:1022800000F038FA10BDC0462B2401110A7810B5B1
:102290000B0004000220002A04D00722200002497B
:1022A00000F028FA10BDC046D72401110A7810B5F5
:1022B0000B0004000220002A04D009222000024959
:1022C00000F018FA10BDC0463D25011110B5034CB1
:1022D0000B000B22210000F00DFA10BD6D2501113D
:1022E00010B5034C0B000D22210000F003FA10BDC5
:1022F000DF25011110B5034C0B000F22210000F067
:10230000F9F910BD392601110A7810B50B00040047
:102310000220002A04D011222000024900F0EAF92C
:1023200010BDC04649260111002310B51322190023
:1023300000F0E0F910BD000010B5034C0B001722AF
:10234000210000F0D7F910BD9B260111002310B524
:102350001922190000F0CEF910BD000010B5034C91
:102360000B001B22210000F0C5F910BDD52601117C
:10237000F7B584890D0006000121002C22D000232E
:102380008268D3561778002B1EDA0C2C1AD90C3C15
:10239000A4B2131940880093230002F012FF431ED9
:1023A000984101307B06DB0F6B703F23013C1F40DF
:1023B000A4B22870AF70AC80002C07D0B368013392
:1023C000AB6000210800FEBD0020EBE7AC60F8E741
:1023D0000B7803704B8843704B881B0A83700B7912
:1023E000C370042070470420022B06D100205378CC
:1023F00011781B02009A0B43138070470B880370FF
:102400000B881B0A43700220704704200099834206
:102410000AD1537810781B0203430B80D37890784D
:102420001B02034300204B807047F8B50D004B782A
:1024300001240021461C03702B788B4201D8200018
:10244000F8BD6B78B01C4F1C012B10D189006918A6
:102450004B88022233704B88B9001B0A73706918CD
:1024600006F04EF904360434A4B2F9B2E4E71223BC
:1024700059436B185A88043132705B8810221B0A4A
:102480007370691806F03CF912361234ECE770B537
:10249000049D14001E00052B01D8042070BD637834
:1024A00012781B0213432B80E378A2781B0213439C
:1024B00002226B802A71211D681D063E06F020F95C
:1024C000B2B22A81E92AE8D82800A11D0A3006F014
:1024D00017F90020E2E7002310B50A789A4201D8E4
:1024E000900010BD9A008A185488013304705488F3
:1024F000DBB2240A4470948884709288120AC270F5
:102500000430EAE710B51100029C062B04D0042029
:102510001022142B01D010BD022222714B780878B2
:102520001B0203432380CB7888781B02034363801C
:102530000431601D06F0E4F80020ECE710B50C78DB
:102540008B7804315C43E4B203702200013006F062
:10255000D7F8601C10BD0420022B06D10020537850
:1025600011781B02009A0B431380704710B50C00C2
:102570000A88023106F0C4F8208810BD70B5040046
:102580000D0004981100012B01D8042070BD1678AD
:1025900052781202324302800200F13255701470F8
:1025A000E125002C00D10C35023B9AB24280AA42B0
:1025B000EBD80231043006F0A3F80020E6E704204F
:1025C000009983420AD1537810781B0203430B8091
:1025D000D37890781B02034300204B80704710B5DE
:1025E0000C000A88023106F08BF8208810BD00002C
:1025F00070B501211E000420049C0E400B4218D12E
:10260000CB40DDB28D4214D90A49DBB20988994228
:102610000FD32300EE331D70330058001118497892
:10262000165C0902314301332152D9B28D42F4D8EC
:10263000002070BD7A3FFF1F10B50C000A880231E0
:1026400006F05EF8208810BD10B50C788B78043148
:102650005C43E4B203702200013006F051F8601CC4
:1026600010BD10B511000298032B01D8042010BD35
:1026700014785278043B120222430280CA788C7884
:102680001202224342809AB28280EB2AEED80431B1
:10269000063006F035F80020E9E710B50C000B888D
:1026A00003700B881B0A43704B8883704B881B0A8E
:1026B000C3708A880430063106F022F8A0880430FE
:1026C00080B210BD0420012B03D100201378009AA2
:1026D0001370704710B50C000B8803700B881B0A31
:1026E00043704A880230043106F00AF860880230EC
:1026F00080B210BDF0B589B003931E4B0292420028
:102700000700D05A019102F050F81325061E2DD073
:10271000029B01240370019B002B04D00019039934
:102720009847001984B26B461B7A5BB2002B0FDA14
:102730001021380002F0A8FB1925002813D1300021
:102740003219E1B202F0F2FC051E0CD10C34A4B235
:10275000042304AA380005A993800696948101F009
:10276000DFFD051E02D0300005F0C2FE280009B0D2
:10277000F0BDC0463462FF1F70B505000C00002894
:102780000CD00020814209D010222000044905F01D
:10279000B7FF01202B7823736B78637370BDC0463D
:1027A000C8900111F0B506000D0017001C0085B09F
:1027B00002291BD00020102907D1022B07D0102B93
:1027C00003D115E00020102C08D005B0F0BD6946FB
:1027D0003800FFF7D1FF2A0069460BE06946300058
:1027E000FFF7CAFF22006946380004E0022BE9D156
:1027F0002A003900300005F013FFE6E7031CF0283B
:1028000000D9F023032008499AB2013A0B80D3176C
:10281000034006499B189B100B80D30F04499B185B
:102820005B100B807047C0467E3FFF1F7C3FFF1F41
:102830007A3FFF1F054B10B51B888B4205D3044B15
:102840004000C152034804F0F7FB10BD7E3FFF1F5C
:102850003462FF1FBA8C0111014B4000185A7047B7
:102860003462FF1F1722014B1A8070473462FF1F2A
:1028700070B505000E2005F0ABFD041E13D0D0236B
:10288000037000230622837007494570033005F06A
:1028900037FF064B2100DA8A62811B7E2373044BCB
:1028A000187805F07DFD70BD5062FF1F4062FF1F6C
:1028B000CE3FFF1F262803D8024B4000C05A704766
:1028C0000148FCE7803FFF1FFFFF000070B50600D6
:1028D0000C00094D1C220021280005F0A1FF074B28
:1028E0001E70074B1C7005F0C3FC0123002801D0AB
:1028F000002312202B7070BD4062FF1FCE3FFF1FD0
:102900006162FF1F70B505000D4C0800E260A16018
:1029100010220021656005F0EBFE012803D1102193
:10292000A06802F004FE10220021280005F0E0FE5D
:10293000012803D11021606802F0F9FD70BDC04686
:102940004062FF1F70B5041E05D1002903D0062286
:102950000D4805F0D5FE0D4B1D78012D11D1002C31
:1029600005D102221A7005F063FF280070BD002215
:102970001A70074B1B78FF2BF7D02000FFF778FF6A
:10298000F3E70025F1E7C0465062FF1F4062FF1FDA
:10299000CE3FFF1F030010B5002801D1002010BD5D
:1029A00000780B4A002803D15988D1821B7913760D
:1029B0001378022BF2D10023984200D10333137015
:1029C000044B1B78FF2B01D0FFF752FF0120E6E7F5
:1029D0004062FF1FCE3FFF1F002911D000280CD0FE
:1029E0004B79012803D140225242134303E03F2296
:1029F0001340032802D001204B7170474022F4E7B6
:102A00000800FAE770B5094D0100287800280BD0BE
:102A1000074C0622200005F073FE21002878FFF7FE
:102A2000DBFF200005F01CFF70BDC0466062FF1F89
:102A30003A62FF1F00290AD0012808D13F224B79B2
:102A40009343C02B03D0403B5A425341981C7047DC
:102A500070B5174D06002B78FF2B15D00A2005F016
:102A6000B7FC041E10D0D0230370C83B8370114BF9
:102A700011491B784670C3700622043005F040FEF1
:102A80002100287805F08CFC0C4B1B78012B0DD114
:102A90000B4B1B68002B03D09B68002B00D0984782
:102AA000084B04211878084A05F0E2FC70BDC046C6
:102AB000CE3FFF1F6062FF1F3A62FF1F5C62FF1F75
:102AC0008862FF1F8C62FF1F60EA0000014B98685C
:102AD0007047C0464062FF1F014BDB6818687047B3
:102AE0004062FF1F074B10B5DA68136801331360AB
:102AF000054B1878FF2803D08021C90105F028FE76
:102B000010BDC0464062FF1FCE3FFF1FF7B50E004D
:102B100002F04EF9051E1CD00E4B06621F78002FE6
:102B200000D10778AB791020019305F051FC041E09
:102B30000FD0D0230380C73B8370019BE91DC37076
:102B40000622043005F0DCFD21003800E66005F0C7
:102B500027FCF7BDCC3FFF1F014B18787047C046DC
:102B60006062FF1F054B002805D1054B1A78054B05
:102B7000002A00D1014B18007047C0465062FF1F69
:102B80006062FF1F3A62FF1F014B58687047C046E2
:102B90004062FF1F024B1868431E9841C0B2704745
:102BA0006462FF1F421E03000120152A03D9FF3B68
:102BB0005A425341D8B27047F0B51C0000230E00B2
:102BC00085B0039002920B70029A934201D30020C9
:102BD00019E0E55C5A1CD2B2002DF8D002985119C8
:102BE0008142F4DC0233DFB2A35C18000193FFF7EB
:102BF000D9FF002807D0013D019A0399EBB2337049
:102C00008A4202D1E01905B0F0BDDB19DBB2DBE787
:102C100010B50C0002F024F903001220002B03D0A1
:102C20002100588805F0ECFC10BD000070B50E4D79
:102C300084006359002B15D0186A002801D005F0D4
:102C4000BFFB2B59586A002801D005F0B9FB2B595E
:102C5000986A002801D005F0B3FB285905F0B0FBB5
:102C600000232B5170BDC0467062FF1F1C4B70B516
:102C700004000E00150099420AD11A4B1B68002B64
:102C800001D1122070BD1B68002BFAD09847F9E7DC
:102C9000154B994215D1134B1B68002B0AD01B68AA
:102CA000002B07D09847002804D1104B1C70104B04
:102CB0001D70E7E729002000FFF7AAFF0028E1D1F7
:102CC000F3E7080002F074F80028DAD00378032054
:102CD000A342D7D12900300005F092FCD2E7C046CC
:102CE000FEFF00006C62FF1FFFFF00006962FF1F14
:102CF0006862FF1FF7B50400808802F059F80025CC
:102D0000A84203D00578A08802F08EF81C4E3378D4
:102D1000002B1FD0AB421DD11A4B28001978FFF7AA
:102D200077FF002818D000233370A3790820A778F4
:102D3000A688019305F04CFB011E0DD0D023037033
:102D4000CA3B8370019B477086808371280005F021
:102D500027FB01E0002DE8D1A0880B4B8200D3585F
:102D6000002B01D0FFF762FF1721A088FFF762FD5B
:102D7000A08801F057FDA08801F062FEF7BDC046B3
:102D80006962FF1F6862FF1F7062FF1FF0B587B0A6
:102D90001D000CAB1B88070001930DAB1B88142092
:102DA00002930EAB1B88160003930FAB1B88009198
:102DB000049310AB1B88059305F00AFB041E1AD080
:102DC000D0230370CB3B47708370C6700622290066
:102DD0000430002D11D005F093FC019B210063818C
:102DE000029B0098A381039BE381049B2382059BA4
:102DF000A37405F0D5FA07B0F0BD05F011FDECE7BE
:102E0000F7B5009308AB1B8807000C200D001600D7
:102E1000019305F0DDFA041E13D0280001F0C8FF6D
:102E200000280FD00078D0232370C93BA370009BEB
:102E300021002381019B6770A580E680638105F0F6
:102E4000AFFAF7BD014B1878EDE7C046CE3FFF1F44
:102E500013B5040064890389C2888188C07800940E
:102E6000FFF7CEFF13BD000010B5044C206800280A
:102E700003D005F0A5FA0023236010BD7462FF1F84
:102E8000A122F0B5818892004A43384B384F1B6825
:102E900004009B189D2292009B18827989B01A60C9
:102EA0003B68002B5FD01D78324B1B68002B04D091
:102EB0005B68002B01D000209847260008363100BF
:102EC000E079FFF7B7FD237DE0710200E07804931D
:102ED000638A29000393238A0293E3890193A388D9
:102EE00000933300FFF752FFE378002B0BD1E28908
:102EF000A379A18802920196E2792800009201222A
:102F000001F060FFE0703B68002B20D0FFF7ACFFC2
:102F1000194D287800281AD0184B1978FFF778FE39
:102F2000002814D02B78E67808200793A78805F0AE
:102F30004FFA011E09D0D0230370CA3B467083703C
:102F400087808671079805F02BFA00232B701721D4
:102F5000A088FFF76FFCA08801F064FCA08801F056
:102F60006FFD09B0F0BD064B9DE7C0463409FF1F59
:102F70007462FF1F8862FF1F6962FF1F6862FF1F84
:102F8000CE3FFF1FF8B5070008000E0001F010FF4C
:102F9000041E18D02620FFF78DFC051E00D12578D1
:102FA000062005F015FA041E0DD00021062205F0BA
:102FB00037FCD0232370C23B21006770A370A6802A
:102FC000E8B205F0EDF9F8BDF0B585B001930AABB4
:102FD0001B78070002930BAB1B7808000D000092D2
:102FE000039301F0E5FE061E22D0102005F0F0F953
:102FF000041E1DD01022002105F012FC2620FFF730
:1030000059FC002800D13078D0232370C13BA37035
:10301000009B21002372019B67706372029BA58055
:10302000A372039BC0B2E3720C9BE36005F0B8F996
:1030300005B0F0BDF7B50D00019001F0B9FE071E17
:1030400020D00E2005F0C4F9041E1BD02620FFF767
:1030500031FC061E00D13E78D0232380C53B0622DA
:10306000A370F91DE01C05F04BFB019B2A00638156
:103070000123DD401A401D40210022736573F0B228
:1030800005F08EF9F7BD0000F0B585B00290100094
:103090000D0017000A9E039301F08AFE041E31D032
:1030A000029B002B2ED1039B02795B0724D51223B0
:1030B00013430422002E08D10B99002905D10C9945
:1030C000002902D10D9900291AD01A430D9B2271B3
:1030D000002B00D0C9E0002E00D1CFE0002D00D0A1
:1030E000CCE0606A002801D005F06AF91C213000AC
:1030F00005F0C6F9606205E002239A430E33D7E774
:1031000093432371654BBA00D458002C00D1AAE038
:10311000002E10D0236A002B03D11C2005F0A8FA42
:1031200020625E4BBA00D358186A002803D01C22D4
:10313000310005F0E5FA0C9B002B12D0574CBB0078
:103140001D596B6A002B03D1162005F091FA6862B5
:10315000BB00E358586A002803D016220C9905F0EA
:10316000CFFA0D9B002B11D04C4DBC006659B36AB1
:10317000002B03D1142005F07BFAB0622B59986A1A
:10318000002803D014220D9905F0BAFA380001F096
:103190000FFE051E67D0414BBA00D358002B62D0FA
:1031A0001A6A3420002A00D11C389A6A002A01D0F9
:1031B000143080B20B9A002A01D01C3080B25B6AB6
:1031C000002B01D0163080B205F002F9041E4AD05F
:1031D0001822002105F024FB2620FFF76BFB01904D
:1031E000002801D12B780193D0232370029B20006B
:1031F00063700A23294EA370039BBD00A371AB59D2
:10320000A780196A1830002905D01C22A06005F09B
:1032100077FA200034307359996A002907D00300E7
:1032200014221433E060029305F06AFA02980B9BB3
:10323000002B08D003001C221C330B992061029341
:1032400005F05EFA02987359596A002903D01622D4
:10325000606105F055FA6B462100187905F0A0F879
:103260003800FFF7E3FC05B0F0BD10220D9B0D996F
:103270001B69A018236205F043FA2CE70B9B002B77
:1032800000D13FE7012D00D03CE7606A002801D063
:1032900005F096F81C210B982AE7C0467062FF1FC4
:1032A00010B5044C2068002803D005F089F80023ED
:1032B000236010BD6462FF1F0B4B07B51A68002A1C
:1032C00001D100200EBD6946531C01201278073140
:1032D000FFF772FC0028F4D0027801231000184098
:1032E0001A42EED0EEE7C0468062FF1FF0B51F4FD6
:1032F00001203B6887B0002B25D09B78059300F018
:10330000DDFB002821D00A20FFF7D4FA04000B20AF
:10331000FFF7D0FA164B05001E78731E9E413B68DE
:10332000F6B2191DD878FFF757FB3B682900DA7A07
:10333000043303929A7901930292009033002000A3
:10334000059A05F0A5F807B0F0BDFFF7B5FF002816
:1033500005D00620FFF7AEFA04000720D8E70820C2
:10336000FFF7A8FA04000920D2E7C0466462FF1FF5
:103370006062FF1F70B50A4E040033780D00FF2B0A
:103380000DD0042005F024F8011E08D0D0230370CE
:10339000CE3B45708370C470307805F001F870BD85
:1033A000DC3FFF1F70B5040006200D0005F010F88B
:1033B000011E0AD0D0230370CD3B8370054B4470AF
:1033C0001B688580187804F0EBFF002C01D0FFF714
:1033D00067FF70BD6462FF1FF8B5264F06003B68AB
:1033E0000D001124002B05D10522234B1B7813421D
:1033F00002D112242000F8BD204A10241268002AAD
:10340000F8D01278002AF5D0DB0719D52B789A1E50
:10341000012A1AD80C2005F02BF913243860002853
:10342000E8D000230A22437029000670023005F01C
:1034300067F9FFF75BFF041E0AD0FFF731FFD9E7FA
:1034400000F03CFB0028E1D1E4E7002BE2D0D0E71C
:103450000B4B1B78032BCDD11D20FFF72BFA094B0B
:1034600018800028C6D0084B04211878074A04F0B9
:10347000FFFFBFE76462FF1F6162FF1F8062FF1FE3
:103480006062FF1F5E62FF1F8C62FF1F60EA000028
:10349000F7B50193194B14001A78052306000F00A5
:1034A00012201A4221D0012920D1154B1D68002D70
:1034B0001BD002201F2C18D8002C02D0019B002BFF
:1034C00013D0104B1F221E706E1C0021300005F01F
:1034D000A7F901992200300005F012F9310020000F
:1034E0002C70002F06D005F023F9FEBD064B1220EC
:1034F0001D68DCE704F014FFF7E7C0466162FF1FB8
:103500008062FF1FDC3FFF1F7C62FF1FF8B50F4E7C
:1035100012243368002B17D01B780F3C834213D141
:1035200000250B4F0221387805F072F9094B042170
:1035300038781D8005F06CF9074B28001D80336832
:103540005C7004F065FF04002000F8BD6462FF1F9A
:103550008C62FF1F7862FF1F5E62FF1F70B501283B
:1035600023D11B4C2388002B03D01A4A1578002D39
:1035700007D0194B1B68002B02D01878FFF7C6FF45
:1035800070BD3B2B02D93C3B2380F9E7134E02214F
:10359000307805F03DF9FA222388920002215A433F
:1035A000307805F065F92580EAE70B4B1B68002BA6
:1035B000E6D00B4B1B785B07E2D5084B022118784D
:1035C00005F026F90022024B1A80FFF769FED7E7C3
:1035D0007862FF1F5C62FF1F6462FF1F8C62FF1F27
:1035E0006162FF1FF8B51E4D2868002803D004F063
:1035F000E7FE00232B601B4E3068002803D004F048
:10360000DFFE00233360184F05243B78180020406C
:10361000234221D0154800F055FA3B78234213D0BD
:10362000202005F025F82860002813D02022002152
:1036300005F0F6F8202005F01BF8041E306005D0D8
:103640002022002105F0ECF8002004E0286804F0B6
:10365000B7FE2C601320F8BD00F034FAF4E7C04642
:103660008062FF1F7C62FF1F6162FF1FD03FFF1F50
:1036700010B50A4C23681A1E0ED0002808D101305C
:10368000587004F0C5FE002805D02368002B02D036
:103690000021FFF787FE0122100010BD6462FF1FAA
:1036A000F7B5274E050033680191181E21D05C78CC
:1036B000244F012C30D1FFF7FFFD002825D020003A
:1036C000FFF7F8F80400412814D91F4B022118789D
:1036D0001E4A04F0CDFE1E4B3C3C1C800222336887
:1036E0005A703B78002B14D128000199FFF75AFE3D
:1036F0000120FEBDFA2292004243002AEED0124B76
:103700000221187805F0B4F8E8E7FFF7D3F80200D3
:10371000F3E700233B70EBE73B78002BE8D1032075
:1037200004F056FE011E08D0D0230370CC3B457038
:1037300083703368187804F033FEFFF7B1FDD7E7E4
:103740006462FF1F5C62FF1F8C62FF1F60EA000063
:103750007862FF1F10B5204B8188994234D016D86B
:103760001E4B994207D81E4B994221D81D4B9942B6
:1037700019D0002010BD1C4B9942FAD1836899786A
:103780005A78090218781143FFF78AFFF2E7174BBE
:1037900099421DD0164B0020CB18052BEAD81548AE
:1037A00003F04AFC0EE083681878FFF761FFE1E759
:1037B000114A83688818424250411B78C0B21900F0
:1037C000FFF7D8FD0120D5E783680C481978E7E7B3
:1037D00083680B481978E3E75120000009200000B6
:1037E00007200000062000000A20000052200000F0
:1037F000ADDFFFFFC98C0111F8DFFFFFF68C01116F
:103800000F8D0111014B18707047C046DD3FFF1F3F
:1038100010B5064C207001F0A7FA207804F098FE4D
:103820000521207800F06CFD10BDC0468C62FF1FA2
:103830000BB273B50D00002B00DBCBE08B4B18787F
:1038400004F08EFD041E0ED00378912B0FD0A22B16
:1038500000D1A8E0864B1878FF2852D0210004F050
:103860009FFD00284DD180200002684076BD43783E
:103870000F2B76D013D8052B70D00E2BEAD1808871
:103880007C4B98422BD87C4B98421BD87B4B984260
:10389000E0D1A3681878591CFFF754F838E03E2BA4
:1038A000D8D18378032B79D06CD8012B73D0022B1D
:1038B000D0D1734B1B68002B23D05B68002B20D02A
:1038C00098471EE06F4BC0180C28C3D804F020FDA9
:1038D0001DC2C2150BC20B0B0B3223C23C006A4B3C
:1038E000C0180728B6D8694B1B68002B09D01B6885
:1038F000002B06D0200098470AE0A3681878FFF74D
:10390000A7F8200004F004FFADE7A068FFF742F835
:1039100000289FD0F5E7A3681B78002BF1D0584B07
:103920001B68002BEDD01B68002BEAD02100584803
:103930009847EDE7524B1B68002BE2D01B68002B29
:10394000DFD021005348F3E7534B1B68002BD8D03E
:103950005B68002BD5D021004648E9E7FFF7CAF99C
:10396000CFE780884D4B984203D04D4B984200D012
:1039700070E7494B1B68002BC3D05B68002BC0D09D
:103980002100D5E7152B0CD04648162B00D061E757
:1039900003F052FBB5E7FFF773FAB2E7FFF758FA07
:1039A000AFE74148F4E7414B1B78042B07D10023D4
:1039B0006A4613800179408800F0C8FCA1E7364BC5
:1039C0001B68002B9DD05B68002B9AD00100384803
:1039D000984796E7012421420AD0294B1B68002B07
:1039E00004D05B68002B01D00020984701203CE701
:1039F0008B070AD5254B1B68002B04D05B68002B76
:103A000001D02000984702202FE704212800084019
:103A10000D4200D12AE7274E3388002B21D0013BED
:103A20009BB23380002B1AD1FFF7B4F800280AD0DC
:103A3000214B1C70154B1B68002B04D05B68002BBE
:103A400001D020009847FFF79FF8694601F086FDF6
:103A50006846FEF7D7FF1D20FEF72CFF30800420BC
:103A600003E7024B187804F0D3FEF8E78C62FF1FDF
:103A7000DD3FFF1F0E2000000120000009100000A4
:103A80008462FF1FFEDFFFFFAFDFFFFF8862FF1FC3
:103A90000C2000000B2000006C62FF1F0D200000B6
:103AA00013200000658D0111298D01116162FF1F36
:103AB000FFFF00005E62FF1F5C62FF1F10B501F098
:103AC000F7F910BD014B18607047C0468862FF1FB0
:103AD0000B880020162B01D817230420014A1380DD
:103AE0007047C0463662FF1F00207047074A030038
:103AF0001188814207D091880020994202D101307B
:103B00008000101870470020FAE7C0469462FF1F3B
:103B1000F0B58F7806000D00C5B01E2F15D1FFF748
:103B2000E5FF051E03D10024200045B0F0BD0022B2
:103B30003B003100C078009200F0B2FB0400A81CEA
:103B400000F0D2FBFF23EB70EEE7264B0624039335
:103B50001B78FF2BE8D0182FE6D87B08224A013BC0
:103B6000DB0002929A589446002ADDD0029AD318BC
:103B70005B68002BD8D00878002802D14B78012B45
:103B800002D10624122FCFD107AFAB8869780097F6
:103B90006446AA68A047041EC6D1AB78029A5B08A7
:103BA000013BDB00D318390030005B689847041EE6
:103BB0000BD1AB78042BB6D0039A310010782200D9
:103BC000009700F06DFB0400AEE76A78002AABD1E5
:103BD000AA7805A93B88087130000A704B80FEF76F
:103BE00017FBA0E7E03FFF1FD89001111D4B37B531
:103BF000050098420BD000290AD1FFF777FF002873
:103C000005D11948FFF772FF002800D0058037BDA5
:103C100001291AD1FFF76AFF041EF8D001235B4285
:103C20000380A378FF2BF2D0FE2B07D00023E0788F
:103C30001422009329001E3300F032FBA01C00F078
:103C400053FB01235B426380E1E70229DFD10139A5
:103C500001F01AF90028DAD12800FFF747FF041E07
:103C6000DFD1D4E7FEFF0000FFFF0000022210B505
:103C7000074B52421A80074801325A809A80DA80F4
:103C800000F07EFA044801F081F8002010BDC04623
:103C90009462FF1F113B0111ED3B01110388F7B541
:103CA0000400002B02D102252800FEBD426802213B
:103CB000137825485268FEF775FD00282ED0234F53
:103CC00001253A88002AEFD0802321885B02012554
:103CD0009B1A9942E8DC0C2004F0CAFC061E31D085
:103CE0003B8822889C4600231800019561469DB2BE
:103CF000491989B2AA421BD8002801D062443A80EF
:103D000000233000082208C0210004F0F9FC104A0A
:103D10001368002B13D100251660C5E762680221E5
:103D200013780C485268FEF73DFD0028C7D1BAE76A
:103D300060681D014019418101330198D6E71A00DE
:103D40001B68E6E71325AFE746910111DE3FFF1F31
:103D50009062FF1F44910111014B18707047C046DB
:103D6000E03FFF1F14230A0010B51A40194204D087
:103D70000122102101F0A4F810BD4B06F9D4012056
:103D800088434000F8E710B514008B0604D50122E3
:103D9000102101F095F810BD08230A001A401942BD
:103DA00002D14BB2002B0FDA102101F089F8002864
:103DB00008D02300F2331B78002BECD0F1342378A9
:103DC000012BE8D10020E6E703208907FAD4E2E7D7
:103DD000F0B51F00184B85B01C680190029103924A
:103DE000002C27D1200005B0F0BDA5683301ED18E7
:103DF0006B89019A934211D3029A93420ED8002FF5
:103E000004D10A9B002B10D12C00EBE73B00297852
:103E1000039A6868FEF7C6FC0028F2D10136B6B2F4
:103E2000A388B342E1D82468DAE7A3680A9A5B89D9
:103E30001380E9E70026F3E79062FF1F37B50C0017
:103E40000A8849880123914217D3002A15D0651D9D
:103E500023792A0002210A48FEF7A4FC1023002837
:103E60000BD023796188208800242A000094FFF772
:103E7000AFFF0A23A04200D0230018003EBDC04679
:103E80004691011113B50A00088849880123884228
:103E90000BD8002809D00024137905320094FFF7CD
:103EA00097FF0A23A04200D02300180016BD13B5C7
:103EB0000A0008884988012388420BD8002809D0C5
:103EC0000024137905320094FFF782FF0A23A042F1
:103ED00000D02300180016BDF0B58BB003904A88BF
:103EE00008880E000123824255D3002853D00023B6
:103EF000012704AC23700022718813000092FFF7A1
:103F000067FF051E3ED02078002835D12B78022B84
:103F100018D167706A8983000130E31880005A80E5
:103F200069680222201804F0EBFB23780133DBB22E
:103F30002370042B19D93B006889013080B2002B13
:103F4000D9D01FE002236370122358436A892318D3
:103F500004305A8069681022201804F0D1FB2378BD
:103F60000133DBB22370002BE5D10C4A6B899B181F
:103F70005A425341DBB2DFE76378012BE4D12B785F
:103F8000022BC7D022780A23002A04D021000398EC
:103F9000FEF768F9002318000BB0F0BD0100FFFF29
:103FA0000F4BF0B504001868002816D083685D89AF
:103FB000A54207D88288AE18B44203DA12019A18D3
:103FC000934201D10068EFE71E005F891036A742D7
:103FD00004D1002900D00D801800F0BD3300EFE7B8
:103FE0009062FF1F70B505000C0008880021FFF7E4
:103FF000D7FF03000120002B04D022002800197AEB
:10400000FFF7C1FE70BDF7B50C000025019023003D
:10401000EE331B78AB4201D800200AE06B00E65A71
:1040200000213000E718FFF7BBFF002802D12680EF
:104030000130FEBD017A0198FFF794FE002802D0FE
:104040003B882380F5E70135EDB2E0E710B50400C9
:1040500008880021FFF7A4FF03000120002B03D0F4
:104060002000197AFFF77EFE10BD0000054B1B688B
:10407000002B01D1180004E09A6852898242F6D1DF
:10408000988870479062FF1FF0B50E27002687B012
:10409000039302ABFF183E8005001F4B40891400BC
:1040A000984207D02B78013000976A6880B2FFF7FA
:1040B0008FFE060002212B7818486A68FEF772FB13
:1040C00000280FD06C892000FFF7D0FF002802D015
:1040D000013C0419A4B2039B002B00D01C803000CB
:1040E00007B0F0BD02212B780D486A68FEF75AFB35
:1040F0000028E7D102212B780A486A68FEF752FBB4
:10410000002807D0002EDED03B88A342DBD1748983
:10411000013CDFE76C89DEE7FFFF000046910111FB
:10412000449101114291011110B50C00FFF7DEFC22
:1041300003000220002B0AD0002C00D023609B78C3
:104140001720FE2B03D00138FF2B00D1002010BD1B
:1041500073B50D0001A904001600FFF7E5FF17284D
:1041600005D0002E04D129002000FEF7F7F876BD17
:1041700001221021200000F0A3FE0028F3D0F6E772
:10418000014B18607047C046A062FF1F37B56B46F1
:104190009D1D010004000222280004F039FA2B883A
:1041A000B02B0ED12379122B09D12300FA331B78BF
:1041B000012B06D10121608800F0E0F801E01B2B03
:1041C000F8D037BD10B5054B0421187000F098F8F1
:1041D000FFF74CFDFEF746FB10BDC046A462FF1F73
:1041E0000020F0B50BB20F0087B0834234DA274BC2
:1041F000187804F0B5F8051E2BD00378A02B25D134
:1042000003AE3100FEF7B4F8041E0BD1B378DB0720
:1042100024D51F4B06341B68002B03D0310068885F
:1042200098470400A868002801D004F061F9002C28
:1042300008D1184A039B1340174A934206D0B3781B
:104240001B2B03D00121688800F098F8280004F0A7
:104250005FFA80200002784007B0F0BD0F4B1B686A
:10426000002B10D0310068889847041EDAD073788C
:10427000002BD7D1B27801A90A704B800C716888E5
:10428000FDF7C6FFCEE70624F1E7C046A462FF1F94
:104290009C62FF1F00FFFF0000011200A062FF1FD1
:1042A000F7B50190FC200D0017001E0004F090F8F7
:1042B00004001320002C12D0B02320002370089B90
:1042C000F4226770658026710830002B08D0190031
:1042D00004F016FA2100019804F062F80020FEBDF7
:1042E000089904F09DFAF5E710B5041E06D0007891
:1042F000FD2803D804F01CF9FF23237010BD000033
:104300000A1F93B210B504000220032B05D8824087
:104310000020024BD1529B189C7010BDC462FF1F3D
:104320000B8870B5043B04000D000220032B0BD852
:104330000121200000F0A8FD03001420002B03D071
:104340002900200000F028FC70BD000007B5130014
:10435000034A00920A00012100F088FC0EBDC0460D
:104360008945011107B5019203220092024B0A0010
:10437000122100F0A5FC0EBD0746011107B56B46E2
:1043800001AA11800449D88008780633012802D197
:10439000190004F025F807BDA562FF1F0C4B10B5EE
:1043A00018700023FF210B4A13801381938193809F
:1043B000094A53801370517293819372D174D382DE
:1043C0001375517704F0DCF800F0FCF910BDC0461D
:1043D000D462FF1FC462FF1FA662FF1FF0B58DB03D
:1043E0006B46002003910C229B5E834200DBB0E011
:1043F0005D4B187803F0B4FF051E00D1A4E00378EC
:10440000902B00D09DE006AF01004688380000F0F8
:104410001FFA79680400002900D19CE03B88052B35
:104420006ED13B89032B1CD905AC200000F0A2F80B
:104430006288172A61D83989131D994231D1796868
:10444000237804310291D90738D5607800F08EF9CD
:10445000071E06D0002303712378012B08D0132BED
:1044600023D0A868002800D178E004F041F875E076
:104470006288029909A800F0A6F80290380000F0BE
:104480008BF909AA2378387A019200223100009230
:10449000029A00F012F9380000F064F9029B002B38
:1044A000DFD0300000F080F9DBE70378032BD8D1B0
:1044B0006288029909A800F0D6F8DEE7122B13D122
:1044C000029909A800F0B5F8021EEAD127498B88A5
:1044D000002BC6D0887909A92378019161780091D1
:1044E000310000F0EAF8BCE7002302AA9383300011
:1044F000617809AAFFF72AFFB3E71D4B0993F6E796
:10450000042B02D09A1F012AABD8184A043B9B0007
:10451000995A0029A5D0D218907831003A0000F0BD
:10452000AEF800289DD13B88042B03D00121300038
:10453000FFF724FF012C04D1A868002801D003F064
:10454000D7FF280004F0E4F88020039B00024340DA
:1045500018000DB0F0BD012800D182E70121300024
:10456000FFF70CFFEDE7C046D462FF1FC462FF1FD8
:10457000010017000B7803704B784370CB788A7872
:104580001B021343438070470A88030002700A88A5
:10459000120A42700A88012A06D14A8882704A8823
:1045A000120AC2700420704702208242FBD14A885E
:1045B00004309A704A88120ADA708A881A718A88D6
:1045C000120A5A71EFE710B50400012082420CD99B
:1045D0004B780A781B0213432380834206D1CB78A1
:1045E0008A781B0213436380002010BD022BFBD18D
:1045F000CB788A781B02134363804B790A791B02BC
:104600001343A380F0E70B8803700B881B0A4370E9
:104610004B8883704B881B0AC3708B8803718B880F
:104620001B0A4371CB888371CB881B0AC371082096
:10463000704703000120082A14D14A780878120232
:1046400002431A80CA788878120202435A804A7953
:104650000879120202439A80CA79887912020243C9
:104660000020DA80704710B504000120022A05D12D
:1046700000204B780A781B021343238010BDF8B545
:10468000060010200F00150003F0A2FE0400012018
:10469000002C0ED0A0230C22290023806780201D2F
:1046A000002D07D004F02CF82100300003F078FE34
:1046B0000020F8BD04F0B4F8F6E7F7B51E0000904E
:1046C00008AB142017001D78019103F081FE041E31
:1046D00012D0A2230370019B47704380099B057190
:1046E00046710C220830002B07D0190004F008F89E
:1046F0002100009803F054FEF7BD099904F090F8EA
:10470000F6E737B5041E0FD04388002B0CD00025E8
:10471000C1881323007A172201950095FFF7CDFF7A
:10472000FF2365806372257037BD000010B50C490A
:1047300004004A88002A09D08B89002B05D000206C
:10474000CB8A0222834201D010BD012213000A202D
:10475000434300204032C854C81842800472F3E733
:10476000A662FF1F0023438003707047094B00219E
:104770001A0010B55C88002C06D01C79844203D145
:104780000A234B43D01810BD01310A330329F1D15C
:104790000020F8E7A662FF1F10B50400407A03F07E
:1047A000C7FEFF23637210BD7047043010B580B29E
:1047B00003F03EFF002803D00421494203F068FDC6
:1047C00010BD000070B50025124CA0682580A581A1
:1047D000A580A84202D003F08BFEA56000250E4CF8
:1047E0000E4B606D1D80230058331D70A84202D00F
:1047F00003F07EFE656500256068002801D003F0A7
:1048000077FE013508340A2DF6D1054802F014FC74
:1048100070BDC0466C63FF1F1063FF1F6063FF1F06
:104820009D8D011170B5041E0CD1074D2880A88103
:10483000A880A868002802D003F05AFEAC600348A4
:1048400002F0FAFB70BDC0466C63FF1FA98D011119
:104850000023F0B54E8843600A7904000F0089B048
:10486000022A00D08BE0C98803291ED9BB685A7878
:104870001878120202430592DA789D7812021543E5
:10488000DA791B7A67481B0213435BBA9AB203803A
:10489000059B04338B4227D1042D08D06B1F022BBC
:1048A00016D92900604802F0C7FB01201AE05F4BCF
:1048B0003101CB5A002B0BD0F4215D48FF3102F0BF
:1048C000BBFB3000FFF7AEFF5A4A13690133136197
:1048D0000421059BB86823812580494203F0D8FC58
:1048E0006060002009B0F0BD524C042D0CD06B1F4D
:1048F000022B18D983212B004D48890002F09CFB24
:10490000E3680133E360D0E7484B3101CB5A002B19
:1049100009D04748484902F08FFB3000FFF782FF7B
:10492000236901332361414B360106930023069A24
:10493000B3529319059A9D80100007939A81FFF74F
:1049400034FF079B051E986015D00421B8684942C2
:1049500003F09EFCFA880100043A280003F0D0FE20
:10496000069AFB88B25A043B9B18069AB3522368F6
:104970000133236099E7A3690133A36195E72B4BCA
:104980003101059333010693059B3001CB5A0599FC
:104990000D18A968002B30D000292ED0012A2CD167
:1049A000FA880598944663449BB232011352A88951
:1049B00098421AD362469B1AC818B96803F0A0FE41
:1049C000059B0699AA89CB5A934200D06DE70A004D
:1049D00000212381AB882380AB686360059BD152A3
:1049E000144A5368013353605FE7124A93680133F6
:1049F00093603000FFF716FF57E70A4A059F1288B9
:104A0000029333019C466744BB8900919921094C6C
:104A1000019363690948890002F00EFB6369013361
:104A20006361E6E7D662FF1FB58D01116C63FF1F5E
:104A3000CE8D0111DC62FF1F13020000E58D011114
:104A400070B5051E18D10D4C0D4B1880230058333E
:104A50001870606D002802D003F04AFD65652500DE
:104A600050356068002801D003F042FD0834AC42A4
:104A7000F7D1044802F0E0FA70BDC0461063FF1F92
:104A80006063FF1F0C8E0111F0B51600A12285B0E6
:104A90009200019342433D4B05001B680C009B189C
:104AA000D933FF331F78FDF7D7FE0430874204DD8A
:104AB0002800FDF7D1FE0430C7B2B74207D3320059
:104AC00000212800019B03F003FD05B0F0BD390073
:104AD000300003F06DFD2300C5B250331D70039309
:104AE000019B39006365300003F0B2FBCBB2029347
:104AF000002B02D0039B01351D700026230050338C
:104B00001B78B34204D8606D002839D10020DCE75F
:104B1000029A3800002A04D0013B1000B34200D0B2
:104B20003800F5006519287003F0E2FB019B68600E
:104B300001001A78164802F07FFA686800280ED043
:104B40002A78019903F0DCFD019A2B780136D318FD
:104B5000104A0193D369F6B20133D361CEE7230043
:104B6000503318706065A54205D10A4A1320D36AF4
:104B70000133D362A9E7606803F0BAFC0834F2E7B6
:104B800003F0B6FC00236365C0E7C0463409FF1F8D
:104B9000188E0111DC62FF1FF7B50C00060004211E
:104BA000606803F075FB23890500037023891B0AE5
:104BB00043702388837023881B0AC37027890224CB
:104BC0000437FFB2F42F15D8224B9E4214D10C208B
:104BD00003F0FEFB1134011E0CD0902303708E3BBA
:104BE0000371043B43801C4B8560C780187803F039
:104BF000D7FB00242000FEBD5C217143174B5918E0
:104C000001930B0058331B78002B19D103003A0095
:104C10003000FFF739FF041E05D0114B2200114868
:104C2000D96A02F009FA5C237343019AD1180B0088
:104C300058331B78002BDDD1300003F081FDD9E71C
:104C4000074A0948536A07240133536202F0F4F912
:104C5000E9E7C046FEFF0000D462FF1F1063FF1F9C
:104C6000DC62FF1F2C8E0111478E0111F0B587B059
:104C7000009017200F0016000193FFF796FD1325F3
:104C8000041E19D00C98031E02D00199201D9847CC
:104C9000030AE370052302AAA070043090812770F4
:104CA0000098667003A993800494FFF775FF051EB2
:104CB00002D0200003F01CFC280007B0F0BD00006B
:104CC000F0B587B01F000CAB1B7803910593012151
:104CD0000DAB06001C78049200F0D6F814250028CD
:104CE00021D02000FFF722FD0135041E1BD0114901
:104CF000059B0A7803700132D2B2131EC68001D11F
:104D000001231A000B7022713000049B0399009755
:104D1000FFF7ACFF051E09D1230021000648074A12
:104D2000093303F0D5FA280007B0F0BD00236380F3
:104D30002370F8E7D862FF1F0347011130750000A8
:104D4000F8B505000E00064C064F2368002B02D074
:104D50003100280098470434BC42F6D1F8BDC04663
:104D60007C63FF1F9063FF1F0123064A5B42538051
:104D7000002313715362044A136053609360D3603D
:104D8000136170479063FF1F7C63FF1F02000023C5
:104D900010B506499C000859002801D1625010BD89
:104DA0000133052BF6D11320F9E7C0467C63FF1FC2
:104DB000034A5388181A43425841404210407047F2
:104DC0009063FF1FF0B585B002930AAB1F780CAB60
:104DD0001B88009008000E0001920393FFF7E8FF84
:104DE00005001120002D1BD10E48FFF7E1FF040044
:104DF0001520002C14D006220B99A771E01D03F09A
:104E00007FFC019B30002371029B29006371009B92
:104E100066802370039B6562E381FFF791FF2800A2
:104E200005B0F0BDFFFF000010B5FFF7C1FF0400A3
:104E30000220002C12D060880121FFF781FF606AF8
:104E4000002801D003F0BCFA28220021200003F042
:104E5000E7FC012300205B426380207110BD00004D
:104E600030B5074A074C5588010013780020A54249
:104E700004D05B1A59424B415842104030BDC046E5
:104E80009063FF1FFFFF0000084A10B501230C00CC
:104E9000904208D0FFF78CFF031E04D00379234013
:104EA0005A1E9341DBB2180010BDC046FEFF000041
:104EB000024B1879431E9841C0B270479063FF1FA0
:104EC00070B504000D001600FFF772FF002804D132
:104ED0000D4B9C4200D0143070BD416A037905200F
:104EE000002907D012221A40102A02D10520002ED4
:104EF000F2D10F20DB06EFD5897E0C20A942894133
:104F0000494249420840E7E7FEFF0000030010B5B0
:104F1000002800D110BD0348034A41889142F9D0CE
:104F20009847F7E79063FF1FFFFF0000002330B5AD
:104F3000C45CCD5C6C40D4540133102BF8D130BD2F
:104F40000F23002210B5C45C64002243CA54C25C23
:104F5000D209013BF7D210BD0200010010B520328A
:104F6000103103F0A5FB10BDF0B58BB003901020FD
:104F700005931700049103F07BFB0090102003F0D1
:104F800077FB009B13240190002B05D000280CD147
:104F90001324009803F014FA019B002B02D0180090
:104FA00003F00EFA20000BB0F0BD102003F060FB00
:104FB0000600102003F05CFB13240500002E00D136
:104FC000AEE0002819D01022002103F029FC3200A5
:104FD0002900039803F06CFB041E0ED133787F2B5D
:104FE00051D830000099FFF7ABFF009B1B787F2B57
:104FF00053D801990098FFF7A3FF300003F0E0F9C0
:10500000002D02D0280003F0DBF9002CC1D11020C4
:1050100003F02EFB0600102003F02AFB0290002E66
:105020007CD0002878D03A000F32230001251211DD
:1050300005D00F333B4015B25A4253411BB26A1E92
:105040001201002B33D0049BD2B298180099029A17
:10505000FFF76CFF013D10220021300003F0E0FB60
:10506000ADB2049F2D017D19AF4242D0002C33D048
:10507000300003F0A5F9029B002B00D189E718004E
:1050800003F09EF985E729003000FFF759FF28005B
:105090002549009AFFF74AFFA7E729000098FFF784
:1050A0004FFF28002049019AFFF740FFA5E70F2195
:1050B0000F4004998A18D9B28F4208D9D15C06A84A
:1050C00019540133102BF6D1029A0199C0E7791ACD
:1050D00048424141C901F2E73900300006AAFFF712
:1050E00025FF3200039806A903F0E2FA1037040006
:1050F000BAE7002CBCD13000029906AAFFF716FFD0
:10510000320006A9039803F0D3FA08220400310004
:10511000059803F0F5FAABE71324A9E71324AAE7EF
:10512000002800D06EE733E75C910111F0B58BB039
:105130000F0016000225009000283FD0002A3DD025
:105140000B1DDBB21800029303F092FA1135041E16
:1051500034D0FDF7C1FC05003A000099201D03F092
:105160001FFAEBB20393E3702B0CDBB22F0A009310
:105170006370FFB22B0E2370A7700193FDF7A6FC9E
:105180001022010006A803F00BFA2100029A04ABDA
:1051900006A8FFF7E9FE051E0DD1039B0822337018
:1051A000009B04A9B370019B7770F370301D03F06E
:1051B000F7F9FDF797FC200003F002F928000BB087
:1051C000F0BDF0B58FB00D00149E039004920593CE
:1051D000002A03D1022420000FB0F0BD002EF9D028
:1051E0000398FFF7E5FD1424071EF4D07278337896
:1051F00012021A43B3781B041343F27812061A43BF
:10520000036A0192934201D30133E3D1002D03D00D
:105210003B7901249B07DED50822002106A803F074
:10522000FFFA059B13240433DBB21800029303F04A
:105230001FFA051ECFD0059A0499043003F0B0F987
:1052400004223100280003F0ABF93900102210319C
:105250000AA803F0A5F92900029A06AB0AA8FFF7ED
:1052600083FE041E0FD1082206A908A803F098F9AE
:105270000822311D08A803F0D3F9012807D10199AC
:105280000398FDF743FC280003F09AF8A3E70124F4
:10529000F9E7000070B51C4C05002368181E10D0FB
:1052A000002D14D11A78002A0CD1981C083203F072
:1052B00027FA03F08DFA0135002808D123681D7004
:1052C000012070BD0A331800082203F019FA236880
:1052D000002BF5D0122003F07BF8061E0DD0C12361
:1052E00021680370457002311022023003F008FA81
:1052F00023683100587803F053F8206803F060F811
:1053000000232360DCE7C046B863FF1FF8B5040044
:105310002020FDF7CFFA154FA600F3590500002B0A
:105320001FD000280ED0D878FF280CD0290003F019
:1053300047F9002807D1F3590D49DB780D482200C1
:1053400001F07AFEF8BD0C492A000C55BB596118D2
:1053500003330A4802F0BCFFBB590549DB78084813
:10536000EDE72100074801F067FEEBE7D463FF1F7C
:105370004C910111598E0111BC63FF1FB1650111E0
:10538000838E0111AC8E011170B50B4C85002B5929
:105390000100002B0BD0DA78084801F04DFE2B59A4
:1053A000D87803F0C5F8FF222B59DA7070BD044895
:1053B00001F042FEFAE7C046D463FF1FC68E01111A
:1053C000AC8E011170B506008CB00C0015000021E8
:1053D0003022684603F024FA31001022684603F0B8
:1053E000DFF81D2021000322684403F0D9F8684645
:1053F000FFF7B2FD2D21040003222800694403F0C9
:10540000CFF820000CB070BDF0B50700160097B0C3
:1054100001931CAB1D7830221EAB00910AA800211D
:105420001C7803F0FDF9102239000AA803F0B8F83F
:105430001022002102A803F0F3F90722310002A88C
:1054400003F0AEF8072202AB9818631E9C41019945
:1054500003F0A6F802AB9C732B005A1E934102AADC
:10546000D3730021102206A803F0DAF906221D9951
:1054700007A803F095F81A2002ABC01806221F995E
:1054800003F08EF8102200990EA803F089F810227C
:1054900002AB0EA908781C78013A6040D2B20870BD
:1054A00001330131002AF5D10AA8FFF755FD10227A
:1054B00012A904000EA803F023F9102206AB0EA9CE
:1054C00008781D78013A6840D2B208700133013182
:1054D000002AF5D10AA8FFF73FFD044310222098C7
:1054E000E4B212A903F05CF8200017B0F0BD70B56B
:1054F0000E0014008CB00100102268461D0003F05D
:105500004FF83100082204A803F04AF821000822CD
:1055100006A803F045F86846FFF71EFD04001022B8
:10552000280008A903F03CF820000CB070BDF8B5C5
:1055300006000D0000243719AC4200D3F8BD02F07C
:1055400037FF030A3B70631CDBB201379D4203D96E
:105550000234F054E4B2EEE71C00EDE773B5060048
:105560000C000225002819D0002917D0032101A81A
:10557000FFF7DDFF6B469A793F231A40013313434F
:105580006A463000937101A92200FFF71BFF051E38
:1055900004D10322E01C01A903F0B2F8280076BD73
:1055A00003785807DA08C00FD20080009B07104329
:1055B0009B0F1843C0B2704707230B40C908C900AE
:1055C0000B4303707047000070B50400FFF7DCFE6A
:1055D000134DA4006359002B21D0186A002801D074
:1055E00002F0EEFE2B59986E002801D002F0E8FE82
:1055F0002B59D86E002801D002F0E2FE2B59186F0B
:10560000002801D002F0DCFE2B59586F002801D091
:1056100002F0D6FE285902F0D3FE00232B5170BDB4
:10562000D463FF1F0E4B8000C35870B50C00002BD5
:105630000FD09D68002D0CD02B78201D0B706B783F
:105640004B70A97CFFF7B8FF2B7E23726B69E36078
:1056500070BD10220021200003F0E2F8F8E7C046F8
:10566000D463FF1F014B18607047C046D063FF1F13
:10567000074A03008000825810B5002A06D0D0885F
:10568000984203D1012901D1FFF79EFF10BDC0460A
:10569000D463FF1FF0B5264E95B087000B93BB591E
:1056A0000500099112200A92002B31D0D888FFF70B
:1056B0007FFB04001420002C2AD0280010A9FFF73B
:1056C000B1FFBB591E781D6A002E23D00895FDF747
:1056D00043FA07000020FDF745FA0790A379E61D7D
:1056E000069310AD0CA9089800F0E2FA0EA9280064
:1056F00000F0D7FA0B9B0A990493069B0998029332
:10570000079B0396019300970EAB0CAAFFF77CFE54
:1057100015B0F0BDFDF720FA06903000FDF722FA33
:10572000E31DA779079310AB06000893DAE7C0469C
:10573000D463FF1F30B50C4C85002A59030085B097
:105740000120002A0ED018006946FFF76BFF2B5985
:105750001A78D888054B002A00D1054B6A460721E4
:1057600000F0D9FB05B030BDD463FF1FA35C01116D
:10577000B15C011130B5094C8500295985B0102262
:105780006846253102F0BCFF2A591121044BD0880C
:105790006A4600F0C0FB05B030BDC046D463FF1FB1
:1057A0004D5D011130B5094C8500295985B0102295
:1057B0006846353102F0A4FF2A591121044BD088E4
:1057C0006A4600F0A8FB05B030BDC046D463FF1F99
:1057D0008B5D0111F7B54D4F86001020F4590D0077
:1057E00002F046FFF3592062186A132200286CD099
:1057F000033A29009C6802F083FFF3591A7801925A
:10580000002A58D11E6A227D317B944651400122E4
:10581000019F114201D167461740217D91433943D1
:105820002175377B4F40BC4660460027800701D476
:105830004F081740012102208F40227D82433A43C6
:105840002275377B5740BC4660460027400701D48D
:1058500097080F400420227DBF0082433A432275FF
:10586000627D002794466046727B42400A4201D125
:1058700067460F400121627D8A433A436275777B18
:105880005740BC4660460027800701D457080F40A8
:105890000220627D7F00824317436775767B00227A
:1058A0007E40760701D4BA080A400426617D920042
:1058B000B1430A4362756A78002A08D06278002AE8
:1058C00005D005220533DA7700221000FEBD042240
:1058D0002979114205D1A17C114202D10533033A45
:1058E000F1E7019A21782C78002A02D10A002100E0
:1058F000140018220429E8D8042CE6D805206043B7
:10590000034A05331218525CDDE7C046D463FF1F1B
:105910006C91011110B50A001121024B00F0FBFA45
:1059200010BDC046E75D01110B0030B587B001AD79
:105930002B806B4604001100981D082202F0E0FE47
:105940002A000B212000024B00F0E5FA07B030BD21
:105950000F5E011110B50A001121024B00F0DBFAB5
:1059600010BDC046635E011113B50B0011006A46FD
:1059700013706B4604000622581C02F0C1FE6A46F2
:1059800008212000014B00F0C6FA13BD835E01110F
:1059900010B50A001121024B00F0BDFA10BDC0463F
:1059A000D35E01117FB505000B4BAA00D458080047
:1059B000002C0FD0666F237FE28821780396266F34
:1059C0000296E66E0196A46E0094FDF75DFB28003A
:1059D000FFF7FAFD7FBDC046D463FF1F10B5172146
:1059E000FFF7E0FF10BD000070B50A000D00064B88
:1059F0000221040000F08FFA060029782000FFF74A
:105A0000D1FF300070BDC046B35D011170B586B0E6
:105A100000236A461370836804001D78681E0A28F4
:105A200059D801A902F01CFC060633373B3F434717
:105A30004B4F5300180000F042F9062312284BD0B8
:105A400000281BD16088FFF7B3F90823002813D082
:105A50004279002A47D1264B1A78072312070BD523
:105A6000244B1A680723002A06D01668002E03D09C
:105A7000290001AAB04703006A4613706B461B78E1
:105A80006088002B2AD1FFF741FC06B070BD1800DA
:105A900000F06CF9D4E7180000F087F9D0E718009F
:105AA00000F093F9CCE7180000F0ADF9C8E7180052
:105AB00000F0C3F9C4E7180000F0F6F9C0E71800D9
:105AC00000F0F6F9BCE7180000F013FAB8E7180088
:105AD00000F013FAB4E707236A461370694660883A
:105AE000FFF782FFD1E70523012AC5D1024BB8E7B2
:105AF0006162FF1FCC63FF1FD063FF1FF8B52C4FFF
:105B00008600F35904000D00002B40D0DA88824251
:105B10003DD15A78062A33D11A78002A2ED0012096
:105B200099681A6A097D014206D0157B054203D0A7
:105B300007225A700120F8BD0220014204D0157BD3
:105B4000054201D00922F4E70420014204D0127B6F
:105B5000024201D00B22ECE7164B1B68002BE9D068
:105B60005B68002BE6D020009847BB5900215B788A
:105B7000122BDFD12000FFF715FFDBE70E4BECE720
:105B8000112A04D1002900D032252900F2E7002D86
:105B900008D12000FFF70CF9002803D01023027968
:105BA0001343037121002800FDF7ECF9C2E7C0465A
:105BB000D463FF1FCC63FF1FD063FF1F70B50E4E71
:105BC0008500AB590400002B13D01B78002B11D19A
:105BD0000A4B1B68002B04D05B68002B01D020000F
