:020000041101E8
:10010000F7B5164B0192C318021D002000938823F7
:100110005B05D3181B685C1C1AD09CB2402C18D805
:100120008D781E0CAC466746CD782D023D43AE421D
:1001300006D1019800280ED110000C70240A4C70D2
:1001400003249BB20733A343D218009B9A42DED309
:10015000FEBD4432F9E71000FAE7C046FC0F00008C
:10016000802213B503000324019189B252010731A3
:100170009B18A14304305A1A88235B05C3181B68D7
:10018000591C03D190429241104016BD99B24029AA
:1001900007D80B000733A343C0189042ECD30020CC
:1001A000F3E74430F9E7134B134A1B68126810B5A4
:1001B000F424934201D81A00F024104BA4021B68C7
:1001C0009A4210D813000E4A12689A420ED3013395
:1001D00007D1F0239B029C4203D10A49054808F04D
:1001E000BFFE200010BDF824A402ECE7FC24A4020A
:1001F000F7E7C04600C0031100D0031100E003116F
:1002000000F00311FFFFFF7FF0B59BB015000490D5
:100210000391402A00D9A0E006AB59801A80FFF76D
:10022000C2FF0400042816D9002206A9FFF768FFC0
:10023000052810D906AB1B88AB420CD1002D07D086
:10024000514B2A000499C01808F022FE002802D160
:1002500001201BB0F0BD06AB1D8020000699FFF702
:100260007FFF041E7BD1069B0793FFF79CFF802333
:100270005B01C61880230700DB029E4201D3F026F3
:10028000B60288235B05F31801931B68013302D083
:10029000019809F06DF83D49019808F061FE3B1D99
:1002A0000293331D05938822029B52059B181B68FD
:1002B00008935A1C3CD044219AB20091402A04D899
:1002C0000320D11D814389B2009103991B0C8B42FD
:1002D00024D0402A22D80122300008A9FFF710FFBD
:1002E000021E1BD1380008A9FFF70AFF04000428EA
:1002F00031D9009A059B9B1880225201B218934273
:1003000040D288235B05C118009A09A808F060FF55
:100310001D4B009A09A9F01809F032F8009A029BC7
:100320009446634402931A4B029AFB189A42BAD33A
:1003300088235B05FC1821680198013908F010FE3C
:10034000200009F015F8039A07AB5A80300007998E
:10035000FFF706FF0400002C03D1002079E70428F2
:10036000FBD988235B05E018069908F0F9FD032303
:10037000EA1C9A4300D16BE7034B0499E01808F09C
:10038000FFFF65E70424ECE704000011FFFFFF7F97
:10039000F80F0000F7B505001400402A21D8002707
:1003A00001AE71803780FFF7FEFE042816D93A00AF
:1003B0003100FFF7A5FE042810D93688BC420BD0C7
:1003C000BD4209D0221CB44200D9321C064B92B265
:1003D000C118280008F0FCFE30B2FEBDC04300B2D8
:1003E000FBE703204042F8E70400001137B5042280
:1003F00004000D0001A81649FFF7CCFF02000428F5
:100400000BD1019BA34208D3AB4204D0104901A8F1
:100410000195FFF7F9FE01203EBD0E4C2368200038
:10042000019308F0A5FF019920000139019108F01E
:1004300097FD80235B01E418074B9C42EED1042218
:10044000034901A80195FFF7DFFE0020E4E7C0465D
:100450005555000000C00311000004118022F8B5BA
:10046000964C974BD200002120001C6008F078FECB
:100470002300944A88331A60934B1A786A23002A1F
:1004800000D01133E3620A232365904B37221B7897
:100490000820A3638E4B2118E361102323628D4B48
:1004A0003B256361C823DB00A36123008C331A6002
:1004B0002823013AE26320646364CA67043A211D79
:1004C000CA672100BC310D602100C03108602100E5
:1004D000C4310B6021000635CC310D602100083D90
:1004E000C8310D602100D0310A602200D432106082
:1004F0002200D832136022000227E0322100176068
:100500004222DC310A6021001B3DE4310D602100F4
:10051000E83108602100EC310B6023000521F43341
:1005200019602300F0331A602300183290331A60E8
:1005300023009433186023001E3A98331A60AF23C7
:10054000DB002360644BFA262363644B644DE36055
:10055000644BF031A3642300FF31FC33B600A1608B
:1005600021611E60A5627325E5656D3D6565A56524
:1005700096255D4AAD00E264666258606766A566CE
:1005800000270925A767E566584F594D6067200089
:100590002567E2673A6015279C30676007001A20DC
:1005A00038602000A0300700212038602000A830EB
:1005B00007004C4838602000F830066026006427A9
:1005C000A436376026005F3FAC3637602600033F15
:1005D000B03637602600C637B436376026000027AD
:1005E000B836376038269E60424E96205E64424E92
:1005F0005A66DE61414E9A645E62F53EFF3E9E623F
:100600001E269A67354A8000DE661F675F67DD65D4
:100610001D661862DA67BE23394A5B00E250394B27
:10062000D838235004302250C4225200A350C6238D
:10063000E4205B00E1500433334AE1503349344B4A
:10064000D1603449800019503349E938FF381950D6
:1006500032490430195032493248D161324911636C
:10066000324951631900F4310860CE20304940000E
:1006700011603049195019002F48F83108602F498E
:10068000D16582212E4A89005A501A002D4908321C
:10069000D1671A002C49B432116088212B4A890095
:1006A0005A501A002A49883211602A4ADA6408F03E
:1006B0000FFD012008F004FEF8BDC0460004FF1F36
:1006C0001C63FF1F406EFF1F4041FF1F4A0AFF1FB0
:1006D0003A07000080C3C9019A020000DC0500004F
:1006E0006A18000050C3000088130000F009FF1FC3
:1006F000204E00006509FF1F68100000C4090000BB
:1007000040420F0010270000FC00FF1FC11BFF1F0D
:100710000000FF1F152CFF1F9D2FFF1F352EFF1FF1
:10072000811FFF1F7126FF1F9D1FFF1F4921FF1FF4
:100730000D1FFF1F9528FF1F7D29FF1FD918FF1FC1
:10074000A127FF1FC524FF1FD124FF1F0D1EFF1F60
:10075000C51EFF1F851DFF1F0223F0B50124634D39
:10076000634E2B70634B34701A68634B89B004205E
:100770005A7007F08DF908F0CBFCFFF76FFE08F018
:100780008FFB1F2200215D4B1E271A705C4B6F44AC
:100790001C705C4B19705C4B19689143163A0A4304
:1007A0001A60602219689143403A0A431A6008F0BF
:1007B00017FE08F0C5FB554B9847C120FF21544B4D
:1007C00080001A588A431A50C522920098588843CC
:1007D000BF390143995098584E4908408021C901BA
:1007E0000143802099509958C0050902090A014324
:1007F000995080214848490108F0D2FC0323220087
:10080000464901940093464808F032FB16224549B8
:1008100002A808F0DDFC02AC61782078023406F012
:1008200035FDA742F8D1404C404B226803201A40C6
:10083000A023DB0213432360802322689B0413431D
:10084000236022683A4B1A4080239B0313432360A2
:10085000384A394B934200D8012008F0A9FC08F02F
:100860009FFB80232268DB0413432360287808F071
:100870008FFD3078C0B208F003FC08F039FC2F4936
:10088000042008F0C5FB06F0F9FE07F045FB00F078
:1008900073FF01F01BF82A482A4907F0E3F92A4BB5
:1008A0002A4819782A4B32781C782A4BC9B21E780C
:1008B000D2B22B780196009407F0D4F9082126488B
:1008C000264A07F0CFF98023A12225489200234928
:1008D0005B0107F0C7F9234B2348196807F0C2F9F9
:1008E00000F022F9002009B0F0BDC0464A0AFF1FFF
:1008F0004041FF1F34F00040C460FF1F480AFF1F43
:10090000490AFF1F680AFF1FBCF00040E1A2000077
:1009100000E100E0FF00FFFF4441FF1FC853FF1F3D
:100920004451FF1FA29C011114F00040FF7FF8FF0B
:10093000FFFF9FFF0080FF1F406EFF1F3B0001086D
:10094000D0940111020101034B0AFF1FE69401112B
:10095000440AFF1F450AFF1F14950111780A000081
:1009600044950111800AFF1F989501117047704747
:1009700030B503A804880B20002C0ED14968074D20
:1009800008784978090201430A20A94205D10121CA
:1009900020001980024B1B7A137030BD192A000009
:1009A000AC60FF1FF7B5150008AA16884A680F4FFC
:1009B00014785278120222430A24BA4214D1012236
:1009C000DBB2019200962A0008F0C8F9041E0BD190
:1009D000074B1B68002B07D068782A780002104369
:1009E00042425041013098472000FEBD02290000DC
:1009F000485EFF1F30B5012503790400BFB02B42CC
:100A000011D00A49408807F015FD28420BD0084B49
:100A100001A95B8D4D800B80064B00221B7A6088FC
:100A20000B7103F0AFFC3FB030BDC046405EFF1F0E
:100A3000283EFF1FAC60FF1F10B50549054807F0B1
:100A4000AFFC0421044A054807F06CFC10BDC04609
:100A5000405EFF1FFFFF0000B89C0111283EFF1FF2
:100A600010B5024804F06CFB10BDC046F509011139
:100A700001230370054B1A7A42700C2282709A7916
:100A8000C270DB79037105207047C046AC60FF1F60
:100A9000022310B50370013B43700533837010339C
:100AA0000371443B43712A3383714433C371002380
:100AB0000372064B04001B8843720A30FFF7D8FF0D
:100AC000831D0A30C0B2E37010BDC046AC60FF1F8A
:100AD00010B5142008F034FB124B142200211860CA
:100AE00008F03EFB002008F01BFC012008F0C0FCD1
:100AF000022008F0A5FA032003F06AFD042005F0A7
:100B000001FE052002F09EFF062003F075FC072081
:100B100001F006FA082007F0E5FB092000F0F6FFD7
:100B200010BDC0464C5EFF1F08F062FA012008F0BD
:100B300077FB08F0BDFA032382B054280ED8434354
:100B4000DAB2D0430023C0B2FF210A4008401202AB
:100B50000B401B041043184302B07047A92806D865
:100B600055384343DBB2DA430020D2B2ECE75630CB
:100B70005843C0B2C3430022DBB2E5E713B52638C1
:100B8000C0B211280FD80A4A0A4B115C0A4A1B5CF2
:100B9000125CFF2423401800214009022240120465
:100BA0000843104316BD002211001300F1E7C046B0
:100BB0000E9D0111209D0111FC9C011137B50024EF
:100BC0000325019028006043044B0322C01801A9AB
:100BD000013408F0FDFA202CF4D137BD2060FF1F4E
:100BE00010B50C220249034800F098FB10BDC04626
:100BF000585EFF1F8060FF1FF8B51D0006AB160092
:100C00001A8807AB1F784B68597818780B4B090284
:100C100001430A20994210D10130002A0DD1FFF77B
:100C2000DFFF3C1C0C2F00D90C24E4B22200300062
:100C3000034908F0CDFA00202C80F8BDD4FF000055
:100C4000585EFF1F094B10B50400984205D00129DA
:100C500004D12000064907F0A3FB10BD0229FCD1F6
:100C6000013904F02BFA0028F3D0F6E7FEFF00006C
:100C7000505EFF1FF0B5050A070CC0B285B00C002E
:100C80004843FF2108F004FC86B2E8B2FF2160432C
:100C900008F0FEFB85B2F8B2FF21604308F0F8FBD4
:100CA0007643FE36FF2184B2B0B208F0F1FB6D430B
:100CB000FE35FF21061CA8B208F0EAFB6443FE34AF
:100CC000FF21051CA0B208F0E3FBFF231D401E40DE
:100CD0002D0218402E430004304305B0F0BD000043
:100CE000F0B5AC4B8FB003931B68002B00D17FE0B5
:100CF000A94F2021380000F075FCA84C2378002B68
:100D00005FD06379180025381C285AD808F0E0F81D
:100D10003400720072007200720072007200720081
:100D2000A300A300A300E7000601060106010601D7
:100D30000601060106012401590059005900590015
:100D400059005900590059001D00A2780DAB1A70C6
:100D5000E2785A7022799A7061780D98FFF78AFFCD
:100D600005AB187002040002000E120E5A70987043
:100D70000598FFF723FF24E00025894B0DAE029371
:100D8000029AEB001078C018C0B2FFF7D4FE03043B
:100D90001B0E737003236B4330700002000EB070A3
:100DA000019361783068FFF765FF019B0204F854F6
:100DB0000002FB18120E000E01355A709870202D9B
:100DC000DED1C025774C6D0020212B002200724817
:100DD00000F033FC0100A8420AD1200000F0D0FB53
:100DE000011E05D00023039A6F48136006F03AFFF6
:100DF0000FB0F0BD6A490A78097849B2002925DBAD
:100E00005200D6B21800FFF7B9FE0DAD28700304EA
:100E100000021B0E000E6B70A8706078FF217043FB
:100E200008F036FB80B24043FE30FF2180B208F06C
:100E30002FFBC1B20D98FFF71DFF030428700002BD
:100E40001B0E000E6B70A8700D9892E7FF26B61A65
:100E50007600F6B2D6E72D2B37D0FF2600252E2BB5
:100E600035D1300001954E4A1378127852B2002ADB
:100E700030DB5B00DCB2FF273B1B9BB239005843E1
:100E8000029308F035F804AB1872029B0198654391
:100E900058433900401908F02BF804AB5872200071
:100EA0003900704308F024F804AB98723B4B069865
:100EB0005978FFF7DFFE07AB187002040002000E3E
:100EC000120E5A709870079853E70026FF252800E5
:100ED0000196C8E7FF24E41A6400E4B2CBE7304B84
:100EE0001878030700D56CE7C000C0B2FFF723FEF7
:100EF00008AB187002040002120E000E5A709870AF
:100F000061780898FFF7B6FE09AB1870020400027A
:100F1000000E120E5A70987009982AE7204A12782B
:100F2000120700D54DE71800FFF728FE0AAB18702E
:100F300002040002120E000E5A70987061780A982E
:100F4000FFF798FE0BAB187002040002000E120EA1
:100F50005A7098700B980CE72420114B1B781B09D2
:100F60005843C0B2FFF7E7FD0CAB18700204000253
:100F7000120E000E5A70987061780C98FFF77AFE86
:100F80000DAB020418700002120E000E5A70987019
:100F90005AE7C0469C5EFF1F2060FF1F8060FF1F56
:100FA000795EFF1FA05EFF1FAA950111F0B5C3B0C7
:100FB0001D0048AB039014000E201F88002911D09B
:100FC000002A0FD04B681A785B781B021343314A12
:100FD000934209D1012203980192EBB222000097BB
:100FE00007F0BCFE43B0F0BD2B4A0A209342F9D172
:100FF0000130002FF6D10230142DF3D821002A0041
:10100000264808F0E5F8264E21002A00300000F0BE
:1010100024F9040001282DD12249039807F00AFA87
:10102000204080B2002804D11F4806F01BFE00209B
:10103000D8E73900F22205A808F092F8FFF7D0FDB2
:101040000C2202AB194906A8DA8108F0C1F8184B46
:1010500002AA1B8805A9938103983A0003F092F92C
:10106000144C0100B079737932780090200006F0BA
:10107000F9FDDCE7002805D00F48210006F0F2FD5D
:101080008020AFE70D4B1870FFF7AAFDFFF728FE91
:10109000CDE7C04602290000D9FF0000645EFF1FB3
:1010A0008060FF1F505EFF1FE8950111585EFF1F13
:1010B000B63EFF1F2F96011178960111785EFF1F33
:1010C00010B50E4800F098F90021072006F0C4F989
:1010D0000221072006F0DAF80021032006F0BCF90F
:1010E0000221032006F0D2F80021042006F0B4F912
:1010F0000221042006F0CAF810BDC0467A5EFF1F28
:1011000073B5072006F0A2F80400032006F09EF84D
:1011100001250600042006F099F86E406C40F3B2F9
:10112000E2B2154E154C6840C0B20090310020006C
:1011300000F06AF9002804D0FFF752FDFFF7D0FD58
:101140000DE00F4B1B68002B09D07379412B06D0A3
:101150000C4A13780133DBB2012B01D8137073BD35
:101160001070B379084A1B09191C002B00D1291CE7
:1011700013785B181370E1E78060FF1F7A5EFF1F32
:101180009C5EFF1F785EFF1F795EFF1FF7B51C484E
:1011900000F052F800221B4B1A701B4B1A70FFF71D
:1011A0001FFD1A491A4807F0FBF81A4803F008FF18
:1011B000194800F091F943424341184D184E2B60F5
:1011C000002800D1174E00F0FBF9040000F004FAEB
:1011D000070000F0FBF903000F4A009301923B0067
:1011E00022003100104806F03DFD2B68002B01D095
:1011F000FFF776FD06210D4A0D4807F093F8FEBD76
:101200008060FF1F795EFF1F785EFF1F505EFF1F2B
:10121000FFFF0000450C0111C0C62D009C5EFF1FA2
:10122000AB960111A8960111B0960111349D0111E0
:101230006C3EFF1F7047704700280DD00123FF222E
:1012400003707F33437000230271BE3A4271293A22
:101250008370C3708271C3717047030010B50220A0
:10126000002B0DD000290BD0032A1CD10C78EF2CB9
:1012700007D1487801284FD18B78772B00D00330E5
:1012800010BD0420CC2CFBD18C78332CF8D14978BC
:10129000232903D101221A700020F1E7100024292C
:1012A000EED10022F7E7072A1ED10A780420562A39
:1012B000E6D18A79AA2AE3D14A79F02A0CD14A7870
:1012C0009A708A78DA70CA781A71FF225A70BE3A18
:1012D0005A710022DA71DFE703200F2AD0D10A7990
:1012E0009A70DA700A79EFE704208242C8D10C784C
:1012F0001000BB2CC4D1CA78442AC1D14A7803203B
:101300001400253C132CBBD85A7189780A1C00297B
:1013100000D101229A71DCE70420B1E7030010B587
:10132000002823D0081E21D000200B2A1ED96622B7
:101330000A70513A4A701A785442624123328A70D4
:101340005A79CA7020220A715A79412A00D09879B4
:1013500048719A780C208A71DA78CA711B790B72FD
:1013600000234B7206338B729333CB7210BD000097
:1013700002788A4204D001230170837000207047F4
:101380008378032B18D80133DBB28370042BF5D19B
:1013900043789342F2D04270002A05D00023838024
:1013A000C38003720120EAE7037A8280C28002725E
:1013B000584258414000E2E74378002BDED0838852
:1013C0000C4A934201D001338380037A002B07D16A
:1013D00082883B2AD2D901220272C3800320CEE741
:1013E000C38801339BB20E2B01D8C380C6E700230C
:1013F000F3E7C046FFFF000010B5002803D020220D
:10140000002107F0ADFE10BDF7B51E0008AB1B783C
:101410000C0005001100019300283DD0201E3BD098
:101420002800FFF7A5FF0700280031000A30FFF76A
:101430009FFF0600280001991430FFF799FF020072
:101440000020022F04D12378013059424B412370F0
:10145000022E22D107210320AB7F01330B401C4910
:10146000AB7758430B00C35C0918A3704123637129
:1014700000234E788978E6702171E3710120022AF9
:1014800018D1EB7F013201331340124AEB77D35C62
:1014900063710023E3710120FEBD032EEFD1637859
:1014A000202019002039C9B29F2901D81B18D8B2B1
:1014B0006070E3E7032AEFD1A37920211A00103AE4
:1014C000D2B2CF2A01D85B18D9B2A171E3E7C046E6
:1014D000569D0111529D011170B5040088B000287D
:1014E00035D01F4B984705001E4B2100186060083F
:1014F000401907F0FDFC1C4B0100984223D919004C
:101500001A4B2800196007F0F3FC194E30600120D7
:1015100005F044FE00281ED1012203AB1A736A466F
:10152000079006AB22CB22C2124822001249134B6D
:1015300005F04CFD002810D10C3007F051FD0028BB
:1015400007D0042004E00228DAD20221D8E70120E3
:10155000404208B070BD0220FAE70320F8E7C04619
:10156000D1A500009460FF1FFEFF00008C60FF1FEC
:101570009060FF1FCC3EFF1FFFFF16FF000107001A
:1015800007B5021E12D00B484B1E83420ED8002313
:1015900089B2009108480121019305F035FB00282C
:1015A00003D1064A1368013313600EBD0120404287
:1015B000FBE7C046FEFF0000CC3EFF1F8860FF1F18
:1015C000014B18687047C0469460FF1F014B1868B4
:1015D0007047C0469060FF1F014B18687047C046B7
:1015E0008C60FF1F0B00002805D003215943002306
:1015F0004118884200D170470370437083700330F4
:10160000F7E7F0B507230E27050001261D415A1EF6
:101610000824D2B2354200D03C0005000126154115
:101620000822354200D03A002401023B2243DBB2BB
:101630000A700131FF2BE7D1F0BDF8B504001500A9
:10164000061E0AD0161E08D00C264E439E4216D8FF
:1016500003274F43C719BC4201D13000F8BD290010
:101660006078FFF7CEFF2078291DFFF7CAFF290019
:10167000A0780831FFF7C5FF03340C35EBE70026EF
:10168000EBE7000070B5160004AA148805AA1578C7
:101690004A685078117800022A4A084380180528C1
:1016A0004BD807F035FC03131E29343F07221000E6
:1016B000062C0AD8121BAA4200D92A0022491A80F5
:1016C0003000091907F084FD002070BD0720112C9F
:1016D000FBD81222121BAA4200D92A001B491A80E9
:1016E000EEE707200E2CF0D80F22121BAA4200D9D9
:1016F0002A0017491A80E3E70720032CE5D80422C3
:10170000121BAA4200D92A0012491A80D8E70720E2
:10171000032CDAD80422121BAA4200D92A000E494F
:101720001A80CDE70720022CCFD80322121BAA4231
:1017300000D92A0009491A80C2E700220A201A802B
:10174000C3E7C046DCD5FFFF9A9D01119860FF1FDB
:101750008A9D0111859D0111809D01117C9D0111C2
:1017600010B50D21024A034806F0DCFD10BDC0464D
:10177000709D0111D03EFF1F10B5084CE368002B8F
:1017800008D18022064B52021B689B186360054BF0
:101790001B68236007F034FDA06010BDD460FF1FFC
:1017A000C8F00040CCF0004070B5184A936A916AC6
:1017B0009942FBD116498A689A421FD39A1A8B60C4
:1017C000144B0126186893B2D202D20E434342430F
:1017D00000204C681B0A1B1912029B180E4C0A6849
:1017E0004B60551CA3420CD8002801D04B600A6006
:1017F0000A4A136008680A4B186070BD581E821AA6
:10180000DDE7084A30009B182A00EAE700F00040B4
:10181000D460FF1F140AFF1F40420F00C8F00040B1
:10182000CCF00040C0BDF0FF70B51F4C23793F2BBA
:1018300001D93F2323711D4B22791A701878C0B249
:1018400007F0F6FD18231A491A4A0B801A4913802B
:101850000B805380A379194980200B800C21938041
:1018600001334B43164D191C0001834200D9011C62
:101870002980D1806379002B01D101336371237AF0
:10188000012B01D8022323726279237A0D48534336
:101890000A21584307F0FCFD0B4D2860E379052B26
:1018A00001D81023E37170BDC860FF1F480AFF1FF5
:1018B000BA3FFF1FEC40FF1FB83FFF1FB63FFF1F9F
:1018C000B43FFF1F71020000B860FF1F064B70B5E8
:1018D0001900064A31CA31C120225A7100229A7178
:1018E000FFF7A2FF70BDC046C860FF1FBC9D01117D
:1018F0007047000070B50400013806280DD807F0C5
:1019000007FB041135551D0C57002A4806F0AAF9AB
:10191000294B0221187807F00BFB2100274806F01D
:10192000A1F970BD264806F09DF9234B08211878CF
:1019300007F0CEFC0022234B1A72EEE7802200252E
:10194000204B52001A81FA22DD721F4B1A4E5B7A2D
:10195000920008215A43307807F0B2FB2900307812
:1019600007F02EFD194806F07DF9D6E7184806F075
:1019700079F9114B0821187807F0AAFC1548FFF7F0
:1019800087F8114B144A9B799380144A13800022E4
:101990000C4BDA720132FF321A81114B1B78002B8B
:1019A000BBD0104A136007F0C3FCB6E70E48DAE775
:1019B0000E48D8E7FE960111E460FF1F7C970111E5
:1019C0000D970111B860FF1FC860FF1F219701111B
:1019D00034970111C53FFF1FEC40FF1FB63FFF1FAB
:1019E000C460FF1F34F000404B9701116C97011148
:1019F0000300F0B50A4D8E18B14202D15200801892
:101A0000F0BD0C782F6824093C5D0F271C700C7802
:101A100001313C402F683C5D5C700233ECE7C0460E
:101A2000B03FFF1F10220F4B10B51A700F230E4C42
:101A30000E492370093A063B0D48637007F0C8FB56
:101A40002D2301220B490C486372FFF7D1FF0122BD
:101A50000A49FFF7CDFF01220949FFF7C9FF00231B
:101A6000037010BDE262FF1FC362FF1F9A9D011148
:101A7000C562FF1F6709FF1FCD62FF1F6609FF1FB9
:101A80006509FF1F10B5FFF7CDFF084C084B207804
:101A900021000130C0B2187007F06AFA2178054AB7
:101AA0000139C9B2002006F05BFB10BDC362FF1F05
:101AB000E262FF1FC562FF1F10B5114B1A78187044
:101AC000002A0ED000280BD10E4B1A78062A07D810
:101AD0005423D340DB0703D50B4B187801F030FEBD
:101AE00010BD0028FCD0074B1B78012B02D0033B14
:101AF000022BF5D8044B0121187807F019FAEFE70B
:101B0000E662FF1F0D63FF1F0E63FF1FF0B5624B00
:101B100087B01870614806F0A5F8614806F0A2F891
:101B2000604806F09FF807F02BFB03225E495F48F0
:101B3000FFF75EFF2D24030088211C700422490555
:101B40000130FFF755FF3023022204704370837089
:101B5000574C584B2000DA8757490432FEF71AFCDD
:101B6000062813D0200007F033FC022809D00321F7
:101B7000200007F00DFA8D23E3706E3B23711933BB
:101B80006371062220004C49FEF73EFB4B4B0125BA
:101B90001B68FC335C64FFF775FF0723484E494C14
:101BA0003370053B23700433A370033BE370237150
:101BB000D233637144492A3344486570A37106F0F7
:101BC00051F86423424F43487979594306F04AF863
:101BD0002178A37862780591A1793F4803916179D2
:101BE000029121790191E1780091059906F03AF886
:101BF0000020FFF761FF3278384E2300290030784B
:101C000001F060FD364A0021364B1278307801F041
:101C100059FD6422344B204C1D707B7953431900CD
:101C2000244A0A3193811382D18151822078202164
:101C300007F0E6F90120404206F0DEFA01204042BA
:101C400006F07AFBFFF78CFDFEF7F6FE274806F05C
:101C500009F801204042FFF799FAFFF731FA802195
:101C60000A220901207807F02BFA280007F038F93A
:101C7000F02000F0DDFE2900207807F059F92078E7
:101C800001F0DAFE1A4807F0B3FBFEF76FFE1948C1
:101C900005F0E8FF07B0F0BDE460FF1F8B9701116E
:101CA000B9970111D49701116040FF1F9860FF1F81
:101CB0006509FF1FEC3FFF1FADAC00001C63FF1F59
:101CC000E43FFF1FC53FFF1FC562FF1FEA970111D9
:101CD000C860FF1FFD9701111A9801110E63FF1FC5
:101CE000E262FF1FC362FF1FB462FF1F4D98011124
:101CF000E660FF1F7A98011170B520200E000D00DC
:101D00000640014205D0364A137A01331372684007
:101D100070BD0BB2002B15DA324B187807F0B0FA11
:101D2000041E0CD00378912B06D143780E2B03D1DF
:101D300081882D4805F096FF200007F099F9802052
:101D40000002E4E70224214209D0284805F08AFF76
:101D5000234B01201E72FFF7AFFE2000D7E70824B7
:101D6000214207D0224805F07DFFFFF71DFDFEF759
:101D7000FDFDF2E7CB0615D51E4B1F481A7AD98810
:101D800005F070FFFEF7F3FD1C4B1B78002B07D10D
:101D9000FEF766FE1A4B1B68DB0701D5FFF74BFA0F
:101DA0001020B4E70124214208D0164805F05AFF5C
:101DB000154800F079F807F00BF9CEE780242401EC
:101DC000214202D0FFF79CF9C7E704240800204015
:101DD00021429DD00D4805F045FFFFF72BFABCE7E7
:101DE000B860FF1FE460FF1FA5980111CE98011194
:101DF000FD980111AC60FF1F08990111E662FF1FF9
:101E0000C860FF1F1C990111A83FFF1F37990111DE
:101E1000F0B51B4B1B4F1B883A8804001A4E1B4D14
:101E200085B09A420DD832889A420AD3184B1A8844
:101E30002B889A4205D1174A174B12881B889A4261
:101E40001BD0052000F050FE3B8802AA1380338887
:101E5000019053802B88114D93800F4B02A91B8852
:101E6000D3800F4B2A78188802F096FB0D4B08217F
:101E70002878019A1C7007F06BF905B0F0BDC046D8
:101E8000B262FF1FBA3FFF1FB83FFF1FB63FFF1FE1
:101E9000B062FF1FAE62FF1FB43FFF1F0E63FF1F44
:101EA000BC3FFF1FAC62FF1F13B50C4B1C78002C0E
:101EB00011D1002801D00A4B18600A4A0A4B117848
:101EC0000A4A10780A4A01920A4A0092002206F051
:101ED00037F8200016BD1124FBE7C0460D63FF1F35
:101EE000A862FF1F0C63FF1FFC62FF1F0E63FF1F32
:101EF000E862FF1FEC62FF1F10B5064B12201B7833
:101F0000052B06D1044B13221988044B187800F0D6
:101F1000C7FF10BD0D63FF1FBC3FFF1F0E63FF1FF8
:101F200010B500240122114B52421870104B1C7046
:101F3000104B1A8001F080FD04220F4B21001A7013
:101F40000E480C3207F0A4F8102221000C4807F0CC
:101F50009FF807220B4B1C600B4B1C700B4B1C702B
:101F60000B4B1A700B4B1C7010BDC0460E63FF1F4D
:101F70000D63FF1FBC3FFF1F0C63FF1FFC62FF1FB1
:101F8000EC62FF1FE862FF1FC262FF1FC162FF1FFA
:101F9000BE3FFF1FC062FF1FF8B5174C0600257833
:101FA00006A814240078052D23D1B41F134FA5B221
:101FB0001824BD421DD88D1FADB2BD4219D8FA25D7
:101FC0006D00AA4215D21D000D4F0A3DADB2BD42B3
:101FD0000FD80C4C26800C4C21800C4900240A8020
:101FE0000B4A1380FFF714FF0A4B0421187807F0FF
:101FF0006FF92000F8BDC0460D63FF1F790C00008B
:10200000750C0000BA3FFF1FB83FFF1FB63FFF1F10
:10201000B43FFF1F0E63FF1FF0B50BB20D0089B078
:10202000002B00DB84E1AC4E307807F029F9041E68
:102030002DD00378A22B00D133E1D02B2CD0912BC3
:1020400022D143780E2B1FD18388A44A934211D109
:10205000A34A83681278052A16D1032018567F28D0
:1020600012D0A04B1B68002B0ED05B68002B0BD04E
:10207000984709E09C4A934206D181689B488B7837
:102080004A78097805F0EEFD200006F0F1FF802087
:102090000002684009B0F0BD80780728F4D807F046
:1020A000D7F90800F3FF1C003C003C007300A700B8
:1020B000D7006378002B0CD10121894B19708C4B10
:1020C0001A78002A54D08B4B307801F0FBFA0028A4
:1020D0004ED00722824B1A704AE061780029F8D16D
:1020E000E378002B0AD0844A844B1278307801F0D0
:1020F000E9FA60706378002BC6D0EAE7784B1B786A
:10210000022BC1D00121307806F0BAFE0028F1D1AF
:102110000121307806F00CFFECE76378002BD8D172
:102120006F4F032807D13B78052B02D101333B7059
:102130001EE00223FBE7724B1A88724B0293002ABF
:102140000BD01B78002B03D00121307807F000F86A
:102150003B78062B04D1013BE9E7029B1A70F7E7B5
:10216000042B43D10121029B3078197006F0E0FE68
:102170005C4B1B68002B00D186E71B68002B00D14D
:1021800082E7574A107873E76378554F002B27D1C1
:102190000622211D5C4807F01BF862895B4B5C49F5
:1021A0001A80A2895B4B1A80E3890B800521397064
:1021B00059490A80594A1380228A594B1A80594B2F
:1021C0001B78012B09D11F2000F08EFCFA2292000F
:1021D00042430421307806F0BBFF0022494B7AE7E6
:1021E000312B00D075E70022464B1A7003239EE77F
:1021F00006220021444806F04BFF0023464A0421F2
:102200001380464A30781380454A138007F060F8FF
:102210000821307807F05CF8A379083B5A42534113
:102220002F4A03331370324B1B78002B06D0354BEB
:1022300030781A78002A06D001F082FA0122334B56
:1022400052421A8094E70121197006F071FEF5E7F9
:102250000821307807F03CF86378002B00D013E7B2
:102260002D4B2F4F0293E388029A042113802B4BAE
:10227000307803932389039A138063893B8006F0A7
:10228000FFFD002800D0FFE6274B1B68002B00D184
:10229000FAE6039902983A88098800881B689847EB
:1022A000F2E64379132B00D0EEE60389012B0AD125
:1022B0001E4B1B78022B06D10821307807F008F856
:1022C000FFF71AFEE0E6052000F00EFC08210200F0
:1022D000307806F03DFFD7E60E63FF1F05140000BF
:1022E0000D63FF1FA862FF1F2220000059990111F2
:1022F000E43FFF1FC53FFF1FE262FF1FC362FF1FD6
:10230000E462FF1FE662FF1FB562FF1FBC3FFF1FB5
:10231000BC62FF1FBE62FF1FB262FF1FB062FF1FE1
:10232000AE62FF1FB462FF1FA462FF1FAC62FF1FFB
:102330008020C001014200D0ABE6CB0731D5324B43
:102340001B78002B1DD0314E05AC3378052B1AD1EC
:10235000023B23702E4B21001B7823722D4B1B78E0
:1023600063722D4B187801F051F9002809D007202D
:102370002A4B30701B68002B03D01B68002B00D049
:102380009847012085E60E20254B06221B7825491B
:102390002370254B1B78637002ABC01806F018FF42
:1023A000D8E7022308001840194209D0174B1B78C0
:1023B000052B03D11D4B188806F002FF022068E6AA
:1023C0000424214203D0FFF723FD200061E6082307
:1023D00008001840194200D15CE6154B1C78012C0E
:1023E00003D0022C0DD0082053E6124B124A134999
:1023F00013481B881288098800880094FFF7CCFDD9
:10240000F1E7FFF779FDEEE7E662FF1F0D63FF1FBF
:10241000BE3FFF1FC062FF1F0E63FF1FA862FF1FAA
:10242000C262FF1FBF3FFF1FC162FF1FBC3FFF1FF4
:10243000AC62FF1FB43FFF1FB63FFF1FB83FFF1F37
:10244000BA3FFF1F10B5034C0B000122210000F022
:102450006BFA10BD052601110B8870B506000D0042
:102460000224162B11D92B000322094900F05CFA33
:10247000041E0AD1074B2A881B88191C934200D9D5
:10248000111C300089B200F0EFFA200070BDC04688
:10249000312601112263FF1F10B54A780400013A6A
:1024A0000B000220012A07D80A78002A04D005224E
:1024B0002000024900F038FA10BDC0465F26011125
:1024C0000A7810B50B0004000220002A04D007226D
:1024D0002000024900F028FA10BDC0460B27011168
:1024E0000A7810B50B0004000220002A04D009224B
:1024F0002000024900F018FA10BDC04671270111F2
:1025000010B5034C0B000B22210000F00DFA10BD9A
:10251000A127011110B5034C0B000D22210000F082
:1025200003FA10BD1328011110B5034C0B000F2244
:10253000210000F0F9F910BD6D2801110A7810B5DD
:102540000B0004000220002A04D0112220000249BE
:1025500000F0EAF910BDC0467D280111002310B536
:102560001322190000F0E0F910BD000010B5034C73
:102570000B001722210000F0D7F910BDCF28011160
:10258000002310B51922190000F0CEF910BD00008B
:1025900010B5034C0B001B22210000F0C5F910BD43
:1025A00009290111F7B584890D0006000121002CCD
:1025B00022D000238268D3561778002B1EDA0C2C09
:1025C0001AD90C3CA4B2131940880093230002F0DE
:1025D00012FF431E984101307B06DB0F6B703F23D7
:1025E000013C1F40A4B22870AF70AC80002C07D013
:1025F000B3680133AB6000210800FEBD0020EBE7AB
:10260000AC60F8E70B7803704B8843704B881B0A6B
:1026100083700B79C370042070470420022B06D10D
:102620000020537811781B02009A0B4313807047E7
:102630000B8803700B881B0A43700220704704202C
:10264000009983420AD1537810781B0203430B8010
:10265000D37890781B02034300204B807047F8B575
:102660000D004B7801240021461C03702B788B420F
:1026700001D82000F8BD6B78B01C4F1C012B10D185
:10268000890069184B88022233704B88B9001B0AF5
:102690007370691806F0D4FE04360434A4B2F9B29B
:1026A000E4E7122359436B185A88043132705B886F
:1026B00010221B0A7370691806F0C2FE123612341B
:1026C000ECE770B5049D14001E00052B01D8042012
:1026D00070BD637812781B0213432B80E378A278D5
:1026E0001B02134302226B802A71211D681D063EC6
:1026F00006F0A6FEB2B22A81E92AE8D82800A11D78
:102700000A3006F09DFE0020E2E7002310B50A78AB
:102710009A4201D8900010BD9A008A18548801335B
:1027200004705488DBB2240A4470948884709288C0
:10273000120AC2700430EAE710B51100029C062BA1
:1027400004D004201022142B01D010BD02222271CB
:102750004B7808781B0203432380CB7888781B02D0
:10276000034363800431601D06F06AFE0020ECE73D
:1027700010B50C788B7804315C43E4B2037022000E
:10278000013006F05DFE601C10BD0420022B06D156
:102790000020537811781B02009A0B431380704776
:1027A00010B50C000A88023106F04AFE208810BDE0
:1027B00070B504000D0004981100012B01D804200D
:1027C00070BD167852781202324302800200F13254
:1027D00055701470E125002C00D10C35023B9AB2E3
:1027E0004280AA42EBD80231043006F029FE0020D4
:1027F000E6E70420009983420AD1537810781B023F
:1028000003430B80D37890781B02034300204B8056
:10281000704710B50C000A88023106F011FE2088BE
:1028200010BD000070B501211E000420049C0E4064
:102830000B4218D1CB40DDB28D4214D90A49DBB22C
:10284000098899420FD32300EE331D7033005800DE
:1028500011184978165C0902314301332152D9B26B
:102860008D42F4D8002070BDE63FFF1F10B50C006C
:102870000A88023106F0E4FD208810BD10B50C78FE
:102880008B7804315C43E4B203702200013006F01F
:10289000D7FD601C10BD10B511000298032B01D8A4
:1028A000042010BD14785278043B120222430280A7
:1028B000CA788C781202224342809AB28280EB2A34
:1028C000EED80431063006F0BBFD0020E9E710B574
:1028D0000C000B8803700B881B0A43704B888370B5
:1028E0004B881B0AC3708A880430063106F0A8FDA5
:1028F000A088043080B210BD0420012B03D1002039
:102900001378009A1370704710B50C000B88037091
:102910000B881B0A43704A880230043106F090FD90
:102920006088023080B210BDF0B589B003931E4BB1
:10293000029242000700D05A019102F050F813258C
:10294000061E2DD0029B01240370019B002B04D096
:10295000001903999847001984B26B461B7A5BB241
:10296000002B0FDA1021380002F0A8FB19250028EF
:1029700013D130003219E1B202F0F2FC051E0CD185
:102980000C34A4B2042304AA380005A99380069647
:10299000948101F0DFFD051E02D0300006F060FDDD
:1029A000280009B0F0BDC0462063FF1F70B50500C8
:1029B0000C0000280CD00020814209D010222000F9
:1029C000044906F03DFD01202B7823736B78637377
:1029D00070BDC046C89D0111F0B506000D0017007E
:1029E0001C0085B002291BD00020102907D1022B22
:1029F00007D0102B03D115E00020102C08D005B013
:102A0000F0BD69463800FFF7D1FF2A0069460BE0A8
:102A100069463000FFF7CAFF22006946380004E02B
:102A2000022BE9D12A003900300006F041FAE6E72E
:102A3000031CF02800D9F023032008499AB2013A78
:102A40000B80D317034006499B189B100B80D30FB4
:102A500004499B185B100B807047C046EA3FFF1F7C
:102A6000E83FFF1FE63FFF1F054B10B51B888B4259
:102A700005D3044B4000C152034805F0F3F810BDE4
:102A8000EA3FFF1F2063FF1F6C990111014B4000BB
:102A9000185A70472063FF1F1722014B1A80704796
:102AA0002063FF1F70B505000E2006F0D9FA041E42
:102AB00013D0D0230370002306228370074945708A
:102AC000033006F0BDFC064B2100DA8A62811B7ED2
:102AD0002373044B187806F083FB70BD3C63FF1F23
:102AE0002C63FF1F3A40FF1F262803D8024B4000EB
:102AF000C05A70470148FCE7EC3FFF1FFFFF000092
:102B000070B506000C00094D1C220021280006F0BB
:102B1000BFFA074B1E70074B1C7006F081FC0123A7
:102B2000002801D0002312202B7070BD2C63FF1FE2
:102B30003A40FF1F4D63FF1F70B505000D4C0800A4
:102B4000E260A16010220021656006F0E1FB01282F
:102B500003D11021A06802F004FE102200212800F9
:102B600006F0D6FB012803D11021606802F0F9FDC0
:102B700070BDC0462C63FF1F70B5041E05D100292F
:102B800003D006220D4806F05BFC0D4B1D78012D8D
:102B900011D1002C05D102221A7006F049FA280042
:102BA00070BD00221A70074B1B78FF2BF7D0200056
:102BB000FFF778FFF3E70025F1E7C0463C63FF1F0E
:102BC0002C63FF1F3A40FF1F030010B5002801D1FE
:102BD000002010BD00780B4A002803D15988D1820B
:102BE0001B7913761378022BF2D10023984200D17F
:102BF00003331370044B1B78FF2B01D0FFF752FFF8
:102C00000120E6E72C63FF1F3A40FF1F002911D087
:102C100000280CD04B79012803D1402252421343A3
:102C200003E03F221340032802D001204B7170477C
:102C30004022F4E70800FAE770B5094D0100287852
:102C400000280BD0074C0622200006F0F9FB2100DB
:102C50002878FFF7DBFF200006F08AFA70BDC04637
:102C60004C63FF1F2663FF1F00290AD0012808D1EB
:102C70003F224B799343C02B03D0403B5A425341F0
:102C8000981C704770B5174D06002B78FF2B15D098
:102C90000A2006F0E5F9041E10D0D0230370C83BCB
:102CA0008370114B11491B784670C37006220430A3
:102CB00006F0C6FB2100287806F092FA0C4B1B7830
:102CC000012B0DD10B4B1B68002B03D09B68002BF5
:102CD00000D09847084B04211878084A06F0F0F90C
:102CE00070BDC0463A40FF1F4C63FF1F2663FF1FA5
:102CF0004863FF1F7463FF1F7863FF1F60EA0000D3
:102D0000014B98687047C0462C63FF1F014BDB687E
:102D1000186870472C63FF1F074B10B5DA681368FB
:102D200001331360054B1878FF2803D08021C901B7
:102D300006F0FEF810BDC0462C63FF1F3A40FF1F8F
:102D4000F7B50E0002F04EF9051E1CD00E4B0662C0
:102D50001F78002F00D10778AB791020019306F07F
:102D60007FF9041E0FD0D0230380C73B8370019BE3
:102D7000E91DC3700622043006F062FB2100380012
:102D8000E66006F02DFAF7BD3840FF1F014B1878BA
:102D90007047C0464C63FF1F054B002805D1054B0B
:102DA0001A78054B002A00D1014B18007047C04625
:102DB0003C63FF1F4C63FF1F2663FF1F014B5868D6
:102DC0007047C0462C63FF1F024B1868431E984192
:102DD000C0B270475063FF1F421E03000120152A36
:102DE00003D9FF3B5A425341D8B27047F0B51C009B
:102DF00000230E0085B0039002920B70029A93425A
:102E000001D3002019E0E55C5A1CD2B2002DF8D0A5
:102E1000029851198142F4DC0233DFB2A35C18003E
:102E20000193FFF7D9FF002807D0013D019A0399CC
:102E3000EBB233708A4202D1E01905B0F0BDDB1964
:102E4000DBB2DBE710B50C0002F024F9030012201E
:102E5000002B03D02100588806F0E2F810BD0000D6
:102E600070B50E4D84006359002B15D0186A0028E8
:102E700001D006F06DF82B59586A002801D006F0F1
:102E800067F82B59986A002801D006F061F8285994
:102E900006F05EF800232B5170BDC0465C63FF1F37
:102EA0001C4B70B504000E00150099420AD11A4B54
:102EB0001B68002B01D1122070BD1B68002BFAD0BB
:102EC0009847F9E7154B994215D1134B1B68002B16
:102ED0000AD01B68002B07D09847002804D1104B5C
:102EE0001C70104B1D70E7E729002000FFF7AAFFB8
:102EF0000028E1D1F3E7080002F074F80028DAD0E6
:102F000003780320A342D7D12900300006F088F8C7
:102F1000D2E7C046FEFF00005863FF1FFFFF00001E
:102F20005563FF1F5463FF1FF7B50400808802F04C
:102F300059F80025A84203D00578A08802F08EF841
:102F40001C4E3378002B1FD0AB421DD11A4B2800EA
:102F50001978FFF777FF002818D000233370A37982
:102F60000820A778A688019306F07AF8011E0DD0F4
:102F7000D0230370CA3B8370019B477086808371A6
:102F8000280006F02DF901E0002DE8D1A0880B4BB8
:102F90008200D358002B01D0FFF762FF1721A088D1
:102FA000FFF762FDA08801F057FDA08801F062FEE6
:102FB000F7BDC0465563FF1F5463FF1F5C63FF1FCF
:102FC000F0B587B01D000CAB1B88070001930DAB5B
:102FD0001B88142002930EAB1B88160003930FABC3
:102FE0001B880091049310AB1B88059306F038F8FA
:102FF000041E1AD0D0230370CB3B47708370C67079
:10300000062229000430002D11D006F019FA019B88
:1030100021006381029B0098A381039BE381049BB1
:103020002382059BA37406F0DBF807B0F0BD06F021
:103030002FF8ECE7F7B5009308AB1B8807000C20CE
:103040000D001600019306F00BF8041E13D02800A3
:1030500001F0C8FF00280FD00078D0232370C93BAF
:10306000A370009B21002381019B6770A580E680EF
:10307000638106F0B5F8F7BD014B1878EDE7C0465F
:103080003A40FF1F13B5040064890389C288818810
:10309000C0780094FFF7CEFF13BD000010B5044CBC
:1030A0002068002803D005F053FF0023236010BDE3
:1030B0006063FF1FA122F0B5818892004A43384B1C
:1030C000384F1B6804009B189D2292009B18827940
:1030D00089B01A603B68002B5FD01D78324B1B68AB
:1030E000002B04D05B68002B01D0002098472600FD
:1030F00008363100E079FFF7B7FD237DE07102006B
:10310000E0780493638A29000393238A0293E38976
:103110000193A38800933300FFF752FFE378002B5D
:103120000BD1E289A379A18802920196E279280065
:103130000092012201F060FFE0703B68002B20D07C
:10314000FFF7ACFF194D287800281AD0184B1978D2
:10315000FFF778FE002814D02B78E6780820079334
:10316000A78805F07DFF011E09D0D0230370CA3B5C
:103170004670837087808671079806F031F80023C7
:103180002B701721A088FFF76FFCA08801F064FC6A
:10319000A08801F06FFD09B0F0BD064B9DE7C04669
:1031A0003409FF1F6063FF1F7463FF1F5563FF1F18
:1031B0005463FF1F3A40FF1FF8B5070008000E00D8
:1031C00001F010FF041E18D02620FFF78DFC051E0D
:1031D00000D12578062005F043FF041E0DD0002104
:1031E000062205F055FFD0232370C23B21006770F3
:1031F000A370A680E8B205F0F3FFF8BDF0B585B086
:1032000001930AAB1B78070002930BAB1B780800F5
:103210000D000092039301F0E5FE061E22D010205F
:1032200005F01EFF041E1DD01022002105F030FF06
:103230002620FFF759FC002800D13078D0232370D6
:10324000C13BA370009B21002372019B67706372D6
:10325000029BA580A372039BC0B2E3720C9BE36048
:1032600005F0BEFF05B0F0BDF7B50D00019001F00F
:10327000B9FE071E20D00E2005F0F2FE041E1BD062
:103280002620FFF731FC061E00D13E78D023238094
:10329000C53B0622A370F91DE01C06F0D1F8019B86
:1032A0002A0063810123DD401A401D402100227362
:1032B0006573F0B205F094FFF7BD0000F0B585B07E
:1032C000029010000D0017000A9E039301F08AFE81
:1032D000041E31D0029B002B2ED1039B02795B0789
:1032E00024D5122313430422002E08D10B99002960
:1032F00005D10C99002902D10D9900291AD01A4341
:103300000D9B2271002B00D0C9E0002E00D1CFE030
:10331000002D00D0CCE0606A002801D005F018FE36
:103320001C21300006F00CF8606205E002239A438D
:103330000E33D7E793432371654BBA00D458002C62
:1033400000D1AAE0002E10D0236A002B03D11C204C
:1033500005F0F6FE20625E4BBA00D358186A0028CA
:1033600003D01C22310006F06BF80C9B002B12D00E
:10337000574CBB001D596B6A002B03D1162005F07A
:10338000DFFE6862BB00E358586A002803D01622AB
:103390000C9906F055F80D9B002B11D04C4DBC003C
:1033A0006659B36A002B03D1142005F0C9FEB06240
:1033B0002B59986A002803D014220D9906F040F882
:1033C000380001F00FFE051E67D0414BBA00D358FC
:1033D000002B62D01A6A3420002A00D11C389A6A65
:1033E000002A01D0143080B20B9A002A01D01C3080
:1033F00080B25B6A002B01D0163080B205F030FE3F
:10340000041E4AD01822002105F042FE2620FFF7B4
:103410006BFB0190002801D12B780193D0232370FE
:10342000029B200063700A23294EA370039BBD00FA
:10343000A371AB59A780196A1830002905D01C2246
:10344000A06005F0FDFF200034307359996A00290F
:1034500007D0030014221433E060029305F0F0FF5C
:1034600002980B9B002B08D003001C221C330B99E5
:103470002061029305F0E4FF02987359596A00290C
:1034800003D01622606105F0DBFF6B46210018793E
:1034900005F0A6FE3800FFF7E3FC05B0F0BD1022F2
:1034A0000D9B0D991B69A018236205F0C9FF2CE73D
:1034B0000B9B002B00D13FE7012D00D03CE7606A59
:1034C000002801D005F044FD1C210B982AE7C046D6
:1034D0005C63FF1F10B5044C2068002803D005F082
:1034E00037FD0023236010BD5063FF1F0B4B07B552
:1034F0001A68002A01D100200EBD6946531C012024
:1035000012780731FFF772FC0028F4D0027801230B
:10351000100018401A42EED0EEE7C0466C63FF1F61
:10352000F0B51F4F01203B6887B0002B25D09B785A
:10353000059300F0DDFB002821D00A20FFF7D4FA24
:1035400004000B20FFF7D0FA164B05001E78731EFF
:103550009E413B68F6B2191DD878FFF757FB3B68D0
:103560002900DA7A043303929A7901930292009047
:1035700033002000059A05F0F3FE07B0F0BDFFF719
:10358000B5FF002805D00620FFF7AEFA040007209B
:10359000D8E70820FFF7A8FA04000920D2E7C046C0
:1035A0005063FF1F4C63FF1F70B50A4E0400337851
:1035B0000D00FF2B0DD0042005F052FD011E08D098
:1035C000D0230370CE3B45708370C470307805F013
:1035D00007FE70BD4840FF1F70B5040006200D00B7
:1035E00005F03EFD011E0AD0D0230370CD3B837051
:1035F000054B44701B688580187805F0F1FD002CA0
:1036000001D0FFF767FF70BD5063FF1FF8B5264F6D
:1036100006003B680D001124002B05D10522234B29
:103620001B78134202D112242000F8BD204A102436
:103630001268002AF8D01278002AF5D0DB0719D5D5
:103640002B789A1E012A1AD80C2005F079FD132434
:1036500038600028E8D000230A2243702900067051
:10366000023005F0EDFEFFF75BFF041E0AD0FFF706
:1036700031FFD9E700F03CFB0028E1D1E4E7002B63
:10368000E2D0D0E70B4B1B78032BCDD11D20FFF7E9
:103690002BFA094B18800028C6D0084B0421187853
:1036A000074A05F00DFDBFE75063FF1F4D63FF1F85
:1036B0006C63FF1F4C63FF1F4A63FF1F7863FF1F8C
:1036C00060EA0000F7B50193194B14001A7805233E
:1036D00006000F0012201A4221D0012920D1154BDB
:1036E0001D68002D1BD002201F2C18D8002C02D0E2
:1036F000019B002B13D0104B1F221E706E1C00214B
:10370000300005F0C5FC01992200300005F098FE5C
:10371000310020002C70002F06D005F079FDFEBD91
:10372000064B12201D68DCE705F022FCF7E7C046D7
:103730004D63FF1F6C63FF1F4840FF1F6863FF1F3F
:10374000F8B50F4E12243368002B17D01B780F3CAE
:10375000834213D100250B4F0221387805F0B8FDC4
:10376000094B042138781D8005F0B2FD074B280075
:103770001D8033685C7005F093FE04002000F8BDE6
:103780005063FF1F7863FF1F6463FF1F4A63FF1FBF
:1037900070B5012823D11B4C2388002B03D01A4A73
:1037A0001578002D07D0194B1B68002B02D0187814
:1037B000FFF7C6FF70BD3B2B02D93C3B2380F9E7E6
:1037C000134E0221307805F083FDFA2223889200FF
:1037D00002215A43307805F0BBFC2580EAE70B4B09
:1037E0001B68002BE6D00B4B1B785B07E2D5084B20
:1037F0000221187805F06CFD0022024B1A80FFF7B9
:1038000069FED7E76463FF1F4863FF1F5063FF1F14
:103810007863FF1F4D63FF1FF8B51E4D2868002811
:1038200003D005F095FB00232B601B4E3068002869
:1038300003D005F08DFB00233360184F05243B783F
:1038400018002040234221D0154800F055FA3B785B
:10385000234213D0202005F073FC2860002813D0E9
:103860002022002105F014FC202005F069FC041E34
:10387000306005D02022002105F00AFC002004E081
:10388000286805F065FB2C601320F8BD00F034FAC1
:10389000F4E7C0466C63FF1F6863FF1F4D63FF1FA3
:1038A0003C40FF1F10B50A4C23681A1E0ED000289A
:1038B00008D10130587005F0F3FD002805D02368C9
:1038C000002B02D00021FFF787FE0122100010BD5F
:1038D0005063FF1FF7B5274E050033680191181E8E
:1038E00021D05C78244F012C30D1FFF7FFFD002858
:1038F00025D02000FFF7F8F80400412814D91F4B09
:10390000022118781E4A05F0DBFB1E4B3C3C1C8054
:10391000022233685A703B78002B14D12800019999
:10392000FFF75AFE0120FEBDFA2292004243002A10
:10393000EED0124B0221187805F00AFCE8E7FFF7F9
:10394000D3F80200F3E700233B70EBE73B78002B52
:10395000E8D1032005F084FB011E08D0D0230370BA
:10396000CC3B457083703368187805F039FCFFF75D
:10397000B1FDD7E75063FF1F4863FF1F7863FF1F48
:1039800060EA00006463FF1F10B5204B81889942F4
:1039900034D016D81E4B994207D81E4B994221D8D5
:1039A0001D4B994219D0002010BD1C4B9942FAD1F1
:1039B000836899785A78090218781143FFF78AFFCB
:1039C000F2E7174B99421DD0164B0020CB18052B60
:1039D000EAD8154804F046F90EE083681878FFF736
:1039E00061FFE1E7114A83688818424250411B7821
:1039F000C0B21900FFF7D8FD0120D5E783680C4855
:103A00001978E7E783680B481978E3E7512000004D
:103A10000920000007200000062000000A20000006
:103A200052200000ADDFFFFF7B990111F8DFFFFF9F
:103A3000A8990111C1990111014B18707047C04636
:103A40004940FF1F10B5064C207001F0A7FA2078FE
:103A500005F066FB0521207800F06CFD10BDC04626
:103A60007863FF1F0BB273B50D00002B00DBCBE0BA
:103A70008B4B187805F004FC041E0ED00378912BB4
:103A80000FD0A22B00D1A8E0864B1878FF2852D087
:103A9000210005F0A5FB00284DD1802000026840E0
:103AA00076BD43780F2B76D013D8052B70D00E2B14
:103AB000EAD180887C4B98422BD87C4B98421BD80B
:103AC0007B4B9842E0D1A3681878591CFFF754F853
:103AD00038E03E2BD8D18378032B79D06CD8012BDA
:103AE00073D0022BD0D1734B1B68002B23D05B68A3
:103AF000002B20D098471EE06F4BC0180C28C3D86D
:103B000005F04EFC1DC2C2150BC20B0B0B3223C2BB
:103B10003C006A4BC0180728B6D8694B1B68002BBD
:103B200009D01B68002B06D0200098470AE0A36844
:103B30001878FFF7A7F8200005F09AFAADE7A0681B
:103B4000FFF742F800289FD0F5E7A3681B78002B09
:103B5000F1D0584B1B68002BEDD01B68002BEAD02E
:103B6000210058489847EDE7524B1B68002BE2D0E4
:103B70001B68002BDFD021005348F3E7534B1B6831
:103B8000002BD8D05B68002BD5D021004648E9E750
:103B9000FFF7CAF9CFE780884D4B984203D04D4BD1
:103BA000984200D070E7494B1B68002BC3D05B687C
:103BB000002BC0D02100D5E7152B0CD04648162B82
:103BC00000D061E704F04EF8B5E7FFF773FAB2E70B
:103BD000FFF758FAAFE74148F4E7414B1B78042B55
:103BE00007D100236A4613800179408800F0C8FCA1
:103BF000A1E7364B1B68002B9DD05B68002B9AD049
:103C000001003848984796E7012421420AD0294B01
:103C10001B68002B04D05B68002B01D00020984764
:103C200001203CE78B070AD5254B1B68002B04D0ED
:103C30005B68002B01D02000984702202FE7042169
:103C4000280008400D4200D12AE7274E3388002B78
:103C500021D0013B9BB23380002B1AD1FFF7B4F87F
:103C600000280AD0214B1C70154B1B68002B04D078
:103C70005B68002B01D020009847FFF79FF869464A
:103C800001F086FD6846FEF7D7FF1D20FEF72CFFEA
:103C90003080042003E7024B187805F019FBF8E7A1
:103CA0007863FF1F4940FF1F0E2000000120000025
:103CB000091000007063FF1FFEDFFFFFAFDFFFFF93
:103CC0007463FF1F0C2000000B2000005863FF1FCF
:103CD0000D20000013200000179A0111DB9901113B
:103CE0004D63FF1FFFFF00004A63FF1F4863FF1F74
:103CF00010B501F0F7F910BD014B18607047C046D0
:103D00007463FF1F0B880020162B01D81723042093
:103D1000014A13807047C0462263FF1F002070478E
:103D2000074A03001188814207D0918800209942F8
:103D300002D101308000101870470020FAE7C04619
:103D40008063FF1FF0B58F7806000D00C5B01E2FF1
:103D500015D1FFF7E5FF051E03D10024200045B073
:103D6000F0BD00223B003100C078009200F0B2FBB1
:103D70000400A81C00F0D2FBFF23EB70EEE7264BFB
:103D8000062403931B78FF2BE8D0182FE6D87B0876
:103D9000224A013BDB0002929A589446002ADDD069
:103DA000029AD3185B68002BD8D00878002802D17B
:103DB0004B78012B02D10624122FCFD107AFAB884D
:103DC000697800976446AA68A047041EC6D1AB78FC
:103DD000029A5B08013BDB00D318390030005B68B6
:103DE0009847041E0BD1AB78042BB6D0039A310050
:103DF00010782200009700F06DFB0400AEE76A78AF
:103E0000002AABD1AA7805A93B88087130000A7056
:103E10004B80FEF717FBA0E74C40FF1FD89D011118
:103E20001D4B37B5050098420BD000290AD1FFF78A
:103E300077FF002805D11948FFF772FF002800D04E
:103E4000058037BD01291AD1FFF76AFF041EF8D09B
:103E500001235B420380A378FF2BF2D0FE2B07D017
:103E60000023E0781422009329001E3300F032FB77
:103E7000A01C00F053FB01235B426380E1E70229B1
:103E8000DFD1013901F01AF90028DAD12800FFF753
:103E900047FF041EDFD1D4E7FEFF0000FFFF000054
:103EA000022210B5074B52421A80074801325A804D
:103EB0009A80DA8000F07EFA044801F081F8002050
:103EC00010BDC0468063FF1F453D0111213E011119
:103ED0000388F7B50400002B02D102252800FEBD9F
:103EE00042680221137825485268FEF775FD0028C4
:103EF0002ED0234F01253A88002AEFD08023218835
:103F00005B0201259B1A9942E8DC0C2005F018F9A8
:103F1000061E31D03B8822889C460023180001955C
:103F200061469DB2491989B2AA421BD8002801D026
:103F300062443A8000233000082208C0210005F0C6
:103F40007FFA104A1368002B13D100251660C5E7CD
:103F50006268022113780C485268FEF73DFD002884
:103F6000C7D1BAE760681D0140194181013301984A
:103F7000D6E71A001B68E6E71325AFE7469E011156
:103F80004A40FF1F7C63FF1F449E0111014B1870C4
:103F90007047C0464C40FF1F14230A0010B51A405A
:103FA000194204D00122102101F0A4F810BD4B06E3
:103FB000F9D4012088434000F8E710B514008B06BF
:103FC00004D50122102101F095F810BD08230A0044
:103FD0001A40194202D14BB2002B0FDA102101F026
:103FE00089F8002808D02300F2331B78002BECD08E
:103FF000F1342378012BE8D10020E6E7032089077C
:10400000FAD4E2E7F0B51F00184B85B01C680190A8
:1040100002910392002C27D1200005B0F0BDA568C5
:104020003301ED186B89019A934211D3029A93429E
:104030000ED8002F04D10A9B002B10D12C00EBE7E7
:104040003B002978039A6868FEF7C6FC0028F2D185
:104050000136B6B2A388B342E1D82468DAE7A36890
:104060000A9A5B891380E9E70026F3E77C63FF1F68
:1040700037B50C000A8849880123914217D3002ADA
:1040800015D0651D23792A0002210A48FEF7A4FCF9
:10409000102300280BD023796188208800242A006F
:1040A0000094FFF7AFFF0A23A04200D023001800BE
:1040B0003EBDC046469E011113B50A0008884988D6
:1040C000012388420BD8002809D000241379053237
:1040D0000094FFF797FF0A23A04200D023001800A6
:1040E00016BD13B50A0008884988012388420BD8F9
:1040F000002809D00024137905320094FFF782FFCD
:104100000A23A04200D02300180016BDF0B58BB0E2
:1041100003904A8808880E000123824255D3002864
:1041200053D00023012704AC2370002271881300B0
:104130000092FFF767FF051E3ED02078002835D19A
:104140002B78022B18D167706A8983000130E3183D
:1041500080005A8069680222201805F071F92378DE
:104160000133DBB22370042B19D93B00688901307D
:1041700080B2002BD9D01FE0022363701223584372
:104180006A89231804305A8069681022201805F0C3
:1041900057F923780133DBB22370002BE5D10C4AA9
:1041A0006B899B185A425341DBB2DFE76378012BDE
:1041B000E4D12B78022BC7D022780A23002A04D01E
:1041C00021000398FEF768F9002318000BB0F0BD3A
:1041D0000100FFFF0F4BF0B504001868002816D04F
:1041E00083685D89A54207D88288AE18B44203DA95
:1041F00012019A18934201D10068EFE71E005F890F
:104200001036A74204D1002900D00D801800F0BD5F
:104210003300EFE77C63FF1F70B505000C000888D2
:104220000021FFF7D7FF03000120002B04D022005C
:104230002800197AFFF7C1FE70BDF7B50C00002504
:1042400001902300EE331B78AB4201D800200AE036
:104250006B00E65A00213000E718FFF7BBFF00288B
:1042600002D126800130FEBD017A0198FFF794FE4D
:10427000002802D03B882380F5E70135EDB2E0E766
:1042800010B5040008880021FFF7A4FF03000120F7
:10429000002B03D02000197AFFF77EFE10BD00002E
:1042A000054B1B68002B01D1180004E09A68528965
:1042B0008242F6D1988870477C63FF1FF0B50E27C5
:1042C000002687B0039302ABFF183E8005001F4B0A
:1042D00040891400984207D02B78013000976A6813
:1042E00080B2FFF78FFE060002212B7818486A681B
:1042F000FEF772FB00280FD06C892000FFF7D0FF7B
:10430000002802D0013C0419A4B2039B002B00D06A
:104310001C80300007B0F0BD02212B780D486A6880
:10432000FEF75AFB0028E7D102212B780A486A6879
:10433000FEF752FB002807D0002EDED03B88A342B8
:10434000DBD17489013CDFE76C89DEE7FFFF000009
:10435000469E0111449E0111429E011110B50C00B0
:10436000FFF7DEFC03000220002B0AD0002C00D057
:1043700023609B781720FE2B03D00138FF2B00D140
:10438000002010BD73B50D0001A904001600FFF751
:10439000E5FF172805D0002E04D129002000FEF7E4
:1043A000F7F876BD01221021200000F0A3FE0028BE
:1043B000F3D0F6E7014B18607047C0468C63FF1FCF
:1043C00037B56B469D1D010004000222280004F051
:1043D000FFFE2B88B02B0ED12379122B09D123009D
:1043E000FA331B78012B06D10121608800F0E0F838
:1043F00001E01B2BF8D037BD10B5054B0421187018
:1044000000F098F8FFF74CFDFEF746FB10BDC046E4
:104410009063FF1F0020F0B50BB20F0087B08342FE
:1044200034DA274B187804F02BFF051E2BD00378C5
:10443000A02B25D103AE3100FEF7B4F8041E0BD13A
:10444000B378DB0724D51F4B06341B68002B03D041
:104450003100688898470400A868002801D004F05B
:10446000FFFF002C08D1184A039B1340174A9342C0
:1044700006D0B3781B2B03D00121688800F098F890
:10448000280004F0F5FD80200002784007B0F0BD60
:104490000F4B1B68002B10D0310068889847041E12
:1044A000DAD07378002BD7D1B27801A90A704B808B
:1044B0000C716888FDF7C6FFCEE70624F1E7C04619
:1044C0009063FF1F8863FF1F00FFFF0000011200C1
:1044D0008C63FF1FF7B50190FC200D0017001E0034
:1044E00004F0BEFD04001320002C12D0B0232000E5
:1044F0002370089BF4226770658026710830002BBA
:1045000008D0190004F09CFF2100019804F068FE17
:104510000020FEBD089904F0BBFDF5E710B5041EB0
:1045200006D00078FD2803D804F002FEFF23237094
:1045300010BD00000A1F93B210B504000220032B27
:1045400005D882400020024BD1529B189C7010BDB0
:10455000B063FF1F0B8870B5043B04000D00022000
:10456000032B0BD80121200000F0A8FD030014202C
:10457000002B03D02900200000F028FC70BD0000B3
:1045800007B51300034A00920A00012100F088FCDD
:104590000EBDC046BD47011107B50192032200922E
:1045A000024B0A00122100F0A5FC0EBD3B48011190
:1045B00007B56B4601AA11800449D88008780633F4
:1045C000012802D1190004F073FE07BD9163FF1F9B
:1045D0000C4B10B518700023FF210B4A1380138178
:1045E00093819380094A538013705172938193721F
:1045F000D174D3821375517704F002FF00F0FCF9F7
:1046000010BDC046C063FF1FB063FF1F9263FF1F52
:10461000F0B58DB06B46002003910C229B5E834267
:1046200000DBB0E05D4B187804F02AFE051E00D1D7
:10463000A4E00378902B00D09DE006AF01004688EF
:10464000380000F01FFA79680400002900D19CE0CE
:104650003B88052B6ED13B89032B1CD905AC200070
:1046600000F0A2F86288172A61D83989131D99428F
:1046700031D17968237804310291D90738D560782F
:1046800000F08EF9071E06D0002303712378012B5A
:1046900008D0132B23D0A868002800D178E004F0BC
:1046A000DFFE75E06288029909A800F0A6F8029082
:1046B000380000F08BF909AA2378387A0192002299
:1046C00031000092029A00F012F9380000F064F90B
:1046D000029B002BDFD0300000F080F9DBE703788D
:1046E000032BD8D16288029909A800F0D6F8DEE73A
:1046F000122B13D1029909A800F0B5F8021EEAD1D5
:1047000027498B88002BC6D0887909A92378019185
:1047100061780091310000F0EAF8BCE7002302AABA
:1047200093833000617809AAFFF72AFFB3E71D4B96
:104730000993F6E7042B02D09A1F012AABD8184A36
:10474000043B9B00995A0029A5D0D21890783100DB
:104750003A0000F0AEF800289DD13B88042B03D02E
:1047600001213000FFF724FF012C04D1A8680028A4
:1047700001D004F075FE280004F07AFC8020039B31
:104780000002434018000DB0F0BD012800D182E7BF
:1047900001213000FFF70CFFEDE7C046C063FF1FAB
:1047A000B063FF1F010017000B7803704B78437054
:1047B000CB788A781B021343438070470A88030032
:1047C00002700A88120A42700A88012A06D14A88B1
:1047D00082704A88120AC270042070470220824206
:1047E000FBD14A8804309A704A88120ADA708A88A3
:1047F0001A718A88120A5A71EFE710B50400012075
:1048000082420CD94B780A781B02134323808342DF
:1048100006D1CB788A781B0213436380002010BD39
:10482000022BFBD1CB788A781B02134363804B7930
:104830000A791B021343A380F0E70B8803700B88EF
:104840001B0A43704B8883704B881B0AC3708B888C
:1048500003718B881B0A4371CB888371CB881B0A39
:10486000C3710820704703000120082A14D14A7838
:104870000878120202431A80CA788878120202432A
:104880005A804A790879120202439A80CA79887953
:10489000120202430020DA80704710B504000120A4
:1048A000022A05D100204B780A781B02134323808B
:1048B00010BDF8B5060010200F00150004F0D0FB65
:1048C00004000120002C0ED0A0230C2229002380FC
:1048D0006780201D002D07D004F0B2FD21003000BC
:1048E00004F07EFC0020F8BD04F0D2FBF6E7F7B53B
:1048F0001E00009008AB142017001D78019104F0F1
:10490000AFFB041E12D0A2230370019B47704380AB
:10491000099B057146710C220830002B07D0190045
:1049200004F08EFD2100009804F05AFCF7BD0999AF
:1049300004F0AEFBF6E737B5041E0FD04388002B1A
:104940000CD00025C1881323007A17220195009509
:10495000FFF7CDFFFF2365806372257037BD000030
:1049600010B50C4904004A88002A09D08B89002B15
:1049700005D00020CB8A0222834201D010BD012243
:1049800013000A20434300204032C854C818428014
:104990000472F3E79263FF1F0023438003707047A4
:1049A000094B00211A0010B55C88002C06D01C7938
:1049B000844203D10A234B43D01810BD01310A337E
:1049C0000329F1D10020F8E79263FF1F10B504001E
:1049D000407A04F0ADFBFF23637210BD70470430D2
:1049E00010B580B204F064FD002803D004214942D0
:1049F00004F076FC10BD000070B50025124CA068D4
:104A00002580A581A580A84202D004F029FDA560DB
:104A100000250E4C0E4B606D1D80230058331D7019
:104A2000A84202D004F01CFD6565002560680028DE
:104A300001D004F015FD013508340A2DF6D10548E2
:104A400003F010F970BDC0465864FF1FFC63FF1FE0
:104A50004C64FF1F4F9A011170B5041E0CD1074D15
:104A60002880A881A880A868002802D004F0F8FC5B
:104A7000AC60034803F0F6F870BDC0465864FF1FF1
:104A80005B9A01110023F0B54E8843600A79040057
:104A90000F0089B0022A00D08BE0C98803291ED9F3
:104AA000BB685A781878120202430592DA789D782A
:104AB00012021543DA791B7A67481B0213435BBA6B
:104AC0009AB20380059B04338B4227D1042D08D072
:104AD0006B1F022B16D92900604803F0C3F8012090
:104AE0001AE05F4B3101CB5A002B0BD0F4215D480B
:104AF000FF3103F0B7F83000FFF7AEFF5A4A1369F1
:104B0000013313610421059BB86823812580494244
:104B100004F0E6FB6060002009B0F0BD524C042DAB
:104B20000CD06B1F022B18D983212B004D48890014
:104B300003F098F8E3680133E360D0E7484B3101B4
:104B4000CB5A002B09D04748484903F08BF8300076
:104B5000FFF782FF236901332361414B360106933E
:104B60000023069AB3529319059A9D80100007936B
:104B70009A81FFF734FF079B051E986015D004212A
:104B8000B868494204F0ACFBFA880100043A2800F6
:104B900004F056FC069AFB88B25A043B9B18069A0E
:104BA000B35223680133236099E7A3690133A361FA
:104BB00095E72B4B3101059333010693059B30019B
:104BC000CB5A05990D18A968002B30D000292ED09A
:104BD000012A2CD1FA880598944663449BB232018D
:104BE0001352A88998421AD362469B1AC818B9680A
:104BF00004F026FC059B0699AA89CB5A934200D063
:104C00006DE70A0000212381AB882380AB686360D5
:104C1000059BD152144A5368013353605FE7124A2F
:104C20009368013393603000FFF716FF57E70A4A95
:104C3000059F1288029333019C466744BB8900910B
:104C40009921094C019363690948890003F00AF826
:104C5000636901336361E6E7C263FF1F679A01116D
:104C60005864FF1F809A0111C863FF1F13020000E0
:104C7000979A011170B5051E18D10D4C0D4B188077
:104C8000230058331870606D002802D004F0E8FB50
:104C90006565250050356068002801D004F0E0FB10
:104CA0000834AC42F7D1044802F0DCFF70BDC046C6
:104CB000FC63FF1F4C64FF1FBE9A0111F0B5160084
:104CC000A12285B09200019342433D4B05001B6831
:104CD0000C009B18D933FF331F78FDF7D7FE043043
:104CE000874204DD2800FDF7D1FE0430C7B2B74289
:104CF00007D3320000212800019B04F029FB05B0F6
:104D0000F0BD3900300004F0F3F82300C5B2503391
:104D10001D700393019B39006365300004F048FB6C
:104D2000CBB20293002B02D0039B01351D700026ED
:104D3000230050331B78B34204D8606D002839D16A
:104D40000020DCE7029A3800002A04D0013B100062
:104D5000B34200D03800F5006519287004F028F936
:104D6000019B686001001A78164802F07BFF6868B2
:104D700000280ED02A78019904F062FB019A2B7862
:104D80000136D318104A0193D369F6B20133D361C7
:104D9000CEE72300503318706065A54205D10A4A5A
:104DA0001320D36A0133D362A9E7606804F058FB8B
:104DB0000834F2E704F054FB00236365C0E7C04603
:104DC0003409FF1FCA9A0111C863FF1FF7B50C0011
:104DD00006000421606804F083FA2389050003704B
:104DE00023891B0A43702388837023881B0AC3709E
:104DF000278902240437FFB2F42F15D8224B9E4294
:104E000014D10C2004F02CF91134011E0CD0902385
:104E100003708E3B0371043B43801C4B8560C7804D
:104E2000187804F0DDF900242000FEBD5C217143F8
:104E3000174B591801930B0058331B78002B19D1CD
:104E400003003A003000FFF739FF041E05D0114B74
:104E500022001148D96A02F005FF5C237343019ACE
:104E6000D1180B0058331B78002BDDD1300004F033
:104E700027F8D9E7074A0948536A072401335362E0
:104E800002F0F0FEE9E7C046FEFF0000C063FF1F2E
:104E9000FC63FF1FC863FF1FDE9A0111F99A01111D
:104EA000F0B587B0009017200F0016000193FFF7B0
:104EB00096FD1325041E19D00C98031E02D00199EB
:104EC000201D9847030AE370052302AAA07004304E
:104ED000908127700098667003A993800494FFF76F
:104EE00075FF051E02D0200004F0BAFA280007B0B2
:104EF000F0BD0000F0B587B01F000CAB1B7803912C
:104F0000059301210DAB06001C78049200F0D6F841
:104F10001425002821D02000FFF722FD0135041EB2
:104F20001BD01149059B0A7803700132D2B2131EBF
:104F3000C68001D101231A000B7022713000049B3E
:104F400003990097FFF7ACFF051E09D1230021004C
:104F50000648074A093304F07BF9280007B0F0BD82
:104F6000002363802370F8E7C463FF1F37490111F2
:104F700030750000F8B505000E00064C064F23689A
:104F8000002B02D03100280098470434BC42F6D1EF
:104F9000F8BDC0466864FF1F7C64FF1F0123064AFA
:104FA0005B425380002313715362044A13605360C1
:104FB0009360D360136170477C64FF1F6864FF1FB8
:104FC0000200002310B506499C000859002801D1B1
:104FD000625010BD0133052BF6D11320F9E7C0460E
:104FE0006864FF1F034A5388181A434258414042DD
:104FF000104070477C64FF1FF0B585B002930AAB88
:105000001F780CAB1B88009008000E0001920393E0
:10501000FFF7E8FF05001120002D1BD10E48FFF718
:10502000E1FF04001520002C14D006220B99A77173
:10503000E01D04F005FA019B30002371029B29005A
:105040006371009B66802370039B6562E381FFF7B9
:1050500091FF280005B0F0BDFFFF000010B5FFF77D
:10506000C1FF04000220002C12D060880121FFF74C
:1050700081FF606A002801D003F06AFF2822002126
:10508000200004F005F8012300205B4263802071BA
:1050900010BD000030B5074A074C55880100137851
:1050A0000020A54204D05B1A59424B41584210409F
:1050B00030BDC0467C64FF1FFFFF0000084A10B5EA
:1050C00001230C00904208D0FFF78CFF031E04D090
:1050D000037923405A1E9341DBB2180010BDC0462D
:1050E000FEFF0000024B1879431E9841C0B2704782
:1050F0007C64FF1F70B504000D001600FFF772FFFF
:10510000002804D10D4B9C4200D0143070BD416A80
:1051100003790520002907D012221A40102A02D153
:105120000520002EF2D10F20DB06EFD5897E0C2062
:10513000A9428941494249420840E7E7FEFF000091
:10514000030010B5002800D110BD0348034A418870
:105150009142F9D09847F7E77C64FF1FFFFF0000FA
:10516000002330B5C45CCD5C6C40D4540133102BAB
:10517000F8D130BD0F23002210B5C45C6400224377
:10518000CA54C25CD209013BF7D210BD0200010033
:1051900010B52032103104F0B3F810BDF0B58BB06B
:1051A0000390102005931700049103F0C9FF0090AD
:1051B000102003F0C5FF009B13240190002B05D0A5
:1051C00000280CD11324009803F0C2FE019B002B91
:1051D00002D0180003F0BCFE20000BB0F0BD102080
:1051E00003F0AEFF0600102003F0AAFF1324050011
:1051F000002E00D1AEE0002819D01022002103F0CB
:1052000047FF32002900039804F07AF8041E0ED1FB
:1052100033787F2B51D830000099FFF7ABFF009B0C
:105220001B787F2B53D801990098FFF7A3FF30001C
:1052300003F08EFE002D02D0280003F089FE002C22
:10524000C1D1102003F07CFF0600102003F078FF8E
:105250000290002E7CD0002878D03A000F32230034
:105260000125121105D00F333B4015B25A4253416C
:105270001BB26A1E1201002B33D0049BD2B29818C5
:105280000099029AFFF76CFF013D102200213000C7
:1052900003F0FEFEADB2049F2D017D19AF4242D056
:1052A000002C33D0300003F053FE029B002B00D1C2
:1052B00089E7180003F04CFE85E729003000FFF76E
:1052C00059FF28002549009AFFF74AFFA7E7290060
:1052D0000098FFF74FFF28002049019AFFF740FF91
:1052E000A5E70F210F4004998A18D9B28F4208D937
:1052F000D15C06A819540133102BF6D1029A0199FA
:10530000C0E7791A48424141C901F2E7390030004B
:1053100006AAFFF725FF3200039806A903F0F0FF65
:1053200010370400BAE7002CBCD13000029906AA5D
:10533000FFF716FF320006A9039803F0E1FF0822E9
:1053400004003100059804F07BF8ABE71324A9E7CB
:105350001324AAE7002800D06EE733E75C9E011112
:10536000F0B58BB00F0016000225009000283FD04A
:10537000002A3DD00B1DDBB21800029303F0E0FEC3
:105380001135041E34D0FDF7C1FC05003A00009928
:10539000201D03F02DFFEBB20393E3702B0CDBB267
:1053A0002F0A00936370FFB22B0E2370A770019336
:1053B000FDF7A6FC1022010006A803F019FF21004A
:1053C000029A04AB06A8FFF7E9FE051E0DD1039B68
:1053D00008223370009B04A9B370019B7770F370AF
:1053E000301D03F005FFFDF797FC200003F0B0FD32
:1053F00028000BB0F0BDF0B58FB00D00149E0390E7
:1054000004920593002A03D1022420000FB0F0BDBE
:10541000002EF9D00398FFF7E5FD1424071EF4D001
:105420007278337812021A43B3781B041343F2786C
:1054300012061A43036A0192934201D30133E3D166
:10544000002D03D03B7901249B07DED508220021E3
:1054500006A803F01DFE059B13240433DBB21800DD
:10546000029303F06DFE051ECFD0059A0499043017
:1054700003F0BEFE04223100280003F0B9FE39001B
:10548000102210310AA803F0B3FE2900029A06ABDD
:105490000AA8FFF783FE041E0FD1082206A908A858
:1054A00003F0A6FE0822311D08A803F001FD012823
:1054B00007D101990398FDF743FC280003F048FD4C
:1054C000A3E70124F9E7000070B51C4C0500236830
:1054D000181E10D0002D14D11A78002A0CD1981C57
:1054E000083203F0ADFF03F00BFD0135002808D1B1
:1054F00023681D70012070BD0A331800082203F0D4
:105500009FFF2368002BF5D0122003F0A9FD061E93
:105510000DD0C12321680370457002311022023082
:1055200003F08EFF23683100587803F059FE20689D
:1055300003F00EFD00232360DCE7C046A464FF1FD8
:10554000F8B504002020FDF7CFFA154FA600F35957
:105550000500002B1FD000280ED0D878FF280CD0D3
:10556000290003F055FF002807D1F3590D49DB78D6
:105570000D48220002F076FBF8BD0C492A000C55BC
:10558000BB59611803330A4803F062FEBB59054951
:10559000DB780848EDE72100074802F063FBEBE702
:1055A000C064FF1F4C9E01110B9B0111A864FF1FDB
:1055B000E5670111359B01115E9B011170B50B4C24
:1055C00085002B590100002B0BD0DA78084802F037
:1055D00049FB2B59D87803F0ABFDFF222B59DA7029
:1055E00070BD044802F03EFBFAE7C046C064FF1FEE
:1055F000789B01115E9B011170B506008CB00C0008
:10560000150000213022684603F042FD31001022CF
:10561000684603F0EDFD1D2021000322684403F0DD
:10562000E7FD6846FFF7B2FD2D21040003222800A4
:10563000694403F0DDFD20000CB070BDF0B507003B
:10564000160097B001931CAB1D7830221EAB009161
:105650000AA800211C7803F01BFD102239000AA8BB
:1056600003F0C6FD1022002102A803F011FD07225D
:10567000310002A803F0BCFD072202AB9818631E9C
:105680009C41019903F0B4FD02AB9C732B005A1EA0
:10569000934102AAD3730021102206A803F0F8FC5C
:1056A00006221D9907A803F0A3FD1A2002ABC0181B
:1056B00006221F9903F09CFD102200990EA803F00A
:1056C00097FD102202AB0EA908781C78013A6040C1
:1056D000D2B2087001330131002AF5D10AA8FFF7D0
:1056E00055FD102212A904000EA803F0A9FE1022F5
:1056F00006AB0EA908781D78013A6840D2B208704E
:1057000001330131002AF5D10AA8FFF73FFD044318
:1057100010222098E4B212A903F06AFD200017B00D
:10572000F0BD70B50E0014008CB001001022684668
:105730001D0003F05DFD3100082204A803F058FDB0
:105740002100082206A803F053FD6846FFF71EFD5E
:1057500004001022280008A903F04AFD20000CB024
:1057600070BDF8B506000D0000243719AC4200D317
:10577000F8BD03F085FE030A3B70631CDBB2013702
:105780009D4203D90234F054E4B2EEE71C00EDE789
:1057900073B506000C000225002819D0002917D087
:1057A000032101A8FFF7DDFF6B469A793F231A40DA
:1057B000013313436A463000937101A92200FFF7B9
:1057C0001BFF051E04D10322E01C01A903F038FED3
:1057D000280076BD03785807DA08C00FD200800091
:1057E0009B0710439B0F1843C0B2704707230B4021
:1057F000C908C9000B4303707047000070B504006E
:10580000FFF7DCFE134DA4006359002B21D0186A6A
:10581000002801D003F09CFB2B59986E002801D082
:1058200003F096FB2B59D86E002801D003F090FBB3
:105830002B59186F002801D003F08AFB2B59586FA1
:10584000002801D003F084FB285903F081FB0023DA
:105850002B5170BDC064FF1F0E4B8000C35870B544
:105860000C00002B0FD09D68002D0CD02B78201D34
:105870000B706B784B70A97CFFF7B8FF2B7E2372FF
:105880006B69E36070BD10220021200003F000FC72
:10589000F8E7C046C064FF1F014B18607047C04660
:1058A000BC64FF1F074A03008000825810B5002A1D
:1058B00006D0D088984203D1012901D1FFF79EFF7D
:1058C00010BDC046C064FF1FF0B5264E95B08700DE
:1058D0000B93BB590500099112200A92002B31D07D
:1058E000D888FFF77FFB04001420002C2AD0280062
:1058F00010A9FFF7B1FFBB591E781D6A002E23D0F7
:105900000895FDF743FA07000020FDF745FA0790D8
:10591000A379E61D069310AD0CA9089800F0E2FAF1
:105920000EA9280000F0D7FA0B9B0A990493069B56
:1059300009980293079B0396019300970EAB0CAA5C
:10594000FFF77CFE15B0F0BDFDF720FA06903000A1
:10595000FDF722FAE31DA779079310AB0600089321
:10596000DAE7C046C064FF1F30B50C4C85002A59E9
:10597000030085B00120002A0ED018006946FFF709
:105980006BFF2B591A78D888054B002A00D1054B9C
:105990006A46072100F0D9FB05B030BDC064FF1F87
:1059A000D75E0111E55E011130B5094C850029591A
:1059B00085B010226846253103F042FD2A59112195
:1059C000044BD0886A4600F0C0FB05B030BDC0462D
:1059D000C064FF1F815F011130B5094C8500295952
:1059E00085B010226846353103F02AFD2A5911216D
:1059F000044BD0886A4600F0A8FB05B030BDC04615
:105A0000C064FF1FBF5F0111F7B54D4F8600102026
:105A1000F4590D0003F094FBF3592062186A132225
:105A200000286CD0033A29009C6803F009FDF35963
:105A30001A780192002A58D11E6A227D317B944641
:105A400051400122019F114201D167461740217D3B
:105A5000914339432175377B4F40BC466046002750
:105A6000800701D44F081740012102208F40227D7A
:105A700082433A432275377B5740BC466046002735
:105A8000400701D497080F400420227DBF008243C5
:105A90003A432275627D002794466046727B4240FD
:105AA0000A4201D167460F400121627D8A433A4391
:105AB0006275777B5740BC4660460027800701D45B
:105AC00057080F400220627D7F00824317436775AD
:105AD000767B00227E40760701D4BA080A4004266D
:105AE000617D9200B1430A4362756A78002A08D04A
:105AF0006278002A05D005220533DA7700221000EB
:105B0000FEBD04222979114205D1A17C114202D1A6
:105B10000533033AF1E7019A21782C78002A02D163
:105B20000A002100140018220429E8D8042CE6D821
:105B300005206043034A05331218525CDDE7C04676
:105B4000C064FF1F6C9E011110B50A001121024BA9
:105B500000F0FBFA10BDC0461B6001110B0030B510
:105B600087B001AD2B806B4604001100981D082200
:105B700003F066FC2A000B212000024B00F0E5FA3E
:105B800007B030BD4360011110B50A001121024B6E
:105B900000F0DBFA10BDC0469760011113B50B0091
:105BA00011006A4613706B4604000622581C03F06D
:105BB00047FC6A4608212000014B00F0C6FA13BDDD
:105BC000B760011110B50A001121024B00F0BDFAB7
:105BD00010BDC046076101117FB505000B4BAA003F
