:020000041101E8
:10010000F7B5164B0192C318021D002000938823F7
:100110005B05D3181B685C1C1AD09CB2402C18D805
:100120008D781E0CAC466746CD782D023D43AE421D
:1001300006D1019800280ED110000C70240A4C70D2
:1001400003249BB20733A343D218009B9A42DED309
:10015000FEBD4432F9E71000FAE7C046FC0F00008C
:10016000802213B503000324019189B252010731A3
:100170009B18A14304305A1A88235B05C3181B68D7
:10018000591C03D190429241104016BD99B24029AA
:1001900007D80B000733A343C0189042ECD30020CC
:1001A000F3E74430F9E7134B134A1B68126810B5A4
:1001B000F424934201D81A00F024104BA4021B68C7
:1001C0009A4210D813000E4A12689A420ED3013395
:1001D00007D1F0239B029C4203D10A49054808F04D
:1001E00037FB200010BDF824A402ECE7FC24A40295
:1001F000F7E7C04600C0031100D0031100E003116F
:1002000000F00311FFFFFF7FF0B59BB015000490D5
:100210000391402A00D9A0E006AB59801A80FFF76D
:10022000C2FF0400042816D9002206A9FFF768FFC0
:10023000052810D906AB1B88AB420CD1002D07D086
:10024000514B2A000499C01808F022FA002802D164
:1002500001201BB0F0BD06AB1D8020000699FFF702
:100260007FFF041E7BD1069B0793FFF79CFF802333
:100270005B01C61880230700DB029E4201D3F026F3
:10028000B60288235B05F31801931B68013302D083
:10029000019808F085FC3D49019808F0D9FA3B1D0A
:1002A0000293331D05938822029B52059B181B68FD
:1002B00008935A1C3CD044219AB20091402A04D899
:1002C0000320D11D814389B2009103991B0C8B42FD
:1002D00024D0402A22D80122300008A9FFF710FFBD
:1002E000021E1BD1380008A9FFF70AFF04000428EA
:1002F00031D9009A059B9B1880225201B218934273
:1003000040D288235B05C118009A09A808F070FA4A
:100310001D4B009A09A9F01808F0C2FB009A029B35
:100320009446634402931A4B029AFB189A42BAD33A
:1003300088235B05FC1821680198013908F088FAC8
:10034000200008F02DFC039A07AB5A803000079973
:10035000FFF706FF0400002C03D1002079E70428F2
:10036000FBD988235B05E018069908F071FA03238E
:10037000EA1C9A4300D16BE7034B0499E01808F09C
:100380008FFB65E70424ECE704000011FFFFFF7F0B
:10039000F80F0000F7B505001400402A21D8002707
:1003A00001AE71803780FFF7FEFE042816D93A00AF
:1003B0003100FFF7A5FE042810D93688BC420BD0C7
:1003C000BD4209D0221CB44200D9321C064B92B265
:1003D000C118280008F00CFA30B2FEBDC04300B2CC
:1003E000FBE703204042F8E70400001137B5042280
:1003F00004000D0001A81649FFF7CCFF02000428F5
:100400000BD1019BA34208D3AB4204D0104901A8F1
:100410000195FFF7F9FE01203EBD0E4C2368200038
:10042000019308F0BDFB019920000139019108F00A
:100430000FFA80235B01E418074B9C42EED10422A3
:10044000034901A80195FFF7DFFE0020E4E7C0465D
:100450005555000000C00311000004118022F8B5BA
:10046000964C974BD200002120001C6008F018F930
:100470002300944A88331A60934B1A786A23002A1F
:1004800000D01133E3620A232365904B37221B7897
:100490000820A3638E4B2118E361102323628D4B48
:1004A0003B256361C823DB00A36123008C331A6002
:1004B0002823013AE26320646364CA67043A211D79
:1004C000CA672100BC310D602100C03108602100E5
:1004D000C4310B6021000635CC310D602100083D90
:1004E000C8310D602100D0310A602200D432106082
:1004F0002200D832136022000227E0322100176068
:100500004222DC310A6021001B3DE4310D602100F4
:10051000E83108602100EC310B6023000521F43341
:1005200019602300F0331A602300183290331A60E8
:1005300023009433186023001E3A98331A60AF23C7
:10054000DB002360644BFA262363644B644DE36055
:10055000644BF031A3642300FF31FC33B600A1608B
:1005600021611E60A5627325E5656D3D6565A56524
:1005700096255D4AAD00E264666258606766A566CE
:1005800000270925A767E566584F594D6067200089
:100590002567E2673A6015279C30676007001A20DC
:1005A00038602000A0300700212038602000A830EB
:1005B00007004C4838602000F830066026006427A9
:1005C000A436376026005F3FAC3637602600033F15
:1005D000B03637602600C637B436376026000027AD
:1005E000B836376038269E60424E96205E64424E92
:1005F0005A66DE61414E9A645E62F53EFF3E9E623F
:100600001E269A67354A8000DE661F675F67DD65D4
:100610001D661862DA67BE23394A5B00E250394B27
:10062000D838235004302250C4225200A350C6238D
:10063000E4205B00E1500433334AE1503349344B4A
:10064000D1603449800019503349E938FF381950D6
:1006500032490430195032493248D161324911636C
:10066000324951631900F4310860CE20304940000E
:1006700011603049195019002F48F83108602F498E
:10068000D16582212E4A89005A501A002D4908321C
:10069000D1671A002C49B432116088212B4A890095
:1006A0005A501A002A49883211602A4ADA6407F03F
:1006B000C7FF012008F0F4F8F8BDC0460004FF1F92
:1006C0008062FF1F506DFF1F0441FF1F4A0AFF1F7A
:1006D0003A07000080C3C9019A020000DC0500004F
:1006E0006A18000050C3000088130000F009FF1FC3
:1006F000204E00006509FF1F68100000C4090000BB
:1007000040420F0010270000FC00FF1FC11BFF1F0D
:100710000000FF1F152CFF1F9D2FFF1F352EFF1FF1
:10072000811FFF1F7126FF1F9D1FFF1F4921FF1FF4
:100730000D1FFF1F9528FF1F7D29FF1FD918FF1FC1
:10074000A127FF1FC524FF1FD124FF1F0D1EFF1F60
:10075000C51EFF1F851DFF1F0223F0B50124634D39
:10076000634E2B70634B34701A68634B89B004205E
:100770005A7006F039FD07F0CBFFFFF76FFE08F067
:100780000FF81F2200215D4B1E271A705C4B6F442F
:100790001C705C4B19705C4B19689143163A0A4304
:1007A0001A60602219689143403A0A431A6007F0C0
:1007B000B7FF08F065F9554B9847C120FF21544B0E
:1007C00080001A588A431A50C522920098588843CC
:1007D000BF390143995098584E4908408021C901BA
:1007E0000143802099509958C0050902090A014324
:1007F000995080214848490108F092F903232200CA
:10080000464901940093464808F0BAF81622454933
:1008100002A807F0EDFF02AC61782078023406F000
:10082000E1F8A742F8D1404C404B226803201A401F
:10083000A023DB0213432360802322689B0413431D
:10084000236022683A4B1A4080239B0313432360A2
:10085000384A394B934200D8012008F089F908F052
:100860006FF880232268DB0413432360287808F0A4
:10087000BFF93078C0B207F0C3FE08F089F92F49FC
:10088000042008F0F5F806F0A5FA06F0F1FE00F0F5
:10089000B1FF01F059F82A482A4906F08FFD2A4B8A
:1008A0002A4819782A4B32781C782A4BC9B21E780C
:1008B000D2B22B780196009406F080FD08212648DC
:1008C000264A06F07BFD8023A12225489200234979
:1008D0005B0106F073FD234B2348196806F06EFD9B
:1008E00000F022F9002009B0F0BDC0464A0AFF1FFF
:1008F0000441FF1F34F000402860FF1F480AFF1F1B
:10090000490AFF1F680AFF1FBCF00040E1A2000077
:1009100000E100E0FF00FFFF0841FF1F8C53FF1FB5
:100920000851FF1F6F94011114F00040FF7FF8FF82
:10093000FFFF9FFF0080FF1F506DFF1F3B0001085E
:10094000308C0111020101034B0AFF1F468C01117B
:10095000440AFF1F450AFF1F748C0111780A00002A
:10096000A48C0111800AFF1FF88C01117047704799
:1009700030B503A804880B20002C0ED14968074D20
:1009800008784978090201430A20A94205D10121CA
:1009900020001980024B1B7A137030BD192A000009
:1009A0001060FF1FF7B5150008AA16884A680F4F98
:1009B00014785278120222430A24BA4214D1012236
:1009C000DBB2019200962A0007F088FD041E0BD1CD
:1009D000074B1B68002B07D068782A780002104369
:1009E00042425041013098472000FEBD02290000DC
:1009F0000C5EFF1F30B5012503790400BFB02B4208
:100A000011D00A49408807F0D5F828420BD0084B8E
:100A100001A95B8D4D800B80064B00221B7A6088FC
:100A20000B7103F057FD3FB030BDC046045EFF1FA1
:100A3000F03DFF1F1060FF1F10B50549054807F086
:100A40006FF80421044A054807F02CF810BDC04691
:100A5000045EFF1FFFFF000088940111F03DFF1F9F
:100A600010B5024804F014FC10BDC046F509011190
:100A700001230370054B1A7A42700C2282709A7916
:100A8000C270DB79037105207047C0461060FF1FFC
:100A9000022310B50370013B43700533837010339C
:100AA0000371443B43712A3383714433C371002380
:100AB0000372064B04001B8843720A30FFF7D8FF0D
:100AC000831D0A30C0B2E37010BDC0461060FF1F26
:100AD00010B5142008F03CF8124B142200211860C5
:100AE00007F0DEFD002008F02BF8012007F0F0FDF4
:100AF000022007F07DFF032003F012FE042005F022
:100B0000A9FE052003F046F8062003F01DFD07208E
:100B100001F0AEFA082006F0A5FF092001F034F834
:100B200010BDC046105EFF1F07F0C2FD012007F098
:100B30004FFF07F0ADFE032382B054280ED8434385
:100B4000DAB2D0430023C0B2FF210A4008401202AB
:100B50000B401B041043184302B07047A92806D865
:100B600055384343DBB2DA430020D2B2ECE75630CB
:100B70005843C0B2C3430022DBB2E5E7F0B5030A35
:100B8000040C071CD8B285B00E004843FF2107F0C3
:100B900047FEC5B2E0B2FF21704307F041FEC4B288
:100BA000F8B2FF21704307F03BFEFF231D401840C1
:100BB0002D021C4024042843204305B0F0BD000052
:100BC00013B52638C0B211280FD80A4A0A4B115C57
:100BD0000A4A1B5C125CFF242340180021400902D2
:100BE000224012040843104316BD002211001300D6
:100BF000F1E7C046DE940111F0940111CC9401118B
:100C000037B500240325019028006043044B0322DC
:100C1000C01801A9013407F0EBFD202CF4D137BD39
:100C2000945FFF1F10B50C220249034800F07DFBC2
:100C300010BDC0461C5EFF1FF45FFF1FF0B5A44B44
:100C40008FB01B68002B78D0A24B20211800019395
:100C500000F0FAFCA04C2378002B5FD063791800D9
:100C600025381C285AD807F0D3FD34006A006A00E2
:100C70006A006A006A006A006A00940094009400A6
:100C8000D800F700F700F700F700F700F700F700CB
:100C900015015900590059005900590059005900CF
:100CA00059001D00A2780DAB1A70E2785A702279B3
:100CB0009A7061780D98FFF761FF05AB1870020418
:100CC0000002000E120E5A7098700598FFF798FFF8
:100CD00024E00025814B0DAF0293029AEB001078BF
:100CE0000326C018C0B2FFF726FF387003040002C5
:100CF0001B0E000E7B70B87061783868FFF73EFFFE
:100D00006E43019B019A98550304000296191B0E2D
:100D1000000E01357370B070202DDED19825704C17
:100D20006D0020212B002200019800F0B4FC01008E
:100D3000A84202D1200000F063FC0FB0F0BD67496B
:100D40000A78097849B200291EDB5200D5B2180092
:100D5000FFF736FF0DAE3070030400021B0E000ECD
:100D60007370B0706078FF21684307F059FDC1B21D
:100D70000D98FFF703FF0304307000021B0E000EF6
:100D80007370B0700D98A1E7FF25AD1A6D00EDB23C
:100D9000DDE72D2B37D0FF2500242E2B35D1280061
:100DA00002944E4B1A781B785BB2002B30DB52005A
:100DB000D7B2FF26F31B9BB231005843039307F0D1
:100DC00097FD04AB1872039B02987C435843310093
:100DD000001907F08DFD04AB5872380031006843EC
:100DE00007F086FD04AB98723B4B06985978FFF7E5
:100DF000C5FE07AB187002040002000E120E5A70F6
:100E00009870079862E70025FF2420000295C8E744
:100E1000FF239B1A5B00DFB2CBE7304B1878030748
:100E200000D57BE7C000C0B2FFF785FE08AB1870A5
:100E300002040002120E000E5A7098706178089831
:100E4000FFF79CFE09AB187002040002000E120EA0
:100E50005A709870099839E7204A1278120700D51D
:100E60005CE71800FFF7ACFE0AAB18700204000242
:100E7000120E000E5A70987061780A98FFF77EFE85
:100E80000BAB187002040002000E120E5A7098701C
:100E90000B981BE72420114B1B781B095843C0B249
:100EA000FFF749FE0CAB187002040002120E000E90
:100EB0005A70987061780C98FFF760FE0DAB0204D1
:100EC00018700002120E000E5A7098705AE7C04651
:100ED000605EFF1F945FFF1FF45FFF1F3D5EFF1FFB
:100EE000645EFF1FF0B5C5B01D004AAB059016004B
:100EF0000E201F88002911D0002A0FD04B681A78C5
:100F00005B781B0213433C4A934209D101220598A6
:100F10000192EBB23200009707F0E0FA45B0F0BD65
:100F2000364A0A209342F9D10130002FF6D102301F
:100F3000142DF3D82A003100314807F059FC29005C
:100F4000304806F03BFA2900300006F0A5FB2E4C95
:100F50002A003100200000F087F9050001282DD17A
:100F60002A49059806F026FE284080B2002804D1C0
:100F7000274806F023FA0020D0E73900F22207A81C
:100F800007F08EFBFFF74EFE0C2202AB214908A8AA
:100F9000DA8207F02DFC204B02AA1B8807A9938256
:100FA00005983A0003F096FA1C4D0100A079637988
:100FB00022780090280006F001FADCE7002805D02E
:100FC0001748290006F0FAF98020A7E7154B18709A
:100FD000FFF728FEFFF732FE2579637862792178E2
:100FE0000395E57810480295A5780195A4790094B9
:100FF00006F0E4F9BFE7C04602290000D9FF00006F
:10100000285EFF1F0A8D0111F45FFF1F145EFF1F92
:10101000318D01111C5EFF1F7E3EFF1F788D011177
:10102000C18D01113C5EFF1FF18D0111F8B51D004E
:1010300006AB16001A8807AB1F784B6859781878EA
:101040000B4B090201430A20994210D10130002ABA
:101050000DD1FFF7E7FD3C1C0C2F00D90C24E4B2A6
:1010600022003000034907F0C3FB00202C80F8BDAC
:10107000D4FF00001C5EFF1F094B10B5040098420E
:1010800005D0012904D12000064906F049FD10BD14
:101090000229FCD1013904F0B9F80028F3D0F6E7B1
:1010A000FEFF0000145EFF1F10B50E4800F0AAF905
:1010B0000021072005F07CFD0221072005F092FCAD
:1010C0000021032005F074FD0221032005F08AFCB5
:1010D0000021042005F06CFD0221042005F082FCB3
:1010E00010BDC0463E5EFF1F30B5072085B005F03D
:1010F00059FC0400032005F055FC0500042005F010
:1011000051FC01214D404C40EBB241401D4DE2B23B
:101110001D4CC9B200912800210000F07BF9002885
:1011200014D025796378627921780395E57817489A
:101130000295A5780195A579009506F03FF9002262
:10114000134B1A70FFF76EFDFFF778FD2378002B25
:101150000CD06379412B09D00D49A2790B78120983
:101160000133DBB20132934202D20B7005B030BDC5
:101170000023084A0B70137801331370FFF75EFDEC
:10118000F4E7C0463E5EFF1FF45FFF1F318E011182
:101190003C5EFF1F3D5EFF1F70B51B4C200000F042
:1011A00051F80022194B1A70194B1A70FFF73AFDCB
:1011B0001849194806F0B4FC184803F0A9FF18486C
:1011C00000F090F943424341164D17492B60002827
:1011D00000D11649164806F0F1F82B68002B0DD007
:1011E000002325782370FFF729FD2570FFF726FDE2
:1011F000A379627861790F4806F0E0F806210E4A7B
:101200000E4806F04FFC70BDF45FFF1F3D5EFF1FF0
:101210003C5EFF1F145EFF1FFFFF000079100111ED
:10122000009F2400605EFF1F768E0111738E0111F6
:101230007B8E01119A8E011104950111343EFF1F1E
:101240007047704700280ED0012303707F3343702E
:101250007F3325228370BF3BC370002342710D3A58
:1012600003718271C3717047030010B50220002B17
:101270000DD000290BD0032A1CD10C78EF2C07D1FC
:10128000487801284FD18B78772B00D0033010BDE0
:101290000420CC2CFBD18C78332CF8D1497823292D
:1012A00003D101221A700020F1E710002429EED1A9
:1012B0000022F7E7072A1ED10A780420562AE6D131
:1012C0008A79AA2AE3D14A79F02A0CD14A789A700D
:1012D0008A78DA70CA781A71FF225A70BE3A5A7147
:1012E0000022DA71DFE703200F2AD0D10A799A7041
:1012F000DA700A79EFE704208242C8D10C78100036
:10130000BB2CC4D1CA78442AC1D14A780320140026
:10131000253C132CBBD85A7189780A1C002900D1AE
:1013200001229A71DCE70420B1E7030010B5002820
:1013300023D0081E21D000200B2A1ED966220A7055
:10134000513A4A701A785442624123328A705A796B
:10135000CA7020220A715A79412A00D098794871BE
:101360009A780C208A71DA78CA711B790B72002383
:101370004B7206338B729333CB7210BD02788A4264
:1013800004D0012301708370002070478378032B01
:1013900018D80133DBB28370042BF5D14378934224
:1013A000F2D04270002A05D000238380C3800372EC
:1013B0000120EAE7037A8280C280027258425841D3
:1013C0004000E2E74378002BDED083880C4A93424A
:1013D00001D001338380037A002B07D182883B2A16
:1013E000D2D901220272C3800320CEE7C388013321
:1013F0009BB20E2B01D8C380C6E70023F3E7C0469B
:10140000FFFF000010B5002803D02022002107F0C4
:1014100047F910BDF7B51E0008AB1B780C0005009E
:101420001100019300283DD0201E3BD02800FFF77B
:10143000A5FF0700280031000A30FFF79FFF0600D4
:10144000280001991430FFF799FF02000020012FB6
:1014500004D12378380059424B412370022E22D107
:1014600007210320AB7F01330B401C49AB77584366
:101470000B00C35C0918A3704123637100234E78ED
:101480008978E6702171E3710120022A18D1EB7F7F
:10149000013201331340124AEB77D35C63710023AE
:1014A000E3710120FEBD032EEFD1637820201900E7
:1014B0002039C9B29F2901D81B18D8B26070E3E760
:1014C000032AEFD1A37920211A00103AD2B2CF2AF1
:1014D00001D85B18D9B2A171E3E7C0462695011186
:1014E0002295011170B5041E66D08423354A5B0134
:1014F00011680B4313604023334A11680B43136098
:101500008023DB051A6831490A401A608022196875
:1015100052010A432E491A600A682E4B1A40B02322
:101520005B0313430B6080232B4ADB0311680B43DF
:1015300013602A4B98476300050083423FD8600838
:101540002100401907F0D4F9254A030090422FD911
:101550001300DA0717D51A00032B00D20322214902
:10156000013A8B4200D90B001100614301335C4307
:10157000481B8D4200D9681A611BA54200D9291B5E
:10158000884200D81300082400201749174AFF3466
:10159000087014802222164C25682A432260154ABE
:1015A0001360154B154A1860012313700B7070BD42
:1015B0000228CED20223CCE701204042F7E70220E6
:1015C000FBE7C0460800004014000040FFEFFFFFAB
:1015D0002C380040FFFFC0FF0C380040D1A50000B0
:1015E000FEFF0000FDFF000008700040007000409A
:1015F0002C300040147000402C70004010700040EF
:1016000030B5002817D002230C4C4118884206D16F
:1016100001232278100018401A42FAD130BD2278F6
:101620001A42F3D0064A1268072AEFD80578054A0D
:1016300001301560EAE701204042EFE728700040E2
:1016400020700040607000400B00002805D003218E
:10165000594300234118884200D1704703704370FA
:1016600083700330F7E7F0B50022062413008026CC
:101670000427A446340014413D00044200D06546CE
:10168000DB0001322B43082AF4D11A0C0A701A0A23
:101690004A708B70F0BDF0B504001500070085B0EE
:1016A000002819D0171E17D009224A4317001037F7
:1016B0000192BB4222D303232E004B43C318029353
:1016C000330009330393029B9C4208D1019B1022F3
:1016D0000021E81806F0E4FF380005B0F0BD310045
:1016E0006078FFF7C0FF2078F11CFFF7BCFFA078FF
:1016F000B11DFFF7B8FF0334039EE1E70027EBE7D6
:1017000070B5160004AA148805AA15784A6850789E
:10171000117800022A4A0843801805284BD806F0A1
:10172000EFFF03131E29343F07221000062C0AD8AE
:10173000121BAA4200D92A0022491A803000091936
:1017400007F056F8002070BD0720112CFBD812229C
:10175000121BAA4200D92A001B491A80EEE7072073
:101760000E2CF0D80F22121BAA4200D92A001749CA
:101770001A80E3E70720032CE5D80422121BAA42B3
:1017800000D92A0012491A80D8E70720032CDAD89A
:101790000422121BAA4200D92A000E491A80CDE762
:1017A0000720022CCFD80322121BAA4200D92A00FC
:1017B00009491A80C2E700220A201A80C3E7C046FE
:1017C000DCD5FFFF6A950111FC5FFF1F5A950111DF
:1017D00055950111509501114C95011110B50D2130
:1017E000024A034806F05EF910BDC046409501115B
:1017F000943EFF1F10B5084CE368002B08D18022EF
:10180000064B52021B689B186360054B1B682360E4
:1018100006F056FFA06010BD3860FF1FC8F0004002
:10182000CCF0004070B5184A936A916A9942FBD196
:1018300016498A689A421FD39A1A8B60144B012664
:10184000186893B2D202D20E4343424300204C6840
:101850001B0A1B1912029B180E4C0A684B60551C80
:10186000A3420CD8002801D04B600A600A4A1360DA
:1018700008680A4B186070BD581E821ADDE7084AD6
:1018800030009B182A00EAE700F000403860FF1F94
:10189000140AFF1F40420F00C8F00040CCF0004087
:1018A000C0BDF0FF70B51F4C23793F2B01D93F23FA
:1018B00023711D4B22791A701878C0B207F0D0F846
:1018C00018231A491A4A0B801A4913800B80538037
:1018D000A379194980200B800C21938001334B435D
:1018E000164D191C0001834200D9011C2980D180AA
:1018F0006379002B01D101336371237A012B01D865
:10190000022323726279237A0D4853430A215843F4
:1019100006F086FF0B4D2860E379052B01D81023D4
:10192000E37170BD2C60FF1F480AFF1F7E3FFF1F41
:10193000B040FF1F7C3FFF1F7A3FFF1F783FFF1F14
:10194000710200001C60FF1F064B70B51900064AAB
:1019500031CA31C102225A7100229A71FFF7A2FFE7
:1019600070BDC0462C60FF1F8C95011170470000B0
:1019700070B50400013806280DD806F0C1FE041128
:1019800035551D0C57002A4805F018FD294B02213A
:10199000187806F0EDFE2100274805F00FFD70BD18
:1019A000264805F00BFD234B0821187807F008F9AD
:1019B0000022234B1A72EEE780220025204B5200B2
:1019C0001A81FA22DD721F4B1A4E5B7A92000821AF
:1019D0005A43307806F0ECFE2900307806F000FF1C
:1019E000194805F0EBFCD6E7184805F0E7FC114B69
:1019F0000821187807F0E4F81548FFF749F8114B6B
:101A0000144A9B799380144A138000220C4BDA729B
:101A10000132FF321A81114B1B78002BBBD0104AC8
:101A2000136006F0CDFEB6E70E48DAE70E48D8E7B9
:101A3000D68E01114860FF1F548F0111E58E0111F0
:101A40001C60FF1F2C60FF1FF98E01110C8F01110C
:101A5000893FFF1FB040FF1F7A3FFF1F2860FF1F15
:101A600034F00040238F0111448F01110300F0B5C1
:101A70000A4D8E18B14202D152008018F0BD0C7888
:101A80002F6824093C5D0F271C700C7801313C4005
:101A90002F683C5D5C700233ECE7C046743FFF1F6B
:101AA00010220F4B10B51A700F230E4C0E492370E5
:101AB000093A063B0D48637006F09AFE2D23012279
:101AC0000B490C486372FFF7D1FF01220A49FFF767
:101AD000CDFF01220949FFF7C9FF0023037010BDA4
:101AE0004662FF1F2762FF1F6A9501112962FF1FCF
:101AF0006709FF1F3162FF1F6609FF1F6509FF1F8E
:101B000010B5FFF7CDFF084C084B207821000130BD
:101B1000C0B2187006F014FE2178054A0139C9B226
:101B2000002005F0DDFE10BD2762FF1F4662FF1F8B
:101B30002962FF1F10B5114B1A781870002A0ED0B9
:101B400000280BD10E4B1A78062A07D85423D3400D
:101B5000DB0703D50B4B187801F09AFE10BD002867
:101B6000FCD0074B1B78012B02D0033B022BF5D88E
:101B7000044B0121187806F0FBFDEFE74A62FF1FD6
:101B80007162FF1F7262FF1FF0B5624B87B0187061
:101B9000614805F013FC614805F010FC604805F051
:101BA0000DFC06F0ADFE03225E495F48FFF75EFFC5
:101BB0002D24030088211C70042249050130FFF701
:101BC00055FF30230222047043708370574C584BEA
:101BD0002000DA8757490432FEF7DCFB062813D0D1
:101BE000200006F0F5FF022809D00321200006F0AE
:101BF00097FE8D23E3706E3B2371193363710622C8
:101C000020004C49FEF700FB4B4B01251B68FC33C1
:101C10005C64FFF775FF0723484E494C3370053B62
:101C200023700433A370033BE3702371D2336371D9
:101C300044492A3344486570A37105F0BFFB64230F
:101C4000424F43487979594305F0B8FB2178A3788E
:101C500062780591A1793F480391617902912179D8
:101C60000191E1780091059905F0A8FB0020FFF7AC
:101C700061FF3278384E23002900307801F0CAFD28
:101C8000364A0021364B1278307801F0C3FD6422C9
:101C9000344B204C1D707B7953431900244A0A3180
:101CA00093811382D18151822078202106F0A8FDF2
:101CB0000120404205F060FE0120404205F0FCFE9C
:101CC000FFF78CFDFEF7B8FE274805F077FB0120F3
:101CD0004042FFF761FAFFF7E7F980210A22090184
:101CE000207806F065FD280006F0EAFDF02000F0FF
:101CF00047FF2900207806F03BFD207801F044FFE3
:101D00001A4806F055FFFEF731FE194805F056FB5C
:101D100007B0F0BD4860FF1F638F0111918F011163
:101D2000AC8F01112440FF1FFC5FFF1F6509FF1FDF
:101D3000B03FFF1FADAC00008062FF1FA83FFF1F38
:101D4000893FFF1F2962FF1FC28F01112C60FF1FF7
:101D5000D58F0111F28F01117262FF1F4662FF1FC2
:101D60002762FF1F1862FF1F259001114A60FF1FA5
:101D700052900111F8B520230E000D001E401942AB
:101D800061D0654B654C1B78002B42D0FFF74AFDB4
:101D9000634B644E99686268737A8A1ADB039A42CD
:101DA0003ED36160FEF7E2FD637A002B2ED0013B4B
:101DB000DBB26372002B29D1E27A002A11D0A27A19
:101DC000E372002A02D0A372FEF7D1FD564A574FA4
:101DD0001388380001331380FEF75AFE390006F0ED
:101DE0000FFE64227379524E53431900514A0A314F
:101DF0009381D18113825182307801F049FD042210
:101E00004D4B012130781A7006F0B2FC237A013371
:101E100023724A48217A05F0D1FA20206840F8BDA3
:101E2000A37A002BC0D00023A372FEF7A0FD3E4A88
:101E30003E4F1388380001331380FEF729FE390026
:101E400006F0DEFDB0E70BB2002B15DA3C4B18783C
:101E500006F00EFD041E0CD00378912B06D14378BA
:101E60000E2B03D18188374805F0A8FA200006F030
:101E700037FC80200002D1E70224214209D03248F9
:101E800005F09CFA254B01201E72FFF753FE20003F
:101E9000C4E70824214207D02C4805F08FFAFFF749
:101EA000C1FCFEF763FDF2E7CB0615D51E4B2848B3
:101EB0001A7AD98805F082FAFEF759FD164B1B787D
:101EC000002B07D1FEF7CCFD164B1B68DB0701D5B5
:101ED000FFF7B7F91020A1E70124214208D01D48DF
:101EE00005F06CFA1C4800F087F806F051FCCEE7CC
:101EF00080242401214202D0FFF7F6F8C7E704242A
:101F000008002040214200D189E7144805F056FA24
:101F1000FFF796F9BBE7C0464A62FF1F1C60FF1F30
:101F20003860FF1F2C60FF1F1060FF1F893FFF1FDD
:101F30007262FF1FB03FFF1F7162FF1F7D90011192
:101F40004860FF1F85900111AE900111DD900111D5
:101F5000E8900111FC9001116C3FFF1F17910111D6
:101F6000F0B51B4B1B4F1B883A8804001A4E1B4DC3
:101F700085B09A420DD832889A420AD3184B1A88F3
:101F80002B889A4205D1174A174B12881B889A4210
:101F90001BD0052000F050FE3B8802AA1380338836
:101FA000019053802B88114D93800F4B02A91B8801
:101FB000D3800F4B2A78188802F096FB0D4B08212E
:101FC0002878019A1C7006F033FC05B0F0BDC046BD
:101FD0001662FF1F7E3FFF1F7C3FFF1F7A3FFF1FE0
:101FE0001462FF1F1262FF1F783FFF1F7262FF1F04
:101FF000803FFF1F1062FF1F13B50C4B1C78002C95
:1020000011D1002801D00A4B18600A4A0A4B1178F6
:102010000A4A10780A4A01920A4A0092002205F000
:102020004FFB200016BD1124FBE7C0467162FF1F65
:102030000C62FF1F7062FF1F6062FF1F7262FF1F52
:102040004C62FF1F5062FF1F10B5064B12201B7819
:10205000052B06D1044B13221988044B187800F085
:10206000C7FF10BD7162FF1F803FFF1F7262FF1F1D
:1020700010B500240122114B52421870104B1C70F5
:10208000104B1A8001F080FD04220F4B21001A70C2
:102090000E480C3206F0FCFC102221000C4806F021
:1020A000F7FC07220B4B1C600B4B1C700B4B1C707E
:1020B0000B4B1A700B4B1C7010BDC0467262FF1F99
:1020C0007162FF1F803FFF1F7062FF1F6062FF1F72
:1020D0005062FF1F4C62FF1F2662FF1F2562FF1F19
:1020E000823FFF1F2462FF1FF8B5174C06002578BA
:1020F00006A814240078052D23D1B41F134FA5B2D0
:102100001824BD421DD88D1FADB2BD4219D8FA2585
:102110006D00AA4215D21D000D4F0A3DADB2BD4261
:102120000FD80C4C26800C4C21800C4900240A80CE
:102130000B4A1380FFF714FF0A4B0421187806F0AE
:102140003FFD2000F8BDC0467162FF1F790C000002
:10215000750C00007E3FFF1F7C3FFF1F7A3FFF1F73
:10216000783FFF1F7262FF1FF0B50BB20D0089B000
:10217000002B00DB84E1AC4E307806F079FB041EC6
:102180002DD00378A22B00D133E1D02B2CD0912B72
:1021900022D143780E2B1FD18388A44A934211D1B8
:1021A000A34A83681278052A16D1032018567F287F
:1021B00012D0A04B1B68002B0ED05B68002B0BD0FD
:1021C000984709E09C4A934206D181689B488B78E6
:1021D0004A78097805F0F2F8200006F081FA8020AC
:1021E0000002684009B0F0BD80780728F4D806F0F6
:1021F000CFFB0800F3FF1C003C003C007300A7006D
:10220000D7006378002B0CD10121894B19708C4BBE
:102210001A78002A54D08B4B307801F0FBFA002852
:102220004ED00722824B1A704AE061780029F8D11B
:10223000E378002B0AD0844A844B1278307801F07E
:10224000E9FA60706378002BC6D0EAE7784B1B7818
:10225000022BC1D00121307806F052FC0028F1D1C8
:102260000121307806F084FAECE76378002BD8D1AE
:102270006F4F032807D13B78052B02D101333B7008
:102280001EE00223FBE7724B1A88724B0293002A6E
:102290000BD01B78002B03D00121307806F0C8FA50
:1022A0003B78062B04D1013BE9E7029B1A70F7E764
:1022B000042B43D10121029B3078197006F058FAA3
:1022C0005C4B1B68002B00D186E71B68002B00D1FC
:1022D00082E7574A107873E76378554F002B27D170
:1022E0000622211D5C4806F083FA62895B4B5C493B
:1022F0001A80A2895B4B1A80E3890B800521397013
:1023000059490A80594A1380228A594B1A80594BDD
:102310001B78012B09D11F2000F08EFCFA229200BD
:1023200042430421307806F083FA0022494B7AE7D1
:10233000312B00D075E70022464B1A7003239EE72D
:1023400006220021444806F0A3FB0023464A04214C
:102350001380464A30781380454A138006F030FCDB
:102360000821307806F02CFCA379083B5A425341EF
:102370002F4A03331370324B1B78002B06D0354B9A
:1023800030781A78002A06D001F082FA0122334B05
:1023900052421A8094E70121197006F0E9F9F5E735
:1023A0000821307806F00CFC6378002B00D013E78E
:1023B0002D4B2F4F0293E388029A042113802B4B5D
:1023C000307803932389039A138063893B8006F056
:1023D00097FB002800D0FFE6274B1B68002B00D19D
:1023E000FAE6039902983A88098800881B6898479A
:1023F000F2E64379132B00D0EEE60389012B0AD1D4
:102400001E4B1B78022B06D10821307806F0D8FB32
:10241000FFF71AFEE0E6052000F00EFC082102009E
:10242000307806F005FAD7E67262FF1F0514000047
:102430007162FF1F0C62FF1F222000003991011101
:10244000A83FFF1F893FFF1F4662FF1F2762FF1F34
:102450004862FF1F4A62FF1F1962FF1F803FFF1F74
:102460002062FF1F2262FF1F1662FF1F1462FF1F00
:102470001262FF1F1862FF1F0862FF1F1062FF1F1A
:102480008020C001014200D0ABE6CB0731D5324BF2
:102490001B78002B1DD0314E05AC3378052B1AD19B
:1024A000023B23702E4B21001B7823722D4B1B788F
:1024B00063722D4B187801F051F9002809D00720DC
:1024C0002A4B30701B68002B03D01B68002B00D0F8
:1024D0009847012085E60E20254B06221B782549CA
:1024E0002370254B1B78637002ABC01806F080F98F
:1024F000D8E7022308001840194209D0174B1B786F
:10250000052B03D11D4B188806F03AFB022068E624
:102510000424214203D0FFF723FD200061E60823B5
:1025200008001840194200D15CE6154B1C78012CBC
:1025300003D0022C0DD0082053E6124B124A134947
:1025400013481B881288098800880094FFF7CCFD87
:10255000F1E7FFF779FDEEE74A62FF1F7162FF1FA7
:10256000823FFF1F2462FF1F7262FF1F0C62FF1F6A
:102570002662FF1F833FFF1F2562FF1F803FFF1F53
:102580001062FF1F783FFF1F7A3FFF1F7C3FFF1F36
:102590007E3FFF1F10B5034C0B000122210000F00D
:1025A0006BFA10BD552701110B8870B506000D00A0
:1025B0000224162B11D92B000322094900F05CFAE2
:1025C000041E0AD1074B2A881B88191C934200D984
:1025D000111C300089B200F0EFFA200070BDC04637
:1025E000812701118662FF1F10B54A780400013A65
:1025F0000B000220012A07D80A78002A04D00522FD
:102600002000024900F038FA10BDC046AF27011182
:102610000A7810B50B0004000220002A04D007221B
:102620002000024900F028FA10BDC0465B280111C5
:102630000A7810B50B0004000220002A04D00922F9
:102640002000024900F018FA10BDC046C12801114F
:1026500010B5034C0B000B22210000F00DFA10BD49
:10266000F128011110B5034C0B000D22210000F0E0
:1026700003FA10BD6329011110B5034C0B000F22A2
:10268000210000F0F9F910BDBD2901110A7810B53B
:102690000B0004000220002A04D01122200002496D
:1026A00000F0EAF910BDC046CD290111002310B594
:1026B0001322190000F0E0F910BD000010B5034C22
:1026C0000B001722210000F0D7F910BD1F2A0111BD
:1026D000002310B51922190000F0CEF910BD00003A
:1026E00010B5034C0B001B22210000F0C5F910BDF2
:1026F000592A0111F7B584890D0006000121002C2B
:1027000022D000238268D3561778002B1EDA0C2CB7
:102710001AD90C3CA4B2131940880093230002F08C
:1027200012FF431E984101307B06DB0F6B703F2385
:10273000013C1F40A4B22870AF70AC80002C07D0C1
:10274000B3680133AB6000210800FEBD0020EBE759
:10275000AC60F8E70B7803704B8843704B881B0A1A
:1027600083700B79C370042070470420022B06D1BC
:102770000020537811781B02009A0B431380704796
:102780000B8803700B881B0A4370022070470420DB
:10279000009983420AD1537810781B0203430B80BF
:1027A000D37890781B02034300204B807047F8B524
:1027B0000D004B7801240021461C03702B788B42BE
:1027C00001D82000F8BD6B78B01C4F1C012B10D134
:1027D000890069184B88022233704B88B9001B0AA4
:1027E0007370691806F0FCF804360434A4B2F9B228
:1027F000E4E7122359436B185A88043132705B881E
:1028000010221B0A7370691806F0EAF812361234A7
:10281000ECE770B5049D14001E00052B01D80420C0
:1028200070BD637812781B0213432B80E378A27883
:102830001B02134302226B802A71211D681D063E74
:1028400006F0CEF8B2B22A81E92AE8D82800A11D04
:102850000A3006F0C5F80020E2E7002310B50A7838
:102860009A4201D8900010BD9A008A18548801330A
:1028700004705488DBB2240A44709488847092886F
:10288000120AC2700430EAE710B51100029C062B50
:1028900004D004201022142B01D010BD022222717A
:1028A0004B7808781B0203432380CB7888781B027F
:1028B000034363800431601D06F092F80020ECE7CA
:1028C00010B50C788B7804315C43E4B203702200BD
:1028D000013006F085F8601C10BD0420022B06D1E3
:1028E0000020537811781B02009A0B431380704725
:1028F00010B50C000A88023106F072F8208810BD6D
:1029000070B504000D0004981100012B01D80420BB
:1029100070BD167852781202324302800200F13202
:1029200055701470E125002C00D10C35023B9AB291
:102930004280AA42EBD80231043006F051F8002060
:10294000E6E70420009983420AD1537810781B02ED
:1029500003430B80D37890781B02034300204B8005
:10296000704710B50C000A88023106F039F820884B
:1029700010BD000070B501211E000420049C0E4013
:102980000B4218D1CB40DDB28D4214D90A49DBB2DB
:10299000098899420FD32300EE331D70330058008D
:1029A00011184978165C0902314301332152D9B21A
:1029B0008D42F4D8002070BDAA3FFF1F10B50C0057
:1029C0000A88023106F00CF8208810BD10B50C788A
:1029D0008B7804315C43E4B203702200013005F0CF
:1029E000FFFF601C10BD10B511000298032B01D829
:1029F000042010BD14785278043B12022243028056
:102A0000CA788C781202224342809AB28280EB2AE2
:102A1000EED80431063005F0E3FF0020E9E710B5F9
:102A20000C000B8803700B881B0A43704B88837063
:102A30004B881B0AC3708A880430063105F0D0FF2A
:102A4000A088043080B210BD0420012B03D10020E7
:102A50001378009A1370704710B50C000B88037040
:102A60000B881B0A43704A880230043105F0B8FF16
:102A70006088023080B210BDF0B589B003931E4B60
:102A8000029242000700D05A019102F050F813253B
:102A9000061E2DD0029B01240370019B002B04D045
:102AA000001903999847001984B26B461B7A5BB2F0
:102AB000002B0FDA1021380002F0A8FB192500289E
:102AC00013D130003219E1B202F0F2FC051E0CD134
:102AD0000C34A4B2042304AA380005A993800696F6
:102AE000948101F0DFFD051E02D0300005F038FEB4
:102AF000280009B0F0BDC0468462FF1F70B5050014
:102B00000C0000280CD00020814209D010222000A7
:102B1000044905F065FF01202B7823736B786373FC
:102B200070BDC04698950111F0B506000D00170064
:102B30001C0085B002291BD00020102907D1022BD0
:102B400007D0102B03D115E00020102C08D005B0C1
:102B5000F0BD69463800FFF7D1FF2A0069460BE057
:102B600069463000FFF7CAFF22006946380004E0DA
:102B7000022BE9D12A003900300005F051FDE6E7CB
:102B8000031CF02800D9F023032008499AB2013A27
:102B90000B80D317034006499B189B100B80D30F63
:102BA00004499B185B100B807047C046AE3FFF1F67
:102BB000AC3FFF1FAA3FFF1F054B10B51B888B4280
:102BC00005D3044B4000C152034804F0F7FB10BD8D
:102BD000AE3FFF1F8462FF1F4C910111014B40006B
:102BE000185A70478462FF1F1722014B1A807047E2
:102BF0008462FF1F70B505000E2005F0B1FF041EB2
:102C000013D0D02303700023062283700749457038
:102C1000033005F0E5FE064B2100DA8A62811B7E57
:102C20002373044B187805F05BFE70BDA062FF1F94
:102C30009062FF1FFE3FFF1F262803D8024B400073
:102C4000C05A70470148FCE7B03FFF1FFFFF00007C
:102C500070B506000C00094D1C220021280005F06B
:102C600017FF074B1E70074B1C7005F021FE012358
:102C7000002801D0002312202B7070BD9062FF1F2E
:102C8000FE3FFF1FB162FF1F70B505000D4C08002D
:102C9000E260A16010220021656005F0A1FF01281B
:102CA00003D11021A06802F004FE102200212800A8
:102CB00005F096FF012803D11021606802F0F9FDAC
:102CC00070BDC0469062FF1F70B5041E05D100297B
:102CD00003D006220D4805F083FE0D4B1D78012D13
:102CE00011D1002C05D102221A7005F0C9FD28006F
:102CF00070BD00221A70074B1B78FF2BF7D0200005
:102D0000FFF778FFF3E70025F1E7C046A062FF1F59
:102D10009062FF1FFE3FFF1F030010B5002801D186
:102D2000002010BD00780B4A002803D15988D182B9
:102D30001B7913761378022BF2D10023984200D12D
:102D400003331370044B1B78FF2B01D0FFF752FFA6
:102D50000120E6E79062FF1FFE3FFF1F002911D010
:102D600000280CD04B79012803D140225242134352
:102D700003E03F221340032802D001204B7170472B
:102D80004022F4E70800FAE770B5094D0100287801
:102D900000280BD0074C0622200005F021FE210060
:102DA0002878FFF7DBFF200005F08AFE70BDC046E3
:102DB000B062FF1F8A62FF1F00290AD0012808D1D4
:102DC0003F224B799343C02B03D0403B5A4253419F
:102DD000981C704770B5174D06002B78FF2B15D047
:102DE0000A2005F0BDFE041E10D0D0230370C83B9E
:102DF0008370114B11491B784670C3700622043052
:102E000005F0EEFD2100287805F06AFD0C4B1B78DB
:102E1000012B0DD10B4B1B68002B03D09B68002BA3
:102E200000D09847084B04211878084A05F0C0FCE8
:102E300070BDC046FE3FFF1FB062FF1F8A62FF1FCA
:102E4000AC62FF1FD862FF1FDC62FF1F60EA000058
:102E5000014B98687047C0469062FF1F014BDB68CA
:102E6000186870479062FF1F074B10B5DA68136847
:102E700001331360054B1878FF2803D08021C90166
:102E800005F076FC10BDC0469062FF1FFE3FFF1F9D
:102E9000F7B50E0002F04EF9051E1CD00E4B06626F
:102EA0001F78002F00D10778AB791020019305F02F
:102EB00057FE041E0FD0D0230380C73B8370019BB5
:102EC000E91DC3700622043005F08AFD2100380098
:102ED000E66005F005FDF7BDFC3FFF1F014B1878CC
:102EE0007047C046B062FF1F054B002805D1054B57
:102EF0001A78054B002A00D1014B18007047C046D4
:102F0000A062FF1FB062FF1F8A62FF1F014B58685B
:102F10007047C0469062FF1F024B1868431E9841DD
:102F2000C0B27047B462FF1F421E03000120152A81
:102F300003D9FF3B5A425341D8B27047F0B51C0049
:102F400000230E0085B0039002920B70029A934208
:102F500001D3002019E0E55C5A1CD2B2002DF8D054
:102F6000029851198142F4DC0233DFB2A35C1800ED
:102F70000193FFF7D9FF002807D0013D019A03997B
:102F8000EBB233708A4202D1E01905B0F0BDDB1913
:102F9000DBB2DBE710B50C0002F024F903001220CD
:102FA000002B03D02100588805F082FD10BD0000E1
:102FB00070B50E4D84006359002B15D0186A002897
:102FC00001D005F03DFD2B59586A002801D005F0CD
:102FD00037FD2B59986A002801D005F031FD28599A
:102FE00005F02EFD00232B5170BDC046C062FF1FAF
:102FF0001C4B70B504000E00150099420AD11A4B03
:103000001B68002B01D1122070BD1B68002BFAD069
:103010009847F9E7154B994215D1134B1B68002BC4
:103020000AD01B68002B07D09847002804D1104B0A
:103030001C70104B1D70E7E729002000FFF7AAFF66
:103040000028E1D1F3E7080002F074F80028DAD094
:1030500003780320A342D7D12900300005F028FDD2
:10306000D2E7C046FEFF0000BC62FF1FFFFF00006A
:10307000B962FF1FB862FF1FF7B50400808802F035
:1030800059F80025A84203D00578A08802F08EF8F0
:103090001C4E3378002B1FD0AB421DD11A4B280099
:1030A0001978FFF777FF002818D000233370A37931
:1030B0000820A778A688019305F052FD011E0DD0C7
:1030C000D0230370CA3B8370019B47708680837155
:1030D000280005F005FC01E0002DE8D1A0880B4B8D
:1030E0008200D358002B01D0FFF762FF1721A08880
:1030F000FFF762FDA08801F057FDA08801F062FE95
:10310000F7BDC046B962FF1FB862FF1FC062FF1F54
:10311000F0B587B01D000CAB1B88070001930DAB09
:103120001B88142002930EAB1B88160003930FAB71
:103130001B880091049310AB1B88059305F010FDCC
:10314000041E1AD0D0230370CB3B47708370C67027
:10315000062229000430002D11D005F041FC019B0E
:1031600021006381029B0098A381039BE381049B60
:103170002382059BA37405F0B3FB07B0F0BD05F0F7
:1031800087FCECE7F7B5009308AB1B8807000C2021
:103190000D001600019305F0E3FC041E13D0280077
:1031A00001F0C8FF00280FD00078D0232370C93B5E
:1031B000A370009B21002381019B6770A580E6809E
:1031C000638105F08DFBF7BD014B1878EDE7C04634
:1031D000FE3FFF1F13B5040064890389C2888188FC
:1031E000C0780094FFF7CEFF13BD000010B5044C6B
:1031F0002068002803D005F023FC0023236010BDC5
:10320000C462FF1FA122F0B5818892004A43384B67
:10321000384F1B6804009B189D2292009B188279EE
:1032200089B01A603B68002B5FD01D78324B1B6859
:10323000002B04D05B68002B01D0002098472600AB
:1032400008363100E079FFF7B7FD237DE071020019
:10325000E0780493638A29000393238A0293E38925
:103260000193A38800933300FFF752FFE378002B0C
:103270000BD1E289A379A18802920196E279280014
:103280000092012201F060FFE0703B68002B20D02B
:10329000FFF7ACFF194D287800281AD0184B197881
:1032A000FFF778FE002814D02B78E67808200793E3
:1032B000A78805F055FC011E09D0D0230370CA3B36
:1032C0004670837087808671079805F009FB00239C
:1032D0002B701721A088FFF76FFCA08801F064FC19
:1032E000A08801F06FFD09B0F0BD064B9DE7C04618
:1032F0003409FF1FC462FF1FD862FF1FB962FF1F9E
:10330000B862FF1FFE3FFF1FF8B5070008000E0060
:1033100001F010FF041E18D02620FFF78DFC051EBB
:1033200000D12578062005F01BFC041E0DD00021DD
:10333000062205F0ADFBD0232370C23B210067704D
:10334000A370A680E8B205F0CBFAF8BDF0B585B061
:1033500001930AAB1B78070002930BAB1B780800A4
:103360000D000092039301F0E5FE061E22D010200E
:1033700005F0F6FB041E1DD01022002105F088FB8D
:103380002620FFF759FC002800D13078D023237085
:10339000C13BA370009B21002372019B6770637285
:1033A000029BA580A372039BC0B2E3720C9BE360F7
:1033B00005F096FA05B0F0BDF7B50D00019001F0EB
:1033C000B9FE071E20D00E2005F0CAFB041E1BD03C
:1033D0002620FFF731FC061E00D13E78D023238043
:1033E000C53B0622A370F91DE01C05F0F9FA019B0C
:1033F0002A0063810123DD401A401D402100227311
:103400006573F0B205F06CFAF7BD0000F0B585B059
:10341000029010000D0017000A9E039301F08AFE2F
:10342000041E31D0029B002B2ED1039B02795B0737
:1034300024D5122313430422002E08D10B9900290E
:1034400005D10C99002902D10D9900291AD01A43EF
:103450000D9B2271002B00D0C9E0002E00D1CFE0DF
:10346000002D00D0CCE0606A002801D005F0E8FA19
:103470001C21300005F034FB606205E002239A4312
:103480000E33D7E793432371654BBA00D458002C11
:1034900000D1AAE0002E10D0236A002B03D11C20FB
:1034A00005F056FB20625E4BBA00D358186A00281C
:1034B00003D01C22310005F093FA0C9B002B12D094
:1034C000574CBB001D596B6A002B03D1162005F029
:1034D0003FFB6862BB00E358586A002803D01622FD
:1034E0000C9905F07DFA0D9B002B11D04C4DBC00C2
:1034F0006659B36A002B03D1142005F029FBB06292
:103500002B59986A002803D014220D9905F068FA07
:10351000380001F00FFE051E67D0414BBA00D358AA
:10352000002B62D01A6A3420002A00D11C389A6A13
:10353000002A01D0143080B20B9A002A01D01C302E
:1035400080B25B6A002B01D0163080B205F008FB18
:10355000041E4AD01822002105F09AFA2620FFF70F
:103560006BFB0190002801D12B780193D0232370AD
:10357000029B200063700A23294EA370039BBD00A9
:10358000A371AB59A780196A1830002905D01C22F5
:10359000A06005F025FA200034307359996A00299B
:1035A00007D0030014221433E060029305F018FAE8
:1035B00002980B9B002B08D003001C221C330B9994
:1035C0002061029305F00CFA02987359596A002998
:1035D00003D01622606105F003FA6B4621001879CA
:1035E00005F07EF93800FFF7E3FC05B0F0BD1022CE
:1035F0000D9B0D991B69A018236205F0F1F92CE7CA
:103600000B9B002B00D13FE7012D00D03CE7606A07
:10361000002801D005F014FA1C210B982AE7C046B7
:10362000C062FF1F10B5044C2068002803D005F0CD
:1036300007FA0023236010BDB462FF1F0B4B07B5D0
:103640001A68002A01D100200EBD6946531C0120D2
:1036500012780731FFF772FC0028F4D002780123BA
:10366000100018401A42EED0EEE7C046D062FF1FAD
:10367000F0B51F4F01203B6887B0002B25D09B7809
:10368000059300F0DDFB002821D00A20FFF7D4FAD3
:1036900004000B20FFF7D0FA164B05001E78731EAE
:1036A0009E413B68F6B2191DD878FFF757FB3B687F
:1036B0002900DA7A043303929A79019302920090F6
:1036C00033002000059A05F04BF907B0F0BDFFF775
:1036D000B5FF002805D00620FFF7AEFA040007204A
:1036E000D8E70820FFF7A8FA04000920D2E7C0466F
:1036F000B462FF1FB062FF1F70B50A4E040033783A
:103700000D00FF2B0DD0042005F02AFA011E08D071
:10371000D0230370CE3B45708370C470307805F0C1
:10372000DFF870BD0C40FF1F70B5040006200D00CF
:1037300005F016FA011E0AD0D0230370CD3B83702A
:10374000054B44701B688580187805F0C9F8002C7B
:1037500001D0FFF767FF70BDB462FF1FF8B5264FB9
:1037600006003B680D001124002B05D10522234BD8
:103770001B78134202D112242000F8BD204A1024E5
:103780001268002AF8D01278002AF5D0DB0719D584
:103790002B789A1E012A1AD80C2005F0D9F9132487
:1037A00038600028E8D000230A2243702900067000
:1037B000023005F015F9FFF75BFF041E0AD0FFF792
:1037C00031FFD9E700F03CFB0028E1D1E4E7002B12
:1037D000E2D0D0E70B4B1B78032BCDD11D20FFF798
:1037E0002BFA094B18800028C6D0084B0421187802
:1037F000074A04F0DDFFBFE7B462FF1FB162FF1F9D
:10380000D062FF1FB062FF1FAE62FF1FDC62FF1FAE
:1038100060EA0000F7B50193194B14001A780523EC
:1038200006000F0012201A4221D0012920D1154B89
:103830001D68002D1BD002201F2C18D8002C02D090
:10384000019B002B13D0104B1F221E706E1C0021F9
:10385000300005F01DF901992200300005F0C0F894
:10386000310020002C70002F06D005F0D9F8FEBDE5
:10387000064B12201D68DCE704F062FFF7E7C04644
:10388000B162FF1FD062FF1F0C40FF1FCC62FF1F01
:10389000F8B50F4E12243368002B17D01B780F3C5D
:1038A000834213D100250B4F0221387805F088F9A7
:1038B000094B042138781D8005F082F9074B280058
:1038C0001D8033685C7004F0CBFF04002000F8BD5D
:1038D000B462FF1FDC62FF1FC862FF1FAE62FF1FE2
:1038E00070B5012823D11B4C2388002B03D01A4A22
:1038F0001578002D07D0194B1B68002B02D01878C3
:10390000FFF7C6FF70BD3B2B02D93C3B2380F9E794
:10391000134E0221307805F053F9FA2223889200E1
:1039200002215A43307804F083FF2580EAE70B4BED
:103930001B68002BE6D00B4B1B785B07E2D5084BCE
:103940000221187805F03CF90022024B1A80FFF79B
:1039500069FED7E7C862FF1FAC62FF1FB462FF1F9A
:10396000DC62FF1FB162FF1FF8B51E4D28680028FA
:1039700003D005F065F800232B601B4E306800284B
:1039800003D005F05DF800233360184F05243B7821
:1039900018002040234221D0154800F055FA3B780A
:1039A000234213D0202005F0D3F82860002813D03C
:1039B0002022002105F06CF8202005F0C9F8041E33
:1039C000306005D02022002105F062F8002004E0DC
:1039D000286805F035F82C601320F8BD00F034FAA3
:1039E000F4E7C046D062FF1FCC62FF1FB162FF1F29
:1039F0000040FF1F10B50A4C23681A1E0ED0002885
:103A000008D10130587004F02BFF002805D023683E
:103A1000002B02D00021FFF787FE0122100010BD0D
:103A2000B462FF1FF7B5274E050033680191181ED9
:103A300021D05C78244F012C30D1FFF7FFFD002806
:103A400025D02000FFF7F8F80400412814D91F4BB7
:103A5000022118781E4A04F0ABFE1E4B3C3C1C8031
:103A6000022233685A703B78002B14D12800019948
:103A7000FFF75AFE0120FEBDFA2292004243002ABF
:103A8000EED0124B0221187804F0D2FEE8E7FFF7DF
:103A9000D3F80200F3E700233B70EBE73B78002B01
:103AA000E8D1032005F05CF8011E08D0D023037094
:103AB000CC3B457083703368187804F011FFFFF732
:103AC000B1FDD7E7B462FF1FAC62FF1FDC62FF1FCE
:103AD00060EA0000C862FF1F10B5204B8188994240
:103AE00034D016D81E4B994207D81E4B994221D884
:103AF0001D4B994219D0002010BD1C4B9942FAD1A0
:103B0000836899785A78090218781143FFF78AFF79
:103B1000F2E7174B99421DD0164B0020CB18052B0E
:103B2000EAD8154803F04AFC0EE083681878FFF7DE
:103B300061FFE1E7114A83688818424250411B78CF
:103B4000C0B21900FFF7D8FD0120D5E783680C4803
:103B50001978E7E783680B481978E3E751200000FC
:103B60000920000007200000062000000A200000B5
:103B700052200000ADDFFFFF5B910111F8DFFFFF76
:103B800088910111A1910111014B18707047C04635
:103B90000D40FF1F10B5064C207001F0A7FA2078E9
:103BA00005F03EF80521207800F06CFD10BDC04600
:103BB000DC62FF1F0BB273B50D00002B00DBCBE006
:103BC0008B4B187804F054FE041E0ED00378912B12
:103BD0000FD0A22B00D1A8E0864B1878FF2852D036
:103BE000210004F07DFE00284DD1802000026840B5
:103BF00076BD43780F2B76D013D8052B70D00E2BC3
:103C0000EAD180887C4B98422BD87C4B98421BD8B9
:103C10007B4B9842E0D1A3681878591CFFF754F801
:103C200038E03E2BD8D18378032B79D06CD8012B88
:103C300073D0022BD0D1734B1B68002B23D05B6851
:103C4000002B20D098471EE06F4BC0180C28C3D81B
:103C500004F06EFD1DC2C2150BC20B0B0B3223C24A
:103C60003C006A4BC0180728B6D8694B1B68002B6C
:103C700009D01B68002B06D0200098470AE0A368F3
:103C80001878FFF7A7F8200004F02AFDADE7A06838
:103C9000FFF742F800289FD0F5E7A3681B78002BB8
:103CA000F1D0584B1B68002BEDD01B68002BEAD0DD
:103CB000210058489847EDE7524B1B68002BE2D093
:103CC0001B68002BDFD021005348F3E7534B1B68E0
:103CD000002BD8D05B68002BD5D021004648E9E7FF
:103CE000FFF7CAF9CFE780884D4B984203D04D4B80
:103CF000984200D070E7494B1B68002BC3D05B682B
:103D0000002BC0D02100D5E7152B0CD04648162B30
:103D100000D061E703F052FBB5E7FFF773FAB2E7B3
:103D2000FFF758FAAFE74148F4E7414B1B78042B03
:103D300007D100236A4613800179408800F0C8FC4F
:103D4000A1E7364B1B68002B9DD05B68002B9AD0F7
:103D500001003848984796E7012421420AD0294BB0
:103D60001B68002B04D05B68002B01D00020984713
:103D700001203CE78B070AD5254B1B68002B04D09C
:103D80005B68002B01D02000984702202FE7042118
:103D9000280008400D4200D12AE7274E3388002B27
:103DA00021D0013B9BB23380002B1AD1FFF7B4F82E
:103DB00000280AD0214B1C70154B1B68002B04D027
:103DC0005B68002B01D020009847FFF79FF86946F9
:103DD00001F086FD6846FEF7D7FF1D20FEF72CFF99
:103DE0003080042003E7024B187804F0E9FEF8E77E
:103DF000DC62FF1F0D40FF1F0E20000001200000AD
:103E000009100000D462FF1FFEDFFFFFAFDFFFFFDE
:103E1000D862FF1F0C2000000B200000BC62FF1FB7
:103E20000D20000013200000F7910111BB9101113A
:103E3000B162FF1FFFFF0000AE62FF1FAC62FF1FF9
:103E400010B501F0F7F910BD014B18607047C0467E
:103E5000D862FF1F0B880020162B01D817230420DF
:103E6000014A13807047C0468662FF1F00207047DA
:103E7000074A03001188814207D0918800209942A7
:103E800002D101308000101870470020FAE7C046C8
:103E9000E462FF1FF0B58F7806000D00C5B01E2F3D
:103EA00015D1FFF7E5FF051E03D10024200045B022
:103EB000F0BD00223B003100C078009200F0B2FB60
:103EC0000400A81C00F0D2FBFF23EB70EEE7264BAA
:103ED000062403931B78FF2BE8D0182FE6D87B0825
:103EE000224A013BDB0002929A589446002ADDD018
:103EF000029AD3185B68002BD8D00878002802D12A
:103F00004B78012B02D10624122FCFD107AFAB88FB
:103F1000697800976446AA68A047041EC6D1AB78AA
:103F2000029A5B08013BDB00D318390030005B6864
:103F30009847041E0BD1AB78042BB6D0039A3100FE
:103F400010782200009700F06DFB0400AEE76A785D
:103F5000002AABD1AA7805A93B88087130000A7005
:103F60004B80FEF717FBA0E71040FF1FA89501113B
:103F70001D4B37B5050098420BD000290AD1FFF739
:103F800077FF002805D11948FFF772FF002800D0FD
:103F9000058037BD01291AD1FFF76AFF041EF8D04A
:103FA00001235B420380A378FF2BF2D0FE2B07D0C6
:103FB0000023E0781422009329001E3300F032FB26
:103FC000A01C00F053FB01235B426380E1E7022960
:103FD000DFD1013901F01AF90028DAD12800FFF702
:103FE00047FF041EDFD1D4E7FEFF0000FFFF000003
:103FF000022210B5074B52421A80074801325A80FC
:104000009A80DA8000F07EFA044801F081F80020FE
:1040100010BDC046E462FF1F953E0111713F0111C2
:104020000388F7B50400002B02D102252800FEBD4D
:1040300042680221137825485268FEF775FD002872
:104040002ED0234F01253A88002AEFD080232188E3
:104050005B0201259B1A9942E8DC0C2004F078FDF4
:10406000061E31D03B8822889C460023180001950B
:1040700061469DB2491989B2AA421BD8002801D0D5
:1040800062443A8000233000082208C0210004F076
:10409000A7FC104A1368002B13D100251660C5E752
:1040A0006268022113780C485268FEF73DFD002833
:1040B000C7D1BAE760681D014019418101330198F9
:1040C000D6E71A001B68E6E71325AFE7169601113D
:1040D0000E40FF1FE062FF1F14960111014B187084
:1040E0007047C0461040FF1F14230A0010B51A4045
:1040F000194204D00122102101F0A4F810BD4B0692
:10410000F9D4012088434000F8E710B514008B066D
:1041100004D50122102101F095F810BD08230A00F2
:104120001A40194202D14BB2002B0FDA102101F0D4
:1041300089F8002808D02300F2331B78002BECD03C
:10414000F1342378012BE8D10020E6E7032089072A
:10415000FAD4E2E7F0B51F00184B85B01C68019057
:1041600002910392002C27D1200005B0F0BDA56874
:104170003301ED186B89019A934211D3029A93424D
:104180000ED8002F04D10A9B002B10D12C00EBE796
:104190003B002978039A6868FEF7C6FC0028F2D134
:1041A0000136B6B2A388B342E1D82468DAE7A3683F
:1041B0000A9A5B891380E9E70026F3E7E062FF1FB4
:1041C00037B50C000A8849880123914217D3002A89
:1041D00015D0651D23792A0002210A48FEF7A4FCA8
:1041E000102300280BD023796188208800242A001E
:1041F0000094FFF7AFFF0A23A04200D0230018006D
:104200003EBDC0461696011113B50A0008884988BC
:10421000012388420BD8002809D0002413790532E5
:104220000094FFF797FF0A23A04200D02300180054
:1042300016BD13B50A0008884988012388420BD8A7
:10424000002809D00024137905320094FFF782FF7B
:104250000A23A04200D02300180016BDF0B58BB091
:1042600003904A8808880E000123824255D3002813
:1042700053D00023012704AC23700022718813005F
:104280000092FFF767FF051E3ED02078002835D149
:104290002B78022B18D167706A8983000130E318EC
:1042A00080005A8069680222201804F099FB237864
:1042B0000133DBB22370042B19D93B00688901302C
:1042C00080B2002BD9D01FE0022363701223584321
:1042D0006A89231804305A8069681022201804F073
:1042E0007FFB23780133DBB22370002BE5D10C4A2E
:1042F0006B899B185A425341DBB2DFE76378012B8D
:10430000E4D12B78022BC7D022780A23002A04D0CC
:1043100021000398FEF768F9002318000BB0F0BDE8
:104320000100FFFF0F4BF0B504001868002816D0FD
:1043300083685D89A54207D88288AE18B44203DA43
:1043400012019A18934201D10068EFE71E005F89BD
:104350001036A74204D1002900D00D801800F0BD0E
:104360003300EFE7E062FF1F70B505000C0008881E
:104370000021FFF7D7FF03000120002B04D022000B
:104380002800197AFFF7C1FE70BDF7B50C000025B3
:1043900001902300EE331B78AB4201D800200AE0E5
:1043A0006B00E65A00213000E718FFF7BBFF00283A
:1043B00002D126800130FEBD017A0198FFF794FEFC
:1043C000002802D03B882380F5E70135EDB2E0E715
:1043D00010B5040008880021FFF7A4FF03000120A6
:1043E000002B03D02000197AFFF77EFE10BD0000DD
:1043F000054B1B68002B01D1180004E09A68528914
:104400008242F6D198887047E062FF1FF0B50E2710
:10441000002687B0039302ABFF183E8005001F4BB8
:1044200040891400984207D02B78013000976A68C1
:1044300080B2FFF78FFE060002212B7818486A68C9
:10444000FEF772FB00280FD06C892000FFF7D0FF29
:10445000002802D0013C0419A4B2039B002B00D019
:104460001C80300007B0F0BD02212B780D486A682F
:10447000FEF75AFB0028E7D102212B780A486A6828
:10448000FEF752FB002807D0002EDED03B88A34267
:10449000DBD17489013CDFE76C89DEE7FFFF0000B8
:1044A00016960111149601111296011110B50C0007
:1044B000FFF7DEFC03000220002B0AD0002C00D006
:1044C00023609B781720FE2B03D00138FF2B00D1EF
:1044D000002010BD73B50D0001A904001600FFF700
:1044E000E5FF172805D0002E04D129002000FEF793
:1044F000F7F876BD01221021200000F0A3FE00286D
:10450000F3D0F6E7014B18607047C046F062FF1F1A
:1045100037B56B469D1D010004000222280004F0FF
:1045200067F92B88B02B0ED12379122B09D12300E8
:10453000FA331B78012B06D10121608800F0E0F8E6
:1045400001E01B2BF8D037BD10B5054B04211870C6
:1045500000F098F8FFF74CFDFEF746FB10BDC04693
:10456000F462FF1F0020F0B50BB20F0087B083424A
:1045700034DA274B187804F07BF9051E2BD003782A
:10458000A02B25D103AE3100FEF7B4F8041E0BD1E9
:10459000B378DB0724D51F4B06341B68002B03D0F0
:1045A0003100688898470400A868002801D004F00A
:1045B000D7F8002C08D1184A039B1340174A93429E
:1045C00006D0B3781B2B03D00121688800F098F83F
:1045D000280004F085F880200002784007B0F0BD84
:1045E0000F4B1B68002B10D0310068889847041EC1
:1045F000DAD07378002BD7D1B27801A90A704B803A
:104600000C716888FDF7C6FFCEE70624F1E7C046C7
:10461000F462FF1FEC62FF1F00FFFF0000011200A9
:10462000F062FF1FF7B50190FC200D0017001E007F
:1046300004F096FA04001320002C12D0B0232000BE
:104640002370089BF4226770658026710830002B68
:1046500008D0190004F0C4F92100019804F040F9D1
:104660000020FEBD089904F013FAF5E710B5041E0A
:1046700006D00078FD2803D804F07AF9FF232370D0
:1046800010BD00000A1F93B210B504000220032BD6
:1046900005D882400020024BD1529B189C7010BD5F
:1046A0001463FF1F0B8870B5043B04000D0002204B
:1046B000032B0BD80121200000F0A8FD03001420DB
:1046C000002B03D02900200000F028FC70BD000062
:1046D00007B51300034A00920A00012100F088FC8C
:1046E0000EBDC0460D49011107B50192032200928B
:1046F000024B0A00122100F0A5FC0EBD8B490111EE
:1047000007B56B4601AA11800449D88008780633A2
:10471000012802D1190003F0EBFF07BDF562FF1F6E
:104720000C4B10B518700023FF210B4A1380138126
:1047300093819380094A53801370517293819372CD
:10474000D174D3821375517704F0F2F900F0FCF9BB
:1047500010BDC0462463FF1F1463FF1FF662FF1FD6
:10476000F0B58DB06B46002003910C229B5E834216
:1047700000DBB0E05D4B187804F07AF8051E00D13C
:10478000A4E00378902B00D09DE006AF010046889E
:10479000380000F01FFA79680400002900D19CE07D
:1047A0003B88052B6ED13B89032B1CD905AC20001F
:1047B00000F0A2F86288172A61D83989131D99423E
:1047C00031D17968237804310291D90738D56078DE
:1047D00000F08EF9071E06D0002303712378012B09
:1047E00008D0132B23D0A868002800D178E003F06C
:1047F000B7FF75E06288029909A800F0A6F8029058
:10480000380000F08BF909AA2378387A0192002247
:1048100031000092029A00F012F9380000F064F9B9
:10482000029B002BDFD0300000F080F9DBE703783B
:10483000032BD8D16288029909A800F0D6F8DEE7E8
:10484000122B13D1029909A800F0B5F8021EEAD183
:1048500027498B88002BC6D0887909A92378019134
:1048600061780091310000F0EAF8BCE7002302AA69
:1048700093833000617809AAFFF72AFFB3E71D4B45
:104880000993F6E7042B02D09A1F012AABD8184AE5
:10489000043B9B00995A0029A5D0D218907831008A
:1048A0003A0000F0AEF800289DD13B88042B03D0DD
:1048B00001213000FFF724FF012C04D1A868002853
:1048C00001D003F04DFF280003F00AFF8020039B76
:1048D0000002434018000DB0F0BD012800D182E76E
:1048E00001213000FFF70CFFEDE7C0462463FF1FF6
:1048F0001463FF1F010017000B7803704B7843709F
:10490000CB788A781B021343438070470A880300E0
:1049100002700A88120A42700A88012A06D14A885F
:1049200082704A88120AC2700420704702208242B4
:10493000FBD14A8804309A704A88120ADA708A8851
:104940001A718A88120A5A71EFE710B50400012023
:1049500082420CD94B780A781B021343238083428E
:1049600006D1CB788A781B0213436380002010BDE8
:10497000022BFBD1CB788A781B02134363804B79DF
:104980000A791B021343A380F0E70B8803700B889E
:104990001B0A43704B8883704B881B0AC3708B883B
:1049A00003718B881B0A4371CB888371CB881B0AE8
:1049B000C3710820704703000120082A14D14A78E7
:1049C0000878120202431A80CA78887812020243D9
:1049D0005A804A790879120202439A80CA79887902
:1049E000120202430020DA80704710B50400012053
:1049F000022A05D100204B780A781B02134323803A
:104A000010BDF8B5060010200F00150004F0A8F83E
:104A100004000120002C0ED0A0230C2229002380AA
:104A20006780201D002D07D003F0DAFF2100300041
:104A300003F056FF0020F8BD04F02AF8F6E7F7B5BA
:104A40001E00009008AB142017001D78019104F09F
:104A500087F8041E12D0A2230370019B4770438085
:104A6000099B057146710C220830002B07D01900F4
:104A700003F0B6FF2100009803F032FFF7BD09995B
:104A800004F006F8F6E737B5041E0FD04388002B74
:104A90000CD00025C1881323007A172201950095B8
:104AA000FFF7CDFFFF2365806372257037BD0000DF
:104AB00010B50C4904004A88002A09D08B89002BC4
:104AC00005D00020CB8A0222834201D010BD0122F2
:104AD00013000A20434300204032C854C8184280C3
:104AE0000472F3E7F662FF1F0023438003707047F0
:104AF000094B00211A0010B55C88002C06D01C79E7
:104B0000844203D10A234B43D01810BD01310A332C
:104B10000329F1D10020F8E7F662FF1F10B5040069
:104B2000407A03F025FFFF23637210BD7047043005
:104B300010B580B204F06CF8002803D0042149427B
:104B400003F006FF10BD000070B50025124CA068F0
:104B50002580A581A580A84202D003F001FEA560B2
:104B600000250E4C0E4B606D1D80230058331D70C8
:104B7000A84202D003F0F4FD6565002560680028B6
:104B800001D003F0EDFD013508340A2DF6D10548BA
:104B900002F014FC70BDC046BC63FF1F6063FF1FC2
:104BA000B063FF1F2F92011170B5041E0CD1074D89
:104BB0002880A881A880A868002802D003F0D0FD32
:104BC000AC60034802F0FAFB70BDC046BC63FF1F37
:104BD0003B9201110023F0B54E8843600A7904002E
:104BE0000F0089B0022A00D08BE0C98803291ED9A2
:104BF000BB685A781878120202430592DA789D78D9
:104C000012021543DA791B7A67481B0213435BBA19
:104C10009AB20380059B04338B4227D1042D08D020
:104C20006B1F022B16D92900604802F0C7FB012038
:104C30001AE05F4B3101CB5A002B0BD0F4215D48B9
:104C4000FF3102F0BBFB3000FFF7AEFF5A4A136999
:104C5000013313610421059BB868238125804942F3
:104C600003F076FE6060002009B0F0BD524C042DC8
:104C70000CD06B1F022B18D983212B004D488900C3
:104C800002F09CFBE3680133E360D0E7484B31015D
:104C9000CB5A002B09D04748484902F08FFB30001F
:104CA000FFF782FF236901332361414B36010693ED
:104CB0000023069AB3529319059A9D80100007931A
:104CC0009A81FFF734FF079B051E986015D00421D9
:104CD000B868494203F03CFEFA880100043A280013
:104CE00003F07EFE069AFB88B25A043B9B18069A94
:104CF000B35223680133236099E7A3690133A361A9
:104D000095E72B4B3101059333010693059B300149
:104D1000CB5A05990D18A968002B30D000292ED048
:104D2000012A2CD1FA880598944663449BB232013B
:104D30001352A88998421AD362469B1AC818B968B8
:104D400003F04EFE059B0699AA89CB5A934200D0E8
:104D50006DE70A0000212381AB882380AB68636084
:104D6000059BD152144A5368013353605FE7124ADE
:104D70009368013393603000FFF716FF57E70A4A44
:104D8000059F1288029333019C466744BB890091BA
:104D90009921094C019363690948890002F00EFBCF
:104DA000636901336361E6E72663FF1F47920111E0
:104DB000BC63FF1F609201112C63FF1F13020000F0
:104DC0007792011170B5051E18D10D4C0D4B18804E
:104DD000230058331870606D002802D003F0C0FC27
:104DE0006565250050356068002801D003F0B8FCE7
:104DF0000834AC42F7D1044802F0E0FA70BDC04676
:104E00006063FF1FB063FF1F9E920111F0B5160093
:104E1000A12285B09200019342433D4B05001B68DF
:104E20000C009B18D933FF331F78FDF7D7FE0430F1
:104E3000874204DD2800FDF7D1FE0430C7B2B74237
:104E400007D3320000212800019B03F0C1FC05B00C
:104E5000F0BD3900300003F04BFD2300C5B25033E4
:104E60001D700393019B39006365300003F008FC5B
:104E7000CBB20293002B02D0039B01351D7000269C
:104E8000230050331B78B34204D8606D002839D119
:104E90000020DCE7029A3800002A04D0013B100011
:104EA000B34200D03800F5006519287003F0B0FD5A
:104EB000019B686001001A78164802F07FFA686862
:104EC00000280ED02A78019903F08AFD019A2B78E8
:104ED0000136D318104A0193D369F6B20133D36176
:104EE000CEE72300503318706065A54205D10A4A09
:104EF0001320D36A0133D362A9E7606803F030FC62
:104F00000834F2E703F02CFC00236365C0E7C046D9
:104F10003409FF1FAA9201112C63FF1FF7B50C0083
:104F200006000421606803F013FD23890500037067
:104F300023891B0A43702388837023881B0AC3704C
:104F4000278902240437FFB2F42F15D8224B9E4242
:104F500014D10C2003F004FE1134011E0CD0902358
:104F600003708E3B0371043B43801C4B8560C780FC
:104F7000187803F0B5FC00242000FEBD5C217143CD
:104F8000174B591801930B0058331B78002B19D17C
:104F900003003A003000FFF739FF041E05D0114B23
:104FA00022001148D96A02F009FA5C237343019A7E
:104FB000D1180B0058331B78002BDDD1300003F0E3
:104FC0003FFCD9E7074A0948536A07240133536273
:104FD00002F0F4F9E9E7C046FEFF00002463FF1F7A
:104FE0006063FF1F2C63FF1FBE920111D992011154
:104FF000F0B587B0009017200F0016000193FFF75F
:1050000096FD1325041E19D00C98031E02D0019999
:10501000201D9847030AE370052302AAA0700430FC
:10502000908127700098667003A993800494FFF71D
:1050300075FF051E02D0200003F092FB280007B088
:10504000F0BD0000F0B587B01F000CAB1B780391DA
:10505000059301210DAB06001C78049200F0D6F8F0
:105060001425002821D02000FFF722FD0135041E61
:105070001BD01149059B0A7803700132D2B2131E6E
:10508000C68001D101231A000B7022713000049BED
:1050900003990097FFF7ACFF051E09D123002100FB
:1050A0000648074A093303F0D3FC280007B0F0BDD7
:1050B000002363802370F8E72863FF1F874A0111EC
:1050C00030750000F8B505000E00064C064F236849
:1050D000002B02D03100280098470434BC42F6D19E
:1050E000F8BDC046CC63FF1FE063FF1F0123064AE3
:1050F0005B425380002313715362044A1360536070
:105100009360D36013617047E063FF1FCC63FF1FA0
:105110000200002310B506499C000859002801D15F
:10512000625010BD0133052BF6D11320F9E7C046BC
:10513000CC63FF1F034A5388181A43425841404228
:1051400010407047E063FF1FF0B585B002930AABD3
:105150001F780CAB1B88009008000E00019203938F
:10516000FFF7E8FF05001120002D1BD10E48FFF7C7
:10517000E1FF04001520002C14D006220B99A77122
:10518000E01D03F02DFC019B30002371029B2900E0
:105190006371009B66802370039B6562E381FFF768
:1051A00091FF280005B0F0BDFFFF000010B5FFF72C
:1051B000C1FF04000220002C12D060880121FFF7FB
:1051C00081FF606A002801D003F03AFC2822002108
:1051D000200003F05DFC012300205B42638020710E
:1051E00010BD000030B5074A074C55880100137800
:1051F0000020A54204D05B1A59424B41584210404E
:1052000030BDC046E063FF1FFFFF0000084A10B535
:1052100001230C00904208D0FFF78CFF031E04D03E
:10522000037923405A1E9341DBB2180010BDC046DB
:10523000FEFF0000024B1879431E9841C0B2704730
:10524000E063FF1F70B504000D001600FFF772FF4A
:10525000002804D10D4B9C4200D0143070BD416A2F
:1052600003790520002907D012221A40102A02D102
:105270000520002EF2D10F20DB06EFD5897E0C2011
:10528000A9428941494249420840E7E7FEFF000040
:10529000030010B5002800D110BD0348034A41881F
:1052A0009142F9D09847F7E7E063FF1FFFFF000046
:1052B000002330B5C45CCD5C6C40D4540133102B5A
:1052C000F8D130BD0F23002210B5C45C6400224326
:1052D000CA54C25CD209013BF7D210BD02000100E2
:1052E00010B52032103103F0A3FB10BDF0B58BB028
:1052F0000390102005931700049103F029FC0090FF
:10530000102003F025FC009B13240190002B05D0F6
:1053100000280CD11324009803F092FB019B002B72
:1053200002D0180003F08CFB20000BB0F0BD102061
:1053300003F00EFC0600102003F00AFC1324050005
:10534000002E00D1AEE0002819D01022002103F079
:105350009FFB32002900039803F06AFB041E0ED164
:1053600033787F2B51D830000099FFF7ABFF009BBB
:105370001B787F2B53D801990098FFF7A3FF3000CB
:1053800003F05EFB002D02D0280003F059FB002C37
:10539000C1D1102003F0DCFB0600102003F0D8FB85
:1053A0000290002E7CD0002878D03A000F322300E3
:1053B0000125121105D00F333B4015B25A4253411B
:1053C0001BB26A1E1201002B33D0049BD2B2981874
:1053D0000099029AFFF76CFF013D10220021300076
:1053E00003F056FBADB2049F2D017D19AF4242D0B0
:1053F000002C33D0300003F023FB029B002B00D1A4
:1054000089E7180003F01CFB85E729003000FFF74F
:1054100059FF28002549009AFFF74AFFA7E729000E
:105420000098FFF74FFF28002049019AFFF740FF3F
:10543000A5E70F210F4004998A18D9B28F4208D9E5
:10544000D15C06A819540133102BF6D1029A0199A8
:10545000C0E7791A48424141C901F2E739003000FA
:1054600006AAFFF725FF3200039806A903F0E0FA29
:1054700010370400BAE7002CBCD13000029906AA0C
:10548000FFF716FF320006A9039803F0D1FA0822AD
:1054900004003100059803F0A3FAABE71324A9E751
:1054A0001324AAE7002800D06EE733E72C960111F9
:1054B000F0B58BB00F0016000225009000283FD0F9
:1054C000002A3DD00B1DDBB21800029303F040FB15
:1054D0001135041E34D0FDF7C1FC05003A000099D7
:1054E000201D03F065FAEBB20393E3702B0CDBB2E3
:1054F0002F0A00936370FFB22B0E2370A7700193E5
:10550000FDF7A6FC1022010006A803F051FA2100C5
:10551000029A04AB06A8FFF7E9FE051E0DD1039B16
:1055200008223370009B04A9B370019B7770F3705D
:10553000301D03F03DFAFDF797FC200003F080FAE0
:1055400028000BB0F0BDF0B58FB00D00149E039095
:1055500004920593002A03D1022420000FB0F0BD6D
:10556000002EF9D00398FFF7E5FD1424071EF4D0B0
:105570007278337812021A43B3781B041343F2781B
:1055800012061A43036A0192934201D30133E3D115
:10559000002D03D03B7901249B07DED50822002192
:1055A00006A803F075FA059B13240433DBB2180038
:1055B000029303F0CDFA051ECFD0059A049904306A
:1055C00003F0F6F904223100280003F0F1F9390064
:1055D000102210310AA803F0EBF92900029A06AB59
:1055E0000AA8FFF783FE041E0FD1082206A908A807
:1055F00003F0DEF90822311D08A803F011F8012894
:1056000007D101990398FDF743FC280003F018FA2D
:10561000A3E70124F9E7000070B51C4C05002368DE
:10562000181E10D0002D14D11A78002A0CD1981C05
:10563000083203F0D5F903F07BF90135002808D1D1
:1056400023681D70012070BD0A331800082203F082
:10565000C7F92368002BF5D0122003F081FA061E4B
:105660000DD0C12321680370457002311022023031
:1056700003F0B6F923683100587803F031F9206857
:1056800003F0DEF900232360DCE7C0460864FF1F57
:10569000F8B504002020FDF7CFFA154FA600F35906
:1056A0000500002B1FD000280ED0D878FF280CD082
:1056B000290002F0BDFF002807D1F3590D49DB781E
:1056C0000D48220001F07AFEF8BD0C492A000C5565
:1056D000BB59611803330A4803F0BAF9BB590549AD
:1056E000DB780848EDE72100074801F067FEEBE7AB
:1056F0002464FF1F1C960111EB9201110C64FF1F23
:1057000035690111159301113E93011170B50B4CD0
:1057100085002B590100002B0BD0DA78084801F0E6
:105720004DFE2B59D87803F023F9FF222B59DA705C
:1057300070BD044801F042FEFAE7C0462464FF1F32
:10574000589301113E93011170B506008CB00C0006
:10575000150000213022684603F09AF9310010222A
:10576000684603F025F91D2021000322684403F058
:105770001FF96846FFF7B2FD2D210400032228001F
:10578000694403F015F920000CB070BDF0B50700B6
:10579000160097B001931CAB1D7830221EAB009110
:1057A0000AA800211C7803F073F9102239000AA816
:1057B00003F0FEF81022002102A803F069F9072285
:1057C000310002A803F0F4F8072202AB9818631E18
:1057D0009C41019903F0ECF802AB9C732B005A1E1C
:1057E000934102AAD3730021102206A803F050F9B6
:1057F00006221D9907A803F0DBF81A2002ABC01897
:1058000006221F9903F0D4F8102200990EA803F085
:10581000CFF8102202AB0EA908781C78013A60403C
:10582000D2B2087001330131002AF5D10AA8FFF77E
:1058300055FD102212A904000EA803F0D1F8102281
:1058400006AB0EA908781D78013A6840D2B20870FC
:1058500001330131002AF5D10AA8FFF73FFD0443C7
:1058600010222098E4B212A903F0A2F8200017B089
:10587000F0BD70B50E0014008CB001001022684617
:105880001D0003F095F83100082204A803F090F8F9
:105890002100082206A803F08BF86846FFF71EFDDA
:1058A00004001022280008A903F082F820000CB0A0
:1058B00070BDF8B506000D0000243719AC4200D3C6
:1058C000F8BD03F015F9030A3B70631CDBB2013726
:1058D0009D4203D90234F054E4B2EEE71C00EDE738
:1058E00073B506000C000225002819D0002917D036
:1058F000032101A8FFF7DDFF6B469A793F231A4089
:10590000013313436A463000937101A92200FFF767
:105910001BFF051E04D10322E01C01A903F060F85F
:10592000280076BD03785807DA08C00FD20080003F
:105930009B0710439B0F1843C0B2704707230B40CF
:10594000C908C9000B4303707047000070B504001C
:10595000FFF7DCFE134DA4006359002B21D0186A19
:10596000002801D003F06CF82B59986E002801D064
:1059700003F066F82B59D86E002801D003F060F8C8
:105980002B59186F002801D003F05AF82B59586F83
:10599000002801D003F054F8285903F051F80023EF
:1059A0002B5170BD2464FF1F0E4B8000C35870B58F
:1059B0000C00002B0FD09D68002D0CD02B78201DE3
:1059C0000B706B784B70A97CFFF7B8FF2B7E2372AE
:1059D0006B69E36070BD10220021200003F058F8CD
:1059E000F8E7C0462464FF1F014B18607047C046AB
:1059F0002064FF1F074A03008000825810B5002A68
:105A000006D0D088984203D1012901D1FFF79EFF2B
:105A100010BDC0462464FF1FF0B5264E95B0870028
:105A20000B93BB590500099112200A92002B31D02B
:105A3000D888FFF77FFB04001420002C2AD0280010
:105A400010A9FFF7B1FFBB591E781D6A002E23D0A5
:105A50000895FDF743FA07000020FDF745FA079087
:105A6000A379E61D069310AD0CA9089800F0E2FAA0
:105A70000EA9280000F0D7FA0B9B0A990493069B05
:105A800009980293079B0396019300970EAB0CAA0B
:105A9000FFF77CFE15B0F0BDFDF720FA0690300050
:105AA000FDF722FAE31DA779079310AB06000893D0
:105AB000DAE7C0462464FF1F30B50C4C85002A5934
:105AC000030085B00120002A0ED018006946FFF7B8
:105AD0006BFF2B591A78D888054B002A00D1054B4B
:105AE0006A46072100F0D9FB05B030BD2464FF1FD2
:105AF000276001113560011130B5094C8500295925
:105B000085B010226846253102F06AFF2A5911211A
:105B1000044BD0886A4600F0C0FB05B030BDC046DB
:105B20002464FF1FD160011130B5094C850029594B
:105B300085B010226846353102F052FF2A591121F2
:105B4000044BD0886A4600F0A8FB05B030BDC046C3
:105B50002464FF1F0F610111F7B54D4F860010201F
:105B6000F4590D0002F0F4FFF3592062186A132271
:105B700000286CD0033A29009C6802F031FFF359E9
:105B80001A780192002A58D11E6A227D317B9446F0
:105B900051400122019F114201D167461740217DEA
:105BA000914339432175377B4F40BC4660460027FF
:105BB000800701D44F081740012102208F40227D29
:105BC00082433A432275377B5740BC4660460027E4
:105BD000400701D497080F400420227DBF00824374
