:020000041101E8
:10010000F7B5164B0192C318021D002000938823F7
:100110005B05D3181B685C1C1AD09CB2402C18D805
:100120008D781E0CAC466746CD782D023D43AE421D
:1001300006D1019800280ED110000C70240A4C70D2
:1001400003249BB20733A343D218009B9A42DED309
:10015000FEBD4432F9E71000FAE7C046FC0F00008C
:10016000802213B503000324019189B252010731A3
:100170009B18A14304305A1A88235B05C3181B68D7
:10018000591C03D190429241104016BD99B24029AA
:1001900007D80B000733A343C0189042ECD30020CC
:1001A000F3E74430F9E7134B134A1B68126810B5A4
:1001B000F424934201D81A00F024104BA4021B68C7
:1001C0009A4210D813000E4A12689A420ED3013395
:1001D00007D1F0239B029C4203D10A49054808F04D
:1001E00037FF200010BDF824A402ECE7FC24A40291
:1001F000F7E7C04600C0031100D0031100E003116F
:1002000000F00311FFFFFF7FF0B59BB015000490D5
:100210000391402A00D9A0E006AB59801A80FFF76D
:10022000C2FF0400042816D9002206A9FFF768FFC0
:10023000052810D906AB1B88AB420CD1002D07D086
:10024000514B2A000499C01809F002F8002802D185
:1002500001201BB0F0BD06AB1D8020000699FFF702
:100260007FFF041E7BD1069B0793FFF79CFF802333
:100270005B01C61880230700DB029E4201D3F026F3
:10028000B60288235B05F31801931B68013302D083
:10029000019809F04DF83D49019808F0D9FE3B1D41
:1002A0000293331D05938822029B52059B181B68FD
:1002B00008935A1C3CD044219AB20091402A04D899
:1002C0000320D11D814389B2009103991B0C8B42FD
:1002D00024D0402A22D80122300008A9FFF710FFBD
:1002E000021E1BD1380008A9FFF70AFF04000428EA
:1002F00031D9009A059B9B1880225201B218934273
:1003000040D288235B05C118009A09A809F0A0F81B
:100310001D4B009A09A9F01809F04AF8009A029BAF
:100320009446634402931A4B029AFB189A42BAD33A
:1003300088235B05FC1821680198013908F088FEC4
:10034000200008F0F5FF039A07AB5A8030000799A8
:10035000FFF706FF0400002C03D1002079E70428F2
:10036000FBD988235B05E018069908F071FE03238A
:10037000EA1C9A4300D16BE7034B0499E01809F09B
:1003800017F865E70424ECE704000011FFFFFF7F86
:10039000F80F0000F7B505001400402A21D8002707
:1003A00001AE71803780FFF7FEFE042816D93A00AF
:1003B0003100FFF7A5FE042810D93688BC420BD0C7
:1003C000BD4209D0221CB44200D9321C064B92B265
:1003D000C118280009F03CF830B2FEBDC04300B29D
:1003E000FBE703204042F8E70400001137B5042280
:1003F00004000D0001A81649FFF7CCFF02000428F5
:100400000BD1019BA34208D3AB4204D0104901A8F1
:100410000195FFF7F9FE01203EBD0E4C2368200038
:10042000019308F085FF019920000139019108F03E
:100430000FFE80235B01E418074B9C42EED104229F
:10044000034901A80195FFF7DFFE0020E4E7C0465D
:100450005555000000C00311000004118022F8B5BA
:10046000964C974BD200002120001C6008F070FDD4
:100470002300944A88331A60934B1A786A23002A1F
:1004800000D01133E3620A232365904B37221B7897
:100490000820A3638E4B2118E361102323628D4B48
:1004A0003B256361C823DB00A36123008C331A6002
:1004B0002823013AE26320646364CA67043A211D79
:1004C000CA672100BC310D602100C03108602100E5
:1004D000C4310B6021000635CC310D602100083D90
:1004E000C8310D602100D0310A602200D432106082
:1004F0002200D832136022000227E0322100176068
:100500004222DC310A6021001B3DE4310D602100F4
:10051000E83108602100EC310B6023000521F43341
:1005200019602300F0331A602300183290331A60E8
:1005300023009433186023001E3A98331A60AF23C7
:10054000DB002360644BFA262363644B644DE36055
:10055000644BF031A3642300FF31FC33B600A1608B
:1005600021611E60A5627325E5656D3D6565A56524
:1005700096255D4AAD00E264666258606766A566CE
:1005800000270925A767E566584F594D6067200089
:100590002567E2673A6015279C30676007001A20DC
:1005A00038602000A0300700212038602000A830EB
:1005B00007004C4838602000F830066026006427A9
:1005C000A436376026005F3FAC3637602600033F15
:1005D000B03637602600C637B436376026000027AD
:1005E000B836376038269E60424E96205E64424E92
:1005F0005A66DE61414E9A645E62F53EFF3E9E623F
:100600001E269A67354A8000DE661F675F67DD65D4
:100610001D661862DA67BE23394A5B00E250394B27
:10062000D838235004302250C4225200A350C6238D
:10063000E4205B00E1500433334AE1503349344B4A
:10064000D1603449800019503349E938FF381950D6
:1006500032490430195032493248D161324911636C
:10066000324951631900F4310860CE20304940000E
:1006700011603049195019002F48F83108602F498E
:10068000D16582212E4A89005A501A002D4908321C
:10069000D1671A002C49B432116088212B4A890095
:1006A0005A501A002A49883211602A4ADA6408F03E
:1006B000A7FE012008F05CFCF8BDC0460004FF1F47
:1006C0006C75FF1F6080FF1F0441FF1F4A0AFF1F58
:1006D0003A07000080C3C9019A020000DC0500004F
:1006E0006A18000050C3000088130000F009FF1FC3
:1006F000204E00006509FF1F68100000C4090000BB
:1007000040420F0010270000FC00FF1FC11BFF1F0D
:100710000000FF1F152CFF1F9D2FFF1F352EFF1FF1
:10072000811FFF1F7126FF1F9D1FFF1F4921FF1FF4
:100730000D1FFF1F9528FF1F7D29FF1FD918FF1FC1
:10074000A127FF1FC524FF1FD124FF1F0D1EFF1F60
:10075000C51EFF1F851DFF1F0223F0B50124634D39
:10076000634E2B70634B34701A68634B89B004205E
:100770005A7007F0B1F908F03BFEFFF76FFE08F082
:10078000F7FD1F2200215D4B1E271A705C4B6F4442
:100790001C705C4B19705C4B19689143163A0A4304
:1007A0001A60602219689143403A0A431A6008F0BF
:1007B00097FE08F0FDFB554B9847C120FF21544B95
:1007C00080001A588A431A50C522920098588843CC
:1007D000BF390143995098584E4908408021C901BA
:1007E0000143802099509958C0050902090A014324
:1007F000995080214848490108F042FE0323220015
:10080000464901940093464808F072FD1622454976
:1008100002A808F01DFE02AC61782078023406F0D0
:1008200059FDA742F8D1404C404B226803201A40A2
:10083000A023DB0213432360802322689B0413431D
:10084000236022683A4B1A4080239B0313432360A2
:10085000384A394B934200D8012008F0F1FB08F0E8
:1008600047FE80232268DB0413432360287808F0C6
:10087000FFFD3078C0B208F00BFC08F031FC2F49C6
:10088000042008F0ADFD06F01DFF07F069FB01F044
:1008900041FA01F0E9FA2A482A4907F007FA2A4BF7
:1008A0002A4819782A4B32781C782A4BC9B21E780C
:1008B000D2B22B780196009407F0F8F90821264867
:1008C000264A07F0F3F98023A12225489200234904
:1008D0005B0107F0EBF9234B2348196807F0E6F9B1
:1008E00000F022F9002009B0F0BDC0464A0AFF1FFF
:1008F0000441FF1F34F000400873FF1F480AFF1F28
:10090000490AFF1F680AFF1FBCF00040E1A2000077
:1009100000E100E0FF00FFFF0841FF1F8C53FF1FB5
:100920000851FF1F119F011114F00040FF7FF8FFD5
:10093000FFFF9FFF0080FF1F6080FF1F3B0001083B
:1009400020950111020101034B0AFF1F3695011189
:10095000440AFF1F450AFF1F64950111780A000031
:1009600094950111800AFF1FE895011170477047A7
:1009700030B503A804880B20002C0ED14968074D20
:1009800008784978090201430A20A94205D10121CA
:1009900020001980024B1B7A137030BD192A000009
:1009A000F072FF1FF7B5150008AA16884A680F4FA6
:1009B00014785278120222430A24BA4214D1012236
:1009C000DBB2019200962A0008F000FA041E0BD157
:1009D000074B1B68002B07D068782A780002104369
:1009E00042425041013098472000FEBD02290000DC
:1009F0000C5EFF1F30B5012503790400BFB02B4208
:100A000011D00A49408807F04DFD28420BD0084B11
:100A100001A95B8D4D800B80064B00221B7A6088FC
:100A20000B7103F0CDFF3FB030BDC046045EFF1F29
:100A3000F03DFF1FF072FF1F10B50549054807F094
:100A4000E7FC0421044A054807F0A4FC10BDC04699
:100A5000045EFF1FFFFF0000289F0111F03DFF1FF4
:100A600010B5024804F08AFE10BDC046F509011118
:100A700001230370054B1A7A42700C2282709A7916
:100A8000C270DB79037105207047C046F072FF1F0A
:100A9000022310B50370013B43700533837010339C
:100AA0000371443B43712A3383714433C371002380
:100AB0000372064B04001B8843720A30FFF7D8FF0D
:100AC000831D0A30C0B2E37010BDC046F072FF1F34
:100AD00010B5142008F024FA124B142200211860DB
:100AE00008F036FA002008F03BFC012008F080FBFB
:100AF000022008F04DFA032004F088F8042006F0E4
:100B00001FF9052003F0BCFA062003F093FF07202D
:100B100001F024FD082007F01DFC092001F0C8FAAF
:100B200010BDC046105EFF1F08F0E2F9012008F07A
:100B300047FB08F00DFC032382B054280ED8434332
:100B4000DAB2D0430023C0B2FF210A4008401202AB
:100B50000B401B041043184302B07047A92806D865
:100B600055384343DBB2DA430020D2B2ECE75630CB
:100B70005843C0B2C3430022DBB2E5E713B52638C1
:100B8000C0B211280FD80A4A0A4B115C0A4A1B5CF2
:100B9000125CFF2423401800214009022240120465
:100BA0000843104316BD002211001300F1E7C046B0
:100BB0007E9F0111909F01116C9F011137B5002498
:100BC0000325019028006043044B0322C01801A9AB
:100BD000013408F03DFC202CF4D137BD546AFF1FCE
:100BE00010B50C220249034800F0A2FC10BDC0461B
:100BF0001C5EFF1FB46AFF1F10B5084B084A1B7824
:100C0000591C002B03D0074A012B00D0064A074885
:100C10005B001B5A064807F049F810BD3C5EFF1FF9
:100C2000FA9501112A96011160960111405EFF1F8D
:100C30008F960111F8B51D0006AB16001A8807AB98
:100C40001F784B68597818780B4B090201430A202A
:100C5000994210D10130002A0DD1FFF7C1FF3C1C91
:100C60000C2F00D90C24E4B222003000034908F014
:100C7000EFFB00202C80F8BDD4FF00001C5EFF1F9E
:100C8000094B10B50400984205D0012904D1200079
:100C9000064907F0BDFB10BD0229FCD1013904F063
:100CA0002BFD0028F3D0F6E7FEFF0000145EFF1FC7
:100CB000F0B507001C250020AC4603000400802589
:100CC00005410E003D4200D06646DD0E64015B0129
:100CD000013033432C430828F1D1190E5170190CFF
:100CE0009170190A1470D1701371F0BDF7B5050039
:100CF0000E00202700240192310008202A19FFF756
:100D0000D7FF621D31000020AA18FFF7D1FF220093
:100D10000A32AA1831000020FFF7CAFF2200019B07
:100D20000F32002B10D031000020AA18FFF7C0FFAF
:100D30001434013F002FDFD128193900A022A0343C
:100D400008F006F9A0B2FEBD1400F2E7F0B5050AFE
:100D5000070CC0B285B00C004843FF2108F0F0F941
:100D600086B2E8B2FF21604308F0EAF985B2F8B232
:100D7000FF21604308F0E4F97643FE36FF2184B298
:100D8000B0B208F0DDF96D43FE35FF21061CA8B2B4
:100D900008F0D6F96443FE34FF21051CA0B208F028
:100DA000CFF9FF231D401E402D0218402E430004A2
:100DB000304305B0F0BD0000F0B5CDB01C0052AB23
:100DC000049015000E201F88002911D0002A0FD092
:100DD0004B681A785B781B021343CD4A934209D1C2
:100DE000012204980192E3B22A00009707F0EEFF77
:100DF0004DB0F0BDC74A0A209342F9D10130002F0F
:100E0000F6D10230142CF3D822002900C24808F091
:100E10001FFB2100C14806F049FF2100280007F010
:100E2000B3F8BF4E22002900300000F020FB040080
:100E300001282DD1BB49049807F034FB204080B233
:100E4000002804D1B84806F031FF0020D0E739006F
:100E5000F2220FA808F07CF8FFF7C2FE0C2202ABCA
:100E6000DA86B24910A808F0F3FAB14B02AA1B883F
:100E70000FA9938604983A0003F0A2FDAD4C01003F
:100E8000B079737932780090200006F00FFFDCE72C
:100E9000002805D0A848210006F008FF8020A7E719
:100EA000FFF79EFEA54B1B68002B00D185E0A44BED
:100EB00020211800049300F04FFE3378002B5FD000
:100EC0007379180025381C285AD808F001FB340023
:100ED0008500850085008500850085008500B500BA
:100EE000B500B50001014501450145014501450138
:100EF0004501450163015900590059005900590045
:100F00005900590059001D00B2780EAB1A70F278E2
:100F10005A7032799A7071780E98FFF717FF0FABFD
:100F2000020418700002120E000E5A7098700F988A
:100F3000FFF744FE24E00024824B0FAD0593059A91
:100F4000E30010780327C018C0B2FFF7F4FD287043
:100F5000030400021B0E000E6B70A87071782868E5
:100F6000FFF7F4FE6743049B049AD855030400027C
:100F7000D7191B0E000E01347B70B870202CDED107
:100F8000A025714CAD0020212B0022006C4800F000
:100F900011FE0100A84210D1200000F069FD6B4B4A
:100FA00001001C6801341C60002800D110E10022FF
:100FB000624B67481A6006F079FE3479737872796B
:100FC00031780394F47863480294B4780194B47946
:100FD000009406F06BFE38E75A490A78097849B25E
:100FE000002924DB5200D5B21800FFF7C7FD0FAC73
:100FF0002070030400021B0E000E6370A070707856
:10100000FF21684308F09CF880B24043FE30FF2186
:1010100080B208F095F8C1B20F98FFF797FE03046D
:10102000207000021B0E000E6370A0707FE7FF258A
:10103000AD1A6D00EDB2D7E72D2B3BD000252E2B3E
:101040003DD1D133180004933E4B1A781B785BB224
:10105000002B38DB5200D7B2FF23DB1B9BB2FF21F2
:101060005843059308F0BCF8302202AB9B18187067
:10107000059B7D435C43FF21601908F0B1F83122E4
:1010800002AB9B1818700498FF21784308F0A8F869
:10109000322202AB9B18187071780E98FFF756FE3B
:1010A0000DAB187002040002000E120E5A709870F8
:1010B0000D983DE70023FF2504932800C4E7FF2493
:1010C00028000494C0E7FF239B1A5B00DFB2C3E74C
:1010D0001C4B1878030700D552E7C000C0B2FFF7D9
:1010E0002AFD0CAB187002040002120E000E5A709A
:1010F000987071780C98FFF729FE0BAB18700204FA
:101100000002000E120E5A7098700B9810E7C0463D
:1011100002290000D9FF0000285EFF1FC8960111B8
:10112000B46AFF1F145EFF1FEF9601111C5EFF1FC4
:101130007E3EFF1F369701117F970111D067FF1F79
:10114000546AFF1FAC67FF1FD467FF1FA867FF1F0C
:10115000AF97011126980111254A1278120700D580
:101160000EE71800FFF70AFD0AAB18700204000230
:10117000120E000E5A70987071780A98FFF7E6FD0B
:1011800009AB187002040002000E120E5A7098701B
:101190000998CDE62420164B1B781B095843C0B292
:1011A000FFF7C9FC08AB187002040002120E000E13
:1011B0005A70987071780898FFF7C8FD07AB1870DF
:1011C00002040002000E120E5A7098700798AFE6E3
:1011D0000120084972796143C1410748337881424F
:1011E00000D9EAE62100054806F060FDE5E6C046C4
:1011F000AC67FF1F295C8FC251B81E05F59701111E
:1012000010B50E4800F002FA0021072006F048F958
:101210000221072006F05EF80021032006F040F9C5
:101220000221032006F056F80021042006F038F9C8
:101230000221042006F04EF810BDC046AE67FF1F25
:1012400073B5072006F026F80400032006F022F804
:1012500001250600042006F01DF86C406E40E2B245
:1012600045401E4CEDB220001D49F3B2009500F040
:10127000D5F9002801D0FFF7B3FC1A4B1B68002BEF
:101280000FD0194A13780133DBB2012B0AD813703F
:10129000FA21164A4900138801339BB28B4210D2BF
:1012A000138073BD0023C8201370114B80001A787F
:1012B000104B50435100C95A0F4BC01800F0D8FBD7
:1012C000E6E700230A4C138020780321013008F060
:1012D000AFF82170FFF790FCE3E7C046AE67FF1F51
:1012E000B46AFF1FD067FF1F3D5EFF1F3E5EFF1FFA
:1012F0003C5EFF1F405EFF1F465EFF1FF0B53D4C8A
:1013000085B0200000F0A2F800233B4AE370137080
:101310002022237162704133DF32A2706371FFF7C4
:101320005FFC3649364807F073F8364804F066F932
:10133000354800F073FB43424341344F344D3B602A
:10134000002800D1334D00F0F5FB040000F0FEFB57
:10135000060000F0F5FB03002B4A009301923300D6
:10136000220029002C4806F0A1FC3B68002B24D069
:101370002A4B0022180018210393FFF7B7FC284DD1
:1013800004000022102128802648FFF7AFFC01222C
:101390006880060010212448FFF7A8FC63425C41E6
:1013A000A880E4B2002E03D0002801D0002C0BD07E
:1013B00000231E483B6006F079FC06211C4A1D48AC
:1013C00006F0E8FF05B0F0BD1B4B1C4E1C801C4B0B
:1013D0001C481C70347006F069FCFFF70DFCC82037
:1013E0003378800058435A00039B515BC01800F0CB
:1013F0003FFBE2E7B46AFF1FAC67FF1F145EFF1FED
:10140000FFFF0000810C011100093D00D067FF1FA4
:1014100069980111669801116E980111465EFF1FCF
:10142000405EFF1F6661FF1F8664FF1FBC980111AD
:10143000A49F0111343EFF1F3E5EFF1F3C5EFF1F55
:101440003D5EFF1FE59801117047704700280DD0E1
:101450000123FF2203707F33437000230271BE3AE1
:101460004271293A8370C3708271C371704703005F
:1014700010B50220002B0DD000290BD0032A1CD15F
:101480000C78EF2C07D1487801284FD18B78772B37
:1014900000D0033010BD0420CC2CFBD18C78332C31
:1014A000F8D14978232903D101221A700020F1E7ED
:1014B00010002429EED10022F7E7072A1ED10A786E
:1014C0000420562AE6D18A79AA2AE3D14A79F02A59
:1014D0000CD14A789A708A78DA70CA781A71FF2229
:1014E0005A70BE3A5A710022DA71DFE703200F2AE0
:1014F000D0D10A799A70DA700A79EFE70420824233
:10150000C8D10C781000BB2CC4D1CA78442AC1D1F0
:101510004A7803201400253C132CBBD85A718978D3
:101520000A1C002900D101229A71DCE70420B1E7EE
:10153000030010B5002823D0081E21D000200B2A5C
:101540001ED966220A70513A4A701A785442624192
:1015500023328A705A79CA7020220A715A79412A34
:1015600000D0987948719A780C208A71DA78CA711B
:101570001B790B7200234B7206338B729333CB7241
:1015800010BD000002788A4204D0012301708370EC
:10159000002070478378032B18D80133DBB28370A7
:1015A000042BF5D143789342F2D04270002A05D043
:1015B00000238380C38003720120EAE7037A8280DC
:1015C000C2800272584258414000E2E74378002B43
:1015D000DED083880C4A934201D001338380037AA2
:1015E000002B07D182883B2AD2D901220272C38004
:1015F0000320CEE7C38801339BB20E2B01D8C380F2
:10160000C6E70023F3E7C046FFFF000010B500283F
:1016100003D02022002107F09BFC10BDF7B51E006F
:1016200008AB1B780C0005001100019300283DD089
:10163000201E3BD02800FFF7A5FF0700280031003F
:101640000A30FFF79FFF0600280001991430FFF7CA
:1016500099FF02000020012F04D12378380059425D
:101660004B412370022E22D107210320AB7F01338F
:101670000B401C49AB7758430B00C35C0918A3709F
:101680004123637100234E788978E6702171E371FC
:101690000120022A18D1EB7F013201331340124A94
:1016A000EB77D35C63710023E3710120FEBD032E51
:1016B000EFD16378202019002039C9B29F2901D8C1
:1016C0001B18D8B26070E3E7032AEFD1A379202179
:1016D0001A00103AD2B2CF2A01D85B18D9B2A17140
:1016E000E3E7C046C69F0111C29F0111F7B5051E71
:1016F00000D180E08423424A5B0111680B431360F0
:101700004023404A11680B4313608023DB051A68AD
:101710003D490A401A608022196852010A433B4938
:101720001A600A683A4B1A40B0235B0313430B60FC
:101730008023384ADB0311680B431360364B98470C
:101740006B000600834259D868082900801907F009
:1017500047FD324B0400984249D91C00E3071ED5CF
:101760002300032C00D20323013B01932C4B9C420A
:1017700000D91C000199300007F032FD0700013448
:101780002100300007F02CFDEA1BBD4200D27A1B7D
:101790002B1A854200D2431B9A4200D8019C002597
:1017A0000822204BFF321D701F4B30001A8022236D
:1017B0001E4A1F4F11680B4313601E4B21001C6013
:1017C0001D4B1E601D4B1C6007F00AFD04231C4AC4
:1017D000386013601B4A280015601B4A15601B4ABD
:1017E00013601B4B0F4A1D7001231370FEBD0228AE
:1017F000B4D20224B2E701204042F7E70220FBE71F
:101800000800004014000040FFEFFFFF2C380040AC
:10181000FFFFC0FF0C380040D1A50000FEFF000014
:10182000FDFF000008700040007000402C300040B8
:10183000D072FF1F14700040D472FF1FCC72FF1FC4
:10184000187000402C7000404C70004050700040F8
:1018500010700040034B10B51868002801D0FFF746
:1018600045FF10BDD872FF1FF0B53A4989B00B880B
:10187000394C9AB20092002B44D023880A889B1AD4
:101880009BB2002B38D080221D1C1201934201D341
:10189000324B1D8802241422002103A807F058FBB4
:1018A0002F4B2C4F1B783A889B029B182D4A2E4EAB
:1018B0009B18049302AB1C732C4B04220693012348
:1018C000ADB2029502A90B7533680020A3433360C3
:1018D000274B1A6005F0ECFA002836D13B885B19DB
:1018E0009BB23B8005F0FCFB002831D133680099A6
:1018F0001C433460002902D101221E4B1A700020C3
:1019000009B0F0BD0220009A1A4B1A70164A1368EB
:101910008343136023880630072B01D8208880B2C8
:101920000F4A002301920F4A104F94468342A4D0DD
:10193000019A013312780E8892026244925D751CFE
:10194000ADB20D809BB23A60F0E70A204042D7E783
:101950000B20FBE7C26AFF1FC46AFF1FDE9F011155
:10196000C86AFF1FCA6AFF1F4C70004060700040C9
:1019700050700040107000401C491D480A880388C0
:1019800070B59A4202D2FFF76FFF70BD0124194B68
:10199000194A1578254202D0013B002BF9D10023CA
:1019A000164A174C1370226801322260154C2278B7
:1019B0009A420BD100220221134B0C201A70134AB9
:1019C00013688B43136007F04BFBDEE7104A114DA1
:1019D0001278D2B22A70104A128892B202800B801A
:1019E0002370FFF741FF0028E4D1CEE7C26AFF1F52
:1019F000C46AFF1F214E0000287000401070004094
:101A0000BC6AFF1FC76AFF1FC96AFF1F4C700040F6
:101A1000C66AFF1FC86AFF1FC06AFF1F37B50500EF
:101A2000FFF764FE041E18D10E4B01000E4A0C2075
:101A30001D6007F095FB00280DD105F0C1FB0028C3
:101A40000DD16B461C700949009805F015FA041E6B
:101A500003D0052400E00324644220003EBD04249A
:101A6000FAE7C046D872FF1F551801117919011104
:101A7000F7B505000C00002847D0002945D0802389
:101A8000DB00994243D807F0BBFB224EA3B2327869
:101A900001932148214BD7B2002A22D129002200EC
:101AA0001F7007F0D5FC1E4B019A0C201A801D4BAD
:101AB0001F800123337007F0EBFC051E05D0377043
:101AC000032407F0ADFA644209E0FFF7CDFE041EDF
:101AD00017D00C20357007F0C3FA07F0A1FA2000E8
:101AE000FEBD01271E7822007E40B302C0182900E7
:101AF00007F0AEFC0C4B019A1E700C4B1A800C4B7D
:101B00001F7007F08DFA0024E9E70124DBE70224C7
:101B1000D9E7C046C96AFF1FCA6AFF1FC86AFF1F0C
:101B2000C46AFF1FC26AFF1FC66AFF1FC06AFF1F89
:101B3000C76AFF1F014B18687047C046D472FF1F69
:101B4000014B18687047C046D072FF1F014B1868E0
:101B50007047C046CC72FF1F0B00002805D0032140
:101B6000594300234118884200D1704703704370E5
:101B700083700330F7E7F0B500221C240600130041
:101B800010001827A446802414413D00344200D0A0
:101B90006546DC0E40015B0101322B432043082ADD
:101BA000F1D11A0E4A701A0C8A701A0A0870CA709B
:101BB0000B71F0BDF0B504001500070085B00028DA
:101BC00019D0171E17D00F224A431700A0370192D1
:101BD000BB4223D303232E004B43C318029333008D
:101BE0000F330393029B9C4208D1019BA02200214A
:101BF000E81807F0ADF9380005B0F0BD31006078A5
:101C0000FFF7B9FF2078711DFFF7B5FF3100A0780D
:101C10000A31FFF7B0FF0334039EE0E70027EAE74D
:101C200070B5160004AA148805AA15784A68507879
:101C3000117800022A4A0843801805284BD807F07B
:101C40005FF903131E29343F07221000062C0AD81F
:101C5000121BAA4200D92A0022491A803000091911
:101C600007F0F6FB002070BD0720112CFBD81222D4
:101C7000121BAA4200D92A001B491A80EEE707204E
:101C80000E2CF0D80F22121BAA4200D92A001749A5
:101C90001A80E3E70720032CE5D80422121BAA428E
:101CA00000D92A0012491A80D8E70720032CDAD875
:101CB0000422121BAA4200D92A000E491A80CDE73D
:101CC0000720022CCFD80322121BAA4200D92A00D7
:101CD00009491A80C2E700220A201A80C3E7C046D9
:101CE000DCD5FFFF0AA00111DC72FF1FFA9F011172
:101CF000F59F0111F09F0111EC9F011110B50D210D
:101D0000024A034806F046FB10BDC046E09F0111A1
:101D1000943EFF1F10B5084CE368002B08D18022C9
:101D2000064B52021B689B186360054B1B682360BF
:101D300007F02EFBA06010BD1873FF1FC8F0004015
:101D4000CCF0004070B5184A936A916A9942FBD171
:101D500016498A689A421FD39A1A8B60144B01263F
:101D6000186893B2D202D20E4343424300204C681B
:101D70001B0A1B1912029B180E4C0A684B60551C5B
:101D8000A3420CD8002801D04B600A600A4A1360B5
:101D900008680A4B186070BD581E821ADDE7084AB1
:101DA00030009B182A00EAE700F000401873FF1F7C
:101DB000140AFF1F40420F00C8F00040CCF0004062
:101DC000C0BDF0FF70B51F4C23793F2B01D93F23D5
:101DD00023711D4B22791A701878C0B207F070FB7E
:101DE00018231A491A4A0B801A4913800B80538012
:101DF000A379194980200B800C21938001334B4338
:101E0000164D191C0001834200D9011C2980D18084
:101E10006379002B01D101336371237A012B01D83F
:101E2000022323726279237A0D4853430A215843CF
:101E300007F086F90B4D2860E379052B01D81023B4
:101E4000E37170BD0C73FF1F480AFF1F7E3FFF1F29
:101E5000B040FF1F7C3FFF1F7A3FFF1F783FFF1FEF
:101E600071020000FC72FF1F064B70B51900064A94
:101E700031CA31C120225A7100229A71FFF7A2FFA4
:101E800070BDC0460C73FF1F2CA0011170470000ED
:101E900070B50400013806280DD807F031F8041396
:101EA00037571F0C59002B4805F000FF2A4B022121
:101EB000187807F0B5FA294B210029481C7005F065
:101EC000F5FE70BD274805F0F1FE234B0821187878
:101ED00007F02EF80022244B1A72ECE7802200252E
:101EE000214B52001A81FA22DD72204B1A4E5B7A86
:101EF000920008215A43307807F09AF92900307887
:101F000007F0E6F81A4805F0D1FED4E7194805F0C5
:101F1000CDFE114B0821187807F00AF81648FEF795
:101F2000B7FD124B154A9B799380154A1380002206
:101F30000D4BDA720132FF321A81124B1B78002BE3
:101F4000B9D0114A136007F07BF9B4E70F48DAE71C
:101F50000F48D8E7199901112D73FF1F2C73FF1F2C
:101F60009799011128990111FC72FF1F0C73FF1F33
:101F70003C9901114F990111893FFF1FB040FF1F8C
:101F80007A3FFF1F0873FF1F34F00040669901116C
:101F9000879901110300F0B50A4D8E18B14202D1A4
:101FA00052008018F0BD0C782F6824093C5D0F2783
:101FB0001C700C7801313C402F683C5D5C70023332
:101FC000ECE7C046743FFF1F10220F4B10B51A708C
:101FD0000F230E4C0E492370093A063B0D486370DF
:101FE00007F036FA2D2301220B490C486372FFF7E4
:101FF000D1FF01220A49FFF7CDFF01220949FFF76E
:10200000C9FF0023037010BD3275FF1F1375FF1F3A
:102010000AA001111575FF1F6709FF1F1D75FF1F1E
:102020006609FF1F6509FF1F10B5FFF7CDFF084CBC
:10203000084B207821000130C0B2187007F058F822
:102040002178054A0139C9B2002006F0C1F810BD57
:102050001375FF1F3275FF1F1575FF1F10B5114B4C
:102060001A781870002A0ED000280BD10E4B1A785F
:10207000062A07D85423D340DB0703D50B4B187827
:1020800001F07CFE10BD0028FCD0074B1B78012B13
:1020900002D0033B022BF5D8044B0121187807F03E
:1020A000BFF9EFE73675FF1F5D75FF1F5E75FF1FF8
:1020B000F0B5664B87B01870654805F0F7FD6548C8
:1020C00005F0F4FD644805F0F1FD06F099FF0322E8
:1020D00062496348FFF75EFF2D24030088211C70CE
:1020E000042249050130FFF755FF30230222047016
:1020F000437083705B4C5C4B2000DA875B49043291
:10210000FEF748F9062813D0200007F0C9F8022886
:1021100009D00321200006F043FF8D23E3706E3BBE
:10212000237119336371062220005049FEF76CF8C1
:102130004F4B01251B68FC335C64FFF775FF0723D9
:102140004C4E4D4C3370053B23700433A370033B5E
:10215000E3702371D233637148492A33484865706C
:10216000A37105F0A3FD6423464F4748797959438D
:1021700005F09CFD2178A37862780591A179434808
:1021800003916179029121790191E178009105999A
:1021900005F08CFD0020FFF761FF32783C4E2300F4
:1021A0002900307801F0ACFD3A4A00213A4B127810
:1021B000307801F0A5FD6422384B244C1D707B79EA
:1021C00053431900284A0A3193811382D1815182E5
:1021D0002078202107F084F80120404206F044F8DE
:1021E0000120404206F0E0F8FFF788FDFEF724FCEE
:1021F0002B4805F05BFD01204042FFF77FF8FEF71A
:10220000FFFF80210A222078090107F011F8FA2245
:10221000802192004901207807F00AF8280006F092
:102220008FFEF02000F022FF2900207807F0F8F858
:10223000207801F01FFF1B4806F0FAFEFEF796FB20
:10224000194805F033FD07B0F0BDC0462D73FF1FE0
:10225000A6990111D4990111EF9901112440FF1F92
:10226000DC72FF1F6509FF1FB03FFF1FADAC000010
:102270006C75FF1FA83FFF1F893FFF1F1575FF1FCC
:10228000059A01110C73FF1F189A0111359A01115B
:102290005E75FF1F3275FF1F1375FF1F0475FF1F4B
:1022A000689A01112E73FF1F959A011173B52023AF
:1022B0000E000D001E40194217D04F4A137A013309
:1022C00013724E4A1368013313604D4A1368013389
:1022D00013604C4B1A78002A04D101324A481A7014
:1022E00005F0E4FC2020684076BD0BB2002B15DA27
:1022F000464B187807F014F8041E0CD00378912B85
:1023000006D143780E2B03D18188414805F0CEFCDD
:10231000200006F03DFF80200002E4E70224214275
:1023200009D03C4805F0C2FC334B01201E72FFF778
:1023300095FE2000D7E70824214207D0364805F053
:10234000B5FCFFF7FFFCFEF711FBF2E7CB0615D556
:10235000324B33481A7AD98805F0A8FCFEF707FB00
:10236000304B1B78002B07D1FEF77AFB2E4B1B68F6
:10237000DB0701D5FFF769F81020B4E701240E0050
:102380002640214208D0294805F090FC284800F05A
:10239000A9F806F065FFCCE7CB041AD5254B264AF1
:1023A000196801311960254B4B43E34193420DD825
:1023B0001C4A134C1278114B0192214A2148127881
:1023C00000921B68226805F071FC266080204001A5
:1023D00089E780242401214202D0FEF731FFA8E7DB
:1023E000042408002040214200D17DE7164805F072
:1023F0005DFCFFF729F89CE7FC72FF1FF074FF1FDC
:10240000EC74FF1FEA74FF1FC09A01112D73FF1FA8
:10241000DF9A0111089B0111379B0111F072FF1F18
:10242000429B01113675FF1F0C73FF1F569B011154
:102430006C3FFF1F2873FF1F99999919CDCCCCCC05
:102440002C73FF1F719B0111B99B0111F0B51B4B40
:102450001B4F1B883A8804001A4E1B4D85B09A42C8
:102460000DD832889A420AD3184B1A882B889A4280
:1024700005D1174A174B12881B889A421BD005209A
:1024800000F050FE3B8802AA1380338801905380ED
:102490002B88114D93800F4B02A91B88D3800F4BC3
:1024A0002A78188802F096FB0D4B08212878019AAB
:1024B0001C7006F065FF05B0F0BDC0460275FF1F39
:1024C0007E3FFF1F7C3FFF1F7A3FFF1F0075FF1FEE
:1024D000FE74FF1F783FFF1F5E75FF1F803FFF1FC9
:1024E000FC74FF1F13B50C4B1C78002C11D1002875
:1024F00001D00A4B18600A4A0A4B11780A4A107830
:102500000A4A01920A4A0092002205F051FD200079
:1025100016BD1124FBE7C0465D75FF1FF874FF1F51
:102520005C75FF1F4C75FF1F5E75FF1F3875FF1F21
:102530003C75FF1F10B5064B12201B78052B06D1EA
:10254000044B13221988044B187800F0C7FF10BD04
:102550005D75FF1F803FFF1F5E75FF1F10B50024D4
:102560000122114B52421870104B1C70104B1A80F4
:1025700001F080FD04220F4B21001A700E480C322E
:1025800006F01EFF102221000C4806F019FF07225A
:102590000B4B1C600B4B1C700B4B1C700B4B1A70C5
:1025A0000B4B1C7010BDC0465E75FF1F5D75FF1F95
:1025B000803FFF1F5C75FF1F4C75FF1F3C75FF1FA1
:1025C0003875FF1F1275FF1F1175FF1F823FFF1F18
:1025D0001075FF1FF8B5174C0600257806A81424BF
:1025E0000078052D23D1B41F134FA5B21824BD4286
:1025F0001DD88D1FADB2BD4219D8FA256D00AA4273
:1026000015D21D000D4F0A3DADB2BD420FD80C4C86
:1026100026800C4C21800C4900240A800B4A138030
:10262000FFF714FF0A4B0421187806F081FC200004
:10263000F8BDC0465D75FF1F790C0000750C0000E9
:102640007E3FFF1F7C3FFF1F7A3FFF1F783FFF1F2A
:102650005E75FF1FF0B50BB20D0089B0002B00DBDB
:1026600084E1AC4E307806F05BFE041E2DD003787A
:10267000A22B00D133E1D02B2CD0912B22D1437847
:102680000E2B1FD18388A44A934211D1A34A836899
:102690001278052A16D1032018567F2812D0A04B95
:1026A0001B68002B0ED05B68002B0BD0984709E00D
:1026B0009C4A934206D181689B488B784A78097876
:1026C00005F0F4FA200006F063FD80200002684067
:1026D00009B0F0BD80780728F4D806F079FC08002E
:1026E000F3FF1C003C003C007300A700D700637898
:1026F000002B0CD10121894B19708C4B1A78002AC0
:1027000054D08B4B307801F0FBFA00284ED00722D2
:10271000824B1A704AE061780029F8D1E378002BE7
:102720000AD0844A844B1278307801F0E9FA60705C
:102730006378002BC6D0EAE7784B1B78022BC1D018
:102740000121307806F06CFD0028F1D101213078AC
:1027500006F066FEECE76378002BD8D16F4F0328B4
:1027600007D13B78052B02D101333B701EE00223D9
:10277000FBE7724B1A88724B0293002A0BD01B782E
:10278000002B03D00121307806F0FAFD3B78062BB0
:1027900004D1013BE9E7029B1A70F7E7042B43D110
:1027A0000121029B3078197006F03AFE5C4B1B68E1
:1027B000002B00D186E71B68002B00D182E7574A27
:1027C000107873E76378554F002B27D10622211D1F
:1027D0005C4806F03DFE62895B4B5C491A80A28929
:1027E0005B4B1A80E3890B800521397059490A80B7
:1027F000594A1380228A594B1A80594B1B78012B56
:1028000009D11F2000F08EFCFA22920042430421DD
:10281000307806F0B5FD0022494B7AE7312B00D025
:1028200075E70022464B1A7003239EE7062200211B
:10283000444806F0C5FD0023464A04211380464A59
:1028400030781380454A138006F072FB08213078F7
:1028500006F06EFBA379083B5A4253412F4A0333DB
:102860001370324B1B78002B06D0354B30781A781A
:10287000002A06D001F082FA0122334B52421A801C
:1028800094E70121197006F0CBFDF5E708213078B7
:1028900006F04EFB6378002B00D013E72D4B2F4F33
:1028A0000293E388029A042113802B4B3078039320
:1028B0002389039A138063893B8006F0B1FC0028CA
:1028C00000D0FFE6274B1B68002B00D1FAE60399E6
:1028D00002983A88098800881B689847F2E643798D
:1028E000132B00D0EEE60389012B0AD11E4B1B7877
:1028F000022B06D10821307806F01AFBFFF71AFEEA
:10290000E0E6052000F00EFC08210200307806F019
:1029100037FDD7E65E75FF1F051400005D75FF1FCC
:10292000F874FF1F22200000DB9B0111A83FFF1F4E
:10293000893FFF1F3275FF1F1375FF1F3475FF1F7F
:102940003675FF1F0575FF1F803FFF1F0C75FF1FAA
:102950000E75FF1F0275FF1F0075FF1FFE74FF1F1E
:102960000475FF1FF474FF1FFC74FF1F8020C0015B
:10297000014200D0ABE6CB0731D5324B1B78002BA0
:102980001DD0314E05AC3378052B1AD1023B237094
:102990002E4B21001B7823722D4B1B7863722D4B1D
:1029A000187801F051F9002809D007202A4B30701F
:1029B0001B68002B03D01B68002B00D09847012018
:1029C00085E60E20254B06221B7825492370254BD2
:1029D0001B78637002ABC01806F03AFDD8E70223FB
:1029E00008001840194209D0174B1B78052B03D15A
:1029F0001D4B188806F00CFD022068E604242142D5
:102A000003D0FFF723FD200061E6082308001840EB
:102A1000194200D15CE6154B1C78012C03D0022C26
:102A20000DD0082053E6124B124A134913481B8855
:102A30001288098800880094FFF7CCFDF1E7FFF7C2
:102A400079FDEEE73675FF1F5D75FF1F823FFF1FA3
:102A50001075FF1F5E75FF1FF874FF1F1275FF1FB3
:102A6000833FFF1F1175FF1F803FFF1FFC74FF1F77
:102A7000783FFF1F7A3FFF1F7C3FFF1F7E3FFF1FF6
:102A800010B5034C0B000122210000F06BFA10BDC1
:102A9000412C01110B8870B506000D000224162B85
:102AA00011D92B000322094900F05CFA041E0AD157
:102AB000074B2A881B88191C934200D9111C30002F
:102AC00089B200F0EFFA200070BDC0466D2C0111F4
:102AD0007275FF1F10B54A780400013A0B000220FE
:102AE000012A07D80A78002A04D0052220000249CA
:102AF00000F038FA10BDC0469B2C01110A7810B5C1
:102B00000B0004000220002A04D007222000024902
:102B100000F028FA10BDC046472D01110A7810B503
:102B20000B0004000220002A04D0092220000249E0
:102B300000F018FA10BDC046AD2D011110B5034CC0
:102B40000B000B22210000F00DFA10BDDD2D01114C
:102B500010B5034C0B000D22210000F003FA10BD4C
:102B60004F2E011110B5034C0B000F22210000F075
:102B7000F9F910BDA92E01110A7810B50B00040057
:102B80000220002A04D011222000024900F0EAF9B4
:102B900010BDC046B92E0111002310B51322190033
:102BA00000F0E0F910BD000010B5034C0B00172237
:102BB000210000F0D7F910BD0B2F0111002310B533
:102BC0001922190000F0CEF910BD000010B5034C19
:102BD0000B001B22210000F0C5F910BD452F01118B
:102BE000F7B584890D0006000121002C22D00023B6
:102BF0008268D3561778002B1EDA0C2C1AD90C3C9D
:102C0000A4B2131940880093230002F012FF431E60
:102C1000984101307B06DB0F6B703F23013C1F4066
:102C2000A4B22870AF70AC80002C07D0B368013319
:102C3000AB6000210800FEBD0020EBE7AC60F8E7C8
:102C40000B7803704B8843704B881B0A83700B7999
:102C5000C370042070470420022B06D10020537853
:102C600011781B02009A0B43138070470B88037086
:102C70000B881B0A4370022070470420009983428E
:102C80000AD1537810781B0203430B80D3789078D5
:102C90001B02034300204B807047F8B50D004B78B2
:102CA00001240021461C03702B788B4201D82000A0
:102CB000F8BD6B78B01C4F1C012B10D1890069182E
:102CC0004B88022233704B88B9001B0A7370691855
:102CD00006F06EFA04360434A4B2F9B2E4E7122323
:102CE00059436B185A88043132705B8810221B0AD2
:102CF0007370691806F05CFA12361234ECE770B59E
:102D0000049D14001E00052B01D8042070BD6378BB
:102D100012781B0213432B80E378A2781B02134323
:102D200002226B802A71211D681D063E06F040FAC2
:102D3000B2B22A81E92AE8D82800A11D0A3006F09B
:102D400037FA0020E2E7002310B50A789A4201D84A
:102D5000900010BD9A008A1854880133047054887A
:102D6000DBB2240A4470948884709288120AC2707C
:102D70000430EAE710B51100029C062B04D00420B1
:102D80001022142B01D010BD022222714B7808783A
:102D90001B0203432380CB7888781B0203436380A4
:102DA0000431601D06F004FA0020ECE710B50C7841
:102DB0008B7804315C43E4B203702200013006F0EA
:102DC000F7F9601C10BD0420022B06D100205378B7
:102DD00011781B02009A0B431380704710B50C004A
:102DE0000A88023106F0E4F9208810BD70B50400AD
:102DF0000D0004981100012B01D8042070BD167835
:102E000052781202324302800200F132557014707F
:102E1000E125002C00D10C35023B9AB24280AA4237
:102E2000EBD80231043006F0C3F90020E6E70420B5
:102E3000009983420AD1537810781B0203430B8018
:102E4000D37890781B02034300204B80704710B565
:102E50000C000A88023106F0ABF9208810BD000092
:102E600070B501211E000420049C0E400B4218D1B5
:102E7000CB40DDB28D4214D90A49DBB209889942B0
:102E80000FD32300EE331D7033005800111849781A
:102E9000165C0902314301332152D9B28D42F4D874
:102EA000002070BDAA3FFF1F10B50C000A88023138
:102EB00006F07EF9208810BD10B50C788B780431AF
:102EC0005C43E4B203702200013006F071F9601C2B
:102ED00010BD10B511000298032B01D8042010BDBD
:102EE00014785278043B120222430280CA788C780C
:102EF0001202224342809AB28280EB2AEED8043139
:102F0000063006F055F90020E9E710B50C000B88F3
:102F100003700B881B0A43704B8883704B881B0A15
:102F2000C3708A880430063106F042F9A088043064
:102F300080B210BD0420012B03D100201378009A29
:102F40001370704710B50C000B8803700B881B0AB8
:102F500043704A880230043106F02AF96088023052
:102F600080B210BDF0B589B003931E4B02924200AF
:102F70000700D05A019102F050F81325061E2DD0FB
:102F8000029B01240370019B002B04D000190399BC
:102F90009847001984B26B461B7A5BB2002B0FDA9C
:102FA0001021380002F0A8FB1925002813D13000A9
:102FB0003219E1B202F0F2FC051E0CD10C34A4B2BD
:102FC000042304AA380005A993800696948101F091
:102FD000DFFD051E02D0300006F062FA280009B0BD
:102FE000F0BDC0467075FF1F70B505000C000028CD
:102FF0000CD00020814209D010222000044906F0A4
:10300000D7F801202B7823736B78637370BDC046AB
:1030100038A00111F0B506000D0017001C0085B0A6
:1030200002291BD00020102907D1022B07D0102B1A
:1030300003D115E00020102C08D005B0F0BD694682
:103040003800FFF7D1FF2A0069460BE069463000DF
:10305000FFF7CAFF22006946380004E0022BE9D1DD
:103060002A003900300006F023F9E6E7031CF028B7
:1030700000D9F023032008499AB2013A0B80D317F4
:10308000034006499B189B100B80D30F04499B18E3
:103090005B100B807047C046AE3FFF1FAC3FFF1F69
:1030A000AA3FFF1F054B10B51B888B4205D3044B6D
:1030B0004000C152034804F0F9FD10BDAE3FFF1FB0
:1030C0007075FF1FEE9B0111014B4000185A7047AD
:1030D0007075FF1F1722014B1A8070477075FF1F14
:1030E00070B505000E2006F013F8041E13D0D0238F
:1030F000037000230622837007494570033006F0F1
:1031000057F8064B2100DA8A62811B7E2373044B39
:10311000187806F0BDF870BD8C75FF1F7C75FF1F19
:10312000FE3FFF1F262803D8024B4000C05A7047BD
:103130000148FCE7B03FFF1FFFFF000070B506002D
:103140000C00094D1C220021280006F039F9074B1C
:103150001E70074B1C7006F03BF80123002801D0BD
:10316000002312202B7070BD7C75FF1FFE3FFF1FD8
:103170009D75FF1F70B505000D4C0800E260A16051
:1031800010220021656006F0C3F9012803D1102147
:10319000A06802F004FE10220021280006F0B8F911
:1031A000012803D11021606802F0F9FD70BDC0460E
:1031B0007C75FF1F70B5041E05D1002903D00622BF
:1031C0000D4805F0F5FF0D4B1D78012D11D1002C98
:1031D00005D102221A7006F093F8280070BD002273
:1031E0001A70074B1B78FF2BF7D02000FFF778FFF2
:1031F000F3E70025F1E7C0468C75FF1F7C75FF1FC4
:10320000FE3FFF1F030010B5002801D1002010BDB4
:1032100000780B4A002803D15988D1821B79137694
:103220001378022BF2D10023984200D1033313709C
:10323000044B1B78FF2B01D0FFF752FF0120E6E77C
:103240007C75FF1FFE3FFF1F002911D000280CD006
:103250004B79012803D140225242134303E03F221D
:103260001340032802D001204B7170474022F4E73D
:103270000800FAE770B5094D0100287800280BD046
:10328000074C0622200005F093FF21002878FFF765
:10329000DBFF200005F0ECFE70BDC0469C75FF1FF3
:1032A0007675FF1F00290AD0012808D13F224B79EB
:1032B0009343C02B03D0403B5A425341981C704764
:1032C00070B5174D06002B78FF2B15D00A2005F09E
:1032D0001FFF041E10D0D0230370C83B8370114B16
:1032E00011491B784670C3700622043005F060FF58
:1032F0002100287805F0CCFF0C4B1B78012B0DD159
:103300000B4B1B68002B03D09B68002B00D0984709
:10331000084B04211878084A05F08AFF70BDC046A2
:10332000FE3FFF1F9C75FF1F7675FF1F9875FF1FDF
:10333000C475FF1FC875FF1F60EA0000014B986845
:103340007047C0467C75FF1F014BDB6818687047EB
:103350007C75FF1F074B10B5DA68136801331360E3
:10336000054B1878FF2803D08021C90106F058F8D2
:1033700010BDC0467C75FF1FFE3FFF1FF7B50E0056
:1033800002F04EF9051E1CD00E4B06621F78002F6E
:1033900000D10778AB791020019305F0B9FE041E27
:1033A0000FD0D0230380C73B8370019BE91DC370FE
:1033B0000622043005F0FCFE21003800E66005F02E
:1033C00067FFF7BDFC3FFF1F014B18787047C046F1
:1033D0009C75FF1F054B002805D1054B1A78054B3E
:1033E000002A00D1014B18007047C0468C75FF1FA2
:1033F0009C75FF1F7675FF1F014B58687047C046CC
:103400007C75FF1F024B1868431E9841C0B270477D
:10341000A075FF1F421E03000120152A03D9FF3BA0
:103420005A425341D8B27047F0B51C0000230E0039
:1034300085B0039002920B70029A934201D3002050
:1034400019E0E55C5A1CD2B2002DF8D0029851194F
:103450008142F4DC0233DFB2A35C18000193FFF772
:10346000D9FF002807D0013D019A0399EBB23370D0
:103470008A4202D1E01905B0F0BDDB19DBB2DBE70F
:1034800010B50C0002F024F903001220002B03D029
:103490002100588805F084FF10BD000070B50E4D66
:1034A00084006359002B15D0186A002801D005F05C
:1034B00047FF2B59586A002801D005F041FF2B59CE
:1034C000986A002801D005F03BFF285905F038FF25
:1034D00000232B5170BDC046AC75FF1F1C4B70B54F
:1034E00004000E00150099420AD11A4B1B68002BEC
:1034F00001D1122070BD1B68002BFAD09847F9E764
:10350000154B994215D1134B1B68002B0AD01B6831
:10351000002B07D09847002804D1104B1C70104B8B
:103520001D70E7E729002000FFF7AAFF0028E1D17E
:10353000F3E7080002F074F80028DAD003780320DB
:10354000A342D7D12900300005F02AFFD2E7C046B8
:10355000FEFF0000A875FF1FFFFF0000A575FF1FFD
:10356000A475FF1FF7B50400808802F059F8002504
:10357000A84203D00578A08802F08EF81C4E33785C
:10358000002B1FD0AB421DD11A4B28001978FFF732
:1035900077FF002818D000233370A3790820A7787C
:1035A000A688019305F0B4FD011E0DD0D023037051
:1035B000CA3B8370019B477086808371280005F0A9
:1035C00067FE01E0002DE8D1A0880B4B8200D358A4
:1035D000002B01D0FFF762FF1721A088FFF762FDE3
:1035E000A08801F057FDA08801F062FEF7BDC0463B
:1035F000A575FF1FA475FF1FAC75FF1FF0B587B041
:103600001D000CAB1B88070001930DAB1B88142019
:1036100002930EAB1B88160003930FAB1B8800911F
:10362000049310AB1B88059305F072FD041E1AD09D
:10363000D0230370CB3B47708370C67006222900ED
:103640000430002D11D005F0B3FD019B21006381F2
:10365000029B0098A381039BE381049B2382059B2B
:10366000A37405F015FE07B0F0BD05F0A9FEECE768
:10367000F7B5009308AB1B8807000C200D0016005F
:10368000019305F045FD041E13D0280001F0C8FF8A
:1036900000280FD00078D0232370C93BA370009B73
:1036A00021002381019B6770A580E680638105F07E
:1036B000EFFDF7BD014B1878EDE7C046FE3FFF1F59
:1036C00013B5040064890389C2888188C078009496
:1036D000FFF7CEFF13BD000010B5044C2068002892
:1036E00003D005F02DFE0023236010BDB075FF1F31
:1036F000A122F0B5818892004A43384B384F1B68AD
:1037000004009B189D2292009B18827989B01A6050
:103710003B68002B5FD01D78324B1B68002B04D018
:103720005B68002B01D00020984726000836310046
:10373000E079FFF7B7FD237DE0710200E0780493A4
:10374000638A29000393238A0293E3890193A38860
:1037500000933300FFF752FFE378002B0BD1E2898F
:10376000A379A18802920196E279280000920122B1
:1037700001F060FFE0703B68002B20D0FFF7ACFF4A
:10378000194D287800281AD0184B1978FFF778FEC1
:10379000002814D02B78E67808200793A78805F036
:1037A000B7FC011E09D0D0230370CA3B467083705A
:1037B00087808671079805F06BFD00232B70172119
:1037C000A088FFF76FFCA08801F064FCA08801F0DE
:1037D0006FFD09B0F0BD064B9DE7C0463409FF1FE1
:1037E000B075FF1FC475FF1FA575FF1FA475FF1FD0
:1037F000FE3FFF1FF8B5070008000E0001F010FFA4
:10380000041E18D02620FFF78DFC051E00D1257858
:10381000062005F07DFC041E0DD00021062205F0D7
:10382000CFFDD0232370C23B21006770A370A68018
:10383000E8B205F02DFDF8BDF0B585B001930AABF7
:103840001B78070002930BAB1B7808000D00009259
:10385000039301F0E5FE061E22D0102005F058FC6F
:10386000041E1DD01022002105F0AAFD2620FFF71E
:1038700059FC002800D13078D0232370C13BA370BD
:10388000009B21002372019B67706372029BA580DD
:10389000A372039BC0B2E3720C9BE36005F0F8FCDB
:1038A00005B0F0BDF7B50D00019001F0B9FE071E9F
:1038B00020D00E2005F02CFC041E1BD02620FFF784
:1038C00031FC061E00D13E78D0232380C53B062262
:1038D000A370F91DE01C05F06BFC019B2A006381BD
:1038E0000123DD401A401D40210022736573F0B2B0
:1038F00005F0CEFCF7BD0000F0B585B002901000D9
:103900000D0017000A9E039301F08AFE041E31D0B9
:10391000029B002B2ED1039B02795B0724D5122337
:1039200013430422002E08D10B99002905D10C99CC
:10393000002902D10D9900291AD01A430D9B22713A
:10394000002B00D0C9E0002E00D1CFE0002D00D028
:10395000CCE0606A002801D005F0F2FC1C213000A8
:1039600005F00EFB606205E002239A430E33D7E7B1
:1039700093432371654BBA00D458002C00D1AAE0C0
:10398000002E10D0236A002B03D11C2005F0C8FAAA
:1039900020625E4BBA00D358186A002803D01C225C
:1039A000310005F005FC0C9B002B12D0574CBB00DE
:1039B0001D596B6A002B03D1162005F0B1FA68621D
:1039C000BB00E358586A002803D016220C9905F072
:1039D000EFFB0D9B002B11D04C4DBC006659B36A18
:1039E000002B03D1142005F09BFAB0622B59986A82
:1039F000002803D014220D9905F0DAFB380001F0FD
:103A00000FFE051E67D0414BBA00D358002B62D081
:103A10001A6A3420002A00D11C389A6A002A01D080
:103A2000143080B20B9A002A01D01C3080B25B6A3D
:103A3000002B01D0163080B205F06AFB041E4AD07C
:103A40001822002105F0BCFC2620FFF76BFB01903B
:103A5000002801D12B780193D0232370029B2000F2
:103A600063700A23294EA370039BBD00A371AB5959
:103A7000A780196A1830002905D01C22A06005F023
:103A800097FB200034307359996A002907D003004E
:103A900014221433E060029305F08AFB02980B9B1A
:103AA000002B08D003001C221C330B9920610293C9
:103AB00005F07EFB02987359596A002903D016223B
:103AC000606105F075FB6B462100187905F0E0FB9D
:103AD0003800FFF7E3FC05B0F0BD10220D9B0D99F7
:103AE0001B69A018236205F063FB2CE70B9B002BDE
:103AF00000D13FE7012D00D03CE7606A002801D0EB
:103B000005F01EFC1C210B982AE7C046AC75FF1F70
:103B100010B5044C2068002803D005F011FC0023E8
:103B2000236010BDA075FF1F0B4B07B51A68002A54
:103B300001D100200EBD6946531C012012780731C7
:103B4000FFF772FC0028F4D002780123100018401F
:103B50001A42EED0EEE7C046BC75FF1FF0B51F4F0E
:103B600001203B6887B0002B25D09B78059300F09F
:103B7000DDFB002821D00A20FFF7D4FA04000B2037
:103B8000FFF7D0FA164B05001E78731E9E413B6866
:103B9000F6B2191DD878FFF757FB3B682900DA7A8F
:103BA000043303929A79019302920090330020002B
:103BB000059A05F02DFA07B0F0BDFFF7B5FF002814
:103BC00005D00620FFF7AEFA04000720D8E708204A
:103BD000FFF7A8FA04000920D2E7C046A075FF1F2E
:103BE0009C75FF1F70B50A4E040033780D00FF2B43
:103BF0000DD0042005F08CFA011E08D0D0230370EC
:103C0000CE3B45708370C470307805F041FB70BDC9
:103C10000C40FF1F70B5040006200D0005F078FA77
:103C2000011E0AD0D0230370CD3B8370054B447036
:103C30001B688580187805F02BFB002C01D0FFF75E
:103C400067FF70BDA075FF1FF8B5264F06003B68E3
:103C50000D001124002B05D10522234B1B781342A4
:103C600002D112242000F8BD204A10241268002A34
:103C7000F8D01278002AF5D0DB0719D52B789A1ED8
:103C8000012A1AD80C2005F04BF9132438600028BB
:103C9000E8D000230A22437029000670023005F0A4
:103CA00087FAFFF75BFF041E0AD0FFF731FFD9E761
:103CB00000F03CFB0028E1D1E4E7002BE2D0D0E7A4
:103CC0000B4B1B78032BCDD11D20FFF72BFA094B93
:103CD00018800028C6D0084B04211878074A05F040
:103CE000A7FABFE7A075FF1F9D75FF1FBC75FF1FDB
:103CF0009C75FF1F9A75FF1FC875FF1F60EA0000C3
:103D0000F7B50193194B14001A78052306000F002C
:103D100012201A4221D0012920D1154B1D68002DF7
:103D20001BD002201F2C18D8002C02D0019B002B86
:103D300013D0104B1F221E706E1C0021300005F0A6
:103D40003FFB01992200300005F032FA31002000DB
:103D50002C70002F06D005F03BFBFEBD064B122059
:103D60001D68DCE705F0C4F9F7E7C0469D75FF1F45
:103D7000BC75FF1F0C40FF1FB875FF1FF8B50F4E35
:103D800012243368002B17D01B780F3C834213D1C9
:103D900000250B4F0221387805F0CAF8094B0421A1
:103DA00038781D8005F0C4F8074B28001D80336863
:103DB0005C7005F0CDF904002000F8BDA075FF1F70
:103DC000C875FF1FB475FF1F9A75FF1F70B50128D6
:103DD00023D11B4C2388002B03D01A4A1578002DC1
:103DE00007D0194B1B68002B02D01878FFF7C6FFCD
:103DF00070BD3B2B02D93C3B2380F9E7134E0221D7
:103E0000307805F095F8FA222388920002215A436F
:103E1000307805F0B5FA2580EAE70B4B1B68002BDC
:103E2000E6D00B4B1B785B07E2D5084B02211878D4
:103E300005F07EF80022024B1A80FFF769FED7E7F3
:103E4000B475FF1F9875FF1FA075FF1FC875FF1F72
:103E50009D75FF1FF8B51E4D2868002803D005F09A
:103E60006FFA00232B601B4E3068002803D005F04A
:103E700067FA00233360184F05243B781800204070
:103E8000234221D0154800F055FA3B78234213D045
:103E9000202005F045F82860002813D020220021BA
:103EA00005F08EFA202005F03BF8041E306005D0A6
:103EB0002022002105F084FA002004E0286805F0A3
:103EC0003FFA2C601320F8BD00F034FAF4E7C04646
:103ED000BC75FF1FB875FF1F9D75FF1F0040FF1FBA
:103EE00010B50A4C23681A1E0ED0002808D10130E4
:103EF000587005F02DF9002805D02368002B02D05A
:103F00000021FFF787FE0122100010BDA075FF1FE2
:103F1000F7B5274E050033680191181E21D05C7853
:103F2000244F012C30D1FFF7FFFD002825D02000C1
:103F3000FFF7F8F80400412814D91F4B0221187824
:103F40001E4A05F075F91E4B3C3C1C80022233686A
:103F50005A703B78002B14D128000199FFF75AFEC4
:103F60000120FEBDFA2292004243002AEED0124BFD
:103F70000221187805F004FAE8E7FFF7D3F8020009
:103F8000F3E700233B70EBE73B78002BE8D10320FD
:103F900005F0BEF8011E08D0D0230370CC3B45705D
:103FA00083703368187805F073F9FFF7B1FDD7E730
:103FB000A075FF1F9875FF1FC875FF1F60EA0000FE
:103FC000B475FF1F10B5204B8188994234D016D8A4
:103FD0001E4B994207D81E4B994221D81D4B99423E
:103FE00019D0002010BD1C4B9942FAD183689978F2
:103FF0005A78090218781143FFF78AFFF2E7174B46
:1040000099421DD0164B0020CB18052BEAD8154835
:1040100003F04CFE0EE083681878FFF761FFE1E7DC
:10402000114A83688818424250411B78C0B2190077
:10403000FFF7D8FD0120D5E783680C481978E7E73A
:1040400083680B481978E3E751200000092000003D
:1040500007200000062000000A2000005220000077
:10406000ADDFFFFFFD9B0111F8DFFFFF2A9C01116F
:10407000439C0111014B18707047C0460D40FF1F53
:1040800010B5064C207001F0A7FA207805F008F86A
:104090000521207800F06CFD10BDC046C875FF1FDB
:1040A0000BB273B50D00002B00DBCBE08B4B187807
:1040B00005F036F9041E0ED00378912B0FD0A22BF9
:1040C00000D1A8E0864B1878FF2852D0210005F0D7
:1040D000DFF800284DD180200002684076BD43788B
:1040E0000F2B76D013D8052B70D00E2BEAD18088F9
:1040F0007C4B98422BD87C4B98421BD87B4B9842E8
:10410000E0D1A3681878591CFFF754F838E03E2B2B
:10411000D8D18378032B79D06CD8012B73D0022BA4
:10412000D0D1734B1B68002B23D05B68002B20D0B1
:1041300098471EE06F4BC0180C28C3D804F0F8FF56
:104140001DC2C2150BC20B0B0B3223C23C006A4BC3
:10415000C0180728B6D8694B1B68002B09D01B680C
:10416000002B06D0200098470AE0A3681878FFF7D4
:10417000A7F8200005F00CF8ADE7A068FFF742F8BB
:1041800000289FD0F5E7A3681B78002BF1D0584B8F
:104190001B68002BEDD01B68002BEAD0210058488B
:1041A0009847EDE7524B1B68002BE2D01B68002BB1
:1041B000DFD021005348F3E7534B1B68002BD8D0C6
:1041C0005B68002BD5D021004648E9E7FFF7CAF924
:1041D000CFE780884D4B984203D04D4B984200D09A
:1041E00070E7494B1B68002BC3D05B68002BC0D025
:1041F0002100D5E7152B0CD04648162B00D061E7DF
:1042000003F054FDB5E7FFF773FAB2E7FFF758FA8A
:10421000AFE74148F4E7414B1B78042B07D100235B
:104220006A4613800179408800F0C8FCA1E7364B4C
:104230001B68002B9DD05B68002B9AD0010038488A
:10424000984796E7012421420AD0294B1B68002B8E
:1042500004D05B68002B01D00020984701203CE788
:104260008B070AD5254B1B68002B04D05B68002BFD
:1042700001D02000984702202FE7042128000840A1
:104280000D4200D12AE7274E3388002B21D0013B75
:104290009BB23380002B1AD1FFF7B4F800280AD064
:1042A000214B1C70154B1B68002B04D05B68002B46
:1042B00001D020009847FFF79FF8694601F086FD7E
:1042C0006846FEF7D7FF1D20FEF72CFF3080042044
:1042D00003E7024B187804F02BFEF8E7C875FF1FC0
:1042E0000D40FF1F0E2000000120000009100000FB
:1042F000C075FF1FFEDFFFFFAFDFFFFFC475FF1FAD
:104300000C2000000B200000A875FF1F0D200000EE
:1043100013200000999C01115D9C01119D75FF1FE8
:10432000FFFF00009A75FF1F9875FF1F10B501F081
:10433000F7F910BD014B18607047C046C475FF1FE8
:104340000B880020162B01D817230420014A138064
:104350007047C0467275FF1F00207047074A030070
:104360001188814207D091880020994202D1013002
:104370008000101870470020FAE7C046D075FF1F74
:10438000F0B58F7806000D00C5B01E2F15D1FFF7D0
:10439000E5FF051E03D10024200045B0F0BD00223A
:1043A0003B003100C078009200F0B2FB0400A81C72
:1043B00000F0D2FBFF23EB70EEE7264B06240393BD
:1043C0001B78FF2BE8D0182FE6D87B08224A013B48
:1043D000DB0002929A589446002ADDD0029AD31844
:1043E0005B68002BD8D00878002802D14B78012BCD
:1043F00002D10624122FCFD107AFAB88697800977E
:104400006446AA68A047041EC6D1AB78029A5B082E
:10441000013BDB00D318390030005B689847041E6D
:104420000BD1AB78042BB6D0039A31001078220060
:10443000009700F06DFB0400AEE76A78002AABD16C
:10444000AA7805A93B88087130000A704B80FEF7F6
:1044500017FBA0E71040FF1F48A001111D4B37B507
:10446000050098420BD000290AD1FFF777FF0028FA
:1044700005D11948FFF772FF002800D0058037BD2D
:1044800001291AD1FFF76AFF041EF8D001235B420D
:104490000380A378FF2BF2D0FE2B07D00023E07817
:1044A0001422009329001E3300F032FBA01C00F000
:1044B00053FB01235B426380E1E70229DFD101392D
:1044C00001F01AF90028DAD12800FFF747FF041E8F
:1044D000DFD1D4E7FEFF0000FFFF0000022210B58D
:1044E000074B52421A80074801325A809A80DA807C
:1044F00000F07EFA044801F081F8002010BDC046AB
:10450000D075FF1F814301115D4401110388F7B588
:104510000400002B02D102252800FEBD42680221C2
:10452000137825485268FEF775FD00282ED0234FDA
:1045300001253A88002AEFD0802321885B020125DB
:104540009B1A9942E8DC0C2004F0EAFC061E31D0EC
:104550003B8822889C4600231800019561469DB245
:10456000491989B2AA421BD8002801D062443A8076
:1045700000233000082208C0210004F019FE104A70
:104580001368002B13D100251660C5E7626802216D
:1045900013780C485268FEF73DFD0028C7D1BAE7F2
:1045A00060681D014019418101330198D6E71A0066
:1045B0001B68E6E71325AFE7B6A001110E40FF1F09
:1045C000CC75FF1FB4A00111014B18707047C04695
:1045D0001040FF1F14230A0010B51A40194204D0DE
:1045E0000122102101F0A4F810BD4B06F9D40120DE
:1045F00088434000F8E710B514008B0604D501226B
:10460000102101F095F810BD08230A001A40194244
:1046100002D14BB2002B0FDA102101F089F80028EB
:1046200008D02300F2331B78002BECD0F134237830
:10463000012BE8D10020E6E703208907FAD4E2E75E
:10464000F0B51F00184B85B01C68019002910392D1
:10465000002C27D1200005B0F0BDA5683301ED186E
:104660006B89019A934211D3029A93420ED8002F7C
:1046700004D10A9B002B10D12C00EBE73B002978DA
:10468000039A6868FEF7C6FC0028F2D10136B6B27C
:10469000A388B342E1D82468DAE7A3680A9A5B8961
:1046A0001380E9E70026F3E7CC75FF1F37B50C0050
:1046B0000A8849880123914217D3002A15D0651D25
:1046C00023792A0002210A48FEF7A4FC10230028BF
:1046D0000BD023796188208800242A000094FFF7FA
:1046E000AFFF0A23A04200D0230018003EBDC04601
:1046F000B6A0011113B50A00088849880123884231
:104700000BD8002809D00024137905320094FFF754
:1047100097FF0A23A04200D02300180016BD13B54E
:104720000A0008884988012388420BD8002809D04C
:104730000024137905320094FFF782FF0A23A04278
:1047400000D02300180016BDF0B58BB003904A8846
:1047500008880E000123824255D3002853D000233D
:10476000012704AC23700022718813000092FFF728
:1047700067FF051E3ED02078002835D12B78022B0C
:1047800018D167706A8983000130E31880005A806D
:1047900069680222201804F00BFD23780133DBB294
:1047A0002370042B19D93B006889013080B2002B9B
:1047B000D9D01FE002236370122358436A8923185B
:1047C00004305A8069681022201804F0F1FC237824
:1047D0000133DBB22370002BE5D10C4A6B899B18A7
:1047E0005A425341DBB2DFE76378012BE4D12B78E7
:1047F000022BC7D022780A23002A04D02100039874
:10480000FEF768F9002318000BB0F0BD0100FFFFB0
:104810000F4BF0B504001868002816D083685D8936
:10482000A54207D88288AE18B44203DA12019A185A
:10483000934201D10068EFE71E005F891036A7425E
:1048400004D1002900D00D801800F0BD3300EFE73F
:10485000CC75FF1F70B505000C0008880021FFF71C
:10486000D7FF03000120002B04D022002800197A72
:10487000FFF7C1FE70BDF7B50C00002501902300C5
:10488000EE331B78AB4201D800200AE06B00E65AF9
:1048900000213000E718FFF7BBFF002802D1268077
:1048A0000130FEBD017A0198FFF794FE002802D086
:1048B0003B882380F5E70135EDB2E0E710B5040051
:1048C00008880021FFF7A4FF03000120002B03D07C
:1048D0002000197AFFF77EFE10BD0000054B1B6813
:1048E000002B01D1180004E09A6852898242F6D167
:1048F00098887047CC75FF1FF0B50E27002687B04B
:10490000039302ABFF183E8005001F4B4089140043
:10491000984207D02B78013000976A6880B2FFF781
:104920008FFE060002212B7818486A68FEF772FB9A
:1049300000280FD06C892000FFF7D0FF002802D09C
:10494000013C0419A4B2039B002B00D01C80300052
:1049500007B0F0BD02212B780D486A68FEF75AFBBC
:104960000028E7D102212B780A486A68FEF752FB3B
:10497000002807D0002EDED03B88A342DBD174890B
:10498000013CDFE76C89DEE7FFFF0000B6A0011104
:10499000B4A00111B2A0011110B50C00FFF7DEFCAC
:1049A00003000220002B0AD0002C00D023609B784B
:1049B0001720FE2B03D00138FF2B00D1002010BDA3
:1049C00073B50D0001A904001600FFF7E5FF1728D5
:1049D00005D0002E04D129002000FEF7F7F876BD9F
:1049E00001221021200000F0A3FE0028F3D0F6E7FA
:1049F000014B18607047C046DC75FF1F37B56B462A
:104A00009D1D010004000222280004F021FD2B88D6
:104A1000B02B0ED12379122B09D12300FA331B7846
:104A2000012B06D10121608800F0E0F801E01B2B8A
:104A3000F8D037BD10B5054B0421187000F098F878
:104A4000FFF74CFDFEF746FB10BDC046E075FF1FAB
:104A50000020F0B50BB20F0087B0834234DA274B49
:104A6000187804F05DFC051E2BD00378A02B25D10F
:104A700003AE3100FEF7B4F8041E0BD1B378DB07A8
:104A800024D51F4B06341B68002B03D031006888E7
:104A900098470400A868002801D004F001FD002C0C
:104AA00008D1184A039B1340174A934206D0B378A3
:104AB0001B2B03D00121688800F098F8280004F02F
:104AC00067FB80200002784007B0F0BD0F4B1B68E9
:104AD000002B10D0310068889847041EDAD0737814
:104AE000002BD7D1B27801A90A704B800C7168886D
:104AF000FDF7C6FFCEE70624F1E7C046E075FF1FCD
:104B0000D875FF1F00FFFF0000011200DC75FF1FBA
:104B1000F7B50190FC200D0017001E0004F0F8FA14
:104B200004001320002C12D0B02320002370089B17
:104B3000F4226770658026710830002B08D01900B8
:104B400004F036FB2100019804F0A2FB0020FEBD1A
:104B5000089904F035FCF5E710B5041E06D000787E
:104B6000FD2803D804F0ACFBFF23237010BD000028
:104B70000A1F93B210B504000220032B05D882400F
:104B80000020024BD1529B189C7010BD0076FF1F75
:104B90000B8870B5043B04000D000220032B0BD8DA
:104BA0000121200000F0A8FD03001420002B03D0F9
:104BB0002900200000F028FC70BD000007B513009C
:104BC000034A00920A00012100F088FC0EBDC04695
:104BD000F94D011107B5019203220092024B0A0020
:104BE000122100F0A5FC0EBD774E011107B56B46F2
:104BF00001AA11800449D88008780633012802D11F
:104C0000190004F0BDFA07BDE175FF1F0C4B10B58C
:104C100018700023FF210B4A138013819381938026
:104C2000094A53801370517293819372D174D38265
:104C30001375517704F094F900F0FCF910BDC046EB
:104C40001076FF1F0076FF1FE275FF1FF0B58DB0D5
:104C50006B46002003910C229B5E834200DBB0E098
:104C60005D4B187804F05CFB051E00D1A4E00378CE
:104C7000902B00D09DE006AF01004688380000F080
:104C80001FFA79680400002900D19CE03B88052BBD
:104C90006ED13B89032B1CD905AC200000F0A2F893
:104CA0006288172A61D83989131D994231D17968F0
:104CB000237804310291D90738D5607800F08EF955
:104CC000071E06D0002303712378012B08D0132B75
:104CD00023D0A868002800D178E004F0E1FB75E05B
:104CE0006288029909A800F0A6F80290380000F046
:104CF0008BF909AA2378387A0192002231000092B8
:104D0000029A00F012F9380000F064F9029B002BBF
:104D1000DFD0300000F080F9DBE70378032BD8D137
:104D20006288029909A800F0D6F8DEE7122B13D1A9
:104D3000029909A800F0B5F8021EEAD127498B882C
:104D4000002BC6D0887909A9237801916178009158
:104D5000310000F0EAF8BCE7002302AA9383300098
:104D6000617809AAFFF72AFFB3E71D4B0993F6E71D
:104D7000042B02D09A1F012AABD8184A043B9B008F
:104D8000995A0029A5D0D218907831003A0000F045
:104D9000AEF800289DD13B88042B03D001213000C0
:104DA000FFF724FF012C04D1A868002801D004F0EB
:104DB00077FB280004F0ECF98020039B00024340BD
:104DC00018000DB0F0BD012800D182E701213000AC
:104DD000FFF70CFFEDE7C0461076FF1F0076FF1FC0
:104DE000010017000B7803704B784370CB788A78FA
:104DF0001B021343438070470A88030002700A882D
:104E0000120A42700A88012A06D14A8882704A88AA
:104E1000120AC2700420704702208242FBD14A88E5
:104E200004309A704A88120ADA708A881A718A885D
:104E3000120A5A71EFE710B50400012082420CD922
:104E40004B780A781B0213432380834206D1CB7828
:104E50008A781B0213436380002010BD022BFBD114
:104E6000CB788A781B02134363804B790A791B0243
:104E70001343A380F0E70B8803700B881B0A437071
:104E80004B8883704B881B0AC3708B8803718B8897
:104E90001B0A4371CB888371CB881B0AC37108201E
:104EA000704703000120082A14D14A7808781202BA
:104EB00002431A80CA788878120202435A804A79DB
:104EC0000879120202439A80CA7988791202024351
:104ED0000020DA80704710B504000120022A05D1B5
:104EE00000204B780A781B021343238010BDF8B5CD
:104EF000060010200F00150004F00AF9040001203C
:104F0000002C0ED0A0230C22290023806780201DB6
:104F1000002D07D004F04CF92100300004F0B8F95E
:104F20000020F8BD04F04CFAF6E7F7B51E0000903B
:104F300008AB142017001D78019104F0E9F8041E55
:104F400012D0A2230370019B47704380099B057117
:104F500046710C220830002B07D0190004F028F904
:104F60002100009804F094F9F7BD099904F028FA9B
:104F7000F6E737B5041E0FD04388002B0CD0002570
:104F8000C1881323007A172201950095FFF7CDFF02
:104F9000FF2365806372257037BD000010B50C4992
:104FA00004004A88002A09D08B89002B05D00020F4
:104FB000CB8A0222834201D010BD012213000A20B5
:104FC000434300204032C854C81842800472F3E7BB
:104FD000E275FF1F0023438003707047094B0021D7
:104FE0001A0010B55C88002C06D01C79844203D1CD
:104FF0000A234B43D01810BD01310A330329F1D1E4
:105000000020F8E7E275FF1F10B50400407A04F0B5
:1050100057F9FF23637210BD7047043010B580B29A
:1050200003F0CEFF002803D00421494204F028F900
:1050300010BD000070B50025124CA0682580A58128
:10504000A580A84202D004F02BFAA56000250E4CE2
:105050000E4B606D1D80230058331D70A84202D096
:1050600004F01EFA656500256068002801D004F090
:1050700017FA013508340A2DF6D1054802F016FE5C
:1050800070BDC046A876FF1F4C76FF1F9C76FF1FA1
:10509000D19C011170B5041E0CD1074D2880A88148
:1050A000A880A868002802D004F0FAF9AC60034890
:1050B00002F0FCFD70BDC046A876FF1FDD9C01110B
:1050C0000023F0B54E8843600A7904000F0089B0D0
:1050D000022A00D08BE0C98803291ED9BB685A7800
:1050E0001878120202430592DA789D78120215436D
:1050F000DA791B7A67481B0213435BBA9AB20380C2
:10510000059B04338B4227D1042D08D06B1F022B43
:1051100016D92900604802F0C9FD01201AE05F4B52
:105120003101CB5A002B0BD0F4215D48FF3102F046
:10513000BDFD3000FFF7AEFF5A4A1369013313611A
:105140000421059BB86823812580494204F098F822
:105150006060002009B0F0BD524C042D0CD06B1FD4
:10516000022B18D983212B004D48890002F09EFDA7
:10517000E3680133E360D0E7484B3101CB5A002BA1
:1051800009D04748484902F091FD3000FFF782FFFF
:10519000236901332361414B360106930023069AAC
:1051A000B3529319059A9D80100007939A81FFF7D7
:1051B00034FF079B051E986015D00421B86849424A
:1051C00004F05EF8FA880100043A280003F0F0FFCA
:1051D000069AFB88B25A043B9B18069AB35223687E
:1051E0000133236099E7A3690133A36195E72B4B52
:1051F0003101059333010693059B3001CB5A059984
:105200000D18A968002B30D000292ED0012A2CD1EE
:10521000FA880598944663449BB232011352A889D8
:1052200098421AD362469B1AC818B96803F0C0FFA7
:10523000059B0699AA89CB5A934200D06DE70A00D4
:1052400000212381AB882380AB686360059BD1522A
:10525000144A5368013353605FE7124A936801337D
:1052600093603000FFF716FF57E70A4A059F128840
:10527000029333019C466744BB8900919921094CF4
:10528000019363690948890002F010FD63690133E5
:105290006361E6E71276FF1FE99C0111A876FF1F04
:1052A000029D01111876FF1F13020000199D0111C4
:1052B00070B5051E18D10D4C0D4B188023005833C6
:1052C0001870606D002802D004F0EAF865652500CA
:1052D00050356068002801D004F0E2F80834AC4290
:1052E000F7D1044802F0E2FC70BDC0464C76FF1FC7
:1052F0009C76FF1F409D0111F0B51600A12285B0DC
:105300009200019342433D4B05001B680C009B1823
:10531000D933FF331F78FDF7D7FE0430874204DD11
:105320002800FDF7D1FE0430C7B2B74207D33200E0
:1053300000212800019B04F0BBF805B0F0BD390046
:10534000300003F04DFF2300C5B250331D700393AE
:10535000019B39006365300004F06AF8CBB2029318
:10536000002B02D0039B01351D7000262300503313
:105370001B78B34204D8606D002839D10020DCE7E7
:10538000029A3800002A04D0013B1000B34200D03A
:105390003800F5006519287003F0B2FE019B6860C3
:1053A00001001A78164802F081FC686800280ED0C7
:1053B0002A78019903F0FCFE019A2B780136D31864
:1053C000104A0193D369F6B20133D361CEE72300CB
:1053D000503318706065A54205D10A4A1320D36A7C
:1053E0000133D362A9E7606804F05AF80834F2E7A1
:1053F00004F056F800236365C0E7C0463409FF1F78
:105400004C9D01111876FF1FF7B50C000600042112
:10541000606803F035FF23890500037023891B0AA8
:1054200043702388837023881B0AC3702789022452
:105430000437FFB2F42F15D8224B9E4214D10C2012
:1054400003F066FE1134011E0CD0902303708E3BD6
:105450000371043B43801C4B8560C780187803F0C0
:1054600017FF00242000FEBD5C217143174B591823
:1054700001930B0058331B78002B19D103003A001D
:105480003000FFF739FF041E05D0114B22001148F0
:10549000D96A02F00BFC5C237343019AD1180B000C
:1054A00058331B78002BDDD1300003F039FED9E7EB
:1054B000074A0948536A07240133536202F0F6FB96
:1054C000E9E7C046FEFF00001076FF1F4C76FF1F85
:1054D0001876FF1F609D01117B9D0111F0B587B00B
:1054E000009017200F0016000193FFF796FD13257B
:1054F000041E19D00C98031E02D00199201D984754
:10550000030AE370052302AAA0700430908127707B
:105510000098667003A993800494FFF775FF051E39
:1055200002D0200003F0BCFF280007B0F0BD00004F
:10553000F0B587B01F000CAB1B78039105930121D8
:105540000DAB06001C78049200F0D6F81425002854
:1055500021D02000FFF722FD0135041E1BD0114988
:10556000059B0A7803700132D2B2131EC68001D1A6
:1055700001231A000B7022713000049B03990097DD
:10558000FFF7ACFF051E09D1230021000648074A9A
:10559000093303F03DFE280007B0F0BD002363800F
:1055A0002370F8E71476FF1F734F01113075000068
:1055B000F8B505000E00064C064F2368002B02D0FC
:1055C0003100280098470434BC42F6D1F8BDC046EB
:1055D000B876FF1FCC76FF1F0123064A5B4253803B
:1055E000002313715362044A136053609360D360C5
:1055F00013617047CC76FF1FB876FF1F02000023AF
:1056000010B506499C000859002801D1625010BD10
:105610000133052BF6D11320F9E7C046B876FF1FFA
:10562000034A5388181A4342584140421040704779
:10563000CC76FF1FF0B585B002930AAB1F780CAB98
:105640001B88009008000E0001920393FFF7E8FF0B
:1056500005001120002D1BD10E48FFF7E1FF0400CB
:105660001520002C14D006220B99A771E01D03F021
:105670009FFD019B30002371029B29006371009BF9
:1056800066802370039B6562E381FFF791FF28002A
:1056900005B0F0BDFFFF000010B5FFF7C1FF04002B
:1056A0000220002C12D060880121FFF781FF606A80
:1056B000002801D003F044FE28220021200003F03E
:1056C0007FFE012300205B426380207110BD00003B
:1056D00030B5074A074C5588010013780020A542D1
:1056E00004D05B1A59424B415842104030BDC0466D
:1056F000CC76FF1FFFFF0000084A10B501230C0005
:10570000904208D0FFF78CFF031E04D0037923409A
:105710005A1E9341DBB2180010BDC046FEFF0000C8
:10572000024B1879431E9841C0B27047CC76FF1FD8
:1057300070B504000D001600FFF772FF002804D1B9
:105740000D4B9C4200D0143070BD416A0379052096
:10575000002907D012221A40102A02D10520002E5B
:10576000F2D10F20DB06EFD5897E0C20A9428941BA
:10577000494249420840E7E7FEFF0000030010B538
:10578000002800D110BD0348034A41889142F9D056
:105790009847F7E7CC76FF1FFFFF0000002330B5E6
:1057A000C45CCD5C6C40D4540133102BF8D130BDB7
:1057B0000F23002210B5C45C64002243CA54C25CAB
:1057C000D209013BF7D210BD0200010010B5203212
:1057D000103103F045FE10BDF0B58BB003901020E2
:1057E00005931700049103F09BFB0090102003F039
:1057F00097FB009B13240190002B05D000280CD1AF
:105800001324009803F09CFD019B002B02D018008C
:1058100003F096FD20000BB0F0BD102003F080FBDC
:105820000600102003F07CFB13240500002E00D19D
:10583000AEE0002819D01022002103F0C1FD320093
:105840002900039803F00CFE041E0ED133787F2B41
:1058500051D830000099FFF7ABFF009B1B787F2BDE
:1058600053D801990098FFF7A3FF300003F068FDBB
:10587000002D02D0280003F063FD002CC1D11020C0
:1058800003F04EFB0600102003F04AFB0290002EAE
:105890007CD0002878D03A000F3223000125121165
:1058A00005D00F333B4015B25A4253411BB26A1E1A
:1058B0001201002B33D0049BD2B298180099029A9F
:1058C000FFF76CFF013D10220021300003F078FD4E
:1058D000ADB2049F2D017D19AF4242D0002C33D0D0
:1058E000300003F02DFD029B002B00D189E718004A
:1058F00003F026FD85E729003000FFF759FF280057
:105900002549009AFFF74AFFA7E729000098FFF70B
:105910004FFF28002049019AFFF740FFA5E70F211C
:105920000F4004998A18D9B28F4208D9D15C06A8D1
:1059300019540133102BF6D1029A0199C0E7791A54
:1059400048424141C901F2E73900300006AAFFF799
:1059500025FF3200039806A903F082FD10370400EA
:10596000BAE7002CBCD13000029906AAFFF716FF57
:10597000320006A9039803F073FD082204003100E9
:10598000059803F015FCABE71324A9E71324AAE755
:10599000002800D06EE733E7CCA00111F0B58BB042
:1059A0000F0016000225009000283FD0002A3DD0AD
:1059B0000B1DDBB21800029303F0B2FA1135041E7E
:1059C00034D0FDF7C1FC05003A000099201D03F01A
:1059D00007FBEBB20393E3702B0CDBB22F0A0093AF
:1059E0006370FFB22B0E2370A7700193FDF7A6FC26
:1059F0001022010006A803F0F3FA2100029A04AB7A
:105A000006A8FFF7E9FE051E0DD1039B082233709F
:105A1000009B04A9B370019B7770F370301D03F0F5
:105A2000DFFAFDF797FC200003F08AFC28000BB09A
:105A3000F0BDF0B58FB00D00149E03900492059355
:105A4000002A03D1022420000FB0F0BD002EF9D0AF
:105A50000398FFF7E5FD1424071EF4D0727833781D
:105A600012021A43B3781B041343F27812061A4346
:105A7000036A0192934201D30133E3D1002D03D095
:105A80003B7901249B07DED50822002106A803F0FC
:105A900097FC059B13240433DBB21800029303F038
:105AA0003FFA051ECFD0059A0499043003F098FA06
:105AB00004223100280003F093FA3900102210313B
:105AC0000AA803F08DFA2900029A06AB0AA8FFF78C
:105AD00083FE041E0FD1082206A908A803F080FA4D
:105AE0000822311D08A803F0E3FB012807D1019922
:105AF0000398FDF743FC280003F022FCA3E70124F0
:105B0000F9E7000070B51C4C05002368181E10D082
:105B1000002D14D11A78002A0CD1981C083203F0F9
:105B200047FB03F0EDFC0135002808D123681D7008
:105B3000012070BD0A331800082203F039FB2368E6
:105B4000002BF5D0122003F0E3FA061E0DD0C1237E
:105B500021680370457002311022023003F028FBE7
:105B600023683100587803F093FB206803F0E8FBCA
:105B700000232360DCE7C046F476FF1FF8B504007D
:105B80002020FDF7CFFA154FA600F3590500002B92
:105B90001FD000280ED0D878FF280CD0290003F0A1
:105BA0009FF9002807D1F3590D49DB780D482200F1
:105BB00002F07CF8F8BD0C492A000C55BB5961185D
:105BC00003330A4803F024FBBB590549DB78084836
:105BD000EDE72100074802F069F8EBE71077FF1FB7
