:020000041101E8
:10010000F7B5164B0192C318021D002000938823F7
:100110005B05D3181B685C1C1AD09CB2402C18D805
:100120008D781E0CAC466746CD782D023D43AE421D
:1001300006D1019800280ED110000C70240A4C70D2
:1001400003249BB20733A343D218009B9A42DED309
:10015000FEBD4432F9E71000FAE7C046FC0F00008C
:10016000802213B503000324019189B252010731A3
:100170009B18A14304305A1A88235B05C3181B68D7
:10018000591C03D190429241104016BD99B24029AA
:1001900007D80B000733A343C0189042ECD30020CC
:1001A000F3E74430F9E7134B134A1B68126810B5A4
:1001B000F424934201D81A00F024104BA4021B68C7
:1001C0009A4210D813000E4A12689A420ED3013395
:1001D00007D1F0239B029C4203D10A49054808F04D
:1001E0001BFE200010BDF824A402ECE7FC24A402AE
:1001F000F7E7C04600C0031100D0031100E003116F
:1002000000F00311FFFFFF7FF0B59BB015000490D5
:100210000391402A00D9A0E006AB59801A80FFF76D
:10022000C2FF0400042816D9002206A9FFF768FFC0
:10023000052810D906AB1B88AB420CD1002D07D086
:10024000514B2A000499C01808F01EFF002802D163
:1002500001201BB0F0BD06AB1D8020000699FFF702
:100260007FFF041E7BD1069B0793FFF79CFF802333
:100270005B01C61880230700DB029E4201D3F026F3
:10028000B60288235B05F31801931B68013302D083
:10029000019808F059FD3D49019808F0BDFD3B1D4E
:1002A0000293331D05938822029B52059B181B68FD
:1002B00008935A1C3CD044219AB20091402A04D899
:1002C0000320D11D814389B2009103991B0C8B42FD
:1002D00024D0402A22D80122300008A9FFF710FFBD
:1002E000021E1BD1380008A9FFF70AFF04000428EA
:1002F00031D9009A059B9B1880225201B218934273
:1003000040D288235B05C118009A09A808F084FE32
:100310001D4B009A09A9F01808F0A6FE009A029B4E
:100320009446634402931A4B029AFB189A42BAD33A
:1003300088235B05FC1821680198013908F06CFDE1
:10034000200008F001FD039A07AB5A80300007999E
:10035000FFF706FF0400002C03D1002079E70428F2
:10036000FBD988235B05E018069908F055FD0323A7
:10037000EA1C9A4300D16BE7034B0499E01808F09C
:1003800073FE65E70424ECE704000011FFFFFF7F24
:10039000F80F0000F7B505001400402A21D8002707
:1003A00001AE71803780FFF7FEFE042816D93A00AF
:1003B0003100FFF7A5FE042810D93688BC420BD0C7
:1003C000BD4209D0221CB44200D9321C064B92B265
:1003D000C118280008F020FE30B2FEBDC04300B2B4
:1003E000FBE703204042F8E70400001137B5042280
:1003F00004000D0001A81649FFF7CCFF02000428F5
:100400000BD1019BA34208D3AB4204D0104901A8F1
:100410000195FFF7F9FE01203EBD0E4C2368200038
:10042000019308F091FC019920000139019108F035
:10043000F3FC80235B01E418074B9C42EED10422BD
:10044000034901A80195FFF7DFFE0020E4E7C0465D
:100450005555000000C00311000004118022F8B5BA
:10046000964C974BD200002120001C6008F0DCFC69
:100470002300944A88331A60934B1A786A23002A1F
:1004800000D01133E3620A232365904B37221B7897
:100490000820A3638E4B2118E361102323628D4B48
:1004A0003B256361C823DB00A36123008C331A6002
:1004B0002823013AE26320646364CA67043A211D79
:1004C000CA672100BC310D602100C03108602100E5
:1004D000C4310B6021000635CC310D602100083D90
:1004E000C8310D602100D0310A602200D432106082
:1004F0002200D832136022000227E0322100176068
:100500004222DC310A6021001B3DE4310D602100F4
:10051000E83108602100EC310B6023000521F43341
:1005200019602300F0331A602300183290331A60E8
:1005300023009433186023001E3A98331A60AF23C7
:10054000DB002360644BFA262363644B644DE36055
:10055000644BF031A3642300FF31FC33B600A1608B
:1005600021611E60A5627325E5656D3D6565A56524
:1005700096255D4AAD00E264666258606766A566CE
:1005800000270925A767E566584F594D6067200089
:100590002567E2673A6015279C30676007001A20DC
:1005A00038602000A0300700212038602000A830EB
:1005B00007004C4838602000F830066026006427A9
:1005C000A436376026005F3FAC3637602600033F15
:1005D000B03637602600C637B436376026000027AD
:1005E000B836376038269E60424E96205E64424E92
:1005F0005A66DE61414E9A645E62F53EFF3E9E623F
:100600001E269A67354A8000DE661F675F67DD65D4
:100610001D661862DA67BE23394A5B00E250394B27
:10062000D838235004302250C4225200A350C6238D
:10063000E4205B00E1500433334AE1503349344B4A
:10064000D1603449800019503349E938FF381950D6
:1006500032490430195032493248D161324911636C
:10066000324951631900F4310860CE20304940000E
:1006700011603049195019002F48F83108602F498E
:10068000D16582212E4A89005A501A002D4908321C
:10069000D1671A002C49B432116088212B4A890095
:1006A0005A501A002A49883211602A4ADA6408F03E
:1006B0008BFB012008F0C8FCF8BDC0460004FF1FFA
:1006C0001064FF1F406FFF1F4041FF1F4A0AFF1FBA
:1006D0003A07000080C3C9019A020000DC0500004F
:1006E0006A18000050C3000088130000F009FF1FC3
:1006F000204E00006509FF1F68100000C4090000BB
:1007000040420F0010270000FC00FF1FC11BFF1F0D
:100710000000FF1F152CFF1F9D2FFF1F352EFF1FF1
:10072000811FFF1F7126FF1F9D1FFF1F4921FF1FF4
:100730000D1FFF1F9528FF1F7D29FF1FD918FF1FC1
:10074000A127FF1FC524FF1FD124FF1F0D1EFF1F60
:10075000C51EFF1F851DFF1F0223F0B50124634D39
:10076000634E2B70634B34701A68634B89B004205E
:100770005A7007F077F808F0E7FCFFF76FFE08F013
:100780000BFB1F2200215D4B1E271A705C4B6F4430
:100790001C705C4B19705C4B19689143163A0A4304
:1007A0001A60602219689143403A0A431A6008F0BF
:1007B000FBFB08F0B1FA554B9847C120FF21544B81
:1007C00080001A588A431A50C522920098588843CC
:1007D000BF390143995098584E4908408021C901BA
:1007E0000143802099509958C0050902090A014324
:1007F000995080214848490108F0DEFC032322007B
:10080000464901940093464808F046FB16224549A4
:1008100002A808F001FC02AC61782078023406F0EE
:100820001FFCA742F8D1404C404B226803201A40DD
:10083000A023DB0213432360802322689B0413431D
:10084000236022683A4B1A4080239B0313432360A2
:10085000384A394B934200D8012008F06DFA08F06D
:100860006BFB80232268DB0413432360287808F0A5
:1008700083FB3078C0B208F03FFB08F085FB2F49BE
:10088000042008F029FB06F0E3FD07F02FFA00F042
:1008900057FE00F0FFFE2A482A4907F0CDF82A4B00
:1008A0002A4819782A4B32781C782A4BC9B21E780C
:1008B000D2B22B780196009407F0BEF808212648A2
:1008C000264A07F0B9F88023A1222548920023493F
:1008D0005B0107F0B1F8234B2348196807F0ACF827
:1008E00000F022F9002009B0F0BDC0464A0AFF1FFF
:1008F0004041FF1F34F00040B861FF1F480AFF1F4E
:10090000490AFF1F680AFF1FBCF00040E1A2000077
:1009100000E100E0FF00FFFF4441FF1FC853FF1F3D
:100920004451FF1F4B9B011114F00040FF7FF8FF63
:10093000FFFF9FFF0080FF1F406FFF1F3B0001086C
:10094000C8920111020101034B0AFF1FDE9201113F
:10095000440AFF1F450AFF1F0C930111780A00008B
:100960003C930111800AFF1F90930111704770475B
:1009700030B503A804880B20002C0ED14968074D20
:1009800008784978090201430A20A94205D10121CA
:1009900020001980024B1B7A137030BD192A000009
:1009A000A061FF1FF7B5150008AA16884A680F4F07
:1009B00014785278120222430A24BA4214D1012236
:1009C000DBB2019200962A0008F0C6F8041E0BD193
:1009D000074B1B68002B07D068782A780002104369
:1009E00042425041013098472000FEBD02290000DC
:1009F000485EFF1F30B5012503790400BFB02B42CC
:100A000011D00A49408807F013FC28420BD0084B4C
:100A100001A95B8D4D800B80064B00221B7A6088FC
:100A20000B7103F099FB3FB030BDC046405EFF1F25
:100A3000283EFF1FA061FF1F10B50549054807F0BC
:100A4000ADFB0421044A054807F06AFB10BDC0460F
:100A5000405EFF1FFFFF0000649B0111283EFF1F47
:100A600010B5024804F056FA10BDC046F509011150
:100A700001230370054B1A7A42700C2282709A7916
:100A8000C270DB79037105207047C046A061FF1F6B
:100A9000022310B50370013B43700533837010339C
:100AA0000371443B43712A3383714433C371002380
:100AB0000372064B04001B8843720A30FFF7D8FF0D
:100AC000831D0A30C0B2E37010BDC046A061FF1F95
:100AD00010B5142008F0F0FB124B1422002118600E
:100AE00008F0A2F9002008F067F9012008F08CFB5B
:100AF000022008F019FA032003F054FC042005F04A
:100B0000EBFC052002F088FE062003F05FFB0720C7
:100B100001F0F0F8082007F0E3FA092000F0DAFE0F
:100B200010BDC0464C5EFF1F08F0EEFA012008F031
:100B30006BFA08F079FA000010B50C22024903485C
:100B400000F0A4FA10BDC046585EFF1F6061FF1F91
:100B5000F8B51D0006AB16001A8807AB1F784B6866
:100B6000597818780B4B090201430A20994210D199
:100B70000130002A0DD1FFF7DFFF3C1C0C2F00D9FC
:100B80000C24E4B222003000034908F045FA0020AA
:100B90002C80F8BDD4FF0000585EFF1F094B10B534
:100BA0000400984205D0012904D12000064907F02D
:100BB000F5FA10BD0229FCD1013904F069F90028C9
:100BC000F3D0F6E7FEFF0000505EFF1FF7B53F4E83
:100BD0003368002B78D03E4B20211800009300F0A2
:100BE000CDFB3C4B1A78002A16D198243A4DA4002C
:100BF000202123002A00009800F0EBFB0100A04216
:100C00005CD1280000F06EFB011E5DD0002333484C
:100C1000336006F011FF57E05A79412A35D19878B0
:100C2000DC781D795F78FF21784308F0A5FA80B25F
:100C30004043FE30FF2180B208F09EFAC3B220008C
:100C4000FF217843019308F097FA80B24043FE30C9
:100C5000FF2180B208F090FAC4B23800FF21684347
:100C600008F08AFA80B24043FE30FF2180B208F0DB
:100C700083FA0022009BC0B20199013219705C70A6
:100C800098700333202AF7D1AFE70324144A12786F
:100C90005443E4B2542A03D8E0430025C0B2C1E76C
:100CA000A92A05D80134E5B2EC430020E4B2B9E743
:100CB0000234E0B2C5430024EDB2B3E700232200C2
:100CC0000848336006F0B8FEF7BDC0469C5EFF1FC3
:100CD0000061FF1F6061FF1FA05EFF1FDE93011117
:100CE000795EFF1FA2930111F0B5C5B01D004AAB9C
:100CF000059016000E201F88002911D0002A0FD061
:100D00004B681A785B781B0213433C4A934209D123
:100D1000012205980192EBB23200009707F01CFF08
:100D200045B0F0BD364A0A209342F9D10130002F78
:100D3000F6D10230142DF3D82A003100314808F0E2
:100D40006BF92900304806F077FE2900300006F0E4
:100D5000E1FF2E4C2A003100200000F036F905009A
:100D600001282DD12A49059807F062FA284080B25F
:100D7000002804D1274806F05FFE0020D0E73900A4
:100D8000F22207A808F050F8FFF7D6FE0C2202ABBB
:100D9000214908A8DA8208F03FF9204B02AA1B88F3
:100DA00007A9938205983A0003F0D6F91C4D01007B
:100DB000A079637922780090280006F03DFEDCE7F8
:100DC000002805D01748290006F036FE8020A7E746
:100DD000154B1870FFF7B0FEFFF7F8FE2579637822
:100DE000627921780395E57810480295A5780195F8
:100DF000A479009406F020FEBFE7C0460229000057
:100E0000D9FF0000645EFF1F1C9401116061FF1F89
:100E1000505EFF1F43940111585EFF1FB63EFF1F37
:100E20008A940111D3940111785EFF1F039501117B
:100E300010B50E4800F098F90021072006F0F6F9E9
:100E40000221072006F00CF90021032006F0EEF93C
:100E50000221032006F004F90021042006F0E6F93F
:100E60000221042006F0FCF810BDC0467A5EFF1F88
:100E700073B5072006F0D4F80400032006F0D0F87C
:100E800001250600042006F0CBF86E406C40F3B25A
:100E9000E2B2154E154C6840C0B2009031002000FF
:100EA00000F06AF9002804D0FFF746FEFFF78EFE37
:100EB0000DE00F4B1B68002B09D07379412B06D036
:100EC0000C4A13780133DBB2012B01D8137073BDC8
:100ED0001070B379084A1B09191C002B00D1291C7A
:100EE00013785B181370E1E76061FF1F7A5EFF1FE4
:100EF0009C5EFF1F785EFF1F795EFF1FF7B51C48E1
:100F000000F052F800221B4B1A701B4B1A70FFF7AF
:100F100013FE1A491A4807F041F91A4803F03AFF3C
:100F2000194800F091F943424341184D184E2B6087
:100F3000002800D1174E00F00FFA040000F018FA54
:100F4000070000F00FFA03000F4A009301923B00E4
:100F500022003100104806F06FFD2B68002B01D0F5
:100F6000FFF734FE06210D4A0D4807F0D9F8FEBD03
:100F70006061FF1F795EFF1F785EFF1F505EFF1FDD
:100F8000FFFF00009D0B0111C0C62D009C5EFF1FDE
:100F900046950111439501114B950111A89B011133
:100FA0006C3EFF1F7047704700280DD00123FF22C1
:100FB00003707F33437000230271BE3A4271293AB5
:100FC0008370C3708271C3717047030010B5022033
:100FD000002B0DD000290BD0032A1CD10C78EF2C4C
:100FE00007D1487801284FD18B78772B00D0033078
:100FF00010BD0420CC2CFBD18C78332CF8D149784F
:10100000232903D101221A700020F1E710002429BE
:10101000EED10022F7E7072A1ED10A780420562ACB
:10102000E6D18A79AA2AE3D14A79F02A0CD14A7802
:101030009A708A78DA70CA781A71FF225A70BE3AAA
:101040005A710022DA71DFE703200F2AD0D10A7922
:101050009A70DA700A79EFE704208242C8D10C78DE
:101060001000BB2CC4D1CA78442AC1D14A780320CD
:101070001400253C132CBBD85A7189780A1C00290E
:1010800000D101229A71DCE70420B1E7030010B51A
:10109000002823D0081E21D000200B2A1ED966224A
:1010A0000A70513A4A701A785442624123328A7067
:1010B0005A79CA7020220A715A79412A00D0987947
:1010C00048719A780C208A71DA78CA711B790B7290
:1010D00000234B7206338B729333CB7210BD00002A
:1010E00002788A4204D00123017083700020704787
:1010F0008378032B18D80133DBB28370042BF5D12E
:1011000043789342F2D04270002A05D000238380B6
:10111000C38003720120EAE7037A8280C2800272F0
:10112000584258414000E2E74378002BDED08388E4
:101130000C4A934201D001338380037A002B07D1FC
:1011400082883B2AD2D901220272C3800320CEE7D3
:10115000C38801339BB20E2B01D8C380C6E700239E
:10116000F3E7C046FFFF000010B5002803D020229F
:10117000002107F059FE10BDF7B51E0008AB1B7823
:101180000C0005001100019300283DD0201E3BD02B
:101190002800FFF7A5FF0700280031000A30FFF7FD
:1011A0009FFF0600280001991430FFF799FF020005
:1011B0000020022F04D12378013059424B41237083
:1011C000022E22D107210320AB7F01330B401C49A3
:1011D000AB7758430B00C35C0918A37041236371BC
:1011E00000234E788978E6702171E3710120022A8C
:1011F00018D1EB7F013201331340124AEB77D35CF5
:1012000063710023E3710120FEBD032EEFD16378EB
:10121000202019002039C9B29F2901D81B18D8B243
:101220006070E3E7032AEFD1A37920211A00103A76
:10123000D2B2CF2A01D85B18D9B2A171E3E7C04678
:10124000CA9B0111C69B0111F7B5051E33D01C4B7B
:10125000984704001B4B290018606808001907F024
:1012600043FE194B0100984221D91900174B200069
:10127000196007F039FE164E3060012005F078FE47
:1012800000281BD10122134C134922736A46134BC9
:10129000206121606560A3600C34C0CCC0C21048DE
:1012A0002A0005F07DFD002807D0032004E0022875
:1012B000DCD20221DAE701204042FEBD0220FBE73A
:1012C000D1A500007461FF1FFEFF00006C61FF1FCD
:1012D0007061FF1F7861FF1FFFFF16FF000107000D
:1012E000CC3EFF1FF7B5051E29D0164A4B1E934270
:1012F00025D80023144E8CB2020001213000019346
:10130000009405F06BFB122812D169460F4A104B6E
:1013100081CA81C130000ECB05F042FD00280DD1FD
:10132000030001902A0001213000009405F056FBD3
:10133000002803D1074A136801331360FEBD012062
:101340004042FBE7FEFF0000CC3EFF1F8461FF1F11
:101350007861FF1F6861FF1F014B18687047C04626
:101360007461FF1F014B18687047C0467061FF1F12
:10137000014B18687047C0466C61FF1F0B000028C6
:1013800005D00321594300234118884200D17047FA
:101390000370437083700330F7E7F0B507230E271F
:1013A000050001261D415A1E0824D2B2354200D044
:1013B0003C000500012615410822354200D03A00C4
:1013C0002401023B2243DBB20A700131FF2BE7D13B
:1013D000F0BDF0B504001500070085B0002820D04E
:1013E000171E1ED00C224A431700E0370192BB4261
:1013F0002AD303232E004B43C318039333000C332B
:101400000293039B9C420FD1019B60228821E81824
:1014100007F00AFD0198802260300021281807F0AB
:1014200003FD380005B0F0BD31002078FFF7B5FFAF
:10143000A078311DFFF7B1FF310060780831FFF768
:10144000ACFF0334029ED9E70027EAE770B5160027
:1014500004AA148805AA15784A6850781178000201
:101460002A4A0843801805284BD807F08DFC03133F
:101470001E29343F07221000062C0AD8121BAA424C
:1014800000D92A0022491A803000091907F0C4FD4A
:10149000002070BD0720112CFBD81222121BAA427B
:1014A00000D92A001B491A80EEE707200E2CF0D83D
:1014B0000F22121BAA4200D92A0017491A80E3E71B
:1014C0000720032CE5D80422121BAA4200D92A00C7
:1014D00012491A80D8E70720032CDAD80422121BFD
:1014E000AA4200D92A000E491A80CDE70720022C13
:1014F000CFD80322121BAA4200D92A0009491A8018
:10150000C2E700220A201A80C3E7C046DCD5FFFFED
:101510000E9C01118C61FF1FFE9B0111F99B0111B3
:10152000F49B0111F09B011110B50D21024A0348F3
:1015300006F0F6FD10BDC046E49B0111D03EFF1F32
:1015400010B5084CE368002B08D18022064B5202EC
:101550001B689B186360054B1B68236007F0ACFD9C
:10156000A06010BDC861FF1FC8F00040CCF0004073
:1015700070B5184A936A916A9942FBD116498A68F4
:101580009A421FD39A1A8B60144B0126186893B2A3
:10159000D202D20E4343424300204C681B0A1B195F
:1015A00012029B180E4C0A684B60551CA3420CD8C3
:1015B000002801D04B600A600A4A136008680A4B91
:1015C000186070BD581E821ADDE7084A30009B186B
:1015D0002A00EAE700F00040C861FF1F140AFF1F5D
:1015E00040420F00C8F00040CCF00040C0BDF0FF0A
:1015F00070B51F4C23793F2B01D93F2323711D4B1D
:1016000022791A701878C0B207F0AEFD18231A4973
:101610001A4A0B801A4913800B805380A379194909
:1016200080200B800C21938001334B43164D191CF5
:101630000001834200D9011C2980D1806379002BED
:1016400001D101336371237A012B01D80223237264
:101650006279237A0D4853430A21584307F08CFDE1
:101660000B4D2860E379052B01D81023E37170BD81
:10167000BC61FF1F480AFF1FBA3FFF1FEC40FF1F5E
:10168000B83FFF1FB63FFF1FB43FFF1F71020000AE
:10169000AC61FF1F064B70B51900064A31CA31C153
:1016A00002225A7100229A71FFF7A2FF70BDC04654
:1016B000BC61FF1F309C01117047000070B5040031
:1016C000013806280DD807F05FFB041135551D0CB5
:1016D00057002A4806F0B0F9294B0221187807F084
:1016E00083FD2100274806F0A7F970BD264806F0C3
:1016F000A3F9234B0821187807F06EFC0022234B36
:101700001A72EEE780220025204B52001A81FA223D
:10171000DD721F4B1A4E5B7A920008215A433078D3
:1017200007F022FB2900307807F0A6FC194806F0E4
:1017300083F9D6E7184806F07FF9114B082118788D
:1017400007F04AFC1548FFF7A3F9114B144A9B799F
:101750009380144A138000220C4BDA720132FF325C
:101760001A81114B1B78002BBBD0104A136007F075
:101770008BFAB6E70E48DAE70E48D8E799950111DB
:10178000D861FF1F17960111A8950111AC61FF1FC9
:10179000BC61FF1FBC950111CF950111C53FFF1F13
:1017A000EC40FF1FB63FFF1FB861FF1F34F0004041
:1017B000E6950111079601110300F0B50A4D8E1848
:1017C000B14202D152008018F0BD0C782F68240974
:1017D0003C5D0F271C700C7801313C402F683C5D4C
:1017E0005C700233ECE7C046B03FFF1F10220F4B86
:1017F00010B51A700F230E4C0E492370093A063BA0
:101800000D48637007F008FC2D2301220B490C489A
:101810006372FFF7D1FF01220A49FFF7CDFF0122D2
:101820000949FFF7C9FF0023037010BDD663FF1FEE
:10183000B763FF1F0E9C0111B963FF1F6709FF1FEC
:10184000C163FF1F6609FF1F6509FF1F10B5FFF782
:10185000CDFF084C084B207821000130C0B2187031
:1018600007F0BAFA2178054A0139C9B2002006F01A
:1018700075FB10BDB763FF1FD663FF1FB963FF1F62
:1018800010B5114B1A781870002A0ED000280BD111
:101890000E4B1A78062A07D85423D340DB0703D50A
:1018A0000B4B187801F036FE10BD0028FCD0074B1A
:1018B0001B78012B02D0033B022BF5D8044B0121EE
:1018C000187807F091FCEFE7DA63FF1F0164FF1F50
:1018D0000264FF1FF0B5624B87B01870614806F0D4
:1018E000ABF8614806F0A8F8604806F0A5F807F0E4
:1018F0005BFC03225E495F48FFF75EFF2D24030077
:1019000088211C70042249050130FFF755FF302360
:101910000222047043708370574C584B2000DA87C2
:1019200057490432FEF736FD062813D0200007F091
:10193000A3FA022809D00321200007F07DFC8D23A3
:10194000E3706E3B237119336371062220004C490A
:10195000FEF75AFC4B4B01251B68FC335C64FFF718
:1019600075FF0723484E494C3370053B2370043301
:10197000A370033BE3702371D233637144492A336C
:1019800044486570A37106F057F86423424F4348FA
:101990007979594306F050F82178A3786278059157
:1019A000A1793F4803916179029121790191E17810
:1019B0000091059906F040F80020FFF761FF3278AA
:1019C000384E23002900307801F066FD364A0021A8
:1019D000364B1278307801F05FFD6422344B204C96
:1019E0001D707B7953431900244A0A319381138275
:1019F000D18151822078202107F0E6FB012040426E
:101A000006F0F8FA0120404206F094FBFFF78CFD47
:101A1000FFF712F8274806F00FF801204042FFF7C1
:101A20006DFAFFF705FA80210A220901207807F0F4
:101A30009BF9280007F010FBF02000F0E3FE2900DE
:101A4000207807F0D1FB207801F0E0FE1A4807F07B
:101A500063FBFEF78BFF194805F0EEFF07B0F0BD02
:101A6000D861FF1F26960111549601116F9601113E
:101A70006040FF1F8C61FF1F6509FF1FEC3FFF1FC8
:101A8000ADAC00001064FF1FE43FFF1FC53FFF1F08
:101A9000B963FF1F85960111BC61FF1F9896011164
:101AA000B59601110264FF1FD663FF1FB763FF1FC6
:101AB000A863FF1FE8960111DA61FF1F1597011156
:101AC00070B520240E000D002640214209D0384B6D
:101AD0003848197A0131C9B2197205F0ADFF2000FA
:101AE00017E00BB2002B16DA334B187807F03CFAEC
:101AF000041E0CD00378912B06D143780E2B03D112
:101B000081882E4805F098FF200007F0C5FA802054
:101B10000002684070BD0224214208D0284805F028
:101B20008BFF234B01201E72FFF7AAFED7E7082484
:101B3000214207D0234805F07FFFFFF719FDFEF78C
:101B400015FFCCE7CB0615D51F4B20481A7AD9884C
:101B500005F072FFFEF70BFF1D4B1B78002B07D122
:101B6000FEF77EFF1B4B1B68DB0701D5FFF71BFA57
:101B70001020CEE70124214208D0174805F05CFF71
:101B8000164800F07BF807F067F9A8E780242401E5
:101B9000214202D0FFF76CF9A1E70424080020409D
:101BA0002142B7D00E4805F047FFFFF7FBF996E753
:101BB000AC61FF1F40970111D861FF1F48970111C9
:101BC00071970111A0970111A061FF1FAB9701113F
:101BD000DA63FF1FBC61FF1FBF970111A83FFF1F02
:101BE000DA970111F0B51B4B1B4F1B883A88040094
:101BF0001A4E1B4D85B09A420DD832889A420AD3AC
:101C0000184B1A882B889A4205D1174A174B12880D
:101C10001B889A421BD0052000F050FE3B8802AA88
:101C200013803388019053802B88114D93800F4B84
:101C300002A91B88D3800F4B2A78188802F096FBE4
:101C40000D4B08212878019A1C7007F06DFA05B039
:101C5000F0BDC046A663FF1FBA3FFF1FB83FFF1F7E
:101C6000B63FFF1FA463FF1FA263FF1FB43FFF1F08
:101C70000264FF1FBC3FFF1FA063FF1F13B50C4B87
:101C80001C78002C11D1002801D00A4B18600A4A98
:101C90000A4B11780A4A10780A4A01920A4A0092BD
:101CA000002206F04BF8200016BD1124FBE7C046C9
:101CB0000164FF1F9C63FF1F0064FF1FF063FF1F91
:101CC0000264FF1FDC63FF1FE063FF1F10B5064BBC
:101CD00012201B78052B06D1044B13221988044BC4
:101CE000187800F0C7FF10BD0164FF1FBC3FFF1F45
:101CF0000264FF1F10B500240122114B52421870DC
:101D0000104B1C70104B1A8001F080FD04220F4B09
:101D100021001A700E480C3206F0C6FF1022210076
:101D20000C4806F0C1FF07220B4B1C600B4B1C70CC
:101D30000B4B1C700B4B1A700B4B1C7010BDC0462C
:101D40000264FF1F0164FF1FBC3FFF1F0064FF1FF1
:101D5000F063FF1FE063FF1FDC63FF1FB663FF1F1D
:101D6000B563FF1FBE3FFF1FB463FF1FF8B5174CDD
:101D70000600257806A814240078052D23D1B41F69
:101D8000134FA5B21824BD421DD88D1FADB2BD4260
:101D900019D8FA256D00AA4215D21D000D4F0A3D33
:101DA000ADB2BD420FD80C4C26800C4C21800C49A2
:101DB00000240A800B4A1380FFF714FF0A4B04210A
:101DC000187807F009F92000F8BDC0460164FF1F2C
:101DD000790C0000750C0000BA3FFF1FB83FFF1FD1
:101DE000B63FFF1FB43FFF1F0264FF1FF0B50BB2E9
:101DF0000D0089B0002B00DB84E1AC4E307807F099
:101E0000B3F8041E2DD00378A22B00D133E1D02BE0
:101E10002CD0912B22D143780E2B1FD18388A44A3A
:101E2000934211D1A34A83681278052A16D1032060
:101E300018567F2812D0A04B1B68002B0ED05B6871
:101E4000002B0BD0984709E09C4A934206D1816849
:101E50009B488B784A78097805F0EEFD200007F062
:101E60001BF980200002684009B0F0BD8078072887
:101E7000F4D807F0D1F90800F3FF1C003C003C0047
:101E80007300A700D7006378002B0CD10121894B88
:101E900019708C4B1A78002A54D08B4B307801F093
:101EA000FBFA00284ED00722824B1A704AE0617874
:101EB0000029F8D1E378002B0AD0844A844B1278A9
:101EC000307801F0E9FA60706378002BC6D0EAE759
:101ED000784B1B78022BC1D00121307806F0B4FF7B
:101EE0000028F1D10121307807F07EF9ECE7637822
:101EF000002BD8D16F4F032807D13B78052B02D197
:101F000001333B701EE00223FBE7724B1A88724BD1
:101F10000293002A0BD01B78002B03D001213078CC
:101F200007F002F93B78062B04D1013BE9E7029B5D
:101F30001A70F7E7042B43D10121029B3078197006
:101F400007F052F95C4B1B68002B00D186E71B6839
:101F5000002B00D182E7574A107873E76378554F1A
:101F6000002B27D10622211D5C4807F055F8628915
:101F70005B4B5C491A80A2895B4B1A80E3890B801A
:101F80000521397059490A80594A1380228A594BD0
:101F90001A80594B1B78012B09D11F2000F08EFCB1
:101FA000FA22920042430421307807F0BDF8002263
:101FB000494B7AE7312B00D075E70022464B1A7067
:101FC00003239EE706220021444806F06DFE00230D
:101FD000464A04211380464A30781380454A1380CC
:101FE00006F0FAFF0821307806F0F6FFA379083BE7
:101FF0005A4253412F4A03331370324B1B78002B44
:1020000006D0354B30781A78002A06D001F082FAD3
:102010000122334B52421A8094E70121197007F0D4
:10202000E3F8F5E70821307806F0D6FF6378002B57
:1020300000D013E72D4B2F4F0293E388029A04211F
:1020400013802B4B307803932389039A1380638981
:102050003B8006F0F9FE002800D0FFE6274B1B6806
:10206000002B00D1FAE6039902983A880988008883
:102070001B689847F2E64379132B00D0EEE60389FC
:10208000012B0AD11E4B1B78022B06D10821307878
:1020900006F0A2FFFFF71AFEE0E6052000F00EFCB6
:1020A00008210200307807F03FF8D7E60264FF1FEE
:1020B000051400000164FF1F9C63FF1F2220000025
:1020C000FC970111E43FFF1FC53FFF1FD663FF1FB1
:1020D000B763FF1FD863FF1FDA63FF1FA963FF1FEA
:1020E000BC3FFF1FB063FF1FB263FF1FA663FF1F4C
:1020F000A463FF1FA263FF1FA863FF1F9863FF1F56
:10210000A063FF1F8020C001014200D0ABE6CB07D7
:1021100031D5324B1B78002B1DD0314E05AC3378B6
:10212000052B1AD1023B23702E4B21001B78237202
:102130002D4B1B7863722D4B187801F051F9002854
:1021400009D007202A4B30701B68002B03D01B6876
:10215000002B00D09847012085E60E20254B062253
:102160001B7825492370254B1B78637002ABC01880
:1021700006F052FFD8E7022308001840194209D0A0
:10218000174B1B78052B03D11D4B188806F074FDE7
:10219000022068E60424214203D0FFF723FD20003B
:1021A00061E6082308001840194200D15CE6154B8F
:1021B0001C78012C03D0022C0DD0082053E6124BC2
:1021C000124A134913481B88128809880088009412
:1021D000FFF7CCFDF1E7FFF779FDEEE7DA63FF1FCC
:1021E0000164FF1FBE3FFF1FB463FF1F0264FF1F98
:1021F0009C63FF1FB663FF1FBF3FFF1FB563FF1F39
:10220000BC3FFF1FA063FF1FB43FFF1FB63FFF1F70
:10221000B83FFF1FBA3FFF1F10B5034C0B00012250
:10222000210000F06BFA10BDD92301110B8870B5A5
:1022300006000D000224162B11D92B000322094998
:1022400000F05CFA041E0AD1074B2A881B88191C6F
:10225000934200D9111C300089B200F0EFFA20003F
:1022600070BDC046052401111664FF1F10B54A78E1
:102270000400013A0B000220012A07D80A78002A3C
:1022800004D005222000024900F038FA10BDC046F3
:10229000332401110A7810B50B0004000220002A33
:1022A00004D007222000024900F028FA10BDC046E1
:1022B000DF2401110A7810B50B0004000220002A67
:1022C00004D009222000024900F018FA10BDC046CF
:1022D0004525011110B5034C0B000B22210000F025
:1022E0000DFA10BD7525011110B5034C0B000D2220
:1022F000210000F003FA10BDE725011110B5034CD1
:102300000B000F22210000F0F9F910BD4126011148
:102310000A7810B50B0004000220002A04D0112214
:102320002000024900F0EAF910BDC0465126011113
:10233000002310B51322190000F0E0F910BD0000D1
:1023400010B5034C0B001722210000F0D7F910BD87
:10235000A3260111002310B51922190000F0CEF9AF
:1023600010BD000010B5034C0B001B22210000F033
:10237000C5F910BDDD260111F7B584890D000600F1
:102380000121002C22D000238268D3561778002B1D
:102390001EDA0C2C1AD90C3CA4B2131940880093F5
:1023A000230002F012FF431E984101307B06DB0F31
:1023B0006B703F23013C1F40A4B22870AF70AC800B
:1023C000002C07D0B3680133AB6000210800FEBDCC
:1023D0000020EBE7AC60F8E70B7803704B884370A4
:1023E0004B881B0A83700B79C3700420704704204C
:1023F000022B06D10020537811781B02009A0B4360
:10240000138070470B8803700B881B0A43700220EF
:1024100070470420009983420AD1537810781B0238
:1024200003430B80D37890781B02034300204B803A
:102430007047F8B50D004B7801240021461C03704D
:102440002B788B4201D82000F8BD6B78B01C4F1C54
:10245000012B10D1890069184B88022233704B88F8
:10246000B9001B0A7370691806F056FD043604346F
:10247000A4B2F9B2E4E7122359436B185A88043125
:1024800032705B8810221B0A7370691806F044FDD5
:1024900012361234ECE770B5049D14001E00052BB3
:1024A00001D8042070BD637812781B0213432B807F
:1024B000E378A2781B02134302226B802A71211D4C
:1024C000681D063E06F028FDB2B22A81E92AE8D846
:1024D0002800A11D0A3006F01FFD0020E2E70023BE
:1024E00010B50A789A4201D8900010BD9A008A1857
:1024F0005488013304705488DBB2240A44709488F1
:1025000084709288120AC2700430EAE710B5110094
:10251000029C062B04D004201022142B01D010BDE5
:10252000022222714B7808781B0203432380CB7868
:1025300088781B02034363800431601D06F0ECFCC5
:102540000020ECE710B50C788B7804315C43E4B2E2
:1025500003702200013006F0DFFC601C10BD042077
:10256000022B06D10020537811781B02009A0B43EE
:102570001380704710B50C000A88023106F0CCFCBD
:10258000208810BD70B504000D0004981100012BC7
:1025900001D8042070BD16785278120232430280AE
:1025A0000200F13255701470E125002C00D10C3579
:1025B000023B9AB24280AA42EBD80231043006F0C4
:1025C000ABFC0020E6E70420009983420AD153784F
:1025D00010781B0203430B80D37890781B020343CF
:1025E00000204B80704710B50C000A88023106F0BD
:1025F00093FC208810BD000070B501211E0004204E
:10260000049C0E400B4218D1CB40DDB28D4214D950
:102610000A49DBB2098899420FD32300EE331D70BB
:102620003300580011184978165C09023143013310
:102630002152D9B28D42F4D8002070BDE63FFF1F71
:1026400010B50C000A88023106F066FC208810BD27
:1026500010B50C788B7804315C43E4B2037022002F
:10266000013006F059FC601C10BD10B51100029835
:10267000032B01D8042010BD14785278043B1202B9
:1026800022430280CA788C781202224342809AB296
:102690008280EB2AEED80431063006F03DFC0020A3
:1026A000E9E710B50C000B8803700B881B0A437018
:1026B0004B8883704B881B0AC3708A8804300631AC
:1026C00006F02AFCA088043080B210BD0420012B43
:1026D00003D100201378009A1370704710B50C00D6
:1026E0000B8803700B881B0A43704A880230043140
:1026F00006F012FC6088023080B210BDF0B589B0DF
:1027000003931E4B029242000700D05A019102F03F
:1027100050F81325061E2DD0029B01240370019B47
:10272000002B04D0001903999847001984B26B4616
:102730001B7A5BB2002B0FDA1021380002F0A8FBE5
:102740001925002813D130003219E1B202F0F2FC51
:10275000051E0CD10C34A4B2042304AA380005A928
:1027600093800696948101F0DFFD051E02D03000B3
:1027700006F012FD280009B0F0BDC0461464FF1F2A
:1027800070B505000C0000280CD00020814209D053
:1027900010222000044906F0BFFB01202B78237390
:1027A0006B78637370BDC0463C9C0111F0B50600A8
:1027B0000D0017001C0085B002291BD00020102935
:1027C00007D1022B07D0102B03D115E00020102CCD
:1027D00008D005B0F0BD69463800FFF7D1FF2A00E8
:1027E00069460BE069463000FFF7CAFF22006946E0
:1027F000380004E0022BE9D12A003900300006F04D
:102800001BFCE6E7031CF02800D9F023032008494D
:102810009AB2013A0B80D317034006499B189B10CC
:102820000B80D30F04499B185B100B807047C04688
:10283000EA3FFF1FE83FFF1FE63FFF1F054B10B5B4
:102840001B888B4205D3044B4000C152034805F05E
:10285000F3F810BDEA3FFF1F1464FF1F0F9801112A
:10286000014B4000185A70471464FF1F1722014B98
:102870001A8070471464FF1F70B505000E2006F023
:10288000FBFC041E13D0D0230370002306228370A8
:1028900007494570033006F03FFB064B2100DA8AFA
:1028A00062811B7E2373044B187806F095FC70BD83
:1028B0003064FF1F2064FF1F3A40FF1F262803D803
:1028C000024B4000C05A70470148FCE7EC3FFF1F35
:1028D000FFFF000070B506000C00094D1C2200210E
:1028E000280006F0E1F9074B1E70074B1C7006F03C
:1028F000B3FC0123002801D0002312202B7070BDEF
:102900002064FF1F3A40FF1F4164FF1F70B50500A0
:102910000D4C0800E260A16010220021656006F005
:102920003BFB012803D11021A06802F004FE102215
:102930000021280006F030FB012803D11021606837
:1029400002F0F9FD70BDC0462064FF1F70B5041E83
:1029500005D1002903D006220D4806F0DDFA0D4B03
:102960001D78012D11D1002C05D102221A7006F01C
:1029700043FC280070BD00221A70074B1B78FF2B08
:10298000F7D02000FFF778FFF3E70025F1E7C04616
:102990003064FF1F2064FF1F3A40FF1F030010B583
:1029A000002801D1002010BD00780B4A002803D177
:1029B0005988D1821B7913761378022BF2D1002328
:1029C000984200D103331370044B1B78FF2B01D0C6
:1029D000FFF752FF0120E6E72064FF1F3A40FF1F88
:1029E000002911D000280CD04B79012803D14022B6
:1029F0005242134303E03F221340032802D0012038
:102A00004B7170474022F4E70800FAE770B5094DB2
:102A10000100287800280BD0074C0622200006F081
:102A20007BFA21002878FFF7DBFF200006F0DCFAB4
:102A300070BDC0464064FF1F1A64FF1F00290AD002
:102A4000012808D13F224B799343C02B03D0403B50
:102A50005A425341981C704770B5174D06002B78A9
:102A6000FF2B15D00A2006F007FC041E10D0D0233F
:102A70000370C83B8370114B11491B784670C370BB
:102A80000622043006F048FA2100287806F0A4FB5C
:102A90000C4B1B78012B0DD10B4B1B68002B03D06B
:102AA0009B68002B00D09847084B04211878084AEF
:102AB00006F05AF970BDC0463A40FF1F4064FF1F40
:102AC0001A64FF1F3C64FF1F6864FF1F6C64FF1FD4
:102AD00060EA0000014B98687047C0462064FF1F01
:102AE000014BDB68186870472064FF1F074B10B567
:102AF000DA68136801331360054B1878FF2803D098
:102B00008021C90106F070FB10BDC0462064FF1F84
:102B10003A40FF1FF7B50E0002F04EF9051E1CD01B
:102B20000E4B06621F78002F00D10778AB7910207A
:102B3000019306F0A1FB041E0FD0D0230380C73BF6
:102B40008370019BE91DC3700622043006F0E4F98E
:102B500021003800E66006F03FFBF7BD3840FF1F5C
:102B6000014B18787047C0464064FF1F054B002892
:102B700005D1054B1A78054B002A00D1014B1800EE
:102B80007047C0463064FF1F4064FF1F1A64FF1F78
:102B9000014B58687047C0462064FF1F024B1868FD
:102BA000431E9841C0B270474464FF1F421E030099
:102BB0000120152A03D9FF3B5A425341D8B270472E
:102BC000F0B51C0000230E0085B0039002920B703C
:102BD000029A934201D3002019E0E55C5A1CD2B25C
:102BE000002DF8D0029851198142F4DC0233DFB293
:102BF000A35C18000193FFF7D9FF002807D0013D1F
:102C0000019A0399EBB233708A4202D1E01905B000
:102C1000F0BDDB19DBB2DBE710B50C0002F024F9E4
:102C200003001220002B03D02100588806F02CFB53
:102C300010BD000070B50E4D84006359002B15D0F7
:102C4000186A002801D006F0F7F82B59586A0028B6
:102C500001D006F0F1F82B59986A002801D006F04F
:102C6000EBF8285906F0E8F800232B5170BDC04658
:102C70005064FF1F1C4B70B504000E0015009942F4
:102C80000AD11A4B1B68002B01D1122070BD1B68A2
:102C9000002BFAD09847F9E7154B994215D1134B01
:102CA0001B68002B0AD01B68002B07D09847002810
:102CB00004D1104B1C70104B1D70E7E72900200059
:102CC000FFF7AAFF0028E1D1F3E7080002F074F84B
:102CD0000028DAD003780320A342D7D1290030009E
:102CE00006F0D2FAD2E7C046FEFF00004C64FF1F98
:102CF000FFFF00004964FF1F4864FF1FF7B5040091
:102D0000808802F059F80025A84203D00578A088F1
:102D100002F08EF81C4E3378002B1FD0AB421DD131
:102D20001A4B28001978FFF777FF002818D00023E6
:102D30003370A3790820A778A688019306F09CFA3F
:102D4000011E0DD0D0230370CA3B8370019B4770D6
:102D500086808371280006F03FFA01E0002DE8D15B
:102D6000A0880B4B8200D358002B01D0FFF762FFE5
:102D70001721A088FFF762FDA08801F057FDA08809
:102D800001F062FEF7BDC0464964FF1F4864FF1FA3
:102D90005064FF1FF0B587B01D000CAB1B88070007
:102DA00001930DAB1B88142002930EAB1B881600F9
:102DB00003930FAB1B880091049310AB1B88059302
:102DC00006F05AFA041E1AD0D0230370CB3B47708A
:102DD0008370C670062229000430002D11D006F041
:102DE0009BF8019B21006381029B0098A381039BB8
:102DF000E381049B2382059BA37406F0EDF907B0E1
:102E0000F0BD05F051FFECE7F7B5009308AB1B8868
:102E100007000C200D001600019306F02DFA041E89
:102E200013D0280001F0C8FF00280FD00078D0236D
:102E30002370C93BA370009B21002381019B677015
:102E4000A580E680638106F0C7F9F7BD014B1878CD
:102E5000EDE7C0463A40FF1F13B5040064890389BB
:102E6000C2888188C0780094FFF7CEFF13BD0000B0
:102E700010B5044C2068002803D005F0DDFF0023C6
:102E8000236010BD5464FF1FA122F0B58188920019
:102E90004A43384B384F1B6804009B189D22920010
:102EA0009B18827989B01A603B68002B5FD01D782F
:102EB000324B1B68002B04D05B68002B01D0002034
:102EC0009847260008363100E079FFF7B7FD237DEB
:102ED000E0710200E0780493638A29000393238A57
:102EE0000293E3890193A38800933300FFF752FF15
:102EF000E378002B0BD1E289A379A1880292019695
:102F0000E27928000092012201F060FFE0703B6846
:102F1000002B20D0FFF7ACFF194D287800281AD0DD
:102F2000184B1978FFF778FE002814D02B78E67834
:102F300008200793A78806F09FF9011E09D0D02327
:102F40000370CA3B4670837087808671079806F0CD
:102F500043F900232B701721A088FFF76FFCA0888E
:102F600001F064FCA08801F06FFD09B0F0BD064BD4
:102F70009DE7C0463409FF1F5464FF1F6864FF1FAC
:102F80004964FF1F4864FF1F3A40FF1FF8B5070060
:102F900008000E0001F010FF041E18D02620FFF7D5
:102FA0008DFC051E00D12578062006F065F9041E6B
:102FB0000DD00021062205F077FED0232370C23BFE
:102FC00021006770A370A680E8B206F005F9F8BD8D
:102FD000F0B585B001930AAB1B78070002930BABE9
:102FE0001B7808000D000092039301F0E5FE061E19
:102FF00022D0102006F040F9041E1DD0102200211E
:1030000005F052FE2620FFF759FC002800D1307849
:10301000D0232370C13BA370009B21002372019B2E
:1030200067706372029BA580A372039BC0B2E372B8
:103030000C9BE36006F0D0F805B0F0BDF7B50D00CD
:10304000019001F0B9FE071E20D00E2006F014F901
:10305000041E1BD02620FFF731FC061E00D13E784F
:10306000D0232380C53B0622A370F91DE01C05F088
:1030700053FF019B2A0063810123DD401A401D405C
:10308000210022736573F0B206F0A6F8F7BD0000C8
:10309000F0B585B0029010000D0017000A9E039352
:1030A00001F08AFE041E31D0029B002B2ED1039B1F
:1030B00002795B0724D5122313430422002E08D182
:1030C0000B99002905D10C99002902D10D990029ED
:1030D0001AD01A430D9B2271002B00D0C9E0002E9C
:1030E00000D1CFE0002D00D0CCE0606A002801D0F4
:1030F00005F0A2FE1C21300005F0FEFF606205E035
:1031000002239A430E33D7E793432371654BBA00EA
:10311000D458002C00D1AAE0002E10D0236A002B36
:1031200003D11C2006F0C8F820625E4BBA00D358C9
:10313000186A002803D01C22310005F0EDFE0C9B1C
:10314000002B12D0574CBB001D596B6A002B03D1CA
:10315000162006F0B1F86862BB00E358586A0028F0
:1031600003D016220C9905F0D7FE0D9B002B11D031
:103170004C4DBC006659B36A002B03D1142006F0F5
:103180009BF8B0622B59986A002803D014220D993D
:1031900005F0C2FE380001F00FFE051E67D0414B5E
:1031A000BA00D358002B62D01A6A3420002A00D10A
:1031B0001C389A6A002A01D0143080B20B9A002A77
:1031C00001D01C3080B25B6A002B01D0163080B277
:1031D00006F052F8041E4AD01822002105F064FDC2
:1031E0002620FFF76BFB0190002801D12B7801937B
:1031F000D0232370029B200063700A23294EA37002
:10320000039BBD00A371AB59A780196A1830002930
:1032100005D01C22A06005F07FFE200034307359D9
:10322000996A002907D0030014221433E060029346
:1032300005F072FE02980B9B002B08D003001C22A5
:103240001C330B992061029305F066FE02987359B6
:10325000596A002903D01622606105F05DFE6B46B5
:103260002100187905F0B8FF3800FFF7E3FC05B03E
:10327000F0BD10220D9B0D991B69A018236205F06B
:103280004BFE2CE70B9B002B00D13FE7012D00D01C
:103290003CE7606A002801D005F0CEFD1C210B98A8
:1032A0002AE7C0465064FF1F10B5044C2068002870
:1032B00003D005F0C1FD0023236010BD4464FF1F4F
:1032C0000B4B07B51A68002A01D100200EBD6946D4
:1032D000531C012012780731FFF772FC0028F4D04C
:1032E00002780123100018401A42EED0EEE7C046E3
:1032F0006064FF1FF0B51F4F01203B6887B0002BB3
:1033000025D09B78059300F0DDFB002821D00A2012
:10331000FFF7D4FA04000B20FFF7D0FA164B050094
:103320001E78731E9E413B68F6B2191DD878FFF7D0
:1033300057FB3B682900DA7A043303929A790193A8
:103340000292009033002000059A05F0CDFE07B0F0
:10335000F0BDFFF7B5FF002805D00620FFF7AEFA55
:1033600004000720D8E70820FFF7A8FA0400092086
:10337000D2E7C0464464FF1F4064FF1F70B50A4E89
:10338000040033780D00FF2B0DD0042005F074FFEE
:10339000011E08D0D0230370CE3B45708370C470EB
:1033A000307805F019FF70BD4840FF1F70B504006C
:1033B00006200D0005F060FF011E0AD0D023037027
:1033C000CD3B8370054B44701B688580187805F0F1
:1033D00003FF002C01D0FFF767FF70BD4464FF1F9F
:1033E000F8B5264F06003B680D001124002B05D1CF
:1033F0000522234B1B78134202D112242000F8BD72
:10340000204A10241268002AF8D01278002AF5D039
:10341000DB0719D52B789A1E012A1AD80C2005F043
:103420004BFF132438600028E8D000230A224370A1
:1034300029000670023005F06FFDFFF75BFF041EE8
:103440000AD0FFF731FFD9E700F03CFB0028E1D1BB
:10345000E4E7002BE2D0D0E70B4B1B78032BCDD158
:103460001D20FFF72BFA094B18800028C6D0084B07
:1034700004211878074A05F077FCBFE74464FF1F72
:103480004164FF1F6064FF1F4064FF1F3E64FF1F15
:103490006C64FF1F60EA0000F7B50193194B14003C
:1034A0001A78052306000F0012201A4221D00129A4
:1034B00020D1154B1D68002D1BD002201F2C18D8C1
:1034C000002C02D0019B002B13D0104B1F221E702A
:1034D0006E1C0021300005F0E7FB0199220030004E
:1034E00005F01AFD310020002C70002F06D005F0E9
:1034F00083FCFEBD064B12201D68DCE705F06CFC6A
:10350000F7E7C0464164FF1F6064FF1F4840FF1F8C
:103510005C64FF1FF8B50F4E12243368002B17D0E0
:103520001B780F3C834213D100250B4F02213878C2
:1035300005F052FD094B042138781D8005F04CFD43
:10354000074B28001D8033685C7005F07DFE040089
:103550002000F8BD4464FF1F6C64FF1F5864FF1F08
:103560003E64FF1F70B5012823D11B4C2388002B1C
:1035700003D01A4A1578002D07D0194B1B68002B71
:1035800002D01878FFF7C6FF70BD3B2B02D93C3B39
:103590002380F9E7134E0221307805F01DFDFA2251
:1035A0002388920002215A43307805F0BDFD258022
:1035B000EAE70B4B1B68002BE6D00B4B1B785B0735
:1035C000E2D5084B0221187805F006FD0022024BD7
:1035D0001A80FFF769FED7E75864FF1F3C64FF1F9E
:1035E0004464FF1F6C64FF1F4164FF1FF8B51E4D4C
:1035F0002868002803D005F01FFC00232B601B4E19
:103600003068002803D005F017FC00233360184F02
:1036100005243B7818002040234221D0154800F0B3
:1036200055FA3B78234213D0202005F045FE286050
:10363000002813D02022002105F036FB202005F0C1
:103640003BFE041E306005D02022002105F02CFB3B
:10365000002004E0286805F0EFFB2C601320F8BD83
:1036600000F034FAF4E7C0466064FF1F5C64FF1F9B
:103670004164FF1F3C40FF1F10B50A4C23681A1E0F
:103680000ED0002808D10130587005F0DDFD00286B
:1036900005D02368002B02D00021FFF787FE01220E
:1036A000100010BD4464FF1FF7B5274E05003368B6
:1036B0000191181E21D05C78244F012C30D1FFF7E6
:1036C000FFFD002825D02000FFF7F8F8040041286E
:1036D00014D91F4B022118781E4A05F045FB1E4BDA
:1036E0003C3C1C80022233685A703B78002B14D17A
:1036F00028000199FFF75AFE0120FEBDFA22920030
:103700004243002AEED0124B0221187805F00CFD3E
:10371000E8E7FFF7D3F80200F3E700233B70EBE79D
:103720003B78002BE8D1032005F0A6FD011E08D050
:10373000D0230370CC3B457083703368187805F054
:103740004BFDFFF7B1FDD7E74464FF1F3C64FF1F4B
:103750006C64FF1F60EA00005864FF1F10B5204B27
:103760008188994234D016D81E4B994207D81E4BF7
:10377000994221D81D4B994219D0002010BD1C4BF5
:103780009942FAD1836899785A78090218781143D6
:10379000FFF78AFFF2E7174B99421DD0164B002026
:1037A000CB18052BEAD8154804F046F90EE08368DB
:1037B0001878FFF761FFE1E7114A836888184242F1
:1037C00050411B78C0B21900FFF7D8FD0120D5E7A2
:1037D00083680C481978E7E783680B481978E3E7B2
:1037E00051200000092000000720000006200000F2
:1037F0000A20000052200000ADDFFFFF1E980111DB
:10380000F8DFFFFF4B98011164980111014B18700C
:103810007047C0464940FF1F10B5064C207001F0AC
:10382000A7FA207805F050FA0521207800F06CFD09
:1038300010BDC0466C64FF1F0BB273B50D00002BAA
:1038400000DBCBE08B4B187805F08EFB041E0ED00E
:103850000378912B0FD0A22B00D1A8E0864B1878CB
:10386000FF2852D0210005F0B7FC00284DD1802060
:103870000002684076BD43780F2B76D013D8052B15
:1038800070D00E2BEAD180887C4B98422BD87C4B91
:1038900098421BD87B4B9842E0D1A3681878591CFA
:1038A000FFF754F838E03E2BD8D18378032B79D03A
:1038B0006CD8012B73D0022BD0D1734B1B68002B1B
:1038C00023D05B68002B20D098471EE06F4BC018B8
:1038D0000C28C3D805F0C8FC1DC2C2150BC20B0BC7
:1038E0000B3223C23C006A4BC0180728B6D8694B7C
:1038F0001B68002B09D01B68002B06D020009847BE
:103900000AE0A3681878FFF7A7F8200005F0C4FBC9
:10391000ADE7A068FFF742F800289FD0F5E7A3685D
:103920001B78002BF1D0584B1B68002BEDD01B6887
:10393000002BEAD0210058489847EDE7524B1B680E
:10394000002BE2D01B68002BDFD021005348F3E7A7
:10395000534B1B68002BD8D05B68002BD5D02100BF
:103960004648E9E7FFF7CAF9CFE780884D4B984210
:1039700003D04D4B984200D070E7494B1B68002B99
:10398000C3D05B68002BC0D02100D5E7152B0CD02D
:103990004648162B00D061E704F04EF8B5E7FFF774
:1039A00073FAB2E7FFF758FAAFE74148F4E7414B43
:1039B0001B78042B07D100236A46138001794088C5
:1039C00000F0C8FCA1E7364B1B68002B9DD05B685C
:1039D000002B9AD001003848984796E701242142ED
:1039E0000AD0294B1B68002B04D05B68002B01D048
:1039F0000020984701203CE78B070AD5254B1B6820
:103A0000002B04D05B68002B01D0200098470220D7
:103A10002FE70421280008400D4200D12AE7274E55
:103A20003388002B21D0013B9BB23380002B1AD16D
:103A3000FFF7B4F800280AD0214B1C70154B1B6807
:103A4000002B04D05B68002B01D020009847FFF7C3
:103A50009FF8694601F086FD6846FEF7D7FF1D20F6
:103A6000FEF72CFF3080042003E7024B187805F0A6
:103A7000B3FAF8E76C64FF1F4940FF1F0E200000F7
:103A800001200000091000006464FF1FFEDFFFFF3B
:103A9000AFDFFFFF6864FF1F0C2000000B20000059
:103AA0004C64FF1F0D20000013200000BA98011184
:103AB0007E9801114164FF1FFFFF00003E64FF1F5D
:103AC0003C64FF1F10B501F0F7F910BD014B186001
:103AD0007047C0466864FF1F0B880020162B01D872
:103AE00017230420014A13807047C0461664FF1F45
:103AF00000207047074A03001188814207D091884F
:103B00000020994202D10130800010187047002037
:103B1000FAE7C0467464FF1FF0B58F7806000D0009
:103B2000C5B01E2F15D1FFF7E5FF051E03D10024F8
:103B3000200045B0F0BD00223B003100C07800926B
:103B400000F0B2FB0400A81C00F0D2FBFF23EB70D6
:103B5000EEE7264B062403931B78FF2BE8D0182FA3
:103B6000E6D87B08224A013BDB0002929A58944631
:103B7000002ADDD0029AD3185B68002BD8D00878D1
:103B8000002802D14B78012B02D10624122FCFD16D
:103B900007AFAB88697800976446AA68A047041EFF
:103BA000C6D1AB78029A5B08013BDB00D318390021
:103BB00030005B689847041E0BD1AB78042BB6D05D
:103BC000039A310010782200009700F06DFB04008A
:103BD000AEE76A78002AABD1AA7805A93B880871BC
:103BE00030000A704B80FEF717FBA0E74C40FF1F28
:103BF0004C9C01111D4B37B5050098420BD0002994
:103C00000AD1FFF777FF002805D11948FFF772FFA7
:103C1000002800D0058037BD01291AD1FFF76AFFBF
:103C2000041EF8D001235B420380A378FF2BF2D05F
:103C3000FE2B07D00023E0781422009329001E33C6
:103C400000F032FBA01C00F053FB01235B426380B9
:103C5000E1E70229DFD1013901F01AF90028DAD1B0
:103C60002800FFF747FF041EDFD1D4E7FEFF000066
:103C7000FFFF0000022210B5074B52421A8007488E
:103C800001325A809A80DA8000F07EFA044801F00E
:103C900081F8002010BDC0467464FF1F193B01115C
:103CA000F53B01110388F7B50400002B02D1022572
:103CB0002800FEBD42680221137825485268FEF7AD
:103CC00075FD00282ED0234F01253A88002AEFD019
:103CD000802321885B0201259B1A9942E8DC0C2095
:103CE00005F0EAFA061E31D03B8822889C46002364
:103CF0001800019561469DB2491989B2AA421BD8A4
:103D0000002801D062443A8000233000082208C015
:103D1000210005F001F9104A1368002B13D100258A
:103D20001660C5E76268022113780C485268FEF7F6
:103D30003DFD0028C7D1BAE760681D0140194181E7
:103D400001330198D6E71A001B68E6E71325AFE7B1
:103D5000BA9C01114A40FF1F7064FF1FB89C0111FB
:103D6000014B18707047C0464C40FF1F14230A00D7
:103D700010B51A40194204D00122102101F0A4F814
:103D800010BD4B06F9D4012088434000F8E710B578
:103D900014008B0604D50122102101F095F810BD06
:103DA00008230A001A40194202D14BB2002B0FDA45
:103DB000102101F089F8002808D02300F2331B7885
:103DC000002BECD0F1342378012BE8D10020E6E77A
:103DD00003208907FAD4E2E7F0B51F00184B85B03D
:103DE0001C68019002910392002C27D1200005B09D
:103DF000F0BDA5683301ED186B89019A934211D388
:103E0000029A93420ED8002F04D10A9B002B10D1A6
:103E10002C00EBE73B002978039A6868FEF7C6FCA4
:103E20000028F2D10136B6B2A388B342E1D82468A3
:103E3000DAE7A3680A9A5B891380E9E70026F3E7CB
:103E40007064FF1F37B50C000A884988012391422E
:103E500017D3002A15D0651D23792A0002210A48AC
:103E6000FEF7A4FC102300280BD02379618820885A
:103E700000242A000094FFF7AFFF0A23A04200D0DD
:103E8000230018003EBDC046BA9C011113B50A00BC
:103E900008884988012388420BD8002809D00024CB
:103EA000137905320094FFF797FF0A23A04200D050
:103EB0002300180016BD13B50A000888498801239D
:103EC00088420BD8002809D00024137905320094C9
:103ED000FFF782FF0A23A04200D02300180016BD7E
:103EE000F0B58BB003904A8808880E000123824207
:103EF00055D3002853D00023012704AC237000229F
:103F0000718813000092FFF767FF051E3ED02078EE
:103F1000002835D12B78022B18D167706A8983006D
:103F20000130E31880005A8069680222201804F0EA
:103F3000F3FF23780133DBB22370042B19D93B0044
:103F40006889013080B2002BD9D01FE00223637052
:103F5000122358436A89231804305A806968102252
:103F6000201804F0D9FF23780133DBB22370002B33
:103F7000E5D10C4A6B899B185A425341DBB2DFE70B
:103F80006378012BE4D12B78022BC7D022780A2347
:103F9000002A04D021000398FEF768F900231800D6
:103FA0000BB0F0BD0100FFFF0F4BF0B50400186827
:103FB000002816D083685D89A54207D88288AE188C
:103FC000B44203DA12019A18934201D10068EFE774
:103FD0001E005F891036A74204D1002900D00D8051
:103FE0001800F0BD3300EFE77064FF1F70B50500E7
:103FF0000C0008880021FFF7D7FF03000120002BE9
:1040000004D022002800197AFFF7C1FE70BDF7B571
:104010000C00002501902300EE331B78AB4201D841
:1040200000200AE06B00E65A00213000E718FFF795
:10403000BBFF002802D126800130FEBD017A019825
:10404000FFF794FE002802D03B882380F5E7013576
:10405000EDB2E0E710B5040008880021FFF7A4FFE7
:1040600003000120002B03D02000197AFFF77EFE09
:1040700010BD0000054B1B68002B01D1180004E0A7
:104080009A6852898242F6D1988870477064FF1FFF
:10409000F0B50E27002687B0039302ABFF183E80D1
:1040A00005001F4B40891400984207D02B7801303F
:1040B00000976A6880B2FFF78FFE060002212B7816
:1040C00018486A68FEF772FB00280FD06C89200040
:1040D000FFF7D0FF002802D0013C0419A4B2039BD3
:1040E000002B00D01C80300007B0F0BD02212B78DF
:1040F0000D486A68FEF75AFB0028E7D102212B78A9
:104100000A486A68FEF752FB002807D0002EDED06E
:104110003B88A342DBD17489013CDFE76C89DEE791
:10412000FFFF0000BA9C0111B89C0111B69C01115F
:1041300010B50C00FFF7DEFC03000220002B0AD0B4
:10414000002C00D023609B781720FE2B03D0013871
:10415000FF2B00D1002010BD73B50D0001A9040094
:104160001600FFF7E5FF172805D0002E04D129001F
:104170002000FEF7F7F876BD01221021200000F0A4
:10418000A3FE0028F3D0F6E7014B18607047C04645
:104190008064FF1F37B56B469D1D0100040002229D
:1041A000280004F039FF2B88B02B0ED12379122B75
:1041B00009D12300FA331B78012B06D10121608835
:1041C00000F0E0F801E01B2BF8D037BD10B5054B2F
:1041D0000421187000F098F8FFF74CFDFEF746FB3D
:1041E00010BDC0468464FF1F0020F0B50BB20F0065
:1041F00087B0834234DA274B187804F0B5FE051EE9
:104200002BD00378A02B25D103AE3100FEF7B4F8F4
:10421000041E0BD1B378DB0724D51F4B06341B6873
:10422000002B03D03100688898470400A868002854
:1042300001D004F0B1FF002C08D1184A039B1340B1
:10424000174A934206D0B3781B2B03D0012168880C
:1042500000F098F8280004F01FFF8020000278404A
:1042600007B0F0BD0F4B1B68002B10D031006888E1
:104270009847041EDAD07378002BD7D1B27801A901
:104280000A704B800C716888FDF7C6FFCEE70624E4
:10429000F1E7C0468464FF1F7C64FF1F00FFFF003E
:1042A000000112008064FF1FF7B50190FC200D0093
:1042B00017001E0004F0E0FF04001320002C12D0B1
:1042C000B02320002370089BF4226770658026715C
:1042D0000830002B08D0190004F01EFE21000198C0
:1042E00004F07AFF0020FEBD089904F0DDFCF5E73C
:1042F00010B5041E06D00078FD2803D804F0B4FCE5
:10430000FF23237010BD00000A1F93B210B50400F4
:104310000220032B05D882400020024BD1529B186B
:104320009C7010BDA464FF1F0B8870B5043B040093
:104330000D000220032B0BD80121200000F0A8FD66
:1043400003001420002B03D02900200000F028FCDB
:1043500070BD000007B51300034A00920A00012156
:1043600000F088FC0EBDC0469145011107B50192D1
:1043700003220092024B0A00122100F0A5FC0EBDA0
:104380000F46011107B56B4601AA11800449D88078
:1043900008780633012802D1190004F0DDFC07BDBE
:1043A0008564FF1F0C4B10B518700023FF210B4ACA
:1043B0001380138193819380094A53801370517243
:1043C00093819372D174D3821375517704F0ACFC4E
:1043D00000F0FCF910BDC046B464FF1FA464FF1FC9
:1043E0008664FF1FF0B58DB06B46002003910C2250
:1043F0009B5E834200DBB0E05D4B187804F0B4FDB7
:10440000051E00D1A4E00378902B00D09DE006AFFC
:1044100001004688380000F01FFA7968040000297E
:1044200000D19CE03B88052B6ED13B89032B1CD926
:1044300005AC200000F0A2F86288172A61D83989FB
:10444000131D994231D17968237804310291D9073B
:1044500038D5607800F08EF9071E06D0002303716E
:104460002378012B08D0132B23D0A868002800D173
:1044700078E004F091FE75E06288029909A800F0E6
:10448000A6F80290380000F08BF909AA2378387A50
:104490000192002231000092029A00F012F93800D5
:1044A00000F064F9029B002BDFD0300000F080F9AF
:1044B000DBE70378032BD8D16288029909A800F0C2
:1044C000D6F8DEE7122B13D1029909A800F0B5F84F
:1044D000021EEAD127498B88002BC6D0887909A90A
:1044E0002378019161780091310000F0EAF8BCE78F
:1044F000002302AA93833000617809AAFFF72AFFFC
:10450000B3E71D4B0993F6E7042B02D09A1F012A4B
:10451000ABD8184A043B9B00995A0029A5D0D21861
:10452000907831003A0000F0AEF800289DD13B8829
:10453000042B03D001213000FFF724FF012C04D10C
:10454000A868002801D004F027FE280004F0A4FD8C
:104550008020039B0002434018000DB0F0BD0128ED
:1045600000D182E701213000FFF70CFFEDE7C046E4
:10457000B464FF1FA464FF1F010017000B780370D1
:104580004B784370CB788A781B0213434380704783
:104590000A88030002700A88120A42700A88012AF7
:1045A00006D14A8882704A88120AC2700420704775
:1045B00002208242FBD14A8804309A704A88120A4B
:1045C000DA708A881A718A88120A5A71EFE710B570
:1045D0000400012082420CD94B780A781B02134355
:1045E0002380834206D1CB788A781B0213436380F1
:1045F000002010BD022BFBD1CB788A781B0213431D
:1046000063804B790A791B021343A380F0E70B8880
:1046100003700B881B0A43704B8883704B881B0AFE
:10462000C3708B8803718B881B0A4371CB8883719D
:10463000CB881B0AC3710820704703000120082A99
:1046400014D14A780878120202431A80CA7888780E
:10465000120202435A804A790879120202439A8070
:10466000CA798879120202430020DA80704710B5B7
:1046700004000120022A05D100204B780A781B0291
:104680001343238010BDF8B5060010200F0015005D
:1046900004F0F2FD04000120002C0ED0A0230C2217
:1046A000290023806780201D002D07D004F034FCF2
:1046B0002100300004F090FD0020F8BD04F0F4FA71
:1046C000F6E7F7B51E00009008AB142017001D7820
:1046D000019104F0D1FD041E12D0A2230370019BAE
:1046E00047704380099B057146710C220830002BEE
:1046F00007D0190004F010FC2100009804F06CFDB4
:10470000F7BD099904F0D0FAF6E737B5041E0FD0CB
:104710004388002B0CD00025C1881323007A172270
:1047200001950095FFF7CDFFFF236580637225702B
:1047300037BD000010B50C4904004A88002A09D092
:104740008B89002B05D00020CB8A0222834201D026
:1047500010BD012213000A20434300204032C854F8
:10476000C81842800472F3E78664FF1F0023438069
:1047700003707047094B00211A0010B55C88002CAB
:1047800006D01C79844203D10A234B43D01810BDB4
:1047900001310A330329F1D10020F8E78664FF1FB5
:1047A00010B50400407A04F05FFAFF23637210BD75
:1047B0007047043010B580B204F076FD002803D0B5
:1047C0000421494204F000FC10BD000070B5002532
:1047D000124CA0682580A581A580A84202D004F0D3
:1047E000DBFCA56000250E4C0E4B606D1D80230088
:1047F00058331D70A84202D004F0CEFC6565002538
:104800006068002801D004F0C7FC013508340A2D87
:10481000F6D1054803F010F970BDC0464C65FF1F86
:10482000F064FF1F4065FF1FF298011170B5041E70
:104830000CD1074D2880A881A880A868002802D044
:1048400004F0AAFCAC60034803F0F6F870BDC04663
:104850004C65FF1FFE9801110023F0B54E884360A0
:104860000A7904000F0089B0022A00D08BE0C988C1
:1048700003291ED9BB685A781878120202430592A0
:10488000DA789D7812021543DA791B7A67481B02A1
:1048900013435BBA9AB20380059B04338B4227D142
:1048A000042D08D06B1F022B16D92900604803F095
:1048B000C3F801201AE05F4B3101CB5A002B0BD01B
:1048C000F4215D48FF3103F0B7F83000FFF7AEFF89
:1048D0005A4A1369013313610421059BB868238187
:1048E0002580494204F070FB6060002009B0F0BDF3
:1048F000524C042D0CD06B1F022B18D983212B0096
:104900004D48890003F098F8E3680133E360D0E78D
:10491000484B3101CB5A002B09D04748484903F096
:104920008BF83000FFF782FF236901332361414B8D
:10493000360106930023069AB3529319059A9D8077
:10494000100007939A81FFF734FF079B051E9860BC
:1049500015D00421B868494204F036FBFA880100FA
:10496000043A280004F0D8FA069AFB88B25A043BAD
:104970009B18069AB35223680133236099E7A36911
:104980000133A36195E72B4B310105933301069366
:10499000059B3001CB5A05990D18A968002B30D022
:1049A00000292ED0012A2CD1FA8805989446634418
:1049B0009BB232011352A88998421AD362469B1ABD
:1049C000C818B96804F0A8FA059B0699AA89CB5AB9
:1049D000934200D06DE70A0000212381AB88238039
:1049E000AB686360059BD152144A5368013353602E
:1049F0005FE7124A9368013393603000FFF716FFB8
:104A000057E70A4A059F1288029333019C46674480
:104A1000BB8900919921094C019363690948890078
:104A200003F00AF8636901336361E6E7B664FF1FC8
:104A30000A9901114C65FF1F23990111BC64FF1FE6
:104A4000130200003A99011170B5051E18D10D4CE2
:104A50000D4B1880230058331870606D002802D069
:104A600004F09AFB6565250050356068002801D088
:104A700004F092FB0834AC42F7D1044802F0DCFFAA
:104A800070BDC046F064FF1F4065FF1F61990111B2
:104A9000F0B51600A12285B09200019342433D4B30
:104AA00005001B680C009B18D933FF331F78FDF7F6
:104AB000D7FE0430874204DD2800FDF7D1FE043024
:104AC000C7B2B74207D3320000212800019B04F08F
:104AD000F3F905B0F0BD3900300004F005FA230009
:104AE000C5B250331D700393019B390063653000DC
:104AF00004F07AF9CBB20293002B02D0039B01356C
:104B00001D700026230050331B78B34204D8606D1B
:104B1000002839D10020DCE7029A3800002A04D0AE
:104B2000013B1000B34200D03800F5006519287031
:104B300004F0D2FA019B686001001A78164802F06E
:104B40007BFF686800280ED02A78019904F0E4F908
:104B5000019A2B780136D318104A0193D369F6B223
:104B60000133D361CEE72300503318706065A5424E
:104B700005D10A4A1320D36A0133D362A9E76068DA
:104B800004F00AFB0834F2E704F006FB0023636537
:104B9000C0E7C0463409FF1F6D990111BC64FF1FB7
:104BA000F7B50C0006000421606804F00DFA2389B3
:104BB0000500037023891B0A4370238883702388B0
:104BC0001B0AC370278902240437FFB2F42F15D8BB
:104BD000224B9E4214D10C2004F04EFB1134011ED6
:104BE0000CD0902303708E3B0371043B43801C4B1D
:104BF0008560C780187804F0EFFA00242000FEBD1D
:104C00005C217143174B591801930B0058331B78E3
:104C1000002B19D103003A003000FFF739FF041EC2
:104C200005D0114B22001148D96A02F005FF5C2320
:104C30007343019AD1180B0058331B78002BDDD138
:104C4000300004F099F8D9E7074A0948536A072465
:104C50000133536202F0F0FEE9E7C046FEFF0000B8
:104C6000B464FF1FF064FF1FBC64FF1F8199011132
:104C70009C990111F0B587B0009017200F00160025
:104C80000193FFF796FD1325041E19D00C98031EFF
:104C900002D00199201D9847030AE370052302AA58
:104CA000A0700430908127700098667003A99380EB
:104CB0000494FFF775FF051E02D0200004F06CFA83
:104CC000280007B0F0BD0000F0B587B01F000CABA6
:104CD0001B780391059301210DAB06001C7804920B
:104CE00000F0D6F81425002821D02000FFF722FD7F
:104CF0000135041E1BD01149059B0A78037001324F
:104D0000D2B2131EC68001D101231A000B7022718A
:104D10003000049B03990097FFF7ACFF051E09D1F3
:104D2000230021000648074A093304F0CDF8280083
:104D300007B0F0BD002363802370F8E7B864FF1F5D
:104D40000B47011130750000F8B505000E00064C48
:104D5000064F2368002B02D0310028009847043406
:104D6000BC42F6D1F8BDC0465C65FF1F7065FF1FF1
:104D70000123064A5B425380002313715362044AA5
:104D8000136053609360D360136170477065FF1FB9
:104D90005C65FF1F0200002310B506499C000859FE
:104DA000002801D1625010BD0133052BF6D113202C
:104DB000F9E7C0465C65FF1F034A5388181A43424F
:104DC00058414042104070477065FF1FF0B585B0F4
:104DD00002930AAB1F780CAB1B88009008000E00F2
:104DE00001920393FFF7E8FF05001120002D1BD16E
:104DF0000E48FFF7E1FF04001520002C14D0062216
:104E00000B99A771E01D04F087F8019B3000237116
:104E1000029B29006371009B66802370039B65627F
:104E2000E381FFF791FF280005B0F0BDFFFF000010
:104E300010B5FFF7C1FF04000220002C12D06088DB
:104E40000121FFF781FF606A002801D003F0F4FF21
:104E500028220021200003F027FF012300205B42CD
:104E60006380207110BD000030B5074A074C55889B
:104E7000010013780020A54204D05B1A59424B412F
:104E80005842104030BDC0467065FF1FFFFF000054
:104E9000084A10B501230C00904208D0FFF78CFFA0
:104EA000031E04D0037923405A1E9341DBB218003D
:104EB00010BDC046FEFF0000024B1879431E98410A
:104EC000C0B270477065FF1F70B504000D0016007A
:104ED000FFF772FF002804D10D4B9C4200D0143024
:104EE00070BD416A03790520002907D012221A40BB
:104EF000102A02D10520002EF2D10F20DB06EFD5BB
:104F0000897E0C20A9428941494249420840E7E78D
:104F1000FEFF0000030010B5002800D110BD0348BB
:104F2000034A41889142F9D09847F7E77065FF1F1F
:104F3000FFFF0000002330B5C45CCD5C6C40D4544E
:104F40000133102BF8D130BD0F23002210B5C45C03
:104F500064002243CA54C25CD209013BF7D210BD9F
:104F60000200010010B52032103103F0BDFE10BD6B
:104F7000F0B58BB00390102005931700049104F056
:104F80009BF90090102004F097F9009B13240190E6
:104F9000002B05D000280CD11324009803F04CFFFF
:104FA000019B002B02D0180003F046FF20000BB03D
:104FB000F0BD102004F080F90600102004F07CF908
:104FC00013240500002E00D1AEE0002819D01022D5
:104FD000002103F069FE32002900039803F084FEEB
:104FE000041E0ED133787F2B51D830000099FFF783
:104FF000ABFF009B1B787F2B53D801990098FFF7DC
:10500000A3FF300003F018FF002D02D0280003F0AA
:1050100013FF002CC1D1102004F04EF9060010201F
:1050200004F04AF90290002E7CD0002878D03A0093
:105030000F3223000125121105D00F333B4015B26A
:105040005A4253411BB26A1E1201002B33D0049BFB
:10505000D2B298180099029AFFF76CFF013D102216
:105060000021300003F020FEADB2049F2D017D1918
:10507000AF4242D0002C33D0300003F0DDFE029B63
:10508000002B00D189E7180003F0D6FE85E7290040
:105090003000FFF759FF28002549009AFFF74AFF23
:1050A000A7E729000098FFF74FFF28002049019A41
:1050B000FFF740FFA5E70F210F4004998A18D9B2E6
:1050C0008F4208D9D15C06A819540133102BF6D1B0
:1050D000029A0199C0E7791A48424141C901F2E7B1
:1050E0003900300006AAFFF725FF3200039806A911
:1050F00003F0FAFD10370400BAE7002CBCD13000F1
:10510000029906AAFFF716FF320006A9039803F0DA
:10511000EBFD082204003100059803F0FDFEABE72B
:105120001324A9E71324AAE7002800D06EE733E789
:10513000D09C0111F0B58BB00F0016000225009035
:1051400000283FD0002A3DD00B1DDBB2180002938F
:1051500004F0B2F81135041E34D0FDF7C1FC05008F
:105160003A000099201D03F08FFEEBB20393E37029
:105170002B0CDBB22F0A00936370FFB22B0E23704F
:10518000A7700193FDF7A6FC1022010006A803F00A
:105190007BFE2100029A04AB06A8FFF7E9FE051E7C
:1051A0000DD1039B08223370009B04A9B370019BAF
:1051B0007770F370301D03F067FEFDF797FC200059
:1051C00003F03AFE28000BB0F0BDF0B58FB00D0033
:1051D000149E039004920593002A03D10224200018
:1051E0000FB0F0BD002EF9D00398FFF7E5FD1424B1
:1051F000071EF4D07278337812021A43B3781B0476
:105200001343F27812061A43036A0192934201D3C0
:105210000133E3D1002D03D03B7901249B07DED578
:105220000822002106A803F03FFD059B1324043348
:10523000DBB21800029304F03FF8051ECFD0059AA8
:105240000499043003F020FE04223100280003F00A
:105250001BFE3900102210310AA803F015FE2900A8
:10526000029A06AB0AA8FFF783FE041E0FD108229C
:1052700006A908A803F008FE0822311D08A803F0BB
:10528000DBFE012807D101990398FDF743FC2800B4
:1052900003F0D2FDA3E70124F9E7000070B51C4C30
:1052A00005002368181E10D0002D14D11A78002A8A
:1052B0000CD1981C083203F02FFE03F025FE0135B7
:1052C000002808D123681D70012070BD0A33180022
:1052D000082203F021FE2368002BF5D0122003F0F2
:1052E000CBFF061E0DD0C12321680370457002312B
:1052F0001022023003F010FE23683100587803F0CA
:105300006BFF206803F098FD00232360DCE7C046B4
:105310009865FF1FF8B504002020FDF7CFFA154F60
:10532000A600F3590500002B1FD000280ED0D87816
:10533000FF280CD0290003F0FFFE002807D1F35905
:105340000D49DB780D48220002F076FBF8BD0C49D0
:105350002A000C55BB59611803330A4803F0B4FD09
:10536000BB590549DB780848EDE72100074802F002
:1053700063FBEBE7B465FF1FC09C0111AE990111FF
:105380009C65FF1FB9650111D8990111019A01119E
:1053900070B50B4C85002B590100002B0BD0DA782F
:1053A000084802F049FB2B59D87803F05DFCFF2236
:1053B0002B59DA7070BD044802F03EFBFAE7C04694
:1053C000B465FF1F1B9A0111019A011170B5060007
:1053D0008CB00C00150000213022684603F064FCFC
:1053E00031001022684603F04FFD1D2021000322EA
:1053F000684403F049FD6846FFF7B2FD2D21040023
:1054000003222800694403F03FFD20000CB070BD6A
:10541000F0B50700160097B001931CAB1D78302241
:105420001EAB00910AA800211C7803F03DFC10225D
:1054300039000AA803F028FD1022002102A803F079
:1054400033FC0722310002A803F01EFD072202AB45
:105450009818631E9C41019903F016FD02AB9C73E2
:105460002B005A1E934102AAD3730021102206A8D2
:1054700003F01AFC06221D9907A803F005FD1A2067
:1054800002ABC01806221F9903F0FEFC10220099FF
:105490000EA803F0F9FC102202AB0EA908781C78C4
:1054A000013A6040D2B2087001330131002AF5D1CF
:1054B0000AA8FFF755FD102212A904000EA803F058
:1054C0002BFD102206AB0EA908781D78013A684022
:1054D000D2B2087001330131002AF5D10AA8FFF7D2
:1054E0003FFD044310222098E4B212A903F0CCFC43
:1054F000200017B0F0BD70B50E0014008CB0010094
:10550000102268461D0003F0BFFC3100082204A8E9
:1055100003F0BAFC2100082206A803F0B5FC684697
:10552000FFF71EFD04001022280008A903F0ACFCC0
:1055300020000CB070BDF8B506000D00002437192E
:10554000AC4200D3F8BD03F0B7FB030A3B70631C09
:10555000DBB201379D4203D90234F054E4B2EEE7E6
:105560001C00EDE773B506000C000225002819D0D9
:10557000002917D0032101A8FFF7DDFF6B469A79B8
:105580003F231A40013313436A463000937101A947
:105590002200FFF71BFF051E04D10322E01C01A916
:1055A00003F0BAFC280076BD03785807DA08C00F6C
:1055B000D20080009B0710439B0F1843C0B2704776
:1055C00007230B40C908C9000B4303707047000054
:1055D00070B50400FFF7DCFE134DA4006359002BE7
:1055E00021D0186A002801D003F026FC2B59986EB0
:1055F000002801D003F020FC2B59D86E002801D0E0
:1056000003F01AFC2B59186F002801D003F014FC8A
:105610002B59586F002801D003F00EFC285903F0D5
:105620000BFC00232B5170BDB465FF1F0E4B800097
:10563000C35870B50C00002B0FD09D68002D0CD006
:105640002B78201D0B706B784B70A97CFFF7B8FF8F
:105650002B7E23726B69E36070BD10220021200055
:1056600003F022FBF8E7C046B465FF1F014B18604A
:105670007047C046B065FF1F074A0300800082588C
:1056800010B5002A06D0D088984203D1012901D153
:10569000FFF79EFF10BDC046B465FF1FF0B5264E54
:1056A00095B087000B93BB590500099112200A920F
:1056B000002B31D0D888FFF77FFB04001420002C8A
:1056C0002AD0280010A9FFF7B1FFBB591E781D6A28
:1056D000002E23D00895FDF743FA07000020FDF7C0
:1056E00045FA0790A379E61D069310AD0CA908981A
:1056F00000F0E2FA0EA9280000F0D7FA0B9B0A99F5
:105700000493069B09980293079B039601930097C5
:105710000EAB0CAAFFF77CFE15B0F0BDFDF720FA2A
:1057200006903000FDF722FAE31DA779079310AB2E
:1057300006000893DAE7C046B465FF1F30B50C4C8D
:1057400085002A59030085B00120002A0ED01800D8
:105750006946FFF76BFF2B591A78D888054B002A4A
:1057600000D1054B6A46072100F0D9FB05B030BDDA
:10577000B465FF1FAB5C0111B95C011130B5094C78
:105780008500295985B010226846253103F0C4FBF5
:105790002A591121044BD0886A4600F0C0FB05B09D
:1057A00030BDC046B465FF1F555D011130B5094CD1
:1057B0008500295985B010226846353103F0ACFBCD
:1057C0002A591121044BD0886A4600F0A8FB05B085
:1057D00030BDC046B465FF1F935D0111F7B54D4F55
:1057E00086001020F4590D0003F066FDF359206285
:1057F000186A132200286CD0033A29009C6803F031
:105800008BFBF3591A780192002A58D11E6A227D27
:10581000317B944651400122019F114201D16746DC
:105820001740217D914339432175377B4F40BC465A
:1058300060460027800701D44F081740012102204D
:105840008F40227D82433A432275377B5740BC46C6
:1058500060460027400701D497080F400420227DAE
:10586000BF0082433A432275627D0027944660461A
:10587000727B42400A4201D167460F400121627D9E
:105880008A433A436275777B5740BC46604600279F
:10589000800701D457080F400220627D7F008243B9
:1058A00017436775767B00227E40760701D4BA08DD
:1058B0000A400426617D9200B1430A4362756A780A
:1058C000002A08D06278002A05D005220533DA774D
:1058D00000221000FEBD04222979114205D1A17CCD
:1058E000114202D10533033AF1E7019A21782C786D
:1058F000002A02D10A002100140018220429E8D845
:10590000042CE6D805206043034A05331218525C84
:10591000DDE7C046B465FF1FE09C011110B50A0029
:105920001121024B00F0FBFA10BDC046EF5D0111E2
:105930000B0030B587B001AD2B806B460400110021
:10594000981D082203F0E8FA2A000B212000024BE0
:1059500000F0E5FA07B030BD175E011110B50A007E
:105960001121024B00F0DBFA10BDC0466B5E011145
:1059700013B50B0011006A4613706B460400062233
:10598000581C03F0C9FA6A4608212000014B00F0B8
:10599000C6FA13BD8B5E011110B50A001121024B2E
:1059A00000F0BDFA10BDC046DB5E01117FB50500F9
:1059B0000B4BAA00D4580800002C0FD0666F237F31
:1059C000E28821780396266F0296E66E0196A46E11
:1059D0000094FDF75DFB2800FFF7FAFD7FBDC04690
:1059E000B465FF1F10B51721FFF7E0FF10BD0000E1
:1059F00070B50A000D00064B0221040000F08FFA7A
:105A0000060029782000FFF7D1FF300070BDC046A6
:105A1000BB5D011170B586B000236A4613708368C0
:105A200004001D78681E0A2859D801A903F0ACF9B2
:105A3000060633373B3F43474B4F5300180000F0F7
:105A400042F9062312284BD000281BD16088FFF7AB
:105A5000B3F90823002813D04279002A47D1264BF6
:105A60001A78072312070BD5244B1A680723002A3C
:105A700006D01668002E03D0290001AAB047030003
:105A80006A4613706B461B786088002B2AD1FFF79B
:105A900041FC06B070BD180000F06CF9D4E71800A6
:105AA00000F087F9D0E7180000F093F9CCE7180070
:105AB00000F0ADF9C8E7180000F0C3F9C4E718001A
:105AC00000F0F6F9C0E7180000F0F6F9BCE718009E
:105AD00000F013FAB8E7180000F013FAB4E7072350
:105AE0006A46137069466088FFF782FFD1E7052395
:105AF000012AC5D1024BB8E74164FF1FAC65FF1F07
:105B0000B065FF1FF8B52C4F8600F35904000D0057
:105B1000002B40D0DA8882423DD15A78062A33D110
:105B20001A78002A2ED0012099681A6A097D01424C
:105B300006D0157B054203D007225A700120F8BD1C
:105B40000220014204D0157B054201D00922F4E76E
:105B50000420014204D0127B024201D00B22ECE768
:105B6000164B1B68002BE9D05B68002BE6D02000A9
:105B70009847BB5900215B78122BDFD12000FFF73B
:105B800015FFDBE70E4BECE7112A04D1002900D00A
:105B900032252900F2E7002D08D12000FFF70CF98B
:105BA000002803D010230279134303712100280039
:105BB000FDF7ECF9C2E7C046B465FF1FAC65FF1FF7
:105BC000B065FF1F70B50E4E8500AB590400002B69
:105BD00013D01B78002B11D10A4B1B68002B04D06B
